:020000041000EA
:4000000000400208230100100D00000085010010000000000000000000000000000000000000000000000000000000008101001000000000000000008101001081010010E9
:400040008101001081010010810100108101001081010010810100108101001081010010810100108101001081010010810100108101001081010010810100108101001060
:400080008101001081010010810100108101001081010010810100108101001081010010810100108101001081010010810100108101001081010010810100108101001020
:4000C00010B5064C2378002B07D1054B002B02D0044800E000BF0123237010BD8810000800000000C46D0010084B10B5002B03D00749084800E000BF07480368002B00D1A3
:4001000010BD064B002BFBD09847F9E7000000008C100008C46D001050020008000000007047FFF7FDFF72B60F4C104DAC4209DA21686268A368043B02DBC858D050FAE7B8
:400140000C34F3E70A490B4A0020521A02DD043A8850FCDC084809490860BFF34F8F00F00DF900F01DF8FEE7C8BC0110E0BC011088100008DC1D00080000000808ED00E02A
:40018000FEE7FEE700B504207146084202D0EFF3098001E0EFF30880043001F083FFFEE710B562B6002000F091FD044800F06CF906F0E8FE002002F0FDFCF9E7000008108C
:4001C00010B5002001F02AFB10BDC04670B56249E0239B00CB580F2213401A00D0329200525807210A40032A05D0042A06D0002A12D15A4814E05A4A106811E01A00C03290
:400200009200554952581F210A40112A06D0132A04D0FA20C00103E0524801E080200002002B36D14C4BB222D2009A5801211140B125ED005A59120F032422405B591B0F8B
:400240001C4207D0444C63591B0F03242340012B02D102E0012300E00023002B01D0002901D1032A4BD13C4BB022D2009D58AD03AD0B3D495958C904C90C9C58240E012356
:400280001C40013403F0F2FB6843210003F0EEFB35E0012B33D1304BC822D2009A5801251540C024E4001A59120F03210A401B591B0F194207D028490B591B0F03210B4034
:4002C000012B02D102E0012300E00023002B01D0002D01D1032A12D11F4DC022D200AB587F210B40A958090A1F263140AC58240C3440584303F0BAFB210003F0B7FBE0235F
:400300009B00154AD3581B0903221340D840144C6060164B1D692D0AFC32154001351969090E013103F0A2FBA060290003F09EFB0500E06020610E4BC0180E4903F096FB0B
:4003400020750D4BE818FA21890003F08FFBA061C003E06170BDC0460000264000127A00C000000800366E0184050000000021403F420F0040420F00E703000010B52848AE
:4003800002F0C4FC274CB022D200A3585B005B08A350E0218900635830208343635080235B04A350204A214BE250A02292010433E250FF221E4BE25002F096FCC02252008B
:4003C000A35801218B43A35000F090FBFFF7FEFEB0235B055B78002B04D0B0235B055B78DBB200E02123212B03D1124B0022DA605A60114C22008021042000F057FF2000B9
:40040000103001F031F80D4B1A685123D35C002B02D00B4801F09EF800F01CFD10BDC046DC6400100000264001000200840500008C050000E0002340A4100008D81D000863
:40044000E05500108023024AD3580320184070470000214010B501F0B8FE084980228C58074B2340074C23438B508823034AD358DB06FAD501F0ADFE10BDC046000021405B
:40048000FCFF00000100FA0570B50500830504D0E821FF310F4801F0CFFD01F096FE0400FFF7D0FF032801D1FFF7D4FF0A4AB0239B00D55080215058084B034008480343FE
:4004C00053508823044AD358DB06FAD5200001F080FE70BD1456001000002140FCFF00000300FA05FEE7C046F0B50025002711E0BB00C658F3B2FF22964308E06A008A18B8
:400500001478A419527822700135013BDBB2002BF4D10137002FEBD0F0BDC04680221206044B1A602022044B1A60044A044B1A607047C04600001D4100031D41010011809F
:40054000000E1F4110B50A00002105F00FF810BD10B505F002F810BD30B587B0544C554D63598022120613436351012001F03EFD6359C022D20513436351A021C9006258E5
:4005800003239A43134363504B4A116808688823CB58C31818684949084018601368186884241B59C01803681B021B0A80256D042B430360106805680359EB1818680140AE
:4005C000196013683E229A5C002A06D03848E02189004258753CA24342503E229A5C002A06D03348E021890042583024A24342503E229A5C002A07D02D48E0218900425835
:4006000080242406224342503E229A5C012A06D92748E121890042580F24A24342503E229A5C012A06D92248E121890042583024A24342503E229B5C012B07D91C49E122D2
:4006400092008B588020000603438B500021012001F062F90021022001F05EF90021032001F05AF90021042001F056F90021002001F052F901A8124903000A0032CA32C399
:4006800012CA12C301F09CF9002802D00420FFF729FF07490B4A8B588020000603438B50094801F049FA002810D00420FFF71AFF000026403C050000D81D0008FF00FFFF17
:4006C00034560010087F0000400D0300F04CF14BE158F14A0A40E250E158F04A0A40E250E25880252D062A43E250043BE158EC4A0A40E250E158EB4A0A40802149010A4367
:40070000E250E258802109020A43E250E64A1168E64B0B40802149000B431360002002F0C5FAE34BE2581543E550E158012291430A43E2503221012001F0CCFCDD4B1B6805
:400740003F229A5C022A06D970229A5C03210A40D949986842509A6874215B5AD218D168D64B0B40C02189000B43D360D14B1B6873229A5C03200400944070229A5C722167
:40078000595C15008D402900214302400A43802109060A438021C900986842509A6852583F229A5C132A0AD97122985C703A82401100032282400A40C149986842509A6897
:4007C00076215B5AD2181168BE4B0B40C02149010B431360B74B1B6873229A5C0324210091400A007021585C0231595C8840104371229A5C01219140944022000A4002438E
:40080000802109060A438021C900986842509A6852583F229A5C142A07D970229A5C07210A40C5210901986842509A6874215B5AD218D169A14B0B40C02149010B43D361CE
:400840009C4B1B6873229A5C0321914070229A5C7220185C140084402143072002400A43802109060A438021C900986842509A6852583F229A5C152A06D970229A5C052146
:400880000A409149986842509A6874215B5AD21851698A4B0B40C02149010B435361854B1B6873229A5C0321914070229A5C7220185C140084402143052002400A43802153
:4008C00009060A438021C900986842509A6852583F229A5C172A03D900217C4A986881509A6874215B5AD2181168744B0B40C02189000B4313606F4B1B687322995C703A73
:400900008A40110070229A5C7220185C82400A43802109060A438021C900986842509A6852583F229A5C1A2A06D970229A5C06210A406749986842509A6874215B5AD218AF
:4009400091695E4B0B40C02149010B439361594B1B6873229A5C0321914070229A5C7220185C140084402143062002400A43802109060A438021C900986842509A68525851
:400980003F229A5C1C2A07D970229A5C02210A40C7210901986842509A6874215B5AD3189968464A0A409A60424B1B6873229A5C0321914070229A5C7220185C140084403F
:4009C0002143022002400A43802109060A438021C900986842509A6852583F229A5C222A06D970229A5C01210A403A49986842509A6874215B5AD2185168304B0B40C0211C
:400A000089000B4353602B4B1B6873229A5C0321914070229A5C7220185C140084402143012002400A43802109060A438021C900986842509A6852583F229A5C392A06D9FB
:400A400070229A5C04210A402349986842509A6874215B5AD2181169184B0B40C02149010B431361134B1A687323D35C032199407023D35C7220105C1C008440214304206C
:400A800003400B43802109060B43802126E0C0460000264004050000FEFCFFFFFFFF00FFFFF0FFFFFF8FFFFF00002740FFFCFFFF0C050000D81D0008080C0000FF00FFFF9E
:400AC0004C0C0000FF0000FF540C00005C0C0000680C0000880C0000E40C0000C9009068435093685B5807B030BDC04670B58AB03221012001F0EEFA01F0C4FA002814D1CC
:400B000001F0B0FAC0235B005D4AD358DB0705D411005C4A8B585B005B088B505849594A8B588020000603438B50002001F0CEFE022001F033FF544A516C544B0B40E821BE
:400B400089010B435364536C1B0AFF2213403A2B07D14D4A516C4E4B0B40E82189010B435364FFF7F9FC4B4A4B4B1A6000240CE0620012195300494AD318198B9A8AD88A59
:400B800000041043FFF7DEFC01340B2CF0D900240AE0620012199300404AD3185A6E196ED86DFFF7D5FC0134112CF2D93C4D2900343128003C30FFF797FC3A4A1168022348
:400BC0000B43136001AC22002B00403343CB43C243CB43C243CB43C22100334800F046FA22002B00643323CB23C223CB23C223CB23C221002D4800F039FA2D4D22002B00E5
:400C0000083343CB43C243CB43C243CB43C22100284800F02BFA24220021200004F0A6FC254BE3602100254800F020FA22002B002C3343CB43C243CB43C243CB43C221002C
:400C40001F4800F013FA22002B00503323CB23C223CB23C223CB23C221001A4800F006FA24220021200004F081FCCC23DB05E3602100154800F0FAF9FFF750FC0AB070BDC0
:400C8000000026400C05000000002740FF00FFFFFFC5FFDF0300FA05F00121403456001034570010007934400000324080023240B457001000033240800600608003324070
:400CC00080043240000532400006324010B5054802F07CF80122044B1A70002801D102F081F810BDE000000834120008C00543425841C0B27047C046214B984230D00ED8F5
:400D0000402831D004D800281FD010282AD031E080282BD080235B00984229D02AE0194B984229D007D8A0231B0698420DD0164B984212D01EE0154B98420AD0144B98427D
:400D400009D0144B984215D101E0002016E0124814E0124812E0124810E0A020C0030DE007480BE00F4809E00F4807E00F4805E0034803E00E4801E0A420C0037047C04693
:400D800006005200010000F0090000A0040000F0050000F0030000F0010052000200520003005200010050000200500005005200FF00520070B5124B1A683123D35C002B6C
:400DC00004D1C421FF310F4801F036F90C4B1D682C00B423EB582A6A944663441B68002B0BDB094B1868FFF787FF6B6801229A6063689B68002BFBD100E0044870BDC04663
:400E0000D81D000858610010381200080200500010B50D4B1861002805D002230370FD33437000234380094B1B6850229A5C002A08D051229B5C002B04D04F3A04490020B4
:400E400000F042FC10BDC04638120008D81D0008C902000810B502481430FFF7D9FF10BD3812000870B504000D00FFF73FFF002836D0002D36D0FFF7A9F91B4B1B4A1A6067
:400E800000225A609C60DD60194B1B6852329A5C002A1FD01A6884215B58D31819681A68120AFF2313405A1C0B0E01335343114C5C43114B1868FA21890002F0D7FD0100AE
:400EC000200002F0D3FD0D4BC1188020400004F077FB08E000218020400004F071FB02E0074800E0064870BD3812000800010005D81D0008C0EA2101C40000084826000069
:400F00000600520010B5FFF755FF10BD10B50400FFF7ECFE00283ED0FFF758F9E02252051E4B1A601E4B1B78002B05D01B4A1368802149000B431360184B5C6000229A6059
:400F4000DA60184B1B6854329A5C002A1ED01A6884215B58D31819681A68120AFF2313405A1C0B0E013353430F4C5C430F4B1868FA21890002F07AFD0100200002F076FDA4
:400F80000B4BC118002004F01BFB05E00021002004F016FB00E0074810BDC046381200080B000016D81D000860F59000C4000008980800000600520070B504000D00FFF766
:400FC00095FE002842D0002D42D0FFF7FFF8C022D204204B1A60204B1B78002B05D01D4A1368802149000B4313601A4B802252005A609C60DD60194B1B68AD3A9A5C002A96
:401000001FD01A6884215B58D31819681A68120AFF2313405A1C0B0E01335343104C5C43104B1868FA21890002F020FD0100200002F01CFDE1239B00C118002004F0C0FA14
:4010400007E00021002004F0BBFA02E0064800E0054870BD381200080B000016D81D0008808D5B00C40000080600520070B505000C0000285DD000295DD0FF230A689A43C7
:4010800003D099212D4800F0D7FFFF2322699A4303D09A21294800F0CFFFA3685B0D03D09B21264800F0C8FF63685B0A03D09C21224800F0C1FFE3695B0F03D09D211F4872
:4010C00000F0BAFF236A5B0F03D09E211B4800F0B3FF1B4A11688B69EB1ADB0949691B01CB18216829607D211068415C6918E06808607E211068415C6918206908607F2191
:401100001068415C6918606908607C211068415C6918A06808606168A961116880228A5CAD18A2692A60E2691A60226A5A60002002E0044800E0034870BDC0469861001057
:40114000D81D000801005A0070B504000D000A4B1A68B423D3581B181B68002B0ADA0B0C03D00649064800F067FF2D042D0C6560002000E0034870BDD81D0008D5020000EB
:401180001862001001008A0070B505000C000368002B01DA002300E0084B002B0BD1EA60230C03D00649074800F046FF2404240CAC60002000E0014870BDC04601008A008C
:4011C000BB0200001862001070B505000C1E03D19921084800F030FF074B1A68B423D3585B191B68002B03DAEB682360002000E0024870BD58620010D81D000801008A00E3
:4012000070B504000D00234B1A683123D35C834236D9002936D00B68DB0635D13123D35C984204D3C421FF311B4800F005FF194B1B681A6AB0215B5A5C431419174E346052
:401240002B68DA080021686804F090F900212000FFF77AFF3468002D03D111490E4800F0EBFE2A0000212000FFF78EFF00280DD10A4B18680021FFF767FF002808D108E086
:40128000084806E0074804E0064802E0064800E0054870BDD81D000818620010501200089303000003018A0001018A0010B50400002A17D1002915D1124B1A683123D35C00
:4012C000984204D3C421FF310F4800F0B5FE0D4B1B681A6AB0215B5A5C4314190B4B1C6000200EE0002A09D0002909D0074B59609A60191D2000FFF783FF02E0044800E0B7
:40130000034810BDD81D0008186200105012000803018A00F0B583B00D001C4B1B68DC68236883422DD947097B01C01A012383401E00002903D100F048FF019001E0002339
:401340000193124B18680368002B01DA002300E00F4B002B0ED16368BF00DF193B68334203D133433B60002400E00A4C0021FFF7EBFE00E0084C002D04D1019800F029FF64
:4013800000E0064C200003B0F0BDC0465012000801008A00020188000301880004018A00F0B583B00D001C4B1B68DC68236883422DD947097B01C01A012383401E0000299D
:4013C00003D100F002FF019001E000230193124B18680368002B01DA002300E00F4B002B0ED16368BF00DF193B68334203D0B3433B60002400E00A4C0021FFF7A5FE00E058
:40140000084C002D04D1019800F0E3FE00E0064C200003B0F0BDC0465012000801008A00020188000301880004018A000A4B1B68DA68136883420BD943095901401A012139
:40144000814052689B009B580B4203D0034802E0034800E003487047501200080101880004018A0000018800034B1B68002B01D1014B18607047C0465C120008F0B54746E6
:4014800080B404000F0090461E002D4B1B68002B03D1B5212B4800F0CFFD294B1B682C2060431C18FF22150035402560330A13406360360CA660244B1A683123D35C9D42BA
:4014C00004D3C421FF31214800F0B6FD1E4B1A68B023D35A6B43116A8C466344236166683223D35C9E4204D3E021FF31174800F0A3FD154B1B681D6A80367601AD19656197
:40150000A668330C04D0FF214900104800F094FD330C03D00E490D4800F08EFD3604330C1E43AE604346E36127620023A361069B002B02D000229B5EA38104BC9046F0BD8A
:401540005C12000898620010D81D000818620010FF010000F0B58FB0041E03D15221294800F06AFD6368032B03D95421254800F063FDE36A002B03D15821224800F05CFDD0
:40158000236B002B03D159211E4800F055FD07AA1300210061C961C321C921C302AD290023001433C1CBC1C141CB41C10821535E0CAE3380144B1B6836215B5E07998C4672
:4015C0006344B370089B0D930B9B0A980096A26AE16AFFF753FF2B69E868002200920021FFF74CFF216B300000F09EFC0023F25E002A05DB1F231A401E3B9340034A13601C
:401600000FB0F0BD98620010D81D000800E100E0F8B505000F0016001C00002A03D1FD21224800F009FD224B1B68002B03D1FE211E4800F001FD1E4B1B682C2128004843B9
:40164000181879435918012213004D68AB401B044568AA4015000269002A20D08F69002F1FD11268002A01DA002200E0114A002A19D132681204120C134333600369DE607F
:4016800001238B614C6204692B0C03D00A490B4800F0D2FC2A04120CA260002004E0084802E0084800E00748F8BDC046986200105C12000801008A00BB0200001862001081
:4016C00004028A0007028A0070B504000D0016000F4B1B68002B04D1AF2149000D4800F0ABFC0B4B1B682C2060431C18236A002B04D1B1214900074800F09EFCE369B342DB
:4017000004D9236AB6009D51002000E0024870BD5C120008986200100A028A0070B505000C00084B1B68002B04D1C8214900064800F082FC034B1B682C2068431818846236
:4017400070BDC0465C1200089862001070B582B0040000230193002804D1D221FF312D4800F06AFC2369002B04D1E9214900294800F062FC6369002B04D1D421FF312548BD
:4017800000F05AFC236A002B04D1EA214900214800F052FC6269D5682B0C24D01B041360136820691C4B1A68B423D358C3181B68002B18DA01A9FFF707FD00280ED10198E8
:4017C00003681E0CFF221340E269934207D29B00226AD358002B02D0984700E0002631002069FFF7B1FC2D042D0C0FD063691D601B68636A002B03D098470023636203E0CC
:40180000A36A002B00D098470023A36163691B6802B070BD98620010D81D000810B50400084B1B68002B04D1B221FF31064800F003FC044B1B682C2060431818FFF786FF1A
:4018400010BDC0465C1200089862001010B504000E4B1B68002B03D10D490E4800F0ECFB0A4B1B682C20604318180C23C25E002A0ADB1F231A401E3B9340802206498B5005
:40188000BFF34F8FBFF36F8F002010BD5C1200082B0200009862001000E100E010B504000C4B1B68002B03D10B490C4800F0C4FB084B1B682C20604318180C23C25E002A26
:4018C00005DB1F231A401E3B9340054A1360002010BDC0465C1200084B0200009862001000E100E010B50400094B1B689B6CC340DB0703D4BE21074800F09EFB044B1B6811
:401900001B691034A402E3580F20184010BDC046D81D0008D8620010134B1A683C23D35C83421DD9042904D94B1EFF3B9BB2132B18D8FF290CD91F2319400C4A0300C03318
:401940009B009950D03080000423835000200AE007231940D0308000044BC150002002E0034800E002487047D81D00080000264001004A0010B504000E4B1A683C23D35CEE
:40198000834204D8A12149000B4800F055FB2300D0339B00094A985807231840042807D1C034A400A3581B30184080235B00184310BDC046D81D000818630010000026400E
:4019C00070B5041E03D14A494A4800F035FBB023DB00494AD358002B00DA87E0474B22689A4203D94649434800F026FB23689B039B0BE279002A02D08022520400E0002290
:401A00001343B022D2003C498B50A2883D4B9A4204D98C218900374800F00EFB22893A4B9A4203D93949334800F006FBA388DB04D90C23891B04364A13400B43354A2E498C
:401A40008B50A37A0F2B04D98E218900294800F0F3FAE37A0F2B03D92F49264800F0ECFAA289284B9A4203D92C49224800F0E4FAA37A0F211940E27A1201FF2313400B43C7
:401A8000A289120226490A401343A27B1207C02189050A401343B122D20017498B50A379042B03D91F49134800F0C6FA228A164B9A4204D9912189000E4800F0BDFA0E48C5
:401AC00019494558194B1D40A3791B02E022D20013402B4343504558154B1D40238A1B040B4A13402B434350002000E0114870BD1F0200001863001000002640FFFF03005D
:401B000029020000FF1F0000FF010000310200000000FF0184050000390200003A02000000FF1F00430200008C050000FFF8FFFFFFFF00FE03004A0070B505003149324AD7
:401B40008B588020000603438B502C0003E0012000F066FA013CB223DB002A4AD3585B0701D4002CF3D12749B122D2008858274B03408020800503438B50002D01D0002C6E
:401B80000CD02049B022D2008B588020000603438B5003E0012000F043FA013CB223DB00184AD358DB0701D4002CF3D1002D01D0002C08D01349B122D2008B58C0208005F5
:401BC00003438B5013E00F4BB121C90058580F4A02408020800502435A5008395A58520052085A5008495A58520052085A50002D03D0002C03D0002002E0002000E004488E
:401C000070BDC046000026408C050000FFFFFFCF02004A00F0B5564CA04200D9A2E0A24200D9A1E0534B994200D99FE00124524B1C70FF2805D80F2505400E340F26072363
:401C400021E04E4B984205D80F2303400F240026002518E0040A0F2323401D00484B984208D80001FF2318402B000343FF240026002508E00402F020000120402B000343F1
:401C8000404C00260025FF2A0DD81201FF2002401543E020C0021843F0231E43F0231B0323439C4625E03548824207D81004F022120310401843224394461AE0100A000407
:401CC000F0273F03384018432D4B9A4209D81205F0231B0413401843FF231B0423439C4607E01206F0231B051A401043264B23439C46264B1A68176AB023D45AE200131BE6
:401D0000FB181B68002BF4DA1B4B5B78002B04D01F4B204AD358002B18DA1F4A1F4B1A601F4A204B1A601B4AA324E4001359B3431D4315511C4C13596546AB4318431051C4
:401D40000D4B5960124BD150002000E017480F4B1A68146AB023D15ACA00531AE31800225A6004E0114802E0104800E00F48F0BD0F060000FFFFFF0060120008FF04000025
:401D8000FF0500000F0F000000000F0FD81D00081C050000000026401F1F0000080126403D3D0000040126401405000001004A0070B50022264B1A70264B1C68226AB023D3
:401DC000E55AEC00631BD3181C68002CF4DA224A1468224A944206D1214A1468214A944203D0002502E0002500E00125A422D2001D4CA4582402240A00225A60002D24D055
:401E0000002C23D000280FD1114B58680A000023002101F0C1FF6208002380185941220001F09AFF040011E00A0000232000002101F0B2FF064B5A68540800250019694199
:401E4000002301F089FF040000E00024200070BD60120008D81D0008080126401F1F0000040126403D3D00000000264070B505000C001A4B1B6828229A5C012A15D1820809
:401E800007211000884327D19200AD1AED00FF20A8401B6820339A181168AC4023004B40184004004C40146016E03A229B5EDBB2994203D176210A4800F0BEF8074B1B68F8
:401EC0001B68072215408022120615438022920194466444A400E55070BDC046D81D0008A063001070B504000D000B4B9A680B4B9A420CD1002904D13821FF31084800F098
:401F00009BF81034054BA400E058E55003E01034A400044BE05870BD00ED00E000000008A063001000000010F0B5474680B482B0061E01914AD04368032B03D93221264814
:401F400000F07AF80023F05E002804DBB178FFF78DFF002400E0214C0023F15E7368002912DB88081E4FC0308000C55903221140C900FC3290468A4095439A014346134021
:401F80008B402B43C35116E089B20F220A40083A92080632920013481018476803221140C900FF252A008A4097439A012B0013408B403B4343600B4B9A680B4B9A4206D1B9
:401FC0000023F05E0199FFF78DFF00E0034C200002B004BC9046F0BDA06300100100560000E100E000ED00E00000000810B5040006E0084B186800F0DFF8074B9C466444EB
:4020000080231B029C42F4D8044B1868604300F0D3F810BDDC0000080080FFFFD800000810B5034B1B78584300F0C6F810BDC046D400000801BEFEE770B50D00044C1822FC
:402040000100200003F09AFAA5610020FFF7F2FF68070008024B1B685B6801229A607047D81D0008054B802212069A649B6C002B01DB002000E002487047C046000027404C
:4020800003004600054B8022120198585B68FF221A4202D08023DB021843704700002640FEE7C04610B50A4B0268DA6142681A6282685A62C2689A620269DA6242691A636D
:4020C00082695A63C2699A63FFF7EAFF10BDC04668070008F0B5474680B4002801D0192300E064238B429B415B42304D2C682268A826A45BA41822680327BA433B401A43F2
:4021000022602C682268A45BA2181668284CA046264016602C682668AA229446A25A96193268BA43134333602A6813686546525BD3181A68444614401C60002805D010293D
:402140001BD921291BD8012024E0184B1B6855229A5C914215D956229A5C914213D957229A5C914211D958229A5C91420FD959229B5C99420DD804200CE000200AE0022003
:4021800008E0002006E0012004E0022002E0032000E00520054A1268526813680F218B430343136004BC9046F0BDC046D81D0008FFFCFFFF000000000230800803D001304E
:4021C0000238FCD1C046C0467047EFF3108072B6704780F31088704710B5B0235B059B899BB2002B04D0B0235B059B899BB201E080235B0080225200934215D1184C236879
:402200001968683A9B58C9180B680F208343963A13430B6021680C689C23CB58E318196881430A431A6019E00D4C2368196898229B58C918B02040050A4BC2580A4B1340B0
:402240000A681343C022920013430B60226811689C23D358CB18054A82581A6010BDC046D81D000848180000FFFCFFFF4418000030B5B0235B059B899BB2002B04D0B0230E
:402280005B059B899BB201E080235B0080225200934215D1184C23681968683A9B58C9180B680F208343953A13430B6021680C689C23CB58E318196881430A431A6019E002
:4022C0000D4D2B68196898229B58C918B0246405C12040012258094B13400A681343C022920013430B602A6811689C23D358CB1822581A6030BDC046D81D0008FFFCFFFFB0
:40230000B0235B059B899BB2002B04D0B0235B059B899BB201E080235B008022520093420DD1104B1B681A6898215B58D21811680D4B0B40C021C9010B43136011E0094B4D
:402340001B68196898229B58C918084BB0225205D258074B13400A681343C022920013430B607047D81D0008FF8FFFFF18180000FFFCFFFF30B5B0235B059B899BB2002B66
:4023800004D0B0235B059B899BB201E080235B008022520093420DD1134B1B681A6898215B58D2181168114B0B408021C9010B43136018E00C4D2B68196898229B58C91827
:4023C000B02464050A4822580A4B13400A681343C022920013430B602A6811689C23D358CB1822581A6030BDD81D0008FF8FFFFF4C180000FFFCFFFF10B5B0235B059B8974
:402400009BB2002B04D0B0235B059B899BB201E080235B0080225200934217D10020FFF761FAB0235B055B78002B04D0B0235B055B78DBB200E02123222B03D8002803D1CB
:40244000013004E0012002E0002000E0012010BD10B50400012803D910491148FFF7ECFD002C03D10F4B5869C00F00E000200E4B1A684423D35C002B0ED0012C0CD1094B35
:402480009B695B0005D4074B9B69002B03DA012002E0012000E0002010BDC04662070000E463001000002640D81D000870B504000D00154B1A684423D35C002B22D0072872
:4024C00003D912491248FFF7B7FD0F4B1A684423D35C002B04D00F4B9B690722134000E0002321009C420DD00A4882690726B243344014438461002D04D0994202D9C820C9
:40250000FFF78EFD70BDC046D81D0008CC070000E46300100000264030B5021E22D0C368002B21D00368002B20D00579A900104BCC582300002103E0934205D019005B6942
:40254000002BF9D1012000E0002000280FD0002C03D1AD00064BEA5000E04A6111610023536104E0002002E0002000E0002030BD6C12000830B585B004000D00022807D984
:40258000042805D0032803D02A492B48FFF754FD6B1EDBB2012B07D9042D05D0082D03D026492548FFF748FDA400254BE458042D13D0012D1CD112E0A3682B420BD1E36898
:4025C0001A6802925B6801930393290002A8236898471B4B5C61646902E0002000E00020002C24D0174B9842E6D1012DE4D11EE0022D01D104E01C006369002BFBD104E00D
:402600000F4B5C69002C00D0246900200DE0A3682B4209D1E3681A6802925B6801930393290002A8236898472469002CEFD105B030BDC046B2090000E4630010B309000019
:402640006C120008FF00420070B50500012804D9E02149001B48FFF7EFFC1B4B1B68002B05D001210020FFF785FF040000E00024002C20D1FFF7A9FD0600134B1B68002B5D
:4026800003D004210020FFF775FF104A136904218B431361012D01D030BF00E020BF3000FFF797FD084B1B68002B09D008210020FFF760FF04E002210020FFF75BFF044CB5
:4026C000200070BDE46300106C12000800ED00E0FF00420010B5FFF778FD074B5A6807490A40E824A40122435A605A68114059605B68FFF76EFD10BD00002640FF00FC0FC7
:40270000F8B50700012803D93D493E48FFF794FCB0235B055B78002B04D0B0235B055B78DBB200E021239DB2B0235B059B899BB2002B04D0B0235B059E89B6B201E0802657
:4027400076000020FFF7CEF8002814D180235B009E4212D1222D12D82B4B1B685C682B4821582B4B19403B068022520413400B432350002404E0274C02E0264C00E0254C1B
:4027800080235B009E4201D1222D03D880235B009E4232D01C4B1A683123D35C002B04D1C421FF311C48FFF747FC174B1B681D6A80235B009E4203D1002F05D0174A06E0D8
:4027C000002F03D0164A02E0164A00E0164A01212800FEF7D9FC00280FD10B4B1A68B423D3585B191B68002BF7DBEB681B0E1B06A0221206934200D100242000F8BDC046EF
:402800004C0A0000E4630010D81D000818F00000FFFFFFFE0400420058610010010100300300000C010000300100000C70B50400022805D0052803D020492148FFF7FCFB76
:40284000FFF7DAFD002836D0FFF7BFFC0600022C07D10120FFF754FF051E0FD1FFF7BCFC0CE018494B6907229343043A13434B613420FFF7D5FBFFF77DFD0025002D16D182
:4028800010494B69072293431A000723234013434B61022C02D1FFF733FD08E09120FFF7BFFBFFF7E5FC0020FFF72AFF05003000FFF78FFC00E0044D280070BD0207000098
:4028C000E46300100000264003004200F8B50500012804D9822109012948FFF7ADFBFFF78BFD002849D0FFF770FC0700002D11D10021244B244AD150E823DB00B0225205FD
:40290000D65CF6B20120FFF7FBFE041E19D1FFF763FC16E0B02252051C4BD0581A4B194958501B49565CF6B21A481A581F218A4314390A431A500320FFF772FBFFF71AFDF9
:402940000024002C15D11049124A8B581F20834306401E438E50002D02D1FFF7D1FC08E00720FFF75DFBFFF783FC0020FFF7C8FE04003800FFF72DFC00E0074C2000F8BD2B
:40298000E4630010307F00000000264010180000410700001CFF000003004200F8B50400022806D0052804D0CC21C9003E48FFF743FB3E4B1B681B0268D4FFF706FC070055
:4029C000022C1CD13A4B394AD3581F221340E822D200B02149058A5C9A4204D00020FFF775FF050000E00025002D09D12F48304943581F229343143A1343435000E02D4D96
:402A0000052C1BD12A4B294AD3581F221340E822D200B02149058A5C9A4204D10120FFF755FF050000E00025002D07D11F48204943581F229343043A13434350002D21D1FE
:402A40000920FFF7EDFA194E3368E022D20313433360726907239A431C401443746173698022D2051343736173698022120613437361E1208000FFF7D3FA3368802212044E
:402A8000134333603800FFF7A4FB0BE0074B5B69072213409C4204D02000FFF7C7FE050000E000252800F8BDE4630010000026401CFF00000300420010B5041E03D1154939
:402AC0001548FFF7B9FA154B1A68D168F222D2018A5822601B68F022D201D9688A5862600F4AD9688A58A2600E4AD9688A58E2600D4AD9688A5822610C4AD9688A586261A9
:402B00000B4AD9688A58A261DA680A4BD358E36110BDC046A10A0000E4630010D81D000804780000087800000C78000010780000147800001878000010B5041E03D1144906
:402B40001448FFF779FA144B1B68F022D201D96860688850114AD968A0688850104AD968E06888500F4AD968206988500E4AD968606988500D4AD968A06988500C4AD9686C
:402B8000E0698850DA682168F223DB01D15010BDC90A0000E4630010D81D000804780000087800000C78000010780000147800001878000070B50500012804D9A62189007F
:402BC0003548FFF739FA354B5B68002B05D001210120FFF7CFFC040000E00024002C53D1FFF7F3FA06002D4B5B68002B03D004210120FFF7BFFC2A4B1B6843229A5C002AFA
:402C000008D09A68E023D358DB0603D523481830FFF752FFB0235B059B899BB2002B04D0B0235B059B899BB201E080235B0080225200934203D1280002F0CAFC09E0194AEA
:402C4000116904230B431361012D01D030BF00E020BF134B1B6843229A5C002A08D09A68E023D358DB0603D50C481830FFF764FF3000FFF7AEFA094B5B68002B09D0082116
:402C80000120FFF777FC04E002210120FFF772FC054C200070BDC046E46300106C120008D81D000800ED00E0FF004200042805D10B4A116804230B4313600FE0094B1A68F5
:402CC0001168A023D358CB180006C022920410401860034A136804218B4313607047C04610E000E0D81D00080749C02252008B589B009B088020C00503438B508B588020DE
:402D0000000603438B50704700002640014B18607047C046D81D000870B5012902D0082940D045E00320FEF781FB254B984241D000F07AFE01283FD0022004F027F9050080
:402D4000FFF743FA1F4B186004F024F90400062817D0022D0AD1022005F058FF032C01D0052C10D1002810D0174C13E0012005F04DFF022C0BD000280BD1FFF765FC124C08
:402D800008E0002406E0104C04E0002402E00E4C00E00D4C0C4B9C420FD10A4B1868FFF718FA0AE0074B1868FFF713FA002404E0054C02E0044C00E0034C200070BDC0468A
:402DC00001018800A4120008FF004200002803D0024B5860002000E001487047A41200080100160010B594B001AC4C220021200002F0BCFB154BA3811B2323836383183BC6
:402E000023770133637708221D33E25438322333E2523F3A0433E2540D48FFF77DFB07A804F0E8F800280ED10A4B02930A4B5B685968002904D022222630684402F08DFB93
:402E400001A804F0ABF814B010BDC046E4080000E8000008A4070008A4120008014B024AD050704778F0010000003C4010B50CF02BFE10BD10B5024B1B68984710BDC046DC
:402E8000B412000810B5002809D0FA23FF33994207D80A00044902F060FB002002E0034800E0024810BDC0460708001601001600F0B55F4656464D464446F0B4B14CA544BE
:402EC00081460E00904605930B00AF4A914204D942468A18AD498A4211D9AD4A934204D94246B218AB498A4209D9AB4A934200D823E14346F318A94A934200D922E1A84B97
:402F00005B695B0010D5A64B5B6907241C40022C25D10520FFF78AFC0190A24B9842F8D003940123049324E09F4B9D4AD3581F221A40E823DB00B0214905CB5C9B1A5A1E26
:402F40009341DBB20493002B0FD10120FFF7BEFC944B9842F9D001900523039309E00394012304930023019303E005230393002301938E4B019A9A4204D1D621FF318C4842
:402F8000FFF75AF8F0231B069C466644730A9A465C0200210320FEF7BDF90028F9D100250023029399E0B4421BD3BD4219D24A4652191078804606A84146C15459460029EE
:402FC0000DD1802149058846A044414609786846017001781278914201D001229346013505E080225205A218127806A8C2540134013304E0002100238B46844647466D4AFC
:403000009342D0D959466046B846002962D0019B002B5FD1059B002B51D1C83300951D00B3465646A24680231B03F7187F023800FDF76CFF0400013D0120FEF7F1FFA4236F
:40304000DB0322001A409A4201D1002DEBD122000294009D5446B2465E46574B9A4205D1FDF750FF554B9842FAD00290029B002B19D1C83300971F00A34606A90098FDF7E0
:403080009BFF0400013F0120FEF7CAFFA423DB0322001A409A4204D1002FEED102945C4601E002945C46444B029A9A4211D1FDF729FF424B9842FAD0029001200AE08020CF
:4030C00000035044400206A9FDF7CCFE0290012000E0012001239C46E244029B019A134301D1454586D3002801D0FEF7B3FF00210320FEF755F90028F9D1019B002B25D191
:40310000274B5B695B0009D5039B022B06D10220FFF78CFB0190234B9842F8D0204B1B681B0213D4049B002B10D10020FFF7CEFB01901C4B9842F8D008E000230193204B1E
:40314000029303E0002301931D4B0293019B002B0CD11C4B029999420AD0194B994207D0002901D1002004E0174802E0174800E0174887239B009D443CBC90469946A24619
:40318000AB46F0BDE4FDFFFFFFFFFF0F00001010FFFFFF1300800014FF070016000A001600002640040042001CFF00000300420094650010FF0100000100500002005000CE
:4031C000060052000200520013001600120016000100160010B500280AD0FA23FF33994208D8F93BFF3B0A000349FFF761FE02E0024800E0014810BD070800160100160073
:403200000020704710B50C000088AE235843044B9C4660440A2100F029FC208010BDC04691FCFFFF10B50C000023C05E044B5843044900F0A5FCBD23181A208010BDC04680
:403240004B280000102700000020704710B5FEF7E7FE10BD064B1B681B6800229A5E002A05DB1F231A401E3B9340024A13607047A812000800E100E0094B1B681B680022A9
:403280009A5E002A0ADB1F231A401E3B9340802204498B50BFF34F8FBFF36F8F7047C046A812000800E100E0A023DB00024AD358032018407047C04600002640024B034AA8
:4032C000D058C00F7047C0461C0500000000264010B5FEF76DFD10BD70B504000D0016000320FEF7A3F8054B984205D0320029002000FEF78FFC00E0014870BD01018800C9
:4033000003004A0070B5431ADC171B196340934227D3164B164CE458A405A40D884208D9401A51084018110000F0A0FB201A0ED50AE0081A51084018110000F097FB0019F4
:403340000C4B984202D802E0002000E00A48084D06496B589B0A9B028205920D13436B5001E000240020201A70BDC0463C05000000002640FE030000FF03000010B5034BDF
:403380001A6880210902FFF7BDFF10BD0001000810B500F0E5F90220FFF760FD094C236818680949FEF7C0FD23681B6800229A5E002A05DB1F231A401E3B9340034A136031
:4033C00010BDC046A81200086D2E001000E100E00420704710B5FEF7F8FE10BD10B5FEF7F8FE10BD10B5FFF72FF910BD10B50021FFF75CF810BDC04610B50020FEF74EFA22
:4034000010BDC04610B50020FEF720FA10BDC04610B5074B1960012201000020FEF754F9002803D100220349FEF74EF910BDC046B4120008752E001070B50B00150002009B
:4034400000210120FEF7E4F8041E03D029000020FEF764F9200070BD70B50D000F4B184300040F4BD861FA24A40003E0013C0120FEF7D6FD0A4B1B6CDB0701D4002CF5D18E
:40348000002C08D0064B196C01220A431A64DB6A2B80002000E0034870BDC0460080FFFF00003C400400160010B500040E4B184001430E4BD961FA24A40003E0013C01206E
:4034C000FEF7AEFD094B1B6CDB0701D4002CF5D1002C06D0054A116C01230B431364002000E0034810BDC0460000FF7F00003C4004001600F0B583B006000A24C021490188
:403500007548FFF7D1FF002804D16B46991D7248FFF7A2FF002C01D0013C00E06F48002805D16B46DA88C0235B019A42E6D1002825D16B46991D6A48FFF78EFF00281ED1CE
:403540006B4606331B885B0519D40A248021C9006348FFF7A9FF002804D16B46991D6048FFF77AFF002C01D0013C00E05B48002805D16B46DA888023DB009A42E6D100280E
:4035800004D16B46991D5748FFF766FF002844D16B4606331B883F229343B278012A15D1F178012904D88FB20222D21B95B201E000250227402213439BB2302213436A4605
:4035C000D380494BCB40494A136013E0F178002904D18FB20122D21B95B201E00025012740229343102213436A46D380404BCB403E4A13606B469C1DD9883943D98039483E
:40360000FFF752FFF378DB1B03221340AA0092B213432380374A38498B50B0235B055B78002B04D0B0235B055B78DBB200E02123212B4FD0314BB0225205D35A9BB2002B35
:4036400048D0002804D16B46991D2D48FFF704FF002824D16B469A1DDB8860218B4318001380B0256D05254C2B5B60310B405B08034324490B401380295BC901F020C00052
:4036800001400B43204919401180285BC0239B000340DB00194311801948FFF705FF002804D16B46991D1948FFF7D6FE002811D16B469A1DD988C023994311800F4BB020E5
:4036C0004005C05A302303409B00194311800F48FFF7EAFE03B0F0BD021E000004001600031E0000091E00000048E801C00000080024F40064F0010000003C401618000026
:40370000071E00007FF5FFFFFFE7FFFF061E000070B50C004000084901430848FFF7C4FE051E04D106490748FFF7BEFE05006001FEF776FC280070BD01100000081E00003B
:40374000376800000F1E00000349044A8858102303438B507047C04600003C4070F00100F0B59DB013A9144B0A00180070C870C270C870C270C870C20AAD28001A00243259
:40378000D0CAD0C0D0CAD0C0D0CAD0C001AC22004833C1CBC1C2C1CBC1C2C1CBC1C20748FDF764FC29000648FDF760FC21000548FDF75CFC1DB0F0BDD065001000013240BE
:4037C0008001324000023240F8B5051E00D1DDE0734B5B689B0301D5FEF77CFF714C03E0013C0120FEF71CFC6F4B704AD358002B01D0002CF4D16E4B6C4AD358DB0704D5B3
:403800006C4BD358DB0700D5C2E0674B674AD358002B00D0BEE0FFF7A3FF644B6649674A99502A78A02109030A4365495A506549654A9950802252009B58DB0700D5ABE013
:40384000624B1B6F1B0709D4614B1868614B984206D9190000F00AF9013802E0012000E00020524B1B68002803D040035A4A104300E05A4818434D4B1860494B5B695B0044
:4038800017D501210320FEF711FE454B5B699B0F01221340524A116844228A5C002A0ED0002B0CD03E4A93698021C9050B43936105E03E494B4A8858032303438B503B4C0B
:4038C0003B4AA658484B3343A3504020FEF7A8FB464BE358DB070BD42700444C01233B514020FEF79DFB03233B514020FEF798FB3F4F37403F4E3E432D4B2C4AD650FA2491
:40390000E40003E0013C0120FEF78AFB3A4B3B4AD358DB0601D4002CF4D1002C01D0002400E0374C002C23D12049364A8858082303438B500120FEF78BFD002801D1324E3B
:403940003E43324B1E4001231E43194B174AD650144E03E0013E0120FEF762FB154B134AD358DB0701D4002EF4D1002E00D1244C002C03D12800FFF7BDFD0400002C0CD19E
:4039800068782978FFF7C4FE040006E0204C04E0204C02E01F4C00E01F4C2000F8BDC04600002640F07E0E006CF0010000003C40A0F00100B4F0010006000001A4F0010028
:4039C000A8F0010001000100ACF0010000F03D40C800000800093D00041A0080040A0080D81D0008C4F0010030000300B0F00100EFFFFEFF2000020010400000000032408B
:403A00000400160068F0010028000200FFFFFBFF010016000300160002001600014B18687047C046C000000810B5002405E02000FDF7A0FF032804D00134042CF7D9002083
:403A400000E0012010BDC046A023DB00064AD35803221340012B03D0032B03D1012002E0012000E00020704700002640002243088B4274D303098B425FD3030A8B4244D322
:403A8000030B8B4228D3030C8B420DD3FF22090212BA030C8B4202D31212090265D0030B8B4219D300E0090AC30B8B4201D3CB03C01A5241830B8B4201D38B03C01A5241D9
:403AC000430B8B4201D34B03C01A5241030B8B4201D30B03C01A5241C30A8B4201D3CB02C01A5241830A8B4201D38B02C01A5241430A8B4201D34B02C01A5241030A8B42A0
:403B000001D30B02C01A5241CDD2C3098B4201D3CB01C01A524183098B4201D38B01C01A524143098B4201D34B01C01A524103098B4201D30B01C01A5241C3088B4201D394
:403B4000CB00C01A524183088B4201D38B00C01A524143088B4201D34B00C01A5241411A00D20146524110467047FFE701B5002000F0F0F802BDC0460029F7D076E77047D4
:403B800003460B437FD4002243088B4274D303098B425FD3030A8B4244D3030B8B4228D3030C8B420DD3FF22090212BA030C8B4202D31212090265D0030B8B4219D300E058
:403BC000090AC30B8B4201D3CB03C01A5241830B8B4201D38B03C01A5241430B8B4201D34B03C01A5241030B8B4201D30B03C01A5241C30A8B4201D3CB02C01A5241830AD5
:403C00008B4201D38B02C01A5241430A8B4201D34B02C01A5241030A8B4201D30B02C01A5241CDD2C3098B4201D3CB01C01A524183098B4201D38B01C01A524143098B4295
:403C400001D34B01C01A524103098B4201D30B01C01A5241C3088B4201D3CB00C01A524183088B4201D38B00C01A524143088B4201D34B00C01A5241411A00D2014652411E
:403C8000104670475DE0CA0F00D04942031000D34042534000229C4603098B422DD3030A8B4212D3FC22890112BA030A8B420CD3890192118B4208D3890192118B4204D31C
:403CC00089013AD0921100E08909C3098B4201D3CB01C01A524183098B4201D38B01C01A524143098B4201D34B01C01A524103098B4201D30B01C01A5241C3088B4201D317
:403D0000CB00C01A524183088B4201D38B00C01A5241D9D243088B4201D34B00C01A5241411A00D20146634652415B10104601D34042002B00D54942704763465B1000D3E8
:403D4000404201B5002000F005F802BD0029F8D016E770477047C046002B11D1002A0FD1002900D1002802D00021C943081C07B4024802A14018029003BDC046D9FFFFFF53
:403D800003B4684601B5029800F050F8019B9E4602B00CBC7047C046F0B54F464646C0B41604360C9946330005042C0C070C150C63437E436F4365431C0CAD1964199C4634
:403DC000A64203D980235B02984647446346250CEF191D044B464A4343432D0C240464199918C91920000CBC90469946F0BDC04670B500220C4B04000D0001F05DFA00280F
:403E000004D12000290001F0B5F970BD064B00222000290000F05AFE01F0ACF980231B069C466044F1E7C0460000E041F0B54D46564644465F46F0B4924683B004000D00F2
:403E400099468B422FD82CD04946504601F05CFA29000600200001F057FA331A9846203B9B4600D574E053465A4693401F005346424693401E00AF4229D826D05B46A41B81
:403E8000BD41002B00DA79E0002200230092019301235A4693400193012342469340009319E08242D0D900220023009201930C9B002B01D01C605D600098019903B03CBC74
:403EC00090469946A246AB46F0BDA342D6D900220023009201934346002BE8D0FB0772081A4346467B080EE0AB4201D1A2420CD8A41A9D41012024196D410021013E24187B
:403F00004D41002E06D0AB42EED9013E24196D41002EF8D15B460098019900196941002B22DB2B005A46D3402A004446E2401C005B461500002B2CDB26009E403300260047
:403F40004746BE403200801A994100900191AEE7424620239B1A5246DA40414613004A468A4017001F4382E7424620239B1A2A0046469A402300F3401343D5E7424620230E
:403F800000219B1A0022009101920122DA40019282E74246202326009B1ADE402F00B446974066463B003343C9E7C046F0B556464D4644465F46F0B41D000E034C00CB0FDA
:403FC00087B0070092468146360B640D98466AD06D4B9C4235D08022430F12041343F6001E43C3009946694B00279C460023644402932B0368001B0BED0F51469B46400D8C
:40400000009500D178E0604B98426CD05B46DA004B0F802109040B4313439B465346D9005A4B9C46002360444246201A6A40924601901F430F2F00D9B0E05548BF00C059E6
:404040008746374300D088E0002399460233082700260293CDE74346B34649460093029B009A9246022B00D0BFE1002153460122002689461A40444B002136030C0D240545
:40408000360B2643434C1B0526401E437600D207760816434846310007B03CBC90469946A246AB46F0BD330003434FD0002E00D1BCE1300001F00AF903000B3B1C2B00DD4C
:4040C000ADE11D220100D31A08393A008F408E40DA40B9461643304B00279C46002360444442029385E753465A4613432CD1002300219B46023397E70B4320D05B46002B3B
:4041000000D19EE1584601F0E1F803000B3B1C2B00DD8FE102005946083A91408B461D21CB1A5146D9400B0059460B4351469B469140194B9C4660444042002374E7002344
:4041400000219B4601336FE703236DE70023994601330427002602934BE703230C27029347E70122D51A382D00DCB0E153461A4000210023002689467EE7002380269946B2
:4041800000223603004B77E7FF07000001FCFFFF446D0010FFFF0F80F30300005E4500D972E100D16DE1019B4D46013B01930023340002935B461E020B0E1E430B020393FF
:4041C000330C994633041B0C494620000093FFF74DFC009B370043430600494620009846FFF7CAFC2C0C09040C43A04509D9E419731EA74200D95CE1A04500D859E1023EFC
:40420000E4194346E41A49462000FFF72FFC0300009A80465343494620009B46FFF7ACFC2A040904120C0A4393450DD94346D219013B974200D93AE1934500D837E1022335
:404240005B429C46D219E0445B46D21A4346360433439B460399180C0B0C1D00059309045B46090C0C001B041B0C4443049159436B4368431B190D0CEB189C4203D98024A9
:404280006402A44660441C0C09041B04090C20185D18824200D2DEE000D1D7E0161A029B9C465D1BAC459B415B42F61AB74200D106E149463000FFF7D9FB009B0400434318
:4042C000494630009846FFF757FC2E0C09040E43B04509D9F619631EB74200D9F3E0B04500D8F0E0023CF6194346F31A494618000293FFF7BBFB009B06004343494602987C
:404300009846FFF739FC2D0409042D0C0D43A84509D9ED19731EAF4200D9D6E0A84500D8D3E0023EED192404210043463143049E059A3000ED1A0B040C0C1B0C58436643B9
:40434000534354439A19030C9B189E4203D980225202944664441A0C00041B04000C14191B18A54250D34DD001231943964A019B94466344002B00DCF3E64A0709D00F22D3
:404380000A40042A05D00A1D8A42894149428B4411005A46D20108D55A468C4B1A4093468022D2009446019B6344894A934200DD5BE65A46C9085007084356025146012212
:4043C0005B058146360B5B0D0A4055E680231B031E4211D05A461A420ED15E461E433603360B2A0089467B4B46E6032B00D1E1E0012BBBD11A40BBE61E433603360B42464B
:40440000744B39E6002BB1D07D194A1EAF4252D91100A542A8D1039A9A42A5D1A6E703003E00283B9E400023994654E600F04EFF203041E603005246283B9A4000219346A7
:4044400077E6504600F042FF20305EE6029B0026AB4200D323E7039E0299B44661448846B045B6415B467642F619B218013B0291974213D290424FD800D18EE0161A9B465A
:404480000DE7894500D28EE674084B46F60735005B081D434B46DB0702938BE69742EDD10399029CA142E5D93E1A9B46F7E69846CAE61E00A5E6AC423ED874D0110053E727
:4044C0000121494252E71C000EE71E002BE71F2D3CDC20230A0058465B1B9840EA4099400243481E81415E461143EE404B0709D00F230B40042B05D00B00191D99429B41BE
:404500005B42F61833023CD55346012200211A40002601238946AFE502235B429C46039CE344A446029B63449846A045B6417642F6190293B218B1E603988A1E4100814250
:40454000B6417642F619AD19039161E71F225242D31A5A46DA401300202D29D040225846551BA8400143481E814107200B4318400026002809D00F2200261A401900042A56
:40458000BBD10B0070077602360BDB0803439946012253461A4000236EE502998D42BBD89B4600267BE603989842C5D3110032E70020D7E780265B4636031E433603360BCB
:4045C000009A8946034B57E5FF030000FFFFFFFEFE070000FF070000F0B55F4656464D464446F0B40D0399464E002B0B87B00700924680469B46760DCC0F002E69D06D4B6C
:404600009E4235D05B468022DD001204430F13432B439B46C3009846674B00279C460023664401934A4615035000D20F53462D0B400D914600D176E05E4A90426CD080225E
:404640005B0F120413435C4AED0094461D4353460022DB00604449463618701C6140029017430F2F00D9AFE05448BF00C759BF465B461F4300D088E000239B4698460233EF
:4046800008270193CEE74946022A6AD0032A00D109E2012A00D0BBE111400022002300259046CCB200212D030A0D12052D0B1543434A1B0515401D436D00E4076D08254358
:4046C0004046290007B03CBC90469946A246AB46F0BD034352D05B46002B00D18AE1584600F0F4FD03000B3B1C2B00DD7BE11D22D31A3A0001005D46DA4008398D40130024
:404700008F402B439B46B8462E4B00279C46002360444642019385E752462A432CD100250023022297E752462A4321D0002D00D154E1280000F0CAFD03000B3B1C2B00DD2B
:4047400046E11D21CB1A51460200D9405346083A954093400D431B4A944660444042002279E7012400220C40124B0025904699E70025002301226EE703226CE700239B46DC
:4047800098460133042701934CE703230C27019348E700238025984600242D03054B81E75D464346019A6FE75D4643462100019A6AE7C046FF07000001FCFFFF846D0010C9
:4047C000FFFF0F80F30300004246120C91461A0C9446424617044A461B041B0C5A43604690464A4642431000039262461C003F0C7A437C4342440192220C9246019A524492
:40480000904506D98246802040028046C24450460390100C049048462404240C1204121905922A0C2D042D0C68432C00824648467C4350438146200C80465743574447441F
:40484000BA4503D9802040028046C144380C3F04B84648442404240C01900498A044404404905846000C814658460404200C8246070048465F434C464343604660436446D1
:40488000834650464443380C8446E4186444A34203D980235B029C46E34448463F04230C3F0C2404E419574668436F4384464D46504655434243380C814662444A445B443E
:4048C000944503D9802040028446654403983F04834604983F0C8446E344C345804140428246100484460198674484466744A344BC46A345A4419946D44464428742BF4169
:40490000D4458041E144A04699459B417F424042C8440743120CBA18A045A4415F423B0064422343D71843467D19DB0D6D021D435B465A02059B1A43531E9A415B46DB0D09
:404940001A4343465B021343EA0107D501225C0813402343EA07029E13436D08574AB218002A4BDD580709D00F201840042805D0181D98429B415B42ED180300E80104D56C
:404980004F4A15408022D200B2184E48824200DDE7E60124DB08680718436D02530580462D0B5B0D0C407DE6802259461203114208D0154206D115432D0398462D0B4C463A
:4049C000414B6FE65D4615432D032D0B3E4B69E603005546283B9D400023BCE6504600F075FC2030A8E60300283B9F400023BB46984689E600F06AFC203073E60124A61A89
:404A0000382E07DD00220C4000230025904649E6029EA3E71F2E20DC20222C001800921BF040944093400443581E83411C43F540630709D00F232340042B05D023001C1DA7
:404A40009C4292415242AD182B021FD5012400220C4001230025904624E61F202C004042821AD440202E1CD04022961BB5402B43581E83410720234318400025002809D0BD
:404A80000F2200251A401C00042AD8D1230068076D022D0B0124DB08034398460C40002300E60025E3E780220124120315432D0398462D0B0C40044BF4E5C046FF030000B4
:404AC000FFFFFFFEFE070000FF070000F0B557464E464546E0B40E001100F20F9246C500420F180337037400400A4E0F7F0A3043CF4E17435A00640D520DDB0FC900B242F9
:404B000000D1E5E001267340A61AB446534500D1AFE0002E00DC0DE1002A3AD103000B4300D0E4E06B0709D00F232B40042B05D02B1DAB42AD416D427F191D003B0200D4BD
:404B400088E0BB4B01349C4200D110E13A00B94B51461A4001235007ED08520264050543120B640D0B400021280012030D0D120B64052D0515436208AF4CDB072C401443E3
:404B8000640064081C4321001CBC90469946A246F0BDA74B9C42C5D080231B0418436346382B00DDFDE01F2B00DD30E1624620239B1A02009A40664690460A009940F240F0
:404BC00046464B1E99413243114363460200DA40691A8D429B410D00BA1A5B42D71A3B0235D57A02530A98464346002B00D1C4E0404600F06BFB0300083B1F2B00DDC5E0A6
:404C000020222900D21A4746D1409F400A009D403A439C4200DDC0E01C1B631C1F2B00DDE4E0202114002800C91AD8408C408D400443DA40681E854117002543002471E787
:404C4000424663461A4300D14CE2674645466B0700D069E7012351467807ED08FA080B40054373498C4238D012036405120B640D79E7002E00DC9AE0002A47D06C4A9442CA
:404C800000D14FE78022120410436246382A00DC08E10143481E81410022C9B24919D219A942BF410D007F42BF183A0200D442E15F4A0134944200D14EE101205D4A69080D
:404CC0003A4028400843D507054357089A4629E706000E4300D017E714E72900114300D1F9E1802109030A431203120B3BE701235B429846C4446346002B72D1691A8D426E
:404D00009B413F1A5B42FF1A0D0068E702000A4300D107E7012252429046C4446246002A00D0E6E06918A942B6413F187642F7190D00BAE7002E00D080E0621C5205520D5F
:404D4000012A00DCF9E06A1A91464D45B6413A1A7642921B9046120200D499E04D1BA9428941C71B49427A1A90469A463CE752460123002513400022F5E6280000F0A6FA9F
:404D800020300300083B1F2B00DC39E72A002838824000259C4200DC3EE7264FE41A1740C0E60143481E81410022C9B210E7002E00D0F1E0621C94465205520D012A00DC73
:404DC000A0E01B4A944500D1C5E06918A94292413F185242D2194908D5070D4357086446A0E6134B9C4200D0D9E69BE611001F3CE1400C00202B00D180E04021CB1A9A40DD
:404E000015436A1E95410027254300241FE763460200203BDA406346202B71D0402366469B1B98400143481E814111430022CFE6FF070000FFFF7FFFFFFF0F80002C48D027
:404E4000CA4CA24200D1A2E07442A1468024240427434C46382C00DDDBE01F2C00DD44E14E462024A41B3E00A640A246B0464C462E00E640B4464646644626435446A540A0
:404E80006C1EA54134002C434D46EF400D1B28E04A4643464D461A4300D0A5E6002300240025DEE61F2A5ADC66462022921B060096409146B04662460E00D64042461643E9
:404EC0004A4691404A1E9141020060463143C240E4E63C002C435AD0F443A146002C52D14D1BA9428941C71B49427F1A14009A4675E69E4A944200D0C7E613E600227FE7BF
:404F000000208FE7002C00D0C8E03B002B4300D10FE103000B4300D104E66918A9429B413F185B42DF193B0200D41AE1904B0D001F406446F6E59A4689E63A002A43002C93
:404F40005CD1002A75D102000A4300D1CAE007000D009A46E6E564460022002581E662460600203AD6406246B046202A00D1B7E040226646921B904001434246481E8141C6
:404F8000114300228AE6794CA24200D061E707000D0014009A46C5E5002C41D13C002C4378D0F443A146002C20D0704CA24271D04C46382C00DDB2E01F2C00DDBCE02026DD
:404FC000341BA2463C005646B4404E46A0462C00F440A446444666463443A4465446A54064466E1EB54125434C46E7406D188D4289413F184942CF19140056E6002A2FD125
:4050000002000A4300D184E007000D009A46574C88E53D436F1EBD41ECB200270D1B60E7524CA24236D0744280263604A1463743BEE702000A4300D174E56A1A9046454528
:40504000B6413A1A7642921B9446120200D4F7E54D1BA9428941C71B49427F1A9A4661E502000A433AD0ED087C072C438025FA082D032A4208D0C7082F4205D145072C00B0
:405080003A009A46C9080C43670FD200E5001743364C47E507000D00140043E53A002A4343D002000A4319D0ED087C072C438025FA082D032A4207D0C6082E4204D14707DD
:4050C0003C003200C9080C43D700620FE50017439A46264C26E50022002544E5234C21E5002049E700230025BBE54C463E00203CE6404C46B446202C31D040244E46A61B3D
:40510000B7403D436C1EA54164462C4300270D1BE7E6802200231203144C0025A1E53D436F1EBD410027EDB260E707000D000F4CF8E407000D00F5E44E463C00203EF440BC
:40514000A0464C46202C0ED040244E46A41BA7403D436F1EBD4144460027254346E70027CFE70D0073E50027F2E7C046FF070000FFFF7FFF0B0330B5134D1A0B4B005B0DA9
:40518000C90F0024AB4211DD104CA34210DC8024640322430E4CE41A1F2C0CDD0D48C31ADA4013005C42002900D11C00200030BD094BCC18FAE7E040084CA44663449A40D7
:4051C00013000343EEE7C046FE0300001D0400003304000013040000FFFFFF7FEDFBFFFF70B5051E28D000F071F8154B154A1B1AD21A1F2A16DD2C00134A0025D21A944086
:405200005A052403240B520D002124030B0D240B1B0523430D4C1205234013435B002800590870BD0B212C00081AC440954024035A05240B520DE7E700220024E4E7C046BF
:405240001E0400003304000013040000FFFF0F808446101C62468C46191C634600E0C0461FB500F001F9002801D40021C8421FBD10B500F055F84042013010BD10B500F004
:40528000F3F8002801DB002010BD012010BDC04610B500F0E9F8002801DD002010BD012010BDC04610B500F07BF8002801DC002010BD012010BDC04610B500F071F800284D
:4052C00001DA002010BD012010BDC0461C2101231B04984201D3000C10391B0A984201D3000A08391B09984201D30009043902A2105C40187047C046040302020101010105
:40530000000000000000000010B5002903D1FFF7DDFF203002E0081CFFF7D8FF10BDC046F0B55F4656464D464446F0B41F035C00DB0F9A46194B0E034D00C90F8046360B53
:405340006D0D8B4691463F0B640D9D4219D0134B9C421BD00123A54206D018003CBC90469946A246AB46F0BDBE42F6D1C845F4D1D34510D0002DF0D1304303005A1E9341F4
:40538000EBE7310001230143E7D1E0E73A430123002AE2D1DEE70023DFE7C046FF070000F0B55F46444656464D46F0B41F033C0B2C4F0E034D00A3465C008446360B6D0D18
:4053C000C90F9046640DDB0FBD422BD0254FBC422ED0002D0ED130430700814678427841002C17D15F463A4314D14B460020002B0AD006E0002C02D15846024301D0994235
:405400001AD00123484218433CBC90469946A246AB46F0BD0028F2D058425841012240421043F1E737000743D0D002204042EBE75F461743CDD0F8E7A542E2DC05DB5E451F
:40544000DFD808D000205E45DED248424841012340421843D8E7C445D3D80020C445F4D3D2E7C046FF070000F0B55F464D4644465646F0B41C03240BA4462F4C0F034D0035
:405480005E00C90F80463F0B6D0D8B469146760DDB0FA54220D0284CA64222D0002D12D1384344424441002E20D0002C0DD05C42634101245B421C4320003CBC9046994605
:4054C000A246AB46F0BD002E17D05B4519D05B465C4201231C43EFE7390002240143EBD1D9E7614602241143E6D1D7E761460A43DBD100240028DFD0E9E761460A43E4D127
:40550000E5E7B54203DD01225C421443D4E7B542CDDB6745DBD809D000246745CCD259464C426141012449420C43C5E7C845CED80024C845F3D3BFE7FF07000030B50024D7
:40554000A24208D0035D651C0C5DA34201D0181B02E02C00F4E7002030BD002310B59A4203D0CC5CC4540133F9E710BD03008218934202D019700133FAE77047030030B50D
:40558000002A0DD00C7801335D1E013A2C700131002CF5D19A189A4202D01C700133FAE730BD0000F8B5C046F8BC08BC9E467047F8B5C046F8BC08BC9E467047000000003C
:4055C00001B40248844601BC604700BF1D03000801B40248844601BC604700BF9D040008030000000100000001000000000000000503600004000000010000000000000090
:4056000001000000060460000800000014120008C101001073797374656D5F70736F63365F636D30706C75732E6300000300180001000000F4010000280002010A00090005
:4056400008000000EB000000002034407400802034407400002234407400802234407400002434407400802434407400002634407400802634407400002834407400802827
:4056800034407400002A34407400802A3440740000213440285800109000000000233440B85800109000000000253440485900109000000000273440D8590010900000001C
:4056C00000293440685A001090000000002B3440F85A00109000000000603440885B00107C00000080603440045C00107C00000000613440805C00107C0000008061344005
:40570000FC5C00107C00000000623440785D00107C00000080623440F45D00107C00000000633440705E00107C00000080633440EC5E00107C00000000643440685F00100E
:405740007C00000080643440E45F00107C00000000653440606000107C00000080653440DC6000107C00000068C0A808AC5100000372344010000000000000000000000072
:4057800000000A0000000000000000000000000000000000000000005F00000000000000000000006666660600000000000000000000000008161616000009007400000081
:4057C00000000000000000000066CC060000000000000000000000000000000000000000770000000000000000000000666666060000000000000000000000001403140097
:40580000080309003B0000001000000000020000AA660A060000000000000000000000000000000300000000000000000000000000000000FFFFFFFFFFFFFFFFFFFFFFFFF0
:40584000FFFFFFFFFFFFFFFFFF000000FFFFFFFFFFFFFFFFFFFFFFFFFFFFFFFFFFFFFFFFFF0000000000000000000000000000000000000000000000000FF000FFFFFFFF4B
:40588000FFFFFFFFFFFFFFFF1111111111111111111111111111111111111111111111111111111111111111111111111111111111111111111111110000000000000000C0
:4058C00000000000FFFFFFFFFFFFFFFFFFFFFFFFFFFFFFFFFFFFFFFFFF000000FFFFFFFFFFFFFFFFFFFFFFFFFFFFFFFFFFFFFFFFFF000000000000000000000000000000D2
:405900000000000000000000000F0000FFFFFFFFFFFFFFFFFFFFFFFF11111111111111111111111111111111111111111111111111111111111111111111111111111111BC
:405940001111111111111111000000000000000000000000FFFFFFFFFFFFFFFFFFFFFFFFFFFFFFFFFFFFFFFFFF000000FFFFFFFFFFFFFFFFFFFFFFFFFFFFFFFFFFFFFFFFC8
:40598000FF000000000000000000000000000000000000000000000000000000FFFFFFFFFFFFFFFFFFFFFFFF1111111111111111111111111111111111111111111111115C
:4059C000111111111111111111111111111111111111111111111111000000000000000000000000FFFFFFFFFFFFFFFFFFFFFFFFFFFFFFFFFFFFFFFFFF000000FFFFFFFF28
:405A0000FFFFFFFFFFFFFFFFFFFFFFFFFFFFFFFFFF000000000000000000000000000000000000000000000000000000FFFFFFFFFFFFFFFFFFFFFFFF1111111111111111FB
:405A400011111111111111111111111111111111111111111111111111111111111111111111111111111111000000000000000000000000FFFFFFFFFFFFFFFFFFFFFFFF8A
:405A8000FFFFFFFFFFFFFFFFFF000000FFFFFFFFFFFFFFFFFFFFFFFFFFFFFFFFFFFFFFFFFF000000000000000000000000000000000000000000000000000000FFFFFFFF08
:405AC000FFFFFFFFFFFFFFFF11111111111111111111111111111111111111111111111111111111111111111111111111111111111111111111111100000000000000007E
:405B000000000000FFFFFFFFFFFFFFFFFFFFFFFFFFFFFFFFFFFFFFFFFF000000FFFFFFFFFFFFFFFFFFFFFFFFFFFFFFFFFFFFFFFFFF0000000000000000000000000000008F
:405B4000000000000000000000000000FFFFFFFFFFFFFFFFFFFFFFFF1111111111111111111111111111111111111111111111111111111111111111111111111111111189
:405B8000111111111111111100000000000000001F1F1F1F1F1F1F1F1F1F1F1F1F1F1F1F1F1F1F1F1F1F1F1F1F1F1F1F1F1F1F1F000000000000000000000000000000007D
:405BC0000000000000013000FFFFFFFFFFFFFFFFFFFFFFFF111111111111511111111111111111111111111151111111111111111111111111111111111111111111111114
:405C00001111111100000000000000001F1F1F1F1F1F1F1F1F1F1F1F1F1F1F1F1F1F1F1F1F1F1F1F1F1F1F1F1F1F1F1F000000000000000000000000000000000000000040
:405C400000040000FFFFFFFFFFFFFFFFFFFFFFFF111111111111111111111111111111111111111111111111111111111114111111111111111111111111111111111111F9
:405C800000000000000000001F1F1F1F1F1F1F1F1F1F1F1F1F1F1F1F1F1F1F1F1F1F1F1F1F1F1F1F1F1F1F1F00000000000000000000000000000000000000000000000004
:405CC000FFFFFFFFFFFFFFFFFFFFFFFF1111111111111111111111111111111111111111111111111111111111111111111111111111111111111111111111110000000080
:405D0000000000001F1F1F1F1F1F1F1F1F1F1F1F1F1F1F1F1F1F1F1F1F1F1F1F1F1F1F1F1F1F1F1F000000000000000000000000000000000000000000000000FFFFFFFF87
:405D4000FFFFFFFFFFFFFFFF1111111111111111111111111111111111111111111111111111111111111111111111111111111111111111111111110000000000000000FB
:405D80001F1F1F1F1F1F1F1F1F1F1F1F1F1F1F1F1F1F1F1F1F1F1F1F1F1F1F1F1F1F1F1F000000000000000000000000000000000000000000000000FFFFFFFFFFFFFFFF0B
:405DC000FFFFFFFF11111111111111111111111111111111111111111111111111111111111111111111111111111111111111111111111100000000000000001F1F1F1FFB
:405E00001F1F1F1F1F1F1F1F1F1F1F1F1F1F1F1F1F1F1F1F1F1F1F1F1F1F1F1F000000000000000000000000000000000000000000000000FFFFFFFFFFFFFFFFFFFFFFFF0A
:405E400011111111111111111111111111111111111111111111111111111111111111111111111111111111111111111111111100000000000000001F1F1F1F1F1F1F1FFA
:405E80001F1F1F1F1F1F1F1F1F1F1F1F1F1F1F1F1F1F1F1F1F1F1F1F0000000000000000000000000000000000000000000FF000FFFFFFFFFFFFFFFFFFFFFFFF11111111C3
:405EC000111111111111111111111111111111111111111111D1111111111111111D111111111111111111111111111100000000000000001F1F1F1F1F1F1F1F1F1F1F1F76
:405F00001F1F1F1F1F1F1F1F1F1F1F1F1F1F1F1F1F1F1F1F0000000000000000000000000000000000000000000F0000FFFFFFFFFFFFFFFFFFFFFFFF11111111111111116A
:405F40001111111111D11111111111111111111111F1111111111111111F111111111111111111111111111100000000000000001F1F1F1F1F1F1F1F1F1F1F1F1F1F1F1FDB
:405F80001F1F1F1F1F1F1F1F1F1F1F1F1F1F1F1F000000000000000000000000000000000000000000000000FFFFFFFFFFFFFFFFFFFFFFFF11111111111111111111111131
:405FC00011F11111111111111111111111F1111111111111111F111111111111111111111111111100000000000000001F1F1F1F1F1F1F1F1F1F1F1F1F1F1F1F1F1F1F0C16
:406000001F1F1F1F1F1F1F1F1F1F1F1F000000000000000000000000000000000000000000000000FFFFFFFFFFFFFFFFFFFFFFFF11111111111111111111111111F1111108
:40604000111111111111111111F1111111111111111F111111111111111111111111111100000000000000001F1F1F1F1F1F1F1F1F1F1F1F1F1F1F1F1F1F021F0D1F1F1F59
:406080001F1F1F1F1F1F1F1F000000000000000000000000000000000000000000000000FFFFFFFFFFFFFFFFFFFFFFFF11111111111111111111111111F1111111111111C0
:4060C0001111111111F11111111111111111111111111111111111111111111100000000000000001F1F1F1F1F1F1F1F1F1F1F1F1F1F1F1F1F1F1F1F1F1F1F1F1F1F1F1F80
:406100001F1F1F1F000000000000000000000000000000000000000000000000FFFFFFFFFFFFFFFFFFFFFFFF11111111111111111111111111111111111111111111111157
:4061400011111111111111111111111111111111111111111111111147656E6572617465645F536F757263655C50536F43365C70646C5C647269766572732F7065726970FB
:40618000686572616C2F6970632F63795F6970635F6472762E68000047656E6572617465645F536F757263655C50536F43365C70646C5C647269766572735C7065726970C8
:4061C000686572616C5C6770696F5C63795F6770696F2E630000000047656E6572617465645F536F757263655C50536F43365C70646C5C647269766572735C7065726970F8
:40620000686572616C5C6770696F5C63795F6770696F2E680000000047656E6572617465645F536F757263655C50536F43365C70646C5C647269766572735C7065726970B2
:40624000686572616C5C6970635C63795F6970635F6472762E68000047656E6572617465645F536F757263655C50536F43365C70646C5C647269766572735C7065726970AD
:40628000686572616C5C6970635C63795F6970635F6472762E63000047656E6572617465645F536F757263655C50536F43365C70646C5C647269766572735C706572697072
:4062C000686572616C5C6970635C63795F6970635F706970652E630047656E6572617465645F536F757263655C50536F43365C70646C5C647269766572735C7065726970D0
:40630000686572616C5C70726F745C63795F70726F742E630000000047656E6572617465645F536F757263655C50536F43365C70646C5C647269766572735C70657269708A
:40634000686572616C5C737973636C6B5C63795F737973636C6B2E630000000047656E6572617465645F536F757263655C50536F43365C70646C5C647269766572735C7052
:4063800065726970686572616C5C737973636C6B5C63795F737973636C6B2E680000000047656E6572617465645F536F757263655C50536F43365C70646C5C64726976650E
:4063C00072735C7065726970686572616C5C737973696E745C63795F737973696E742E630000000047656E6572617465645F536F757263655C50536F43365C70646C5C64B6
:406400007269766572735C7065726970686572616C5C737973706D5C63795F737973706D2E63000000002040000024400000004000000000000023400000304000003140F5
:4064400000009F40000022400000104002020202020202020210101D800017007500FF030602063604102000000000007FC0000000040000000000000019324B647D00807C
:406480004000080B100000000000FF012002001F00800004FF081018001000140018001C4044484C5000000008100000080000000400000004100000001200000421000056
:4064C000002100000016000040114002C41300138013A013200000001C0000000000214000002540000001400000344000002440000031400000324000001F4100002340E1
:4065000000001140010101010101010101101010800019005500F0000501053B04101C01010000000FC000000004000001010101011D3A5778960008200010120800000095
:40654000001F00000010000F002000023F06080E00080009000A000B24282C3034000000100000009000000088000000080000008000000004F0000000F000004002000088
:406580002005A000D00100018001A001200000001000000047656E6572617465645F536F757263655C50536F43365C70646C5C6D6964646C65776172655C626C655C6379CF
:4065C0005F626C655F68616C5F7076742E63000000000000000000000000000066666666000000000000FFFF000000001C1C1C1C1C1C1C1C000000000000000000000000B5
:4066000066E6EE66000000000000FFFF000000001C1A1A1A1A1A000000000000000000000000000066E66666000000000000FFFF000000001A1A001C000000007C0100003B
:40664000310100000B0B01120C000000FF03000080ABCDABCD80409C1B04041BFFFFFFFF000000000410080007070400F216FBE0FBE01F60427EF56D720196BE20900000A7
:4066800010502604060037D7F401FA00960064004B0032001E00140003040506020D110031FE001095FD00109B040110F9FE0010ABFF0010470401105F0401103105011009
:4066C00025000110D500011009030110370301107F05011035040110130501101305011013050110DD03011085030110C9030110A13C0110AD3C0110994C0110814D011098
:406700008D4D0110F5FE00102FFE0010EF040110A9FF0010E3FF001057040110790401107D050110D100011071010110230301105D030110EB0501103F0401107D050110FE
:406740007D0501107D0501102D0401107D0501107D0501107D0501107D0501107D0501107D0501107D0501100C000800020017000D0001000100020009000900010001005A
:4067800006000200090018001800030001000100090009000300030005000000471D01104F1D01104B1D0110451D0110231D01101F1D01103D1D01103B1D0110171D0110E1
:4067C0001B1D0110531D01103F1D0110391D0110571D0110571D0110151D0110431D01100D340110C137011085350110313301106D26011019230110AD2D01104929011043
:40680000791E0110DD1E0110F138011051310110E128011099220110392D01101D790010013201109D390110313D01109D3E01108D3F0110693B0110E9390110B93C011073
:40684000C93A01100B3B01101B3B01101D3B0110213B0110130501100D3B0110173B0110153B0110C55001108D4A01100D500110BD4F01107D500110994D0110A54C0110BA
:406880003D4D0110F14D01105DE2001059500110B14A0110A54A0110AB4A0110A94A0110AF4A0110A74A011013050110130501101305011095D00010AD4A0110396401101D
:4068C0001B6401101B6401101B64011055640110E19E01101B640110D19E0110E99E0110D99E0110DB680110D36801103D680110356801102B6401101364011009640110B4
:406900002F6401102D6801105D6801102364011055680110B56801101B640110656801104D680110456801101B6401105D640110656401106D6401101F6401101F6401106B
:40694000057F0110C57D0110C57D0110C57D0110377F0110C77E0110C57D0110AB7E0110777F0110C17E0110517F0110477F0110477D0110C57D0110C57D0110C57D011002
:40698000CB7C0110957E0110F17C0110177F01103F7E01104D7E0110D97D0110C57D01108D7F0110057E0110F77D0110C57D0110817E0110C57F0110C57D0110C57D01103E
:4069C000C57D01103382011061810110618101106181011057820110DD810110618101102582011025820110CF8101106D8201105B820110DD800110D9800110BD81011073
:406A00006F8001106180011061800110758001103782011091810110A58101106581011061810110A18201107D8101106981011061810110C1810110BD820110B98201103E
:406A4000618101106181011008000000060F0020200107021900000007070E05020220001C1202000103000E032000800000C0000000000400000028220000000000000474
:406A80000000F7FFFF7F00000030000000000080000000000000000000000000000000000000000000000000000000006D8501108D86011017860110CD8501109B86011048
:406AC0003F8601109D850110A986011023860110CB850110AD8601103B860110B58501109B860110338601109F8501109B8601102B860110E3850110B98601104786011005
:406B0000E9850110C98601104F860110C57D0110618101101F640110C57D0110618101101F640110C57D0110618101101F640110C57D0110618101101F640110C57D0110D5
:406B4000618101101F640110C57D0110618101101F640110C57D0110618101101F640110C57D0110618101101F640110F7850110E186011057860110C57D011061810110C7
:406B80001F640110C57D0110618101101F640110C57D0110618101101F640110C57D0110618101101F640110C57D0110618101101F6401101987011029880110CF870110FF
:406BC000178701101D880110C78701103F87011061880110D78701101587011011880110BF870110C57D0110618101101F640110C57D0110618101101F640110C57D0110DC
:406C0000618101101F640110C57D0110618101101F640110C57D0110618101101F640110C98801104789011000000000D78801105B890110C94E0110E588011085890110AC
:406C4000F94E0110A98801100B8901108D4B0110B788011029890110A94B01103030303142383030303130323033303430353036303730383039304130423043304430456D
:406C80003046313031313132313331343135313631373138313931413142314331443145314632303231323232333234323532363237323832393241324232433244324562
:406CC00032463330333133323333333433353336333733383339334133423343334433454142000026002B00300036003C0043004B0055005F006A00770086009600A80066
:406D0000BD00D400EE000B012B014F017801A601DA01130254029D02EE024A03B1032404A5043605D9058F065C0742084409650AAA0B160DAF0E79107C12BD1445171C1A5F
:406D40004B1DDE209C4100106A4000107041001060400010704100107A41001070410010604000106A4000106A4000107A41001060400010564000105640001056400010B7
:406D8000CC430010C8470010884600108846001086460010A0470010A04700109247001086460010A047001092470010A047001086460010A8470010A8470010A84700109A
:406DC000A849001000000000FEB5074600256846058078683C1D34492E46002807D06268002A06D0800702D1207A800701D00D4658E0FCF7CDFAFCF7EDFA0190FCF702FB5B
:406E0000FCF73AFA0198FCF7E9FAFCF7E1FA00F031F900283ED1403738790006C00F00F0A9F905460004000C34D12049084600F057FF0004000C2DD12289A17A20681C4CED
:406E4000002806D02060A280E68021810021FEF78DFB684601F0DCFD054616486B460079E2888000001DC1B21B88A088D418A04206D3C01A801A80B201F074FA044600E066
:406E80000D4C00F0E1FD002C04D100F0B5FB0B480121817000F0FCF8002D03D001F050FC064806702846FEBD0100160049700010B812000816130008FFFF000004010008A8
:406EC00010B5094CA07801280AD06078012806D12078002803D101F00EFC0020607010BD01F0C2F810BD00000401000810B5FCF7DBF9032801D100F099FE00F015FA01F0B4
:406F00000BFE00F01FFF02490020887010BD00000401000800487047B812000870B5044600208A0703D08A07920F891A091D084B89B2DA889E885518B54206D81D68AA189F
:406F40002260DA885118D98070BD024870BD0000B81200080300160000487047C41200080749002809D0FF216E31818005210170002141700A218170002108467047000043
:406F80000100160010B5FFF79BFF10BD10B501F027FE10BD10B501F0F5FC10BD38B50546002069460880002D09D0284601F006FE0446684601F020FD002C02D015E00C4837
:406FC00038BD01F0D7FC2846FFF7FEFE04000CD1284601F06DFD040007D1FCF765F9032803D100F0E9FD00F037FE204638BD00000100160038B50446002069460880002C7B
:4070000008D0A18D090A05D1617A102902D8E179102901D90A4838BDE0856946204601F093FD05466946E08D09884018E085002D04D1322221460348FEF78FFA284638BD26
:4070400001001600C41200087047000010B5084900200978002909D006F018FA044606F0DBF8201A80B281004018C00810BD00000C01000810B5FCF773FB4822024903487B
:40708000FEF76BFA002010BD40660010F612000810B5FCF7B1F9FCF7DDF810BD10B51A46034C01F0EBFA002800D00024204610BDFFFF000010B501F0B1FB10BD10B501F050
:4070C0000FFB10BD010010B5044806D0044A01201070002008F06CF9002010BDFFFF00000C01000870B50024034D20462C7008F08DF92C70204670BD0C0100080148007847
:40710000704700000C01000870B5591C89B24C080B4D64000021451906E028685054000A5618891C707089B2A142F6D3D80705D0D0182038D15CC47FD454C17770BD000030
:4071400000103C4030B50A4C002100195B1E07E054186478555C240225430560891C89B29942F5DB994201D1515C016030BD000000103C40F1B590B0FF2000F01BFA254F85
:40718000FF2078702448254900684018406B3C1D400F01260025022801D0667000E06570FCF782F8032819D026701A48801C4570FFF7D2FE0446162281180A346846FEF77D
:4071C000CCF92222214607A8FEF7C7F907A90EC9109812F0CBFE040002D017E02570E4E712F01AFF3870012000F0E4F912F01EFF68460576457606A813F0BCFA684646760F
:4072000006A813F0B7FA06A801F096FC204611B0F0BD00000D0100080801000840F03D40F0B50021094D5B1E08E0441924685718260A7E705454001D891C89B29942F4DBD1
