:020000041008E2
:4000000000780408EB0208100D00000051030810510308105103081051030810000000000000000000000000000000004D0308104D030810000000004D0308104D030810DA
:400040004D0308104D0308104D0308104D0308104D0308104D0308104D0308104D0308104D0308104D0308104D0308104D0308104D0308104D0308104D0308104D03081000
:400080004D0308104D0308104D0308104D0308104D0308104D0308104D0308104D0308104D0308104D0308104D0308104D0308104D0308104D0308104D0308104D030810C0
:4000C0004D0308104D0308104D0308104D0308104D0308104D0308104D0308104D0308104D0308104D0308104D0308104D0308104D0308104D0308104D0308104D03081080
:400100004D0308104D0308104D0308104D0308104D0308104D0308104D0308104D0308104D0308104D0308104D0308104D0308104D0308104D0308104D0308104D0308103F
:400140004D0308104D0308104D0308104D0308104D0308104D0308104D0308104D0308104D0308104D0308104D0308104D0308104D0308104D0308104D0308104D030810FF
:400180004D0308104D0308104D0308104D0308104D0308104D0308104D0308104D0308104D0308104D0308104D0308104D0308104D0308104D0308104D0308104D030810BF
:4001C0004D0308104D0308104D0308104D0308104D0308104D0308104D0308104D0308104D0308104D0308104D0308104D0308104D0308104D0308104D0308104D0308107F
:400200004D0308104D0308104D0308104D0308104D0308104D0308104D0308104D0308104D0308104D0308104D0308104D0308104D0308104D0308104D0308104D0308103E
:400240004D0308104D0308104D0308104D0308104D0308104D0308104D0308104D0308104D0308104D0308104D0308104D0308104D0308104D0308104D0308104D030810FE
:400280004D0308104D0308104D03081010B5054C237833B9044B13B10448AFF300800123237010BD6065020800000000D81D0B10084B10B51BB108490848AFF3008008488E
:4002C000036803B910BD074B002BFBD0BDE81040184700BF0000000064650208D81D0B10E4460208000000007047FFF7FDFF72B6104C114DAC4209DA21686268A368043B9F
:40030000A2BFC858D050FAE70C34F3E70B490C4A00209142BCBF41F8040BFAE709480A490860BFF34F8F00F077F900F051F900F06DF8FEE76C010C1084010C106065020877
:400340006C8002080040020808ED00E0FEE7FEE700B504207146084202D0EFF3098001E0EFF30880043005F013FEFEE708B50C4BD3F8003713F0010F11D006F02BF805F005
:40038000E1FF074BD3F8880100F5A07080B205F0EBFF05F0CDFF01F055FC00F0E1FA08BD0000264010B505F0CDFF002005F0F6FF4FF4A07005F0D8FF06F00CF80F4CD4F8D8
:4003C0000C3543F00043C4F80C350D490D4805F071FD4FF480020C4B1A60D4F8083743F00103C4F80837D4F8803143F00103C4F8803105F0EFFF05F09BFF10BD00002640A2
:400400006D030810CC83081000E100E008B5FFF7C9FF064B5B6813F4003F01D005F0B2FE62B600F03FFA002008BD00BF0000264008B5012005F0ECF908BD00BF704700BFC4
:400440005C4AD2F8803303F00F0303F1D00152F8212002F00702032A04D0042A05D092B9554914E0554A116811E003F1C002514951F8222002F01F02112A06D0132A04D00F
:400480004FF4FA4103E04E4901E04FF400418BBB484BD3F8902502F00100D3F88825C2F30172D3F8883513F0405F07D0414BD3F88835C3F30173012B02D102E0012300E0CF
:4004C000002303B108B9032A46D13A48D0F88025C2F31103D0F88425C2F30C02D0F88005C0F300600130B1FBF2F202FB03F2B2FBF0F131E0012B2FD12E4BD3F8402602F0BA
:400500000100D3F80026C2F30172D3F8003613F0405F07D0274BD3F80036C3F30173012B02D102E0012300E0002303B108B9032A12D12048D0F8002602F07F02D0F8003636
:40054000C3F30423D0F80006C0F3044002FB01F2B2FBF3F2B2FBF0F1164BD3F88033C3F3011321FA03F215494A601648D0F89030C3F3072301330069000E0130B2FBF0F0D9
:400580008860B2FBF3F3CB600B6103F5742202F23F220D48A0FB0202C2F387420A7503F2E7330A4AA2FB03239B098B61DB03CB61704700BF0000264000127A008C42020855
:4005C00000366E010000214083DE1B43D34D621008B50D4805F008FFFFF730FFFFF730FF00221146042004F0C5FE084804F058FF074B1B6893F8513013B1064804F0C0FFB7
:4006000004F002FE08BD00BFBC150B107C65020838800208D483081008B505F016FD074AD2F8883043F47003C2F88830BFF34F8FBFF36F8F05F00DFD08BD00BF00ED00E0F6
:400640002DE9F04184B000AF0C4644F2070398423ED015D843F2120398425ED007D8B0F5805F2AD041F20103984244D0F3E044F20103984256D044F20603984231D0EAE024
:4006800045F20203984270D008D844F20803984216D044F2140398425FD0DCE045F20E03984200F08C8045F21703984261D045F20C03984240F0CF8081E0694836F0ACF9FB
:4006C0000021084606F084F8002000F03DF9C2E04B78634880F8413037F0DAFC00F03EFFB9E0604B1B78002B40F0B58000F036FF04F008FCAFE00B78042B40F0AC80CA784D
:40070000574B93F844309A4240F0A58000F026FF534A936C013393649DE000211F2001F09BFA98E0504B1B685B6A1A78102A01D10522DA704C4B1B685A6A61795171586A02
:4007400037F02AFC002800F0868037F05DFC464B1B68586A37F020FC7DE04222404807F050F8424837F06AFC75E0002000F0ECF871E04B88182B6ED13D4C21683D4801F05F
:40078000B9FC3D4801F0B6FC23687B60344BDB6C3B811823BB81381D06F06EF910B1374801F0A8FC364B196901F00101354B1960354801F09FFC354801F09CFC4BE0E8461F
:4007C000A688314606F1080323F00703ADEB030D6D462389182B3DD104E02268D25CEA54013300E000238B42F7DB0023AB552946274801F07FFC2B78742B04D0762B12D027
:40080000542B18D107E0681C06F0E0FF0146214801F070FC12E0681C06F0D8FF01461E4801F068FC0AE0681C06F0D0FF01461B4801F060FC02E01A4801F05CFC701C06F085
:40084000C9FF0B4A10602368136000229A55E06839F0D8FBC5461037BD46BDE8F08100BFAC420208418002083878020840430208088002080884081020840810388408109E
:40088000000532400C800208488408105C8408108084081098840810A8840810B8840810C884081008B500F053FE184801F022FC04F036FB03F068FC154804F007FB00F0D7
:4008C0003BF804F07DFB04F063FB04F0A9FB04F0BFFB04220F4B5A6001F0D2F931F0B0FB01F0F6F900F0B4FD00F034F8012801D1094B9B6C084B9B6C002BEFD00648002357
:400900008364443032F08AFDE8E700BFD08408104106081080033240AC420208044B984204D14B681B681A78024B1A70704700BFBF000100FC66020808B5024806F080FDB4
:4009400008BD00BF1D090810014B1870704700BFFC660208014B1878704700BFFC6602081C4B1B68002B07DD0A3B1A4A1360002B02DA0022174B1A60174B1B68002B07DD33
:400980000A3B154A1360002B02DA0022124B1A60002310E0104A02EB83025268002A09DD0A3A0D4901EB83014A60002A02DA0A46002151600133022BECDD074B1B69002B70
:4009C00007DD0A3B044A1361002B02DA0022024B1A617047004302080067020808B51721352001F009F880221F21074801F032F829212F2001F000F880221F21034801F07E
:400A000029F800F011FF08BDDC860810E886081010B582B004464FF6FF7300930F2301227021104601F0A6F80121084600F0E4FF80221F21204601F00DF802B010BD00BFBB
:400A4000F0B583B007460E4614464FF4784500954F2341223321022001F08CF8384607F005F800EB40004300C3F13100400802304221C0B200F0C0FF80224FF6E0713846D5
:400A800000F0E8FF00954F2341226821372001F071F8304606F0EAFF00EB40004300C3F13100400837304221C0B200F0A5FF80224FF6E071304600F0CDFF00954F23412227
:400AC0009D216C2001F056F8204606F0CFFF00EB40004300C3F1310040086C304221C0B200F08AFF80224FF6E071204600F0B2FF03B0F0BD10B582B04FF4F86400941123C1
:400B00001A4666213A2000F0CDFF009412231A4665213B2000F0C6FF00943D231A4666213A2000F0BFFF00943C231A4665213B2000F0B8FF00943C2312223A21084600F07B
:400B4000B1FF00943B2313221946184600F0AAFF00943C2312226621084600F0A3FF00943B2313226521084600F09CFF02B010BD00B583B0C0B200F1280102304FF6FF7358
:400B800000933A231322C9B2C0B200F0F3FF03B05DF804FB70B584B0044601A806F05EFF1A4D294601A806F07DFF06462946002006F078FF0546304606F058FF00EB400029
:400BC0004300C3F12C00E4B204EB50001721C0B200F012FF80224FF61F01304600F03AFF284606F043FF00EB40004300C3F12C0004EB50002D21C0B200F0FEFE80224FF6E6
:400C00001F01284600F026FF04B070BDF886081070B506460D4614460846FFF7A9FF354B53F82620A24264DC03EB86039B6A9C425FDC092E5DD8DFE806F0050E17212B35F2
:400C40003F495358A41A2B4B03EB8404216D2846FFF7A0FF70BDA41A264B03EB8404616F2846FFF797FF70BDA41A224B03EB8404D4F89C102846FFF78DFF70BDA41A1D4BE1
:400C800003EB8404D4F8D8102846FFF783FF70BDA41A184B03EB8404D4F804112846FFF779FF70BDA41A134B03EB8404D4F82C112846FFF76FFF70BDA41A0E4B03EB84044F
:400CC000D4F854112846FFF765FF70BDA41A094B03EB8404D4F880112846FFF75BFF70BD05492846FFF756FF70BD04492846FFF751FF70BDDC840810FC86081044840810AA
:400D00002DE9F0438BB007A801F008F89DF82420C2F30119C2F3C008C2F38007C2F3400602F001059209784903A806F073FE4FF6FF7400941E2310227021022000F01AFF52
:400D40001021022000F058FE80224FF61F0103A800F080FE4A466D4903A806F05BFE00942D231F227021022000F004FF1F21022000F042FE80224FF61F0103A800F06AFE13
:400D80004246634903A806F045FE00943C232E227021022000F0EEFE2E21022000F02CFE80224FF61F0103A800F054FE3A46594903A806F02FFE00944B233D2270210220C6
:400DC00000F0D8FE3D21022000F016FE80224FF61F0103A800F03EFE32464F4903A806F019FE00941E2310223821392000F0C2FE1021392000F000FE80224FF61F0103A870
:400E000000F028FE2A46454903A806F003FE00942D231F223821392000F0ACFE1F21392000F0EAFD80224FF61F0103A800F012FE9DF82520C2F38017C2F3C00602F00305CE
:400E4000D209374903A806F0E5FD00943C232E227021392000F08EFE2E21392000F0CCFD80224FF61F0103A800F0F4FD3A462D4903A806F0CFFD00944B233D227021392049
:400E800000F078FE3D21392000F0B6FD80224FF61F0103A800F0DEFD0022234903A806F0B9FD1021702000F0A7FD80224FF61F0103A800F0CFFD32461C4903A806F0AAFD28
:400EC0001F21702000F098FD80224FF61F0103A800F0C0FD2A46164903A806F09BFD00943C232E227021084600F044FE2E21702000F082FD80224FF61F0103A800F0AAFD4B
:400F00000BB0BDE8F08300BF048708100C870810148708101C870810248708103087081038870810408708104887081050870810588708102DE9F84F204B1B68002B3BD1CC
:400F40001F4F4FF00808C7F808801E4E8024B460DFF878A04FF0040BCAF808B0DFF87090C9F80840184DA88A04F0F6FFCAF804B0C9F80440C7F804807460A88A04F0ECFF8F
:400F8000C7F80880B4604FF0400BC9F808B0AAF5207A2023CAF80830A88A04F0DDFFC9F804B02023CAF80430C7F804807460AB69002B01DD014A1360BDE8F88F0043020842
:400FC00000033240800332400067020800053240000632400138092806D8DFE800F00A0F14191D2125292D314FF0FF32194B9A6129E04FF47A72174B9A6124E04FF4FA72E1
:40100000144B9A611FE040F24D12124B9A611AE0FA22104B9A6116E0C8220E4B9A6112E0A7220C4B9A610EE08F220A4B9A610AE07D22084B9A6106E06F22064B9A6102E056
:401040006422044B9A61034B9B69002B01DD024A1360704700670208004302080138092806D8DFE800F0090E13181D22272C313600221A4B5A6170474FF49672174B5A6176
:4010800070474FF4C872154B5A6170474FF4FA72124B5A6170474FF41672104B5A6170474FF42F720D4B5A6170474FF448720B4B5A6170474FF46172084B5A6170474FF483
:4010C0007A72064B5A61704740F24C42034B5A6170474FF49662014B5A6170470067020838B568B900F04CFE00212D4BC3F8CC12062000F0B1FD4FF0FF322A4B9A6138BD44
:40110000044600F029FE0121062000F0A5FD254DA86BFFF7A3FF286BFFF75CFF601E092839D8DFE800F0050A0F14191E23282D3201221B4BC3F8CC2238BD0822184BC3F87A
:40114000CC2238BD1522164BC3F8CC2238BD2122134BC3F8CC2238BD2D22114BC3F8CC2238BD3A220E4BC3F8CC2238BD47220C4BC3F8CC2238BD5322094BC3F8CC2238BDB6
:401180007C22074BC3F8CC2238BD40F22E22044BC3F8CC2238BD0022014BC3F8CC2238BD0000394000670208164B5B6C012B0AD0022B17D0134B9B6C002B21DD114A0121EF
:4011C0005164136170470F4B1B695BB90D4A02235364936CC3F164031361002B02DA0022084B1A61074B9B6C1BB90022054B5A647047044A12691AB9024A0121516413611E
:40120000704700BF0067020808B5002810DD322303FB00F00A4B83FB0023C017C0EBA3003230084B98640121032000F015FD08BD0021044B9964032000F00EFD08BD00BFCB
:40124000676666660067020808B5034620B90021094AC2F80C1104E040F20111064AC2F80C1123B90021022000F0F6FC08BD0121022000F0F1FC08BD0000384008B50238D0
:40128000052817D8DFE800F00307160B0F130846FFF7DAFF08BD0846FFF7B6FF08BD0846FFF798FE08BD0846FFF71AFF08BD0846FFF7D4FE08BD00BF10B50446FFF774FF9B
:4012C000FFF738FE594BDB6C012B31D0022B57D04FF6FF7000F0AEFA544C226D544B03EB8203D3F8A801FFF793FB236D2BB9514A51495248FFF7A4FB14E0082B05D1504A62
:4013000050495148FFF79CFB0CE0092B05D14F4802460146FFF794FB04E0464A4A494748FFF78EFBFFF7E6FB0122404BDA6410BD3E4C206D04EB8003DA69013A0721FFF783
:4013400067FC206D04EB8003DA693A21FFF760FC206D04EB8003DA6901326D21FFF758FC206D092802D1FFF7CBFC05E02F4B03EB8003D969FFF782FF02222C4BDA6410BD51
:401380002368EBB100232360284B1B6DA3F10802012A04D8254B00221A65DA6410BD234A02EB8302D269224951F823108A4207DD1E4901EB8303013ADA610123CB6410BD84
:4013C000636893B100236360184B1B6D002B03DD0022164B1A6504E0144A02EB8303DB6913650022114BDA6410BDA368E3B10023A3600E4B1B6DA3F10802012A04D80B4B65
:4014000000221A65DA6410BD9A0008491144C96907480244926A914206DA044A02EB83030131D9610123D36410BD00BF00670208DC84081060870810648708106C87081040
:401440007087081078870810808708108887081010B584B000243FE03A4B03EB84035B6D022B1FD0032B2CD0012B10D004AB03EB840353F80C3C73BB324B03EB84030122B6
:401480005A651A6632225A6000F014FC23E02D4B03EB84035B68F3B92A4B03EB840302225A6518E004AB03EB840353F80C3C012B11D1244B03EB840303225A6532225A6020
:4014C00009E0204B03EB84035B6823B91D4B03EB840300225A650134022CBDDD194BDB6E012B1DD0022B24D01BB11748FFF7E4FE25E000F09BFB4FF6FF7000F09BF90022FA
:4015000008E0930011491944D1F8D0110D480344D9610132092AF4DD01220A4BDA660EE0FFF75CFA074B40F6B8321A600222DA6605E0044B1B6813B90A22024BDA6604B090
:4015400010BD00BF0067020860670208DC84081008B54FF0007004F07FFD08BD044B1B78022B04D0002300E00133002BFCD070474180020808B504F0D7FC08BD0078704779
:4015800008B5C820FFF7F6FFC820FFF7F3FF08BD10B5064C00220649204604F0C3FA236843F00043236062B610BD00BF0000634098100B1008B50146224B1B6A002B06DAD8
:4015C000204B0022C3F8002FD3F8003F05E01D4B0022C3F8402FD3F8403F1A487322C0F8802FD0F8802FD0F8042242F48032C0F80422D0F8042222F48032C0F80422D0F8A2
:4016000004226D22C0F8C02FD0F8C02FD0F8042342F48032C0F80423D0F8042322F48032C0F80423D0F8042304F072F9054BD3F80833C3F30803002BF8D0024BD3F8400398
:40164000C0B208BD0000634008B50146224B1B6A002B06DA204B0022C3F8002FD3F8003F05E01D4B0022C3F8402FD3F8403F1A487322C0F8802FD0F8802FD0F8042242F432
:401680008032C0F80422D0F8042222F48032C0F80422D0F804226D22C0F8C02FD0F8C02FD0F8042342F48032C0F80423D0F8042322F48032C0F80423D0F8042304F028F9DB
:4016C000054BD3F80833C3F30803002BF8D0024BD3F84003C0B208BD0000634000B583B0294B1B6A002B06DA274B0022C3F8002FD3F8003F05E0244B0022C3F8402FD3F8CC
:40170000403F214B7322C3F8802FD3F8802FD3F8042242F48032C3F80422D3F8042222F48032C3F80422D3F804226D22C3F8C02FD3F8C02FD3F8042342F48032C3F8042351
:40174000D3F8042322F48032C3F80423D3F80423020A8DF804208DF80500022201A9184604F006F9084BD3F80833C3F30803012BF8DD054BD3F840238DF80420D3F84033FD
:40178000002003B05DF804FB00006340884226D89F2926D89A4226D8672B26D8F8B5C1F1A004E4B2C0F1A005EDB2C3F16906F6B2C2F16907FFB22A20FFF7FCFE2046FFF7A4
:4017C0008DFF2846FFF78AFF2B20FFF7F3FE3046FFF784FF3846FFF781FF0020F8BD0120704701207047012070470120704700BF70B506460D462C20FFF7DCFE03E030462E
:40180000FFF76CFF25466B1E9CB2002DF7D170BD10B514460B460A460146FFF7B7FF01212046FFF7E5FF10BD08B52920FFF7C2FE08BD00BF10B50446672300229F211046F0
:40184000FFF7A4FF4FF482412046FFF7D1FF10BD2DE9F84F07460E4612B32DE0A7F1200000EB80004044624B1844FFF787FE054608230FE045FA04F313F0010F09D05D4BA6
:4018800019782144987840443246C9B2C0B2FFF7BFFF23465C1EE4B2002BEBD1434600E0052303F1FF385FFA88F8002BD6D1514A53880633538097E0802A3ED133E0A7F161
:4018C000200303EB83032B4449481844FFF756FE8046082321E048FA04F313F0010F1BD061005FFA81FADFF80C9199F80010514499F8020028443246C9B2C0B2FFF788FFC2
:4019000099F800105144013199F8020028443246C9B2C0B2FFF77CFF23465C1EE4B2002BD9D12B4600E005235D1EEDB2002BC6D1304A53880633538056E0812A54D148E038
:40194000A7F1200303EB83034B4429481844FFF715FE8046082336E048FA05F313F0010F30D04FEA490A5FFA8AFA4FEA450B5FFA8BFB204C21785944A07850443246C9B26D
:40198000C0B2FFF745FF217859440131A07850443246C9B2C0B2FFF73BFF21785944A078504401303246C9B2C0B2FFF731FF217859440131A078504401303246C9B2C0B28A
:4019C000FFF726FF2B465D1EEDB2002BC4D14B4600E0052303F1FF395FFA89F9002BAFD1044A53880B3353800020BDE8F88F00BFB88A081070670208A02801D968290ED89D
:401A0000A02807D9682905D8064B198002225A8000207047034B19805880002070470120704700BF70670208A02801D9914209D8A02809D9914209D8054B198002225A8028
:401A400000207047012070470020704700207047706702082DE9F041064688461446002518E00F4904F00F008B78184405302209083209781144C2F168022346D2B2C9B2A1
:401A8000C0B2FFF7D1FF28B90135224641463878FFF7DEFE7719735D002BE2D1BDE8F081706702082DE9F04F83B005468B4614469A46BDF830300193091A89B20FB2C2EBDE
:401AC0000A0292B213B2002F04DA4F423FB24FF0FF3901E04FF00109002B04DA53421BB24FF0FF3801E04FF001089F421FDD1FFA83FABFB2C7EB4A0636B2019A2146284659
:401B0000FFF786FE10E04D44EDB2002E04DB4444E4B2A6EB470636B206EB4A0636B2019A21462846FFF774FE5D45ECD11EE01FFA83FBBFB2ABEB470636B2019A2146284679
:401B4000FFF766FE10E04444E4B2002E04DC4D44EDB206EB4B0636B2A6EB470636B2019A21462846FFF754FE5445ECD1012003B0BDE8F08FF8B507460D4616461C468842F4
:401B800001D90F460546A64202D9334626461C462346324629463846FFF7F8FDE91B0131A41B013411FB04F189B2BDF81800FFF71FFEF8BD10B503E00120FFF7DBFC2046F1
:401BC000431EDCB20028F7D110BD00BF2DE9F843451CFFF7D3FC20E06F1C2846FFF7CEFC0646AC1C3846FFF7C9FC814620460335FFF7C4FCFFF7DEFC07E06F1C2846FFF73C
:401C0000BDFCFFF721FD26463D46731EDCB2002EF3D14846FFF7CEFF404600F1FF385FFA88F80028D8D1BDE8F88300BF08B5FFF7AFFCFFF7A5FC0248FFF7C8FF08BD00BFCF
:401C4000988C0810034B1B6813B1013B014A1360704700BF7467020841B9012303FA00F0064A536823EA000353607047012303FA00F0024B5A6810435860704774670208E7
:401C800008B54FF4FA62084B1A6003F0B1F9BF22064BC3F84C21064800F02CFA01211F20FFF7DAFF08BD00BF7467020800003940B88C08104FF4FA62034B1A60BF22034B9C
:401CC000C3F84C21704700BF7467020800003940704700BF70B504460E46154600F0EEF800216B2000F088F9204600F0F7F801216B2000F02BF9002404E0012000F088F9C1
:401D0000305501346B1E9C42F7DB1D46002000F07FF9705500F0A8F870BD00BF08B50146002008604860C1F807000B22FFF7D2FF08BD00BF38B505460C4600F0BFF80021C6
:401D40006B2000F059F9284600F0C8F8204600F0C5F800F089F838BD00B583B001220DF107011046FFF7B6FF9DF8071041F020018DF807100120FFF7DDFF03B05DF804FB59
:401D800000B583B001220DF107011046FFF7A2FF9DF8071001F0DF018DF807100120FFF7C9FF03B05DF804FB024B1869C0F30010704700BF00033240024B1869C0F34010D9
:401DC000704700BF0003324010B50446012804D94FF44A71054804F0CBF81CB91022044B5A6010BD1022024B9A6010BDC88C08100003324010B50446012804D94FF44A71CA
:401E0000054804F0B5F81CB92022044B5A6010BD2022024B9A6010BDC88C08100003324010B5002407E0FFF7BFFF012807D0012004F092F80134312CF5DD012010BD0020FB
:401E400010BD00BF10B5002407E0FFF7B5FF012807D0012004F080F80134312CF5DD012010BD002010BD00BF08B5082004F074F80020FFF7A9FF082004F06EF80020FFF736
:401E8000B9FF082004F068F80120FFF79DFFFFF7C7FF01280FD0082004F05EF80120FFF7A9FFFFF7CFFF012805D0082004F054F80020014B186008BD7C67020808B50120A8
:401EC000FFF798FF0120FFF77FFF042004F044F80020014B186008BD7C67020838B50546002415E0C5F3C010FFF784FF042004F033F80120FFF768FFFFF792FF012823D020
:401F0000042004F029F80020FFF75EFF6D000134072CE7DD0120FFF76DFF042004F01CF80120FFF751FF042004F016F8FFF744FF04460020FFF748FF2CB1FFF795FFFFF7E3
:401F4000BDFF204638BD204638BD00BF38B50D4601F0010343EA4000C4B20120FFF74AFFFFF770FF012844D0082003F0F5FF0120FFF72AFFFFF754FF01283AD0082003F030
:401F8000EBFF0020FFF736FFFFF716FF38B10120FFF71AFF0120FFF72DFF012038BD082003F0DAFF0020FFF70FFFFFF7FDFE38B10120FFF709FF0120FFF71CFF012038BD16
:401FC000082003F0C9FF01220A4B1A602046FFF785FF044628B1FFF747FFFFF76FFF204638BD1DB90222034B1A6038BD0322014B1A6038BD7C67020808B5044B1B6813B92F
:40200000FFF7A4FF08BD012008BD00BF7C67020870B506460120FFF7EDFE0024254614E0042003F099FF0120FFF7CEFEFFF7F8FE012821D0042003F08FFF6400FFF7BCFE69
:4020400004430020FFF7C0FE0135072DE8DD1EB10020FFF7CFFE02E00120FFF7CBFE042003F07AFF0120FFF7AFFE042003F074FF0020FFF7A9FE204670BD00BF10B50446A6
:40208000012804D94FF44A71054803F071FF1CB94022044B5A6010BD4022024B9A6010BDC88C08100003324038B505460020FFF7E5FF652003F050FF002408E005F001000D
:4020C000FFF7DCFF6D10652003F046FF0134072CF4DD0120FFF7D2FF652003F03DFF38BD014B1844704700BF088D081008B5FFF7DBFF08BD0FB470B598B0012498E02528D4
:4021000005D0FFF7F3FF1C9B01331C9390E05A1C1C925B78732B0FD1651C1CAB53F8244002E0FFF7E3FF013420780028F9D11C9B01331C932C467BE0642B32D1661C1CABB1
:4021400053F82450002D03DA2D20FFF7CFFF6D420022541C3B4B83FB0531EB17C3EBA103194603EB830358002B1A18A800EB820242F8603C0D4622460029EAD10AE0013C7B
:4021800018AB03EB840353F8600CFFF7A9FF0078FFF7ACFF002CF2D11C9B01331C93344646E0632B0AD1651C1CAB13F82400FFF79DFF1C9B01331C932C4639E0782B36D10F
:4021C000651C1CAB53F82430002200E02246541C03F00F0018A901EB820141F8600C1B09F4D114F0010F06D018AB03EB8404002344F8603C941C012C12D818AB03EB840341
:40220000002243F8602C01340AE0013C18AB03EB840353F8600CFFF763FF0078FFF766FF002CF2D11C9B01331C932C4600E022B11C9B187800287FF462AF18B0BDE8704081
:4022400004B070476766666610B582B004468DF8071043691046984738B9A36801210DF10700984718B1012002E0012000E0002002B010BD70B504460D4616464269184607
:40228000904730B9A36831462846984718B1012070BD012070BD002070BD00BFF0B583B005460C4616461F4600222A21FFF7CCFF20B16B6A5048984701239AE0230A8DF84D
:4022C0000430E4B28DF805408DF806308DF80740012304220DEB02012846FFF7CBFF20B16B6A46489847012383E000222B212846FFF7AAFF20B16B6A3F489847012378E0B3
:40230000330A8DF80430F6B28DF805608DF806308DF80760012304220DEB02012846FFF7A9FF20B16B6A35489847012361E000222C212846FFF788FF20B16B6A2E48984761
:40234000012356E095F8323003F00302032A18D13A0AC7F3031343EA021385F833303F0185F834700123022205F133012846FFF781FF034600283CD06B6A2048984701235C
:4023800037E003F00502052A12D13B0A85F8333085F834700123022205F133012846FFF769FF034628B36B6A14489847012320E003F00603062B18D13B0B9B0085F8333047
:4023C000BB099B0085F83430BF0085F835700123032205F133012846FFF74CFF034640B16B6A06489847012303E06B6A044898470423184603B0F0BDDCA40810FCA4081022
:4024000018A508102DE9F04F83B00190009190469DF8307017F0070218BF012202EBD7024FEA570B1BFB02FB5FFA8BFB203B5FFA83FA44464FF000093EE00C2F07D10AEB8C
:402440004A029300214A134413F8096012E0102F06D11E4B03EB0A134B4493F8746409E0182F2DD10AEBCA029300184A13444B4493F8646A002519E016F0800F06D00D9B85
:40248000224600990198FFF709FFD8B97600F6B20134A4B2C8EB0403BB4205D1009B01339BB20093444603E00135EDB2072DE3D909F101095FFA89F9D945BED3002002E04C
:4024C000012000E0012003B0BDE8F08F1C8D081070B598B190F82C60012E11D1054600221121FFF7B1FE044620B16B6A06489847344606E0AB6AC820984702E0022400E00A
:402500000324204670BD00BFDCA4081038B578B190F82C50012D0DD1044600221321FFF793FE034638B1636A044898472B4602E0022300E00323184638BD00BFDCA40810EB
:4025400038B578B190F82C50012D0DD1044600222121FFF779FE034638B1636A044898472B4602E0022300E00323184638BD00BFDCA40810E8B170B590F82C50012D1BD1EC
:4025800004460E4600222621FFF75EFE20B1636A0B4898472B4610E0012206F00F012046FFF752FE034640B1636A064898472B4603E00223184670470323184670BD00BF8A
:4025C000DCA40810FCA4081038B578B190F82C50012D0DD1044600222921FFF735FE034638B1636A044898472B4602E0022300E00323184638BD00BFDCA40810E0B170B57E
:4026000090F82C50012D1AD104460E4600223621FFF71AFE20B1636A0A4898472B460FE0012231462046FFF70FFE034640B1636A054898472B4603E002231846704703233F
:40264000184670BDDCA40810FCA4081038B578B190F82C50012D0DD1044600223821FFF7F3FD034638B1636A044898472B4602E0022300E00323184638BD00BFDCA408105C
:40268000F8B500B390F82C40012C1ED1054617460E4600223A21FFF7D7FD18B16B6A0C48984713E047EA0612D6B2012231462846FFF7CAFD18B16B6A0648984706E085F8DF
:4026C0003260044602E0022400E003242046F8BDDCA40810FCA40810E0B170B590F82C50012D1AD104460E4600225121FFF7ACFD20B1636A0A4898472B460FE00122314617
:402700002046FFF7A1FD034640B1636A054898472B4603E00223184670470323184670BDDCA40810FCA4081028B32DE9F041044690F82C50012D21D11F461646884600229C
:402740005321FFF781FD20B1636A0E4898472B4615E0F20042EA481141EA8701012201F0FC012046FFF770FD034640B1636A064898472B4603E002231846704703231846EE
:40278000BDE8F081DCA40810FCA4081020B32DE9F041044690F82C50012D20D11E461746884600225521FFF74FFD20B1636A0E4898472B4614E0330143EAC81343EA07011A
:4027C0000122C9B22046FFF73FFD034640B1636A064898472B4603E002231846704703231846BDE8F08100BFDCA40810FCA40810E0B170B590F82C50012D1AD104460E46C7
:4028000000225E21FFF720FD20B1636A0A4898472B460FE0012231462046FFF715FD034640B1636A054898472B4603E00223184670470323184670BDDCA40810FCA40810EB
:4028400098B32DE9F04182B0044690F82C50012D2ED1984616460F460022B021FFF7F4FC20B1636A154898472B4622E046EA07128DF804209DF82030DB0043EA08139DF8D5
:40288000248043EA88039DF8282013438DF805300123022201A92046FFF7ECFC034640B1636A074898472B4603E00223184670470323184602B0BDE8F08100BFDCA4081033
:4028C000FCA408102DE9F04782B09DF834709DF83880002848D0044690F82C50012D45D1994616468A4617F0800F04D0436A2248984704233BE0B8F11F0F04D9436A1F48D4
:402900009847052333E00022B121FFF79DFC20B1636A1B4898472B4629E0720142EACA1242EAC9039DF8282043EA82039DF82C2043EA42039DF8302013438DF8043007F060
:402940007F078DF8057008F01F088DF806800123032201A92046FFF78DFC034638B1636A084898472B4602E0022300E00323184602B0BDE8F08700BF7CA5081094A50810B4
:40298000DCA40810FCA408102DE9F04F85B09DF838809DF83C909DF840A09DF844B0002862D0044690F82C50012D5FD1019317460E4611F0800F04D0436A2F4898470423B8
:4029C00055E012F0800F04D0436A2C48984705234DE0B8F10F0F04D9436A29489847062345E0B9F10F0F04D9436A2648984707233DE0BAF10F0F04D9436A2348984708234B
:402A000035E0BBF10F0F04D9436A2048984709232DE00022B221FFF717FC20B1636A1C4898472B4623E08DF808608DF809709DF804308DF80A3009F00F0949EA08188DF8FE
:402A40000B800BF00F0B4BEA0A1A8DF80CA00123052202A92046FFF70DFC034638B1636A0C4898472B4602E0022300E00323184605B0BDE8F08F00BFACA50810D0A5081035
:402A8000F4A5081014A6081038A608105CA60810DCA40810FCA408102DE9F04782B09DF828709DF8308000283FD0044690F82C50012D3CD1994616468A461F2F04D9436A9F
:402AC0001D489847042333E0B8F11F0F04D9436A1A48984705232BE00022B321FFF7B4FB20B1636A164898472B4621E046EA0A128DF8042007F01F0747EA49198DF80590DC
:402B000008F01F089DF82C3048EA43138DF806300123032201A92046FFF7ACFB034638B1636A084898472B4602E0022300E00323184602B0BDE8F08780A60810A4A60810D4
:402B4000DCA40810FCA4081020B32DE9F041044690F82C50012D20D11F46164688460022B521FFF771FB20B1636A0E4898472B4614E0320142EAC81242EA07010122C9B252
:402B80002046FFF761FB034640B1636A064898472B4603E002231846704703231846BDE8F08100BFDCA40810FCA40810F8B5F0B190F82C50012D1CD1044616460F46002268
:402BC000B721FFF741FB20B1636A0B4898472B4610E046EA07110122C9B22046FFF734FB034638B1636A054898472B4602E0022300E003231846F8BDDCA40810FCA408101D
:402C0000002847D02DE9F04182B0044690F82C50012D42D1984617460E463F2904D9436A20489847042339E00F2A04D9436A1E489847052332E00F2B04D9436A1B489847FD
:402C400006232BE00022B821FFF7FEFA20B1636A174898472B4621E02A238DF804302B238DF8053006F03F018DF8061008F00F0343EA07128DF80720012304220DEB0201C9
:402C80002046FFF7F7FA034640B1636A094898472B4603E00223184670470323184602B0BDE8F081C8A60810F4A6081024A70810DCA40810FCA40810F0B170B590F82C5081
:402CC000012D1CD104460E460022BA21FFF7BCFA20B1636A0B4898472B4611E0B100012201F0FC012046FFF7AFFA034640B1636A054898472B4603E0022318467047032392
:402D0000184670BDDCA40810FCA4081020B370B590F82C50012D22D104460E463F2904D9436A1048984704231AE00022BB21FFF78BFA20B1636A0C4898472B4610E00122E5
:402D400006F03F012046FFF77FFA034640B1636A064898472B4603E00223184670470323184670BD50A70810DCA40810FCA40810A0B190F82C30012B12D1DFED0A7A07EEED
:402D8000101A77EE677ADFED086A87EEA67AFCEEC77A17EE903A1370002070470220704703207047CDCCCC3DCDCCCC3C98B32DE9F041044690F82C60012E2FD11F461546A7
:402DC00088460022C021FFF73FFA20B1636A15489847334623E06A0142EA881242EA07139DF8182043EAC2039DF81C2043EA82039DF8201043EA41039DF824101943012246
:402E0000C9B22046FFF720FA034640B1636A06489847334603E002231846704703231846BDE8F081DCA40810FCA4081018B370B582B090F82C50012D20D104460E460022E8
:402E4000C221FFF701FA20B1636A0E4898472B4615E08DF80460FF238DF805300123022201A92046FFF706FA034640B1636A064898472B4603E002231846704703231846EC
:402E800002B070BDDCA40810FCA4081020B370B590F82C50012D22D104460E46272904D9436A1048984704231AE00022C321FFF7CBF920B1636A0C4898472B4610E00122E1
:402EC00006F03F012046FFF7BFF9034640B1636A064898472B4603E00223184670470323184670BD68A70810DCA40810FCA40810A0B190F82C30012B12D1DFED0A7A07EE15
:402F0000101A77EE677ADFED086A87EEA67AFCEEC77A17EE903A137000207047022070470320704733336340CDCC4C3D20B370B590F82C50012D22D104460E463F2904D91C
:402F4000436A1048984704231AE00022C421FFF77BF920B1636A0C4898472B4610E0012206F03F012046FFF76FF9034640B1636A064898472B4603E00223184670470323A4
:402F8000184670BD80A70810DCA40810FCA40810A0B190F82C30012B12D1DFED0A7A07EE101A77EE277ADFED086A87EEA67AFCEEC77A17EE903A137000207047022070473E
:402FC00003207047CDCC4C3FCDCCCC3C20B370B590F82C50012D22D104460E463F2904D9436A1048984704231AE00022C521FFF72BF920B1636A0C4898472B4610E00122B6
:4030000006F03F012046FFF71FF9034640B1636A064898472B4603E00223184670470323184670BD98A70810DCA40810FCA40810A0B190F82C30012B12D1DFED0A7A07EE43
:40304000101A77EE277ADFED086A87EEA67AFCEEC77A17EE903A1370002070470220704703207047CDCC4C3FCDCCCC3CF8B5F0B190F82C50012D1CD1044616460F460022F7
:40308000C621FFF7E1F820B1636A0B4898472B4610E046EA47110122C9B22046FFF7D4F8034638B1636A054898472B4602E0022300E003231846F8BDDCA40810FCA40810CF
:4030C00038B32DE9F041044690F82C50012D23D11F46164688460022C721FFF7B5F820B1636A0F4898472B4617E0B20042EAC80242EA47039DF8181019430122C9B220467B
:40310000FFF7A2F8034640B1636A064898472B4603E002231846704703231846BDE8F081DCA40810FCA40810E0B170B590F82C50012D1AD104460E460022CC21FFF784F861
:4031400020B1636A0A4898472B460FE0012231462046FFF779F8034640B1636A054898472B4603E00223184670470323184670BDDCA40810FCA4081050B32DE9F04182B07B
:40318000044690F82C50012D25D11F46164688460022D021FFF758F820B1636A104898472B4619E0A4238DF80430320142EA88123A438DF805200123022201A92046FFF788
:4031C00059F8034640B1636A064898472B4603E00223184670470323184602B0BDE8F081DCA40810FCA4081050B370B582B090F82C50012D27D104460E460022DF21FFF7E6
:4032000023F820B1636A124898472B461CE05A238DF8043069238DF8053002238DF806308DF80760012304220DEB02012046FFF721F8034640B1636A064898472B4603E0A5
:403240000223184670470323184602B070BD00BFDCA40810FCA40810E8B170B590F82C50012D1BD104460E460022E021FEF7ECFF20B1636A0B4898472B4610E001230E22A0
:4032800031462046FEF7F6FF034640B1636A064898472B4603E00223184670470323184670BD00BFDCA40810FCA40810E8B170B590F82C50012D1BD104460E460022E12127
:4032C000FEF7C2FF20B1636A0B4898472B4610E001230E2231462046FEF7CCFF034640B1636A064898472B4603E00223184670470323184670BD00BFDCA40810FCA4081074
:40330000E8B170B590F82C50012D1BD104460E460022E221FEF798FF20B1636A0B4898472B4610E00123402231462046FEF7A2FF034640B1636A064898472B4603E002238B
:40334000184670470323184670BD00BFDCA40810FCA40810E8B170B590F82C50012D1BD104460E460022E321FEF76EFF20B1636A0B4898472B4610E00123402231462046E2
:40338000FEF778FF034640B1636A064898472B4603E00223184670470323184670BD00BFDCA40810FCA4081000283BD02DE9F04182B0044690F82C50012D36D198461746B5
:4033C0000E463F2904D9436A1A48984704232DE03F2A04D9436A18489847052326E00022E421FEF731FF20B1636A144898472B461CE08DF804608DF805709DF8203043EA2B
:40340000880343F010038DF806300123032201A92046FEF72FFF034640B1636A084898472B4603E00223184670470323184602B0BDE8F081B0A70810D4A70810DCA40810DA
:40344000FCA4081040B190F82C30012B06D1C90801391170002070470220704703207047F8B5F0B190F82C50012D1CD1044616460F460022E721FEF7E7FE20B1636A0B4849
:4034800098472B4610E046EA07110122C9B22046FEF7DAFE034638B1636A054898472B4602E0022300E003231846F8BDDCA40810FCA40810F8B5F0B190F82C50012D1CD13A
:4034C000044616460F460022E821FEF7BDFE20B1636A0B4898472B4610E046EA07110122C9B22046FEF7B0FE034638B1636A054898472B4602E0022300E003231846F8BD1A
:40350000DCA40810FCA4081000283CD02DE9F04182B0044690F82C50012D37D1984617460E461F2904D9436A1B48984704232EE01F2A04D9436A19489847052327E00F2BB6
:4035400004D9436A16489847062320E00022E921FEF77AFE20B1636A124898472B4616E08DF804608DF805708DF806800123032201A92046FEF77EFE034640B1636A0A4873
:4035800098472B4603E00223184670470323184602B0BDE8F08100BFFCA7081024A808104CA80810DCA40810FCA4081058B370B582B090F82C50012D28D104460E4600224B
:4035C000FA21FEF741FE20B1636A124898472B461DE05A238DF8043069238DF80530EE238DF80630B1008DF80710012304220DEB02012046FEF73EFE034640B1636A064871
:4036000098472B4603E00223184670470323184602B070BDDCA40810FCA4081000287FD010B50446436A002B7DD002681AB93F489847032378E042681AB93D489847032397
:4036400072E082681AB93B48984703236CE0C2681AB939489847032366E0016919B937489847032360E0416919B93548984703235AE0816919B933489847032354E0C169CC
:4036800019B93148984703234EE0016A19B92F489847032348E0816A19B92D489847032342E0904720B1636A2A48984705233BE0A369984730B1636A2748984723699847F7
:4036C000042331E0236A0020984740B1636A2348984723699847E3699847042324E0A36A64209847236A0120984740B1636A1B48984723699847E3699847042314E0236804
:403700009847034640B1636A1548984723699847E3699847012307E0012284F82C2003E00223184670470323184610BD70A808108CA80810ACA80810CCA80810F4A8081045
:403740001CA9081044A9081068A908108CA90810B0A90810CCA90810F0A9081014AA081038AA081038B548B390F82C40012C27D1054600221021FEF767FD18B16B6A124882
:4037800098471EE0EB69984720B16B6A0F489847052416E02B69984720B16B6A0C48984706240EE06B68984718B16B6A0948984707E0002285F82C20044602E0022400E016
:4037C0000324204638BD00BFDCA4081054AA081078AA0810A0AA081070B108B590F82C20012A0BD1F02904D9436A05489847042008BDC185002008BD02207047032008BDE1
:40380000BCAA081078B108B590F82C20012A0CD1B1F5A07F04D9436A05489847042008BD0186002008BD02207047032008BD00BFD4AA08102DE9F04782B0002800F0068144
:4038400090F82C40012C40F00381054600222A21FEF7FAFC18B16B6A8648984705E100238DF804308DF80530EB8D5A1E12128DF80620013B8DF80730012304220DEB02010D
:403880002846FEF7F7FC18B16B6A7B489847ECE000222B212846FEF7D7FC18B16B6A75489847E2E000238DF804308DF805302B8E5A1E12128DF80620013B8DF80730012354
:4038C00004220DEB02012846FEF7D4FC18B16B6A69489847C9E000222C212846FEF7B4FC074618B16B6A63489847BEE095F8323003F00302032A33D105F133084FF48052AA
:403900000021404603F088FF2B8EB5F82E9003FB09F909EB49094FEA593AC9F34B0900260CE001234FF4805241462846FEF7A2FC18B16B6A5048984797E001365645F0D32C
:40394000B9F1000F00F0868001234A4641462846FEF790FC00287FD06B6A4748984784E003F00502052A36D105F133084FF480520021404603F050FF2B8EB5F82E9003FBCF
:4039800009F94FEA49094FEA193A29F001094FEA09594FEA195900260CE001234FF4805241462846FEF766FC18B16B6A324898475BE001365645F0D3B9F1000F4ED001232C
:4039C0004A4641462846FEF755FC002848D06B6A2948984749E003F00603062B31D105F133094FF480520021484603F015FF2B8EB5F82E8003FB08F808EB48084FEA183A62
:403A0000C8F30B0800260CE001234FF4805249462846FEF72FFC18B16B6A1748984724E001365645F0D3B8F1000F1BD00123424649462846FEF71EFCB0B16B6A0E48984715
:403A400013E06B6A0D48984704240EE002240CE003240AE03C4608E0044606E03C4604E0044602E03C4600E00446204602B0BDE8F08700BFDCA40810FCA4081018A5081021
:403A80002DE9F04782B0BDF82880002800F06D81054690F82C40012C40F06981994617460E46C38D013B994204DD436AB548984704247CE14B4504DA436AB348984705249A
:403AC00075E1494504D3436AB048984706246EE1038E013B9A4204DD436AAD489847072465E1434504DA436AAA48984708245EE1424504D3436AA8489847092457E10022E2
:403B00002A21FEF7A1FB18B16B6AA44898474EE1330A8DF804308DF805604FEA19238DF806308DF80790012304220DEB02012846FEF7A0FB18B16B6A9948984737E100220A
:403B40002B212846FEF780FB18B16B6A934898472DE13B0A8DF804308DF805704FEA18238DF806308DF80780012304220DEB02012846FEF77FFB18B16B6A8948984716E11B
:403B800000222C212846FEF75FFB824618B16B6A824898470BE195F8323003F00302032A4FD11AE00B9BC3F30723A8180B99C1F3031141EA031180F83310501C9DF82C10C7
:403BC000284403F00F0343EA011380F83330931C2B4483F83310033200E00022B2F5805FE0D3C6EB0903C7EB0802561C03FB066606EB46064FEA5638C6F34B0600270DE075
:403C000001234FF4805205F133012846FEF732FB18B16B6A62489847C9E001374745EFD3002E00F0A6800123324605F133012846FEF720FB002800F09E806B6A5848984729
:403C4000B5E003F00502052A40D10CE00B9A110AEA1882F833105A1C2A449DF82C1082F83310023300E00023B3F5805FEED3C6EB0903C7EB0802561C03FB066676004FEA14
:403C8000163826F001063605360D00270DE001234FF4805205F133012846FEF7EBFA18B16B6A3F48984782E001374745EFD3002E63D00123324605F133012846FEF7DAFA12
:403CC00000285CD06B6A3648984770E003F00603062B45D114E00B9A120BE918920081F833205A1C0B9989092A44890082F833109A1C2A440B99890082F83310033300E012
:403D00000023B3F5805FE6D3C6EB0903C7EB0802561C03FB066606EB46064FEA1638C6F30B0600270DE001234FF4805205F133012846FEF79FFA18B16B6A1948984736E0D6
:403D400001374745EFD37EB30123324605F133012846FEF78FFA48B36B6A1148984726E06B6A10489847042421E002241FE003241DE054461BE0044619E0544617E004469B
:403D800015E000BFE8AA081008AB081028AB081040AB08105CAB08107CAB0810DCA40810FCA4081018A50810544600E00446204602B0BDE8F08700BF2DE9F04F85B0BDF873
:403DC0003890002800F0F880054690F82C40012C40F0F4801F4690460E46C38D013B994204DD436A794898470424EAE0BB4204DA436A774898470524E3E0B94204D3436AB4
:403E0000744898470624DCE0038E013B9A4204DD436A714898470724D3E04B4504DA436A6E4898470824CCE04A4504D3436A6C4898470924C5E000222A21FEF705FA18B12A
:403E40006B6A68489847BCE0330A8DF80C308DF80D603B0A8DF80E308DF80F700123042203A92846FEF706FA18B16B6A5E489847A7E000222B212846FEF7E6F918B16B6AF5
:403E8000584898479DE04FEA18238DF80C308DF80D804FEA19238DF80E308DF80F900123042203A92846FEF7E5F918B16B6A4E48984786E000222C212846FEF7C5F9019092
:403EC00018B16B6A474898477BE095F8323003F00503052B6BD1C6EB070A0AF1010A1FFA8AFAC8EB090B0BF1010B1FFA8BFBBF1BC8EB090808F1010607FB066676004FEA77
:403F0000163926F001063605360D0027B84626E0B7FBFAF20AFB127303FB0B230F9A32F813206B18100A83F833004B1C2B4483F833200137023100E00021B1F5805FE7D378
:403F400001234FF4805205F133012846FEF792F918B16B6A2448984733E008F10108C845EAD3AEB9019C2CE0B7FBFAF20AFB127303FB0B230F9A32F813206B18100A83F8A6
:403F800033004B1C2B4483F833200137023100E00021B142E8D30123324605F133012846FEF768F960B16B6A0F48984709E06B6A0E489847042404E0022402E0032400E05C
:403FC0000446204605B0BDE8F08F00BFE8AA081008AB081028AB081040AB08105CAB08107CAB0810DCA40810FCA4081018A508102DE9F04F83B0BDF830809DF83890002821
:4040000040D00E4617469A46054690F82C40012C3AD1C38D8B4202D9038E934227D86B6A1E489847042434E0EA8D4FEA590BCBEB0202964202DB4F44BFB200262A8EC9EB9C
:404040000202974201DB00273E460D9A0192CDF800903A4631462846FEF7D4F9C8B95E44B6B20AF1010A08F1FF381FFA88F8B8F1000F0BD09AF800307E2B09D81F2BD3D8F8
:40408000002406E0022404E0032402E0002400E00024204603B0BDE8F08F00BF94AB0810C8B110B5044690F82C00012815D1E08D884204D8636A0A489847042010BD208E6D
:4040C000904204D8636A07489847052010BD2046FEF7E4F810BD02207047032010BD00BFB4AB0810D0AB081020B310B504466022002103F091FB20220F49204603F0BEFCDE
:4041000020220E49A01803F0B9FC08220C4904F1400003F0B3FC0B4BA3640B4BE3640B4B23650B4BA3650B4B63654FF47A73E365002010BD02207047ECAB0810FCAB081030
:4041400008AC08109A991940333353400000F0400000AA420000F0C1002070470020704700207047704700BF0FB404B0704700BF00207047002070470020704700207047DD
:40418000002070470020704730B5BDB0B04B93E803000E908DF83C10AE4B93E803000C90ADF83410090C8DF83610AB4B93E803000A90ADF82C10090C8DF82E10A74A07ABD1
:4041C00007CA03C31A70A64C41F23C020021204603F022FBA34B2360A34B6360A34BA360A34BE360A34B2361A34B6361A34BA361A34BE361A34B2362A34BA362A34B6362FF
:4042000010A8FFF771FF28B1A148FFF7ADFF012000F04DBE10A99F48FFF7A6FF18A99E48FFF7A2FF20A99D48FFF79EFF279A9C49A1FB02318B094FF47A7000FB1323994ADC
:40424000A2FB0332520989099748FFF78DFF229803F068FA02460B469448FFF785FF239803F060FA02460B469148FFF77DFF249803F058FA02460B468E48FFF775FF26989C
:4042800003F050FA02460B468B48FFF76DFF259803F048FA02460B468848FFF765FF8848FFF762FF6E48FFF7B9F928B18548FFF75BFF012000F0FBBDF0216948FFF78CFABC
:4042C00040B18148FFF750FF6548FFF74BFA012000F0EDBD4FF4A0716148FFF793FA40B17A48FFF741FF5E48FFF73CFA012000F0DEBD5B48FEF7ECF840B17548FFF734FFE2
:404300005748FFF72FFA012000F0D1BD5448FEF79DF940B16F48FFF727FF5148FFF722FA012000F0C4BD4E48FEF7F0F840B16A48FFF71AFF4A48FFF715FA012000F0B7BDB7
:404340004748FEF7FDF840B16448FFF70DFF4448FFF708FA012000F0AABD01214048FEF709F940B15E48FFF7FFFE3D48FFF7FAF9012000F09CBD00213948FEF73FF940B166
:404380005848FFF7F1FE3648FFF7ECF9012000F08EBD052206213248FEF772F940B15248FFF7E2FE2E48FFF7DDF9012000F07FBDFF212B48FEF790F940B14C48FFF7D4FE4D
:4043C0002748FFF7CFF9012000F071BD00231A4619462348FEF7A8F940B14548FFF7C4FE1F48FFF7BFF9012000F061BD0323012211461B48FEF7CAF940B13E48FFF7B4FE1A
:404400001748FFF7AFF9012000F051BD00211448FEF7EEF940B13848FFF7A6FE1048FFF7A1F9012000F043BD00210291019100910B460A460A48FEF703FA002860D02F4878
:40444000FFF792FE0648FFF78DF9012000F02FBD240E0B102C0E0B10340E0B103C0E0B1080670208594108105D410810614108107141081075410810794108107D41081038
:40448000814108108541081065410810694108100C040B1028040B1040040B1060040B10D34D62101F85EB517C040B10A0040B10C8040B10F0040B1014050B1038050B1026
:4044C0005C050B107C050B1094050B10B0050B10CC050B10E8050B1008060B1030060B1058060B1074060B10A4060B10D0060B10F8060B1020070B1060070B1090070B105F
:40450000142304930223039300210291019100910B460A46A948FEF7D5F940B1A848FFF723FEA648FFF71EF9012000F0C0BC0323039302930193009300230C2211469F483F
:40454000FEF722FA40B19F48FFF70EFE9B48FFF709F9012000F0ABBC0F2302930021019100930B460A469548FEF796FA40B19648FFF7FAFD9148FFF7F5F8012000F097BC11
:4045800000231A4619468D48FEF7DEFA40B18F48FFF7EAFD8948FFF7E5F8012000F087BC022207218548FEF701FB40B18848FFF7DBFD8248FFF7D6F8012000F078BC052346
:4045C000072222217D48FEF71BFB40B18148FFF7CBFD7A48FFF7C6F8012000F068BC01217648FEF769FB40B17B48FFF7BDFD7348FFF7B8F8012000F05ABC0DF1EF02774988
:404600006E48FEF7B5FB40B17548FFF7ADFD6B48FFF7A8F8012000F04ABC9DF8EF106748FEF774FB40B16F48FFF79EFD6348FFF799F8012000F03BBC0021039102910122EC
:40464000019200920B465D48FEF7B0FB40B16648FFF78AFD5948FFF785F8012000F027BC01215648FEF7E2FB40B16048FFF77CFD5248FFF777F8012000F019BC0DF1EF02ED
:404680005B494E48FEF734FC40B15A48FFF76CFD4A48FFF767F8012000F009BC9DF8EF104648FEF7F3FB38B15348FFF75DFD4348FFF758F80120FAE30DF1EF0200213F48AD
:4046C000FEF766FC38B14D48FFF74EFD3B48FFF749F80120EBE39DF8EF103848FEF726FC38B14748FFF740FD3448FFF73BF80120DDE30DF1EF0200213048FEF799FC38B1A4
:404700004048FFF731FD2D48FFF72CF80120CEE39DF8EF102948FEF759FC38B13A48FFF723FD2648FFF71EF80120C0E30F2200212248FEF79BFC38B13448FFF715FD1F4842
:40474000FFF710F80120B2E3002100910B460A461A48FEF7B5FC38B12D48FFF705FD1748FFF700F80120A2E302211448FEF7DCFC38B12848FFF7F8FC1048FEF7F3FF0120F2
:4047800095E30123022211460C48FEF7F5FC38B12148FFF7E9FC0948FEF7E4FF012086E300210648FEF720FD002839D01B48FFF7DBFC0248FEF7D6FF012078E38067020865
:4047C000B4070B10E0070B10FC070B1024080B1050080B1074080B10A4080B100000D03FC8080B10F4080B1010090B1034090B109A99994058090B1084090B10A0090B101A
:40480000CC090B10E8090B101C0A0B10400A0B10600A0B10840A0B10A80A0B10D00A0B10D0238DF8E03004238DF8E1300D238DF8E23011228DF8E32013228DF8E4202B2214
:404840008DF8E5203F228DF8E62054228DF8E7204C228DF8E82018228DF8E9208DF8EA300B238DF8EB301F238DF8EC3023238DF8ED3038A9A648FEF7EFFC38B1A548FFF74A
:4048800073FCA348FEF76EFF012010E3D0238DF8E03004238DF8E1300C238DF8E23011238DF8E33013238DF8E4302C238DF8E5303F238DF8E63044238DF8E73051238DF8A0
:4048C000E8302F238DF8E9301F238DF8EA308DF8EB3020238DF8EC3023238DF8ED3038A98B48FEF7E3FC78B18B48FFF73DFC8848FEF738FF0120DAE23CAA1A44990002F800
:40490000501C01339BB200E000233F2BF4D928A97F48FEF7F5FC38B18048FFF725FC7C48FEF720FF0120C2E228A97948FEF712FD38B17B48FFF718FC7548FEF713FF01203C
:40494000B5E20DF1EF024FF4A0717148FEF77AFD38B17448FFF708FC6D48FEF703FF0120A5E29DF8EF100022009213466848FEF71BFD38B16C48FFF7F7FB6548FEF7F2FED0
:40498000012094E2002211466148FEF769FD38B16648FFF7E9FB5E48FEF7E4FE012086E2032201215A48FEF785FD38B16048FFF7DBFB5748FEF7D6FE012078E2082311226E
:4049C00011465348FEF7A0FD38B15A48FFF7CCFB4F48FEF7C7FE012069E200214C48FEF7E5FD38B15448FFF7BFFB4948FEF7BAFE01205CE24648FDF7E7FD38B14F48FFF7F4
:404A0000B3FB4348FEF7AEFE012050E24048FEF711FF38B14A48FFF7A7FB3D48FEF7A2FE012044E24748FFF79FFB0EA803F01EF880B20C2302934FF47843019300900EAB99
:404A4000002211463248FFF7D3FA38B13E48FFF78BFB2F48FEF786FE012028E20CA803F005F880B20C2302934FF4FC63019300900CAB322200212648FFF7BAFA38B1324873
:404A8000FFF772FB2248FEF76DFE01200FE20AA802F0ECFF80B20C2302933F23019300900AAB642200211A48FFF7A2FA38B12648FFF75AFB1648FEF755FE0120F7E107A86C
:404AC00002F0D4FF80B20C2302934FF6FF730193009007AB962200210D48FFF789FA38B11948FFF741FB0A48FEF73CFE0120DEE14FF47A70FFF736FB0548FEF79BFE28B3E0
:404B00000F48FFF731FB0248FEF72CFE0120CEE180670208F80A0B102C0B0B10600B0B10940B0B10CC0B0B10FC0B0B10180C0B103C0C0B10640C0B10900C0B10B80C0B104C
:404B4000D40C0B10EC0C0B10040D0B10AA48FFF70BFB0EA802F08AFF80B2102302934FF47843019300900EAB00221146A348FFF73FFA38B1A248FFF7F7FAA048FEF7F2FDEE
:404B8000012094E10CA802F071FF80B2102302934FF4FC63019300900CAB322200219748FFF726FA38B19648FFF7DEFA9348FEF7D9FD01207BE10AA802F058FF80B2102350
:404BC00002933F23019300900AAB642200218B48FFF70EFA38B18A48FFF7C6FA8748FEF7C1FD012063E107A802F040FF80B2102302934FF6FF730193009007AB96220021D5
:404C00007E48FFF7F5F938B17D48FFF7ADFA7B48FEF7A8FD01204AE14FF47A70FFF7A2FA7648FEF707FE38B17648FFF79DFA7348FEF798FD01203AE17348FFF795FA0EA8B4
:404C400002F014FF80B2182302934FF47843019300900EAB002211466848FFF7C9F938B16748FFF781FA6548FEF77CFD01201EE10CA802F0FBFE80B2182302934FF4FC63EA
:404C8000019300900CAB322200215C48FFF7B0F938B15B48FFF768FA5848FEF763FD012005E10AA802F0E2FE80B2182302933F23019300900AAB642200215048FFF798F9FA
:404CC00038B14F48FFF750FA4C48FEF74BFD0120EDE007A802F0CAFE80B2182302934FF6FF730193009007AB962200214348FFF77FF938B14248FFF737FA4048FEF732FD25
:404D00000120D4E04FF47A70FFF72CFA3B48FEF791FD38B13B48FFF727FA3848FEF722FD0120C4E03948FFF71FFA4FF47843019364230093002211463048FEF7A1FE38B1C9
:404D40003348FFF711FA2D48FEF70CFD0120AEE03F230193C82300936423962200212748FEF78EFE38B12A48FFF7FEF92348FEF7F9FC01209BE04FF40E6301934FF49B73FF
:404D80000093C8234FF48C7200211C48FEF778FE38B11F48FFF7E8F91848FEF7E3FC012085E04FF47A70FFF7DDF91448FEF742FD38B11448FFF7D8F91048FEF7D3FC012091
:404DC00075E01448FFF7D0F9002430E002F0D8FD10F0010F22D04FF6FF732A4621460748FFF75EF9D0B10C48FFF7BEF90348FEF7B9FC01205BE000BF240D0B10806702084D
:404E0000040D0B10D40C0B103C0D0B10540D0B10700D0B108C0D0B10A80D0B100135ADB200E00025B5F5A07FD0D30134A4B2EF2CF7D94FF47A70FFF795F91E48FEF7FAFCD1
:404E400038B11D48FFF790F91A48FEF78BFC01202DE01A48FFF788F9194B019340F23F130093EF23002211461248FEF7A5FF38B11448FFF779F90F48FEF774FC012016E073
:404E80004FF47A70FFF76EF90A48FEF7D3FC38B10948FFF769F90748FEF764FC012006E00948FFF761F90348FEF75CFC00203DB030BD00BF80670208D40C0B10C40D0B104B
:404EC0000CAC0810DC0D0B10040E0B1088B108B5094AD062094B1B7833B9104601F00CFB0122064B1A7000E0002020B901F026FB08BD0348704708BD04430208BC77020812
:404F00000100160008B501F0A5FB08BD08B50249024800F03BFF08BD148002080000634010B5144B1B7883B9134C144A1449204600F0F8FD236A23F04063236211491248F1
:404F400000F0B8FF01220B4B1A700F4BB3F90030002B08DB590903F01F03012202FA03F30A4A42F82130044A136843F00043136010BD00BFC4770208000063401480020814
:404F800098100B100D4F0810500E0B1000E100E008B5084B1B783BB9074A0721074801F007F90122034B1A70044B80229A609A6108BD00BFC5770208CC100B100000394015
:404FC00008B5084B1B783BB9074A0021074801F0EFF80122034B1A70044B01229A609A6108BD00BFC677020830110B100000384008B5084B1B783BB9074A0121074801F036
:40500000D7F80122034B1A70044B02229A609A6108BD00BFC777020894110B100000394008B5084B1B783BB9074A0121074801F0BFF80122034B1A70044B02229A609A61D5
:4050400008BD00BFC8770208F8110B100000384008B5084B1B783BB9074A0221074801F0A7F80122034B1A70044B04229A609A6108BD00BFC97702085C120B1000003840A9
:405080001F4B98422DD00CD840282ED003D8E8B1102828D02FE0802829D0B0F5807F28D029E0184B984228D006D8B0F1204F0DD0154B984212D01EE0144B98420AD001330B
:4050C000984209D0023B984215D101E0002070470F4870470F4870470F4870474FF4A0007047074870470D4870470D4870470D487047034870470C4870474FF4A4007047AF
:4051000006005200010000F0090000A0040000F0010052000200520003005200010050000200500005005200FF00520038B5124B1B6893F83130012B04D840F2C3110F4824
:4051400000F016FF0C4B1D682A6AB5F8B03013442C46D5F8B420D358002B0BDB084B1868FFF78EFF6B6801229A6063689B68002BFBD138BD034838BD38800208C0120B1098
:40518000CC770208020050001A4B186128B102230370FF23437000234380174B1B6893F850202AB300B583B0B3F93830ADF80030002301931149684600F07CFEBDF90030A9
:4051C000002B08DB590903F01F03012202FA03F30B4A42F82130084B1B6893F8513023B102220849012000F077FA03B05DF804FB704700BFCC770208388002085547020856
:4052000000E100E00D48020808B50248FFF7BCFF08BD00BFE077020838B50B4B1B68D3F8B4301B58002B0DDA0D4604460B0C1B0423B140F2D521054800F09AFEA9B26160F7
:40524000002038BD024838BD3880020800130B1001008A0038B50368002B01DA002300E0094B73B90D460446C2600B0C1B0423B140F2BB21054800F07BFEA9B2A160002075
:4052800038BD014838BD00BF01008A0000130B1038B504460D4619B99921084800F068FE074B1B68D3F8B4301B59002B03DAE3682B60002038BD034838BD00BF40130B102F
:4052C0003880020801008A00254B1B6893F8313083423AD900293AD00B6813F01F0F38D170B50D4604461E4B1B6893F83130984204D340F2C3111B4800F03AFE184B1B6808
:40530000186AB3F8B03004FB0304174E34602A68D2080021686802F07FFA00212046FFF77BFF346825B940F293310E4800F020FE2A4600212046FFF78DFF60B900210A4BC6
:405340001868FFF769FF40B970BD084870470748704706487047064870BD054870BD00BF3880020800130B10E477020803018A0001018A0010B504461346B2B9A9B9124B62
:405380001B6893F83130984204D340F2C3110F4800F0EEFD0C4B1B681A6AB3F8B03004FB03240B4B1C60002010BD43B149B1084A51609360111D2046FFF786FF10BD0548BA
:4053C00010BD044810BD00BF3880020800130B10E477020803018A002DE9F0411B4B1B68DC68236883422CD90D464609A0EB4610012303FA00F819B900F027FE074600E0AC
:405400000027124B18680368002B01DA002300E00F4B83B9626852F8263018EA030F05D023EA080342F82630002400E0094C0021FFF7F2FE00E0084C25B9384600F009FE7C
:4054400000E0064C2046BDE8F08100BFE477020801008A00020188000301880004018A000B4B1B68DB681A6882420CD94109A0EB4110012202FA00F05B6853F821301842F4
:4054800003D004487047044870470448704700BFE47702080101880004018A0000018800024B1B680BB9014B18607047F07702082DE9F8430446884691461D46089F2C4B09
:4054C0001B681BB9B5212B4800F052FD284B1B682C2000FB04F01C18EEB21E50C5F3072363602D0CA560244B1B6893F831309E4204D340F2C311214800F03AFD1E4B1B6860
:40550000196AB3F8B02006FB02162661666893F832309E4204D340F2DF11184800F028FD154B1B681D6A803605EB46156561A668330C1B0423B14FF4FF71104800F018FD43
:40554000330C1B0423B140F2FF110C4800F010FDB3B243EA0646AE60C4F81C90C4F820800023A36117B1B7F90030A381BDE8F883F077020880130B103880020800130B1094
:40558000F0B58FB0044618B95221274800F0F0FCA369072B03D95621234800F0E9FCE36A1BB95821204800F0E3FC236B1BB959211D4800F0DDFC07AD04F114060FCE0FC50E
:4055C00037682F6002AD26460FCE0FC533682B60164B1B68B3F93620079B1344ADF83030089B0D93A26AE16A0CAD00953B460A98FFF75EFF00210091069B0A460598FFF713
:4056000057FF216B284600F055FCBDF93030002B08DB590903F01F03012202FA03F3044A42F821300FB0F0BD80130B103880020800E100E0F8B506460F461D4614461AB9D5
:40564000FD211F4800F094FC1E4B1B681BB9FE211B4800F08DFC1B4B1B682C2101FB063001FB07314B68012202FA03F31B04466802FA06F60269EAB18F69EFB91268002AF7
:4056800001DA002200E0104AC2B92288134323600369DC6001238B614D620469330C1B0423B140F2BB21094800F062FCB2B2A2600020F8BD0648F8BD0648F8BD0548F8BDBF
:4056C00080130B10F077020801008A0000130B1004028A0007028A00F8B505460F4616460E4B1B6823B94FF4AF710D4800F040FC0A4B1B682C2404FB0534236A23B94FF45E
:40570000B171074800F034FCE369B34204D9236A43F826700020F8BD0248F8BDF077020880130B100A028A0038B504460D46074B1B6823B94FF4C871054800F019FC034B7C
:405740001B682C2202FB0434A56238BDF077020880130B1070B582B000230193044620B940F2D111284800F003FC236923B94FF4E971254800F0FCFB636923B940F2D3114D
:40578000214800F0F5FB236A23B94FF4EA711E4800F0EEFB6369DD682A0C20D012041A601B682069194B1B68D3F8B430C358002B15DA01A9FFF76CFD60B9019803681E0C6C
:4057C000DBB2E269934206D2226A52F8233013B1984700E0002631462069FFF71DFDADB275B16369ADB21D601B68636A1BB198470023636202E0A36A03B198470023A36189
:4058000063691B6802B070BD80130B103880020810B50446074B1B6823B940F2B111064800F0A6FB034B1B682C2000FB0430FFF791FF10BDF077020880130B1010B504466A
:40584000104B1B6823B940F22B210F4800F090FB0C4B1B682C2202FB0434B4F90C30002B0DDB5A0903F01F03012101FA03F32032064941F82230BFF34F8FBFF36F8F0020AE
:4058800010BD00BFF077020880130B1000E100E010B504460D4B1B6823B940F24B210C4800F066FB094B1B682C2202FB0434B4F90C30002B08DB590903F01F03012202FA8C
:4058C00003F3044A42F82130002010BDF077020880130B1000E100E010B4D0F8003303F00F03072B06D900230DE0D0F84043CC54013300E000239342F7D306E0D0F84043B5
:4059000021F8134001339342F8D35DF8044B7047036813F4006F01D0802200E04022D0F80832C3F30803934203D0C0F84012012070470020704700BF10B4D0F8003203F0A2
:405940000F03072B06D900230DE0CC5CC0F84042013300E000239342F7D306E031F81340C0F8404201339342F8D35DF8044B704710B51446036813F4006F01D0802200E09E
:405980004022D0F80832C3F30803D31AA34200D81C462246FFF7D0FF204610BD02E0C0F84012013A002AFAD1704700BF02E0D0F8403301390029FAD1704700BFF8B506460A
:4059C0000D46036813F4006F01D0802400E04024D6F80832C3F30803E41A6B699C4200D91C46AA692244AA611B1B6B612F6977B1224639463046FFF79FFFD6F8003203F0DC
:405A00000F03072B00D9640027442F6105E022464FF6FF713046FFF7C1FF6B69BBB92B6843F002032B60D6F8883F23F0010423F4EE6323F0030323B140F23641044800F037
:405A400097FAC6F8884FEB690BB101209847F8BDC0130B10F8B506460D46D0F80843C4F308048B68A34200D21C46EA682244EA601B1BAB606F6877B1224639463046FFF78A
:405A80002BFFD6F8003303F00F03072B00D9640027446F6003E021463046FFF787FFAB6883B9D6F8C83F23F0010423F4366323F00D0323B140F2A631194800F059FAC6F883
:405AC000C84FF8BD326A002A07DA326812F4006F01D0802209E0402207E0326812F4006F01D0802200E0402252089A4216D95C1E336813F4006F01D0802300E040239C4276
:405B000004D34FF42371064800F032FAD6F8043323F0FF02E3B21343C6F80433F8BD00BFC0130B10002800F02481F8B50546002900F0218117460C460B78012B03D93F21E8
:405B40008F4800F015FA6378012B07D9052B05D0022B03D040218A4800F00AFAA378032B03D94121864800F003FA2378012B07D16368023B0E2B03D94321814800F0F8F930
:405B8000A36933F00F0303D044217D4800F0F0F9A368043B0C2B03D94521794800F0E8F9E368043B0C2B03D94621754800F0E0F96378022B07D0A268E3689A4203D04721A4
:405BC0006F4800F0D5F9636A33F06D0303D049216B4800F0CDF9E36A33F0730303D04A21674800F0C5F9236B33F4206303D04B21634800F0BDF96378A678052B07D8DFE812
:405C000003F0060305060603022600E00026A368082B04D8E368082B03D9002302E0002300E0012313B14FF4006200E00022237F13B14FF4807300E000231A436368013B18
:405C400003F00F03134343F080732B60226A2B6813F4006F01D0802300E040239A4203D35821474800F084F9A26A2B6813F4006F01D0802300E040239A4203D35921404825
:405C800000F076F9237D0BB9012100E000216278052A01D1022300E000230B43E17C09B1102100E000210B43617C09B1202100E000210B432178012902D14FF0004100E0F9
:405CC00000210B43B60006F00C063343A169090201F470610B43120602F0407213432B62237C13B14FF4807200E00022A37C13B14FF4007300E000231A43A368013B03F06C
:405D00000F031343C5F8003394F82030C5F80433237C13B14FF4807200E00022E368013B03F00F031343C5F8003294F82830C5F80432636A03F06D03C5F8C83FE36A03F0C5
:405D40007303C5F8883F236B03F40073C5F8003F236B03F40063C5F8403F0023C5F8C83E5FB118463B60BB61FB60FB61054B3B62F8BD054870470448F8BD0020F8BD00BF14
:405D800004140B10EFCDAB000140AA0038B504460D46D0F8CC3E13F0010F04D00123C0F8C03ED0F8C03ED4F84C3F13F4006F0BD02B6843F400632B604FF40063C4F8403F3A
:405DC000D4F8403F012300E00023D4F8CC2F12F0200F09D02B6843F020032B602023C4F8C03FD4F8C03F0123D4F88C2F12F0400F09D02B6843F040032B604023C4F8803FDC
:405E0000D4F8803F01231BB1EB690BB104209847D4F8CC3F13F0010F08D029462046FFF719FE0123C4F8C03FD4F8C03FD4F88C3F13F0010F08D029462046FFF7BFFD012359
:405E4000C4F8803FD4F8803F2B6813F0010F0BD0AB684BB96B693BB92B6823F001032B60EB690BB10220984738BD00BF38B50D4B9A680D4B9A420FD10D46044621B940F2BE
:405E800037110A4800F074F804F11003064A52F8230042F8235038BD1030054B53F8200038BD00BF00ED00E00040020844140B100000081048B338B504460D464368072BD2
:405EC00003D93221134800F053F8B4F900306268002B08DB5201D2B203F1604303F5614383F8002305E003F00F035201D2B20A49CA540A4B9A680A4B9A4208D12946B4F9D1
:405F00000000FFF7B3FF002038BD06487047002038BD00BF44140B1014ED00E000ED00E0004002080100560010B5044605E0084B186800F081F8A4F50044B4F5004FF6D836
:405F4000044B186800FB04F000F076F810BD00BFA8420208A442020808B5034B1B7800FB03F000F069F808BDA042020801BEFEE738B50D46044C18220146204601F07EFD80
:405F8000A5610020FFF7F2FF804C0208FEE700BF08B50268254BDA6142681A6282685A62C2689A620269DA6242691A6382695A63C2699A631E4A916AD963D16A1964516AE5
:405FC0005964516B9964926BDA64F1EE103A13F0900F27D0026A154B1A65426A5A65826A9A65C26ADA65026B1A66426B5A66826B9A66C26BDA66026C1A67426C5A67826C22
:406000009A67C26CDA67026DC3F88020426DC3F88420826DC3F88820C26DC3F88C20026EC3F89020FFF7B2FF08BD00BF804C020800ED00E0000000000230800803D00130C9
:406040000238FCD100BF00BF7047EFF3108072B6704780F31088704710B5044620F07F6323F4402323B140F2B3511348FFF780FF14F4700F16D014F0806F01D1002101E048
:406080004FF4800114F0006F01D041F4000114F0807F01D041F4801114F0007F03D041F4001100E00021054A536823EA01031C435460536810BD00BF88140B1000002640D9
:4060C00010B30246C3680BB303680BB330B40579114B03EB85035C682346002103E0934205D019465B69002BF9D1012000E0002080B124B9084B03EB85056A6000E04A610D
:4061000011610023536105E000207047002070470020704730BC7047F477020850B310B402460479164B03EB840359680B4602E0934204D05B69002BFAD1002000E00120BA
:40614000D0B18A420ED14B6933B10D4A02EB8404636000221A610FE0094B03EB84040023636009E01A69596951615A6922B11B69136101E0002070475DF8044B704700BF50
:40618000F477020808B5FFF760FF074B5A6807490A4042F468525A605A68114059605B68FFF757FF08BD00BF00002640FF00FC0F002800F0AC8070B40446002A00F0A9803C
:4061C00092F828300BB1012500E00025137F0BB1022300E000231D431669B60406F4802645EA060395682D0405F440351D431668300600F0E0602843136B556B43EA4503F1
:406200001B0503F440130343906B43EA8000052E03D1D3681B029BB202E053681B029BB20343081D800123501368062B08D104EB81130120C3F808013F20C3F828011DE0C7
:40624000936843B904EB81130020C3F808013120C3F8280112E0012B08D1506904EB8113C3F808011C20C3F8280107E004EB81130120C3F808011220C3F82801106A04EBA6
:406280008113C3F80C01506AC3F810015069C3F814019069C3F81801136EB3F1FF3F17D0106C00F00F00966C360206F470663043156D2D0405F470250543906D000380B2A9
:4062C00028431B01DBB2034304EB8110C0F82031D36B03F00303566C360106F030063343D56C2D0205F440752B43506D8001C0B21843D36D9B0003F00C03034304EB8114AB
:40630000C4F82431D36AC4F83831002002E002487047014870BC70470100B600034BD3F880319B0F14BF01200020704700002640034AD2F8803143F04043C2F880317047BF
:4063400000002640074AD2F8803123F0404343F08043C2F88031D2F8803143F00043C2F8803170470000264010B50446B0F5803F03D377210748FFF7FBFDFFF7CFFF40B9A0
:40638000054AD2F888311B0C1B04A4B21C43C2F8884110BDC8140B100000264010B504460F2803D996210948FFF7E2FDFFF7B6FF50B9074AD2F8883123F47023240404F412
:4063C00070241C43C2F8884110BD00BFC8140B1000002640034B0122C3F80027D3F80037704700BF00002640014B1860704700BF3880020810B5012902D0082929D02EE018
:406400001A4B1B78012B2CD00320FFF729F8184B984228D0FFF719FE164B186002202BF011FE04462BF019FE022C05D1032805D0052805D1002404E00F4C02E0002400E0CF
:406440000D4C0D4B9C420FD10A4B1868FFF701FE0AE0084B1868FFF7FCFD002404E0064C02E0054C00E0044C204610BD3F8002080101880030780208FF00420008B5022919
:406480001CD0082914D001291ED1124B1B78012B1CD0FFF7DAFD104B586002202BF0D2FD022815D00C4B5868FFF7D3FD0B4808BD094B5868FFF7CDFD002008BD064B586800
:4064C000FFF7C7FD054808BD044808BD034808BD002008BD3F80020830780208FF00420010B5044C2046FFF719FE04F11800FFF715FE10BD7844020890B110B5094A906094
:40650000C36A03B1D3600024074B1C70074B1C70074B1C60074B1C7000F048F9204610BD05487047307802084C8002085080020854800208518002080100160070B59AB0B2
:406540003B4D15AC28686968AA68EB680FC4286920604C22002102A801F05EF9354B029315AB049341F64C03ADF8143005238DF816301B23ADF82030ADF8223003238DF804
:40658000243004238DF8253006238DF8263008238DF829304023ADF84C3001238DF85030254C2046FFF78CFD04F11800FFF788FD08A82BF09DFD0346002836D11F4B039311
:4065C0001F4B9B68996B89B10B460DF12A0220311E685D689C68D868166055609460D060103310328B42F3D11B88138002A82BF047FD0346B0B90122124B1A700023124AB6
:406600001370124A13700E4B9B681A6A00929B6ADB88ADF804301423ADF80630684634F08DFB034600210A4A116018461AB070BD74160B10BD6B081078440208144D02083F
:40664000307802083F80020840800208418002085480020808B52CF0D1FE08BD08B5044B1B689847034B1B6803B1984708BD00BF547802084078020808B510B1034A52684C
:406680009047034B1B6803B1984708BD547802084078020870B5C0B006460C4615464FF480720849684601F0ACF805E016F8012B6A401DF80250013C002CF7D1284640B02C
:4066C00070BD00BF88160B1008B5FFF7BEFC08BD08B5FFF7BEFC08BD08B50120FFF7D8F808BD00BF08B50120FFF7A8F808BD00BF08B5094B58601960012208491046FEF770
:40670000EBFF034628B9002205490120FEF7E4FF0346184608BD00BF54780208796608105D66081038B515460B46024601210020FEF780FF044618B129460120FEF7F4FFE7
:40674000204638BD704700BF704700BF0020704700487047110016000048704711001600004870471100160000487047110016000048704711001600004870471100160017
:4067800000487047110016000048704711001600004870471100160000487047110016000048704711001600704700BF08B5054800F092FD044800F0A7FD044800F02AFED8
:4067C00008BD00BF704402086C44020864440208F8B5022872D8002972D10022134606E03B4CE45C012C01D90132D2B20133002BF6D0012A0CD1374B1B681C6801EB810253
:40680000930023445B681B79023BDBB2012B59D8314B1B78002B57D1304B1970E0B92D4F3C68236801EB8105AA009D186668C1EBC1014B001E44B188298221681144496809
:406840006468E45A0C8039680C682244526849680B445B8853801EE001281CD11D4F3C68236801EB8105AA009D186668C1EBC1014B001E44B1892982216811444D686168ED
:4068800019440989298039680C682244526849680B445B895380124B18700E4B1B6818680E4B1B7803EB83039A00104430F012F8034650B90121084A117006E0094B04E036
:4068C000084B02E0084B00E0084B1846F8BD00BF4080020838780208418002083E800208518002080100160002001600FF00160070B439B9144B1B681B689968CE7F0023E9
:406900001D460EE0104B1B681B68D968CE7FF6E7CA5C52B10133CC5C1B2C01D0134400E00125B34201D2002DF2D05DB101338279CA54002204E0D4180134855C0D55013291
:40694000052AF8D970BC70473878020870B5044634F00EFA0546D0B90E4B1968086A228902EB82029300143B03445A6812F0007F0DD0E67B1B695A68CB69D21A06EB860616
:40698000B318A28821680448184400F03AFF284670BD00BF387802084480020830B587B002891A4B1B685B699B889A4229D1044601AB07C883E807000022ADF81020A28901
:4069C000ADF8122040228DF814201846FFF7BEFF054680B923681B7803F002039BB22BB10B4B1B6821460B48984704E0084B1B68214609489847094A137803F0FE031370B9
:406A000000E00025284607B030BD00BF387802083C78020805000100060001004C8002084288531E9BB2172B1AD84178D1B910B40F4B1868046A02EB82029300143B234460
:406A40005A6812F0007F0FD01B695A68C369D31A01EB81011944074B5B5A1380002004E0012070470120704700205DF8044B70473878020844800208C8B1104B1B68196A9F
:406A8000038903EB83039B00143B0B445B6813F0007F0ED100B587B001AB00210491059107C883E807001846FFF750FF03E00E2070470120704707B05DF804FB387802084C
:406AC00000B583B00023ADF804308389ADF800300389ADF8023012238DF80430084B1B7813F0010F09D129B18DF80510684633F069FA02E0C06833F085FA03B05DF804FB52
:406B00004C80020810B4044688B10023194606E0114A52F82320944200D1012101330E4A127B934206D20029F2D0002003E000210A4800E0002058B951B9074B1B7B022BC8
:406B400005D8054A42F823400133137300E004485DF8044B704700BF58800208010016000300160070B506460D460020044606E0084B53F824302946304698470134054BEB
:406B80001B7B9C4204D2044B1B7813F0010FEFD170BD00BF588002084C80020883792BB100207047C25C32B9013300E00023052BF8D9002070470120704700BF70B58AB075
:406BC00004460D46C14A137843F00103137044F20803984200F012823AD843F20103984200F0DD8019D841F20203984200F0168108D8B0F5805F74D041F20103984200F064
:406C00000A81C7E241F20303984200F0408142F20403984200F0D580BCE244F20403984200F0488109D843F21203984200F0B78043F2190398424ED0ACE244F20603984278
:406C400000F0E08144F20703984200F09081A1E245F20C03984200F055821BD845F20103984200F00E820AD844F20A03984200F07B8144F21003984200F079818AE245F21B
:406C80000203984200F01B8245F20303984200F02F827FE245F21003984200F06E820AD845F20E03984200F0628245F20F03984200F060826EE245F21703984200F063822E
:406CC00046F20103984200F0D98145F21403984240F0608254E27D4A137803F0FE03137058E27B4B1E683046FFF758FF60B1304630F0FEFD764E00213068FFF7F9FD012185
:406D00003068FFF7F5FD37E0724B1A68936A1B791BB34FF0B05191F8043603F03F0391F8050600F03F0043EA801391F8030600F01F0043EA003391F8001601F07F0143EA25
:406D40004143126B1370634A1168096BC3F3072048701268126B1B0C93705E4E3368186B30F0C6FD33680021186BFFF7C1FD33680121186BFFF7BCFD564B1B68986A023058
:406D800031F06EF90023049305933F238DF8103004A830F0D1FD02224F4B1A70FAE100234D4A13704D4A13704D4A13700A20FFF7BBF843F212039C4240F0EC81FFF790FB8B
:406DC000E8E1484B1B6813F0010F40F0E3810023ADF810308DF812303E4E33689B6A93F900308DF8103004A830F0C0FD33689B6A93F901308DF8103001238DF81130FF23DA
:406E00008DF8123004A830F0B1FD364A136843F001031360BEE1FFF7A5FEBBE14978324B1B88ADF81030002319E0304A32F81320ADF808209DF8092012B92D48825C00E056
:406E40000022012A0AD9294A12F81320914205D1264A32F81330ADF8103002E00133002BE3D09DF81130FF2B05D104D140F2CA312048FFF77DF8BDF81030ADF81C30ADF89D
:406E80001830C3F3072329781B4AD15482E10B78002B40F07F810B7A33B9184B0022DA809A80174A1A604B60084A137803F0FE0313706FE1CB78002B40F06C8149790A4B08
:406EC0001B88ADF81030002336E000BF4C800208A8440208387802083F80020841800208687802085480020888170B103C800208408002088C170B1050800208707802085C
:406F000060650208AC4A32F81320ADF80C209DF80D2012B9A948825C00E00022012A0AD9A54A12F81320914205D1A34A32F81330ADF8103002E00133002BE3D09DF8113014
:406F4000FF2B05D104D140F2CA319D48FFF710F8BDF81030ADF82030ADF81030C3F307230121984AD15415E1FFF7FCFD12E12B78002B3FD1AB78012B02D10022924B1A70F3
:406F80006978924B1B88ADF80C30002319E08A4A32F81320ADF810209DF8112012B98748825C00E00022012A0AD9834A12F81320914205D1804A32F81330ADF80C3002E072
:406FC0000133002BE3D09DF80D30FF2B05D104D140F2CA317A48FEF7CBFFBDF80C30ADF82430ADF80C30C3F30723FF2B02D0A978774AD1540222774B1A70CBE00222754B7D
:407000001A70C7E0FFF7AEFD734B1B7813F0010F00F0C0806C4B1B78012B03D102226A4B1A70B7E0032B03D10022674B1A70B1E0022B40F0AF800022634B1A70674B1B689A
:407040005B68674A1178C1EBC10203EB42039A79002A00F09F809B88002B00F09B80614B1B78002B40F096800120FFF7B1FB002840F090800122544B1A708BE0FFF772FDD5
:4070800088E00B88ADF800309DF801301BB902214A4AD15405E023B940F286314848FEF767FF6A782988444B23F812106B7800214D4AD15429462046FFF754FD6AE00B88DD
:4070C000ADF804309DF805301BB900213B4AD15405E023B940F286313948FEF749FF6B780021384AD15429462046FFF73BFD51E00B88ADF810301723ADF8123004A832F0A0
:407100006DFF47E00846FFF749FC014620B929462046FFF727FD01462846FFF7D1FC2E4B1B7813F0110F04D0304B1B682946204698472A89284B1B7813F0010F11D0531ED9
:407140009BB2172B0DD912238DF81430ADF81220AB89ADF8103001238DF8153004A832F031FF1D4A137803F0FE03137012E0FFF7F9FC0FE0FFF7F6FC0CE0FFF7F3FC09E0E9
:40718000FFF7F0FC06E00846FFF74AFC29462046FFF7E8FC104B1B7813F0110F09D00E4A137803F0FE031370104B1B682946204698470AB070BD00BF3C80020840800208C2
:4071C0008C170B10687802084180020888170B106C7802083F8002084C800208387802083E80020851800208508002083C78020830B589B00023069307938389ADF8183073
:40720000274B1B68002B44D00189254B5B681A68D38899423FD1234B1B68196A528802EB82029300143B0B445B6813F4801F29D0044601AB07C883E807000022ADF8102015
