:020000041008E2
:4000000000780408EB0208100D00000051030810510308105103081051030810000000000000000000000000000000004D0308104D030810000000004D0308104D030810DA
:400040004D0308104D0308104D0308104D0308104D0308104D0308104D0308104D0308104D0308104D0308104D0308104D0308104D0308104D0308104D0308104D03081000
:400080004D0308104D0308104D0308104D0308104D0308104D0308104D0308104D0308104D0308104D0308104D0308104D0308104D0308104D0308104D0308104D030810C0
:4000C0004D0308104D0308104D0308104D0308104D0308104D0308104D0308104D0308104D0308104D0308104D0308104D0308104D0308104D0308104D0308104D03081080
:400100004D0308104D0308104D0308104D0308104D0308104D0308104D0308104D0308104D0308104D0308104D0308104D0308104D0308104D0308104D0308104D0308103F
:400140004D0308104D0308104D0308104D0308104D0308104D0308104D0308104D0308104D0308104D0308104D0308104D0308104D0308104D0308104D0308104D030810FF
:400180004D0308104D0308104D0308104D0308104D0308104D0308104D0308104D0308104D0308104D0308104D0308104D0308104D0308104D0308104D0308104D030810BF
:4001C0004D0308104D0308104D0308104D0308104D0308104D0308104D0308104D0308104D0308104D0308104D0308104D0308104D0308104D0308104D0308104D0308107F
:400200004D0308104D0308104D0308104D0308104D0308104D0308104D0308104D0308104D0308104D0308104D0308104D0308104D0308104D0308104D0308104D0308103E
:400240004D0308104D0308104D0308104D0308104D0308104D0308104D0308104D0308104D0308104D0308104D0308104D0308104D0308104D0308104D0308104D030810FE
:400280004D0308104D0308104D03081010B5054C237833B9044B13B10448AFF300800123237010BD7065020800000000385C0810084B10B51BB108490848AFF300800848E2
:4002C000036803B910BD074B002BFBD0BDE81040184700BF0000000074650208385C0810F0460208000000007047FFF7FDFF72B6104C114DAC4209DA21686268A368043BE7
:40030000A2BFC858D050FAE70C34F3E70B490C4A00209142BCBF41F8040BFAE709480A490860BFF34F8F00F077F900F051F900F06DF8FEE7CC3F0910E43F09107065020831
:400340001C7002080040020808ED00E0FEE7FEE700B504207146084202D0EFF3098001E0EFF30880043002F045F9FEE708B50C4BD3F8003713F0010F11D002F027FB02F043
:40038000DDFA074BD3F8880100F5A07080B202F0E7FA02F0C9FA01F081F800F079FC08BD0000264010B502F0C9FA002002F0F2FA4FF4A07002F0D4FA02F008FB0F4CD4F860
:4003C0000C3543F00043C4F80C350D490D4802F0A3F84FF480020C4B1A60D4F8083743F00103C4F80837D4F8803143F00103C4F8803102F0EBFA02F097FA10BD0000264090
:400400006D030810CC45081000E100E008B5FFF7C9FF064B5B6813F4003F01D002F0AEF962B600F0A5FB002008BD00BF0000264008B5012001F0E8FF08BD00BF704700BFA9
:400440005C4AD2F8803303F00F0303F1D00152F8212002F00702032A04D0042A05D092B9554914E0554A116811E003F1C002514951F8222002F01F02112A06D0132A04D00F
:400480004FF4FA4103E04E4901E04FF400418BBB484BD3F8902502F00100D3F88825C2F30172D3F8883513F0405F07D0414BD3F88835C3F30173012B02D102E0012300E0CF
:4004C000002303B108B9032A46D13A48D0F88025C2F31103D0F88425C2F30C02D0F88005C0F300600130B1FBF2F202FB03F2B2FBF0F131E0012B2FD12E4BD3F8402602F0BA
:400500000100D3F80026C2F30172D3F8003613F0405F07D0274BD3F80036C3F30173012B02D102E0012300E0002303B108B9032A12D12048D0F8002602F07F02D0F8003636
:40054000C3F30423D0F80006C0F3044002FB01F2B2FBF3F2B2FBF0F1164BD3F88033C3F3011321FA03F215494A601648D0F89030C3F3072301330069000E0130B2FBF0F0D9
:400580008860B2FBF3F3CB600B6103F5742202F23F220D48A0FB0202C2F387420A7503F2E7330A4AA2FB03239B098B61DB03CB61704700BF0000264000127A008C42020855
:4005C00000366E010000214083DE1B43D34D621008B50D4802F004FAFFF730FFFFF730FF00221146042001F0C1FC084801F054FD074B1B6893F8513013B1064801F0BCFDDE
:4006000001F0FEFB08BD00BF1C5408108C650208E86F0208D445081008B502F046F8074AD2F8883043F47003C2F88830BFF34F8FBFF36F8F02F03DF808BD00BF00ED00E0A3
:400640002DE9F04186B000AF0C4644F2070398423ED015D843F2120398425ED007D8B0F5805F2AD041F20103984244D01BE144F20103984256D044F20603984231D012E1D0
:4006800045F20203984270D008D844F20803984216D044F2140398425FD004E145F20E03984200F0B48045F21703984261D045F20C03984240F0F780A9E07D480AF0DCF843
:4006C0000021084602F080FB002000F0D5FAEAE04B78774880F841300BF00AFC00F0D2FEE1E0744B1B78002B40F0DD8000F0CAFE01F02EFAD7E00B78042B40F0D480CA787E
:400700006B4B93F844309A4240F0CD8000F0BAFE674A936C01339364C5E000211F2000F0C7FEC0E0644B1B685B6A1A78102A01D10522DA70604B1B685A6A61795171586A78
:400740000BF05AFB002800F0AE800BF08DFB5A4B1B68586A0BF050FBA5E04222544803F094F956480BF09AFB9DE0002000F084FA99E04A88524B1B681B685B889A421FD155
:400780004B4B93F84C3023B96422494B83F84C2003E0013B464A82F84C304A4801F0D6F8494B3B600123BB80454B1B681B685B883B81384602F05CFC10B1444801F0C6F842
:4007C0006388182B6FD1424C2168424801F0BEF8414801F0BBF82368FB60354B1B6D3B821823BB8207F10C0002F042FC10B1374801F0ACF8394B196901F00101384B1960F5
:40080000384801F0A3F8384801F0A0F84BE0E846A688314606F1080323F00703ADEB030D6D462389182B3DD104E02268D25CEA54013300E000238B42F7DB0023AB552946EC
:400840002A4801F083F82B78742B04D0762B12D0542B18D107E0681C03F0FCF80146244801F074F812E0681C03F0F4F80146214801F06CF80AE0681C03F0ECF801461E48EB
:4008800001F064F802E01D4801F060F8701C03F0E5F80F4A10602368136000229A55E0680DF0E0FAC5461837BD46BDE8F08100BFAC420208F16F02080C6802084C4302085D
:4008C0005468020808460810F84202082C460810DC6F02083C4608105446081000053240E06F02086C46081080460810A4460810BC460810CC460810DC460810EC4608101B
:4009000038B5074C1025A560012001F03FFE65600A2001F03BFEA560782001F037FE38BD8002324030B583B040F4807302A820F8023D044C04256560012101F0B1F8A560EA
:4009400003B030BD0003324030B583B002AB23F8020D054C042565600121184601F0A0F8A56003B030BD00BF0003324008B5FFF7C7FF1120FFF7E8FF782001F007FE3620E7
:40098000FFF7E2FF0020FFF7CDFF3A20FFF7DCFF0520FFF7C7FFB220FFF7D6FF0C20FFF7C1FF0C20FFF7BEFF0020FFF7BBFF3320FFF7B8FF3320FFF7B5FFB720FFF7C4FFB7
:4009C0007520FFF7AFFFBB20FFF7BEFF1320FFF7A9FFC020FFF7B8FF2C20FFF7A3FFC220FFF7B2FF0120FFF79DFFC320FFF7ACFF1320FFF797FFC420FFF7A6FF2020FFF7BA
:400A000091FFC620FFF7A0FF0F20FFF78BFFD020FFF79AFFA420FFF785FFA120FFF782FFD620FFF791FFA120FFF77CFF2120FFF78BFFE020FFF788FFD020FFF773FF08209B
:400A4000FFF770FF1020FFF76DFF0D20FFF76AFF0C20FFF767FF0720FFF764FF3720FFF761FF5320FFF75EFF4C20FFF75BFF3920FFF758FF1520FFF755FF1520FFF752FF1B
:400A80002A20FFF74FFF2D20FFF74CFFE120FFF75BFFD020FFF746FF0D20FFF743FF1220FFF740FF0820FFF73DFF0820FFF73AFF1520FFF737FF3420FFF734FF3420FFF7F9
:400AC00031FF4A20FFF72EFF3620FFF72BFF1220FFF728FF1320FFF725FF2B20FFF722FF2F20FFF71FFF2920FFF71CFF08BD00BFF8B507460E461D46143294B22A20FFF707
:400B000023FF380AFFF70EFFF8B2FFF70BFF200AFFF708FFE0B2FFF705FF2B20FFF714FF300AFFF7FFFEF0B2FFF7FCFE280AFFF7F9FEE8B2FFF7F6FE2C20FFF705FFF8BD40
:400B4000EF2812D8B1F58C7F0FD210B514460B460246FFF7CDFF200AFFF7E4FEE0B2FFF7E1FE024800F0F2FE10BD70470847081008B500F0B1FC2F4800F0E8FEFFF7F6FE59
:400B80004FF4FC6232210846FFF7DAFF4FF4FC6232213320FFF7D4FF4FF4FC6232213420FFF7CEFF4FF4FC6232213520FFF7C8FF4FF4FC6232213620FFF7C2FF4FF4FC6261
:400BC00032213720FFF7BCFF4FF4FC6232213820FFF7B6FF184800F09FFF00F045F800F0EBFF00F0D1FF00F0B7FF01F015F801F02BF80422114B5A60114B19684A1C1A603D
:400C0000104800F0A3FE05F04BF900F08DFC00F0C1FB00F037F8012801D10B4B9B6C0A4B9B6C002BE8D0084800238364443006F025FBE1E740470810410608108003324018
:400C40000C6702084C470810AC420208044B984204D14B681B681A78024B1A70704700BFBF0001001167020808B5024802F0E4FE08BD00BF4D0C0810014B1870704700BFE5
:400C800011670208014B1878704700BF116702081C4B1B68002B07DD0A3B1A4A1360002B02DA0022174B1A60174B1B68002B07DD0A3B154A1360002B02DA0022124B1A60B9
:400CC000002310E0104A02EB83025268002A09DD0A3A0D4901EB83014A60002A02DA0A46002151600133022BECDD074B1B69002B07DD0A3B044A1361002B02DA0022024BE3
:400D00001A6170470C4302081467020810B584B001A802F0ADFF054C214601A802F0C4FF2146002002F0C0FF04B010BD6449081038B5364B53F82040944265DC03EB80032E
:400D40009B6A9A4260DC0D4609285DD8DFE800F0050E17212B353F495358121B2B4B03EB8202116D2846FFF7D1FF38BD121B274B03EB8202516F2846FFF7C8FF38BD121B2E
:400D8000224B03EB8202D2F89C102846FFF7BEFF38BD121B1D4B03EB8202D2F8D8102846FFF7B4FF38BD121B184B03EB8202D2F804112846FFF7AAFF38BD121B134B03EBA7
:400DC0008202D2F82C112846FFF7A0FF38BD121B0E4B03EB8202D2F854112846FFF796FF38BD121B094B03EB8202D2F880112846FFF78CFF38BD06492846FFF787FF38BDFB
:400E000004492846FFF782FF38BD00BF6447081068490810604708102DE9F04188B005A800F0A8FB9DF81C20C2F30118C2F3C007C2F38006C2F3400502F001049209204977
:400E400001A802F0F1FE42461E4901A802F0ECFE3A461D4901A802F0E7FE32461B4901A802F0E2FE2A461A4901A802F0DDFE2246184901A802F0D8FE9DF81D20C2F3801617
:400E8000C2F3C00502F00304D209134901A802F0CBFE3246114901A802F0C6FE0022104901A802F0C1FE2A460E4901A802F0BCFE22460D4901A802F0B7FE08B0BDE8F08126
:400EC00070490810784908108049081088490810904908109C490810A4490810AC490810B4490810BC490810C44908102DE9F84F204B1B68002B3BD11F4F4FF00808C7F829
:400F000008801E4E8024B460DFF878A04FF0040BCAF808B0DFF87090C9F80840184DA88A01F04CFBCAF804B0C9F80440C7F804807460A88A01F042FBC7F80880B4604FF013
:400F4000400BC9F808B0AAF5207A2023CAF80830A88A01F033FBC9F804B02023CAF80430C7F804807460AB69002B01DD014A1360BDE8F88F0C430208000332408003324057
:400F80001467020800053240000632400138092806D8DFE800F00A0F14191D2125292D314FF0FF32194B9A6129E04FF47A72174B9A6124E04FF4FA72144B9A611FE040F2EC
:400FC0004D12124B9A611AE0FA22104B9A6116E0C8220E4B9A6112E0A7220C4B9A610EE08F220A4B9A610AE07D22084B9A6106E06F22064B9A6102E06422044B9A61034B04
:401000009B69002B01DD024A13607047146702080C4302080138092806D8DFE800F0090E13181D22272C313600221A4B5A6170474FF49672174B5A6170474FF4C872154B20
:401040005A6170474FF4FA72124B5A6170474FF41672104B5A6170474FF42F720D4B5A6170474FF448720B4B5A6170474FF46172084B5A6170474FF47A72064B5A617047A8
:4010800040F24C42034B5A6170474FF49662014B5A6170471467020838B568B900F09CFA00212D4BC3F8CC12062000F001FA4FF0FF322A4B9A6138BD044600F079FA0121B7
:4010C000062000F0F5F9254DA86BFFF7A3FF286BFFF75CFF601E092839D8DFE800F0050A0F14191E23282D3201221B4BC3F8CC2238BD0822184BC3F8CC2238BD1522164B77
:40110000C3F8CC2238BD2122134BC3F8CC2238BD2D22114BC3F8CC2238BD3A220E4BC3F8CC2238BD47220C4BC3F8CC2238BD5322094BC3F8CC2238BD7C22074BC3F8CC22D8
:4011400038BD40F22E22044BC3F8CC2238BD0022014BC3F8CC2238BD0000394014670208164B5B6C012B0AD0022B17D0134B9B6C002B21DD114A01215164136170470F4B7A
:401180001B695BB90D4A02235364936CC3F164031361002B02DA0022084B1A61074B9B6C1BB90022054B5A647047044A12691AB9024A012151641361704700BF146702089D
:4011C00008B5002810DD322303FB00F00A4B83FB0023C017C0EBA3003230084B98640121032000F065F908BD0021044B9964032000F05EF908BD00BF67666666146702083D
:4012000008B5034620B90021094AC2F80C1104E040F20111064AC2F80C1123B90021022000F046F908BD0121022000F041F908BD0000384008B50238052817D8DFE800F0AD
:401240000307160B0F130846FFF7DAFF08BD0846FFF7B6FF08BD0846FFF798FE08BD0846FFF71AFF08BD0846FFF7D4FE08BD00BF10B50446FFF774FFFFF738FE434BDB6CAD
:40128000012B05D0022B2BD00122404BDA6410BD3E4C206D04EB8003DA69013A0721FFF747FD206D04EB8003DA693A21FFF740FD206D04EB8003DA6901326D21FFF738FDE5
:4012C000206D092802D1FFF7A7FD05E02F4B03EB8003D969FFF7AEFF02222C4BDA6410BD2368EBB100232360284B1B6DA3F10802012A04D8254B00221A65DA6410BD234A72
:4013000002EB8302D269224951F823108A4207DD1E4901EB8303013ADA610123CB6410BD636893B100236360184B1B6D002B03DD0022164B1A6504E0144A02EB8303DB6914
:4013400013650022114BDA6410BDA368E3B10023A3600E4B1B6DA3F10802012A04D80B4B00221A65DA6410BD9A0008491144C96907480244926A914206DA044A02EB8303A8
:401380000131D9610123D36410BD00BF146702086447081010B584B000243FE0364B03EB84035B6D022B1FD0032B2CD0012B10D004AB03EB840353F80C3C73BB2E4B03EBFA
:4013C000840301225A651A6632225A6000F09EF823E0294B03EB84035B68F3B9264B03EB840302225A6518E004AB03EB840353F80C3C012B11D1204B03EB840303225A65CB
:4014000032225A6009E01C4B03EB84035B6823B9194B03EB840300225A650134022CBDDD154BDB6E012B17D0022B1CD06BB11348FFF71EFF1DE0930011491944D1F8A8115B
:401440000D480344D961013200E00022092AF2DD0122094BDA660CE0074B40F6B8321A600222DA6605E0044B1B6813B90A22024BDA6604B010BD00BF146702087467020886
:4014800064470810044B1B78022B04D0002300E00133002BFCD07047F16F0208034B1B6813B1013B014A1360704700BF8467020841B9012303FA00F0064A536823EA000317
:4014C00053607047012303FA00F0024B5A681043586070478467020808B54FF4FA62084B1A6000F081FBBF22064BC3F84C21064800F02CFA01211F20FFF7DAFF08BD00BFA4
:401500008467020800003940F84C08104FF4FA62034B1A60BF22034BC3F84C21704700BF8467020800003940704700BF70B504460E46154600F0EEF800216B2000F088F9B8
:40154000204600F0F7F801216B2000F02BF9002404E0012000F088F9305501346B1E9C42F7DB1D46002000F07FF9705500F0A8F870BD00BF08B50146002008604860C1F8BF
:4015800007000B22FFF7D2FF08BD00BF38B505460C4600F0BFF800216B2000F059F9284600F0C8F8204600F0C5F800F089F838BD00B583B001220DF107011046FFF7B6FFE4
:4015C0009DF8071041F020018DF807100120FFF7DDFF03B05DF804FB00B583B001220DF107011046FFF7A2FF9DF8071001F0DF018DF807100120FFF7C9FF03B05DF804FB5A
:40160000024B1869C0F30010704700BF00033240024B1869C0F34010704700BF0003324010B50446012804D94FF44A71054800F0D1FF1CB91022044B5A6010BD1022024BF6
:401640009A6010BD084D08100003324010B50446012804D94FF44A71054800F0BBFF1CB92022044B5A6010BD2022024B9A6010BD084D08100003324010B5002407E0FFF7CC
:40168000BFFF012807D0012000F098FF0134312CF5DD012010BD002010BD00BF10B5002407E0FFF7B5FF012807D0012000F086FF0134312CF5DD012010BD002010BD00BFB8
:4016C00008B5082000F07AFF0020FFF7A9FF082000F074FF0020FFF7B9FF082000F06EFF0120FFF79DFFFFF7C7FF01280FD0082000F064FF0120FFF7A9FFFFF7CFFF012862
:4017000005D0082000F05AFF0020014B186008BD8C67020808B50120FFF798FF0120FFF77FFF042000F04AFF0020014B186008BD8C67020838B50546002415E0C5F3C010E1
:40174000FFF784FF042000F039FF0120FFF768FFFFF792FF012823D0042000F02FFF0020FFF75EFF6D000134072CE7DD0120FFF76DFF042000F022FF0120FFF751FF0420F2
:4017800000F01CFFFFF744FF04460020FFF748FF2CB1FFF795FFFFF7BDFF204638BD204638BD00BF38B50D4601F0010343EA4000C4B20120FFF74AFFFFF770FF012844D096
:4017C000082000F0FBFE0120FFF72AFFFFF754FF01283AD0082000F0F1FE0020FFF736FFFFF716FF38B10120FFF71AFF0120FFF72DFF012038BD082000F0E0FE0020FFF741
:401800000FFFFFF7FDFE38B10120FFF709FF0120FFF71CFF012038BD082000F0CFFE01220A4B1A602046FFF785FF044628B1FFF747FFFFF76FFF204638BD1DB90222034B3C
:401840001A6038BD0322014B1A6038BD8C67020808B5044B1B6813B9FFF7A4FF08BD012008BD00BF8C67020870B506460120FFF7EDFE0024254614E0042000F09FFE0120F9
:40188000FFF7CEFEFFF7F8FE012821D0042000F095FE6400FFF7BCFE04430020FFF7C0FE0135072DE8DD1EB10020FFF7CFFE02E00120FFF7CBFE042000F080FE0120FFF73E
:4018C000AFFE042000F07AFE0020FFF7A9FE204670BD00BF10B50446012804D94FF44A71054800F077FE1CB94022044B5A6010BD4022024B9A6010BD084D08100003324076
:4019000038B505460020FFF7E5FF652000F056FE002408E005F00100FFF7DCFF6D10652000F04CFE0134072CF4DD0120FFF7D2FF652000F043FE38BD014B1844704700BFB3
:40194000484D081008B5FFF7DBFF08BD0FB470B598B0012498E0252805D0FFF7F3FF1C9B01331C9390E05A1C1C925B78732B0FD1651C1CAB53F8244002E0FFF7E3FF01342C
:4019800020780028F9D11C9B01331C932C467BE0642B32D1661C1CAB53F82450002D03DA2D20FFF7CFFF6D420022541C3B4B83FB0531EB17C3EBA103194603EB8303580087
:4019C0002B1A18A800EB820242F8603C0D4622460029EAD10AE0013C18AB03EB840353F8600CFFF7A9FF0078FFF7ACFF002CF2D11C9B01331C93344646E0632B0AD1651C1E
:401A00001CAB13F82400FFF79DFF1C9B01331C932C4639E0782B36D1651C1CAB53F82430002200E02246541C03F00F0018A901EB820141F8600C1B09F4D114F0010F06D0E4
:401A400018AB03EB8404002344F8603C941C012C12D818AB03EB8403002243F8602C01340AE0013C18AB03EB840353F8600CFFF763FF0078FFF766FF002CF2D11C9B0133FA
:401A80001C932C4600E022B11C9B187800287FF462AF18B0BDE8704004B07047676666662DE9F04781468846194B1B6893F87D10184A8B5823F00F0343F00E038B500027AD
:401AC00021E039F8174000251AE004F480739BB21BB101220F4B9A6002E001220D4B5A606400A4B2012000F069FD0A4E4FF0040AC6F808A0012000F061FDC6F804A0013569
:401B0000082DE2DD01374745DBDBBDE8F08700BFE86F02088004324088B108B5094AD062094B1B7833B9104600F0E2FF0122064B1A7000E0002020B900F0FCFF08BD0348BE
:401B4000704708BD10430208906702080100160008B501F07BF808BD08B5084B1B783BB9074A0421074800F01FFE0122034B1A70044B10229A609A6108BD00BF9867020827
:401B80008C4F08100000384008B5084B1B783BB9074A0721074800F007FE0122034B1A70044B80229A609A6108BD00BF99670208F04F08100000394008B5084B1B783BB990
:401BC000074A0021074800F0EFFD0122034B1A70044B01229A609A6108BD00BF9A670208545008100000384008B5084B1B783BB9074A0121074800F0D7FD0122034B1A700B
:401C0000044B02229A609A6108BD00BF9B670208B85008100000394008B5084B1B783BB9074A0121074800F0BFFD0122034B1A70044B02229A609A6108BD00BF9C6702081A
:401C40001C5108100000384008B5084B1B783BB9074A0221074800F0A7FD0122034B1A70044B04229A609A6108BD00BF9D67020880510810000038401F4B98422DD00CD8FC
:401C800040282ED003D8E8B1102828D02FE0802829D0B0F5807F28D029E0184B984228D006D8B0F1204F0DD0154B984212D01EE0144B98420AD00133984209D0023B98429A
:401CC00015D101E0002070470F4870470F4870470F4870474FF4A0007047074870470D4870470D4870470D487047034870470C4870474FF4A400704706005200010000F064
:401D0000090000A0040000F0010052000200520003005200010050000200500005005200FF00520038B5124B1B6893F83130012B04D840F2C3110F4800F04CFC0C4B1D688D
:401D40002A6AB5F8B03013442C46D5F8B420D358002B0BDB084B1868FFF78EFF6B6801229A6063689B68002BFBD138BD034838BDE86F0208E4510810A0670208020050004B
:401D80001A4B186128B102230370FF23437000234380174B1B6893F850202AB300B583B0B3F93830ADF80030002301931149684600F0B2FBBDF90030002B08DB590903F0E6
:401DC0001F03012202FA03F30B4A42F82130084B1B6893F8513023B102220849012000F077FA03B05DF804FB704700BFA0670208E86F02086147020800E100E01948020852
:401E000008B50248FFF7BCFF08BD00BFB467020838B50B4B1B68D3F8B4301B58002B0DDA0D4604460B0C1B0423B140F2D521054800F0D0FBA9B26160002038BD024838BD00
:401E4000E86F02082452081001008A0038B50368002B01DA002300E0094B73B90D460446C2600B0C1B0423B140F2BB21054800F0B1FBA9B2A160002038BD014838BD00BFD9
:401E800001008A002452081038B504460D4619B99921084800F09EFB074B1B68D3F8B4301B59002B03DAE3682B60002038BD034838BD00BF64520810E86F020801008A0076
:401EC000254B1B6893F8313083423AD900293AD00B6813F01F0F38D170B50D4604461E4B1B6893F83130984204D340F2C3111B4800F070FB184B1B68186AB3F8B03004FB4A
:401F00000304174E34602A68D2080021686801F0C7FD00212046FFF77BFF346825B940F293310E4800F056FB2A4600212046FFF78DFF60B900210A4B1868FFF769FF40B9B2
:401F400070BD084870470748704706487047064870BD054870BD00BFE86F020824520810B867020803018A0001018A0010B504461346B2B9A9B9124B1B6893F83130984261
:401F800004D340F2C3110F4800F024FB0C4B1B681A6AB3F8B03004FB03240B4B1C60002010BD43B149B1084A51609360111D2046FFF786FF10BD054810BD044810BD00BF5E
:401FC000E86F020824520810B867020803018A002DE9F0411B4B1B68DC68236883422CD90D464609A0EB4610012303FA00F819B900F05BFB074600E00027124B1868036822
:40200000002B01DA002300E00F4B83B9626852F8263018EA030F05D023EA080342F82630002400E0094C0021FFF7F2FE00E0084C25B9384600F03DFB00E0064C2046BDE8B1
:40204000F08100BFB867020801008A00020188000301880004018A000B4B1B68DB681A6882420CD94109A0EB4110012202FA00F05B6853F82130184203D00448704704487F
:4020800070470448704700BFB86702080101880004018A0000018800024B1B680BB9014B18607047C46702082DE9F8430446884691461D46089F2C4B1B681BB9B5212B4837
:4020C00000F088FA284B1B682C2000FB04F01C18EEB21E50C5F3072363602D0CA560244B1B6893F831309E4204D340F2C311214800F070FA1E4B1B68196AB3F8B02006FBCF
:4021000002162661666893F832309E4204D340F2DF11184800F05EFA154B1B681D6A803605EB46156561A668330C1B0423B14FF4FF71104800F04EFA330C1B0423B140F2AC
:40214000FF110C4800F046FAB3B243EA0646AE60C4F81C90C4F820800023A36117B1B7F90030A381BDE8F883C4670208A4520810E86F020824520810F0B58FB0044618B9D7
:402180005221274800F026FAA369072B03D95621234800F01FFAE36A1BB95821204800F019FA236B1BB959211D4800F013FA07AD04F114060FCE0FC537682F6002AD264628
:4021C0000FCE0FC533682B60164B1B68B3F93620079B1344ADF83030089B0D93A26AE16A0CAD00953B460A98FFF75EFF00210091069B0A460598FFF757FF216B284600F050
:402200008BF9BDF93030002B08DB590903F01F03012202FA03F3044A42F821300FB0F0BDA4520810E86F020800E100E0F8B506460F461D4614461AB9FD211F4800F0CAF9DF
:402240001E4B1B681BB9FE211B4800F0C3F91B4B1B682C2101FB063001FB07314B68012202FA03F31B04466802FA06F60269EAB18F69EFB91268002A01DA002200E0104AC6
:40228000C2B92288134323600369DC6001238B614D620469330C1B0423B140F2BB21094800F098F9B2B2A2600020F8BD0648F8BD0648F8BD0548F8BDA4520810C4670208B4
:4022C00001008A002452081004028A0007028A00F8B505460F4616460E4B1B6823B94FF4AF710D4800F076F90A4B1B682C2404FB0534236A23B94FF4B171074800F06AF95A
:40230000E369B34204D9236A43F826700020F8BD0248F8BDC4670208A45208100A028A0038B504460D46074B1B6823B94FF4C871054800F04FF9034B1B682C2202FB0434E4
:40234000A56238BDC4670208A452081070B582B000230193044620B940F2D111284800F039F9236923B94FF4E971254800F032F9636923B940F2D311214800F02BF9236AF2
:4023800023B94FF4EA711E4800F024F96369DD682A0C20D012041A601B682069194B1B68D3F8B430C358002B15DA01A9FFF76CFD60B9019803681E0CDBB2E269934206D2BD
:4023C000226A52F8233013B1984700E0002631462069FFF71DFDADB275B16369ADB21D601B68636A1BB198470023636202E0A36A03B198470023A36163691B6802B070BD14
:40240000A4520810E86F020810B50446074B1B6823B940F2B111064800F0DCF8034B1B682C2000FB0430FFF791FF10BDC4670208A452081010B50446104B1B6823B940F28A
:402440002B210F4800F0C6F80C4B1B682C2202FB0434B4F90C30002B0DDB5A0903F01F03012101FA03F32032064941F82230BFF34F8FBFF36F8F002010BD00BFC4670208DA
:40248000A452081000E100E010B504460D4B1B6823B940F24B210C4800F09CF8094B1B682C2202FB0434B4F90C30002B08DB590903F01F03012202FA03F3044A42F821305B
:4024C000002010BDC4670208A452081000E100E038B50D4B9A680D4B9A420FD10D46044621B940F237110A4800F074F804F11003064A52F8230042F8235038BD1030054BFA
:4025000053F8200038BD00BF00ED00E000400208E45208100000081048B338B504460D464368072B03D93221134800F053F8B4F900306268002B08DB5201D2B203F16043B5
:4025400003F5614383F8002305E003F00F035201D2B20A49CA540A4B9A680A4B9A4208D12946B4F90000FFF7B3FF002038BD06487047002038BD00BFE452081014ED00E0AD
:4025800000ED00E0004002080100560010B5044605E0084B186800F07FF8A4F50044B4F5004FF6D8044B186800FB04F000F074F810BD00BFA8420208A442020808B5034B47
:4025C0001B7800FB03F000F067F808BDA042020801BEFEE738B50D46044C18220146204601F04EFBA5610020FFF7F2FF904C0208FEE700BF08B50268254BDA6142681A6276
:4026000082685A62C2689A620269DA6242691A6382695A63C2699A631E4A916AD963D16A1964516A5964516B9964926BDA64F1EE103A13F0900F27D0026A154B1A65426AB3
:402640005A65826A9A65C26ADA65026B1A66426B5A66826B9A66C26BDA66026C1A67426C5A67826C9A67C26CDA67026DC3F88020426DC3F88420826DC3F88820C26DC3F8C1
:402680008C20026EC3F89020FFF7B2FF08BD00BF904C020800ED00E00230800803D001300238FCD100BF00BF7047EFF3108072B6704780F31088704710B30246C3680BB3B4
:4026C00003680BB330B40579114B03EB85035C682346002103E0934205D019465B69002BF9D1012000E0002080B124B9084B03EB85056A6000E04A6111610023536105E00D
:4027000000207047002070470020704730BC7047C867020850B310B402460479164B03EB840359680B4602E0934204D05B69002BFAD1002000E00120D0B18A420ED14B697E
:4027400033B10D4A02EB8404636000221A610FE0094B03EB84040023636009E01A69596951615A6922B11B69136101E0002070475DF8044B704700BFC867020808B5FFF77E
:4027800094FF074B5A6807490A4042F468525A605A68114059605B68FFF78BFF08BD00BF00002640FF00FC0F002800F0AC8070B40446002A00F0A98092F828300BB1012572
:4027C00000E00025137F0BB1022300E000231D431669B60406F4802645EA060395682D0405F440351D431668300600F0E0602843136B556B43EA45031B0503F4401303433F
:40280000906B43EA8000052E03D1D3681B029BB202E053681B029BB20343081D800123501368062B08D104EB81130120C3F808013F20C3F828011DE0936843B904EB811337
:402840000020C3F808013120C3F8280112E0012B08D1506904EB8113C3F808011C20C3F8280107E004EB81130120C3F808011220C3F82801106A04EB8113C3F80C01506A44
:40288000C3F810015069C3F814019069C3F81801136EB3F1FF3F17D0106C00F00F00966C360206F470663043156D2D0405F470250543906D000380B228431B01DBB203439F
:4028C00004EB8110C0F82031D36B03F00303566C360106F030063343D56C2D0205F440752B43506D8001C0B21843D36D9B0003F00C03034304EB8114C4F82431D36AC4F835
:402900003831002002E002487047014870BC70470100B600034BD3F880319B0F14BF01200020704700002640034AD2F8803143F04043C2F88031704700002640074AD2F882
:40294000803123F0404343F08043C2F88031D2F8803143F00043C2F8803170470000264010B50446B0F5803F03D377210748FFF731FEFFF7CFFF40B9054AD2F888311B0C2B
:402980001B04A4B21C43C2F8884110BD285308100000264010B504460F2803D996210948FFF718FEFFF7B6FF50B9074AD2F8883123F47023240404F470241C43C2F88841FC
:4029C00010BD00BF2853081000002640034B0122C3F80027D3F80037704700BF00002640014B1860704700BFE86F020810B5012902D0082929D02EE01A4B1B78012B2CD06D
:402A00000320FFF729FB184B984228D0FFF74DFE164B1860022003F045FA044603F04DFA022C05D1032805D0052805D1002404E00F4C02E0002400E00D4C0D4B9C420FD173
:402A40000A4B1868FFF735FE0AE0084B1868FFF730FE002404E0064C02E0054C00E0044C204610BDEF6F02080101880004680208FF00420008B502291CD0082914D00129CB
:402A80001ED1124B1B78012B1CD0FFF70EFE104B5860022003F006FA022815D00C4B5868FFF707FE0B4808BD094B5868FFF701FE002008BD064B5868FFF7FBFD054808BDBD
:402AC000044808BD034808BD002008BDEF6F020804680208FF00420010B5044C2046FFF719FE04F11800FFF715FE10BD8444020890B110B5094A9060C36A03B1D3600024F3
:402B0000074B1C70074B1C70074B1C60074B1C7000F048F9204610BD0548704704680208FC6F02080070020804700208017002080100160070B59AB03B4D15AC2868696837
:402B4000AA68EB680FC4286920604C22002102A800F0A6FF354B029315AB049341F64C03ADF8143005238DF816301B23ADF82030ADF8223003238DF8243004238DF8253046
:402B800006238DF8263008238DF829304023ADF84C3001238DF85030254C2046FFF78CFD04F11800FFF788FD08A803F0D1F90346002836D11F4B03931F4B9B68996B89B1ED
:402BC0000B460DF12A0220311E685D689C68D868166055609460D060103310328B42F3D11B88138002A803F07BF90346B0B90122124B1A700023124A1370124A13700E4BD8
:402C00009B681A6A00929B6ADB88ADF804301423ADF8063068460BF0C1FF034600210A4A116018461AB070BDD4540810B531081084440208244D020804680208EF6F0208D2
:402C4000F06F0208F16F02080470020808B504F005FB08BD08B5044B1B689847034B1B6803B1984708BD00BF286802081468020808B510B1034A52689047034B1B6803B136
:402C8000984708BD286802081468020870B5C0B006460C4615464FF480720849684600F0F4FE05E016F8012B6A401DF80250013C002CF7D1284640B070BD00BFE8540810AD
:402CC00008B5FFF7F2FC08BD08B5FFF7F2FC08BD08B50120FFF7D8FB08BD00BF08B50120FFF7A8FB08BD00BF08B5094B58601960012208491046FFF7EBFA034628B90022AF
:402D000005490120FFF7E4FA0346184608BD00BF28680208712C0810552C081038B515460B46024601210020FFF780FA044618B129460120FFF7F4FA204638BD704700BF52
:402D4000704700BF002070470048704711001600004870471100160000487047110016000048704711001600004870471100160000487047110016000048704711001600FC
:402D80000048704711001600004870471100160000487047110016000048704711001600704700BF08B5054800F092FD044800F0A7FD044800F02AFE08BD00BF7C440208EA
:402DC0007844020870440208F8B5022872D8002972D10022134606E03B4CE45C012C01D90132D2B20133002BF6D0012A0CD1374B1B681C6801EB8102930023445B681B7966
:402E0000023BDBB2012B59D8314B1B78002B57D1304B1970E0B92D4F3C68236801EB8105AA009D186668C1EBC1014B001E44B18829822168114449686468E45A0C8039685D
:402E40000C682244526849680B445B8853801EE001281CD11D4F3C68236801EB8105AA009D186668C1EBC1014B001E44B1892982216811444D686168194409892980396825
:402E80000C682244526849680B445B895380124B18700E4B1B6818680E4B1B7803EB83039A00104407F046FC034650B90121084A117006E0094B04E0084B02E0084B00E032
:402EC000084B1846F8BD00BFF06F02080C680208F16F0208EE6F0208017002080100160002001600FF00160070B439B9144B1B681B689968CE7F00231D460EE0104B1B681B
:402F00001B68D968CE7FF6E7CA5C52B10133CC5C1B2C01D0134400E00125B34201D2002DF2D05DB101338279CA54002204E0D4180134855C0D550132052AF8D970BC704717
:402F40000C68020870B504460BF042FE0546D0B90E4B1968086A228902EB82029300143B03445A6812F0007F0DD0E67B1B695A68CB69D21A06EB8606B318A2882168044896
:402F8000184400F082FD284670BD00BF0C680208F46F020830B587B002891A4B1B685B699B889A4229D1044601AB07C883E807000022ADF81020A289ADF8122040228DF89E
:402FC00014201846FFF7BEFF054680B923681B7803F002039BB22BB10B4B1B6821460B48984704E0084B1B68214609489847094A137803F0FE03137000E00025284607B087
:4030000030BD00BF0C680208106802080500010006000100FC6F02084288531E9BB2172B1AD84178D1B910B40F4B1868046A02EB82029300143B23445A6812F0007F0FD07B
:403040001B695A68C369D31A01EB81011944074B5B5A1380002004E0012070470120704700205DF8044B70470C680208F46F0208C8B1104B1B68196A038903EB83039B00FD
:40308000143B0B445B6813F0007F0ED100B587B001AB00210491059107C883E807001846FFF750FF03E00E2070470120704707B05DF804FB0C68020800B583B00023ADF8AD
:4030C00004308389ADF800300389ADF8023012238DF80430084B1B7813F0010F09D129B18DF8051068460AF09DFE02E0C0680AF0B9FE03B05DF804FBFC6F020810B404469B
:4031000088B10023194606E0114A52F82320944200D1012101330E4A127B934206D20029F2D0002003E000210A4800E0002058B951B9074B1B7B022B05D8054A42F823401D
:403140000133137300E004485DF8044B704700BF08700208010016000300160070B506460D460020044606E0084B53F824302946304698470134054B1B7B9C4204D2044BB5
:403180001B7813F0010FEFD170BD00BF08700208FC6F020883792BB100207047C25C32B9013300E00023052BF8D9002070470120704700BF70B58AB004460D46C14A1378D6
:4031C00043F00103137044F20803984200F012823AD843F20103984200F0DD8019D841F20203984200F0168108D8B0F5805F74D041F20103984200F00A81C7E241F2030364
:40320000984200F0408142F20403984200F0D580BCE244F20403984200F0488109D843F21203984200F0B78043F2190398424ED0ACE244F20603984200F0E08144F207038E
:40324000984200F09081A1E245F20C03984200F055821BD845F20103984200F00E820AD844F20A03984200F07B8144F21003984200F079818AE245F20203984200F01B827A
:4032800045F20303984200F02F827FE245F21003984200F06E820AD845F20E03984200F0628245F20F03984200F060826EE245F21703984200F0638246F20103984200F0CE
:4032C000D98145F21403984240F0608254E27D4A137803F0FE03137058E27B4B1E683046FFF758FF60B1304608F032FA764E00213068FFF7F9FD01213068FFF7F5FD37E025
:40330000724B1A68936A1B791BB34FF0B05191F8043603F03F0391F8050600F03F0043EA801391F8030600F01F0043EA003391F8001601F07F0143EA4143126B1370634AC5
:403340001168096BC3F3072048701268126B1B0C93705E4E3368186B08F0FAF933680021186BFFF7C1FD33680121186BFFF7BCFD564B1B68986A023008F0A2FD002304936A
:4033800005933F238DF8103004A808F005FA02224F4B1A70FAE100234D4A13704D4A13704D4A13700A20FFF7F1F843F212039C4240F0EC81FFF790FBE8E1484B1B6813F0E6
:4033C000010F40F0E3810023ADF810308DF812303E4E33689B6A93F900308DF8103004A808F0F4F933689B6A93F901308DF8103001238DF81130FF238DF8123004A808F083
:40340000E5F9364A136843F001031360BEE1FFF7A5FEBBE14978324B1B88ADF81030002319E0304A32F81320ADF808209DF8092012B92D48825C00E00022012A0AD9294A50
:4034400012F81320914205D1264A32F81330ADF8103002E00133002BE3D09DF81130FF2B05D104D140F2CA312048FFF7B3F8BDF81030ADF81C30ADF81830C3F3072329787B
:403480001B4AD15482E10B78002B40F07F810B7A33B9184B0022DA809A80174A1A604B60084A137803F0FE0313706FE1CB78002B40F06C8149790A4B1B88ADF81030002360
:4034C00036E000BFFC6F0208B44402080C680208EF6F0208F16F02083C68020804700208E8550810EC6F0208F06F0208EC550810007002084468020870650208AC4A32F859
:403500001320ADF80C209DF80D2012B9A948825C00E00022012A0AD9A54A12F81320914205D1A34A32F81330ADF8103002E00133002BE3D09DF81130FF2B05D104D140F236
:40354000CA319D48FFF746F8BDF81030ADF82030ADF81030C3F307230121984AD15415E1FFF7FCFD12E12B78002B3FD1AB78012B02D10022924B1A706978924B1B88ADF8F8
:403580000C30002319E08A4A32F81320ADF810209DF8112012B98748825C00E00022012A0AD9834A12F81320914205D1804A32F81330ADF80C3002E00133002BE3D09DF80B
:4035C0000D30FF2B05D104D140F2CA317A48FFF701F8BDF80C30ADF82430ADF80C30C3F30723FF2B02D0A978774AD1540222774B1A70CBE00222754B1A70C7E0FFF7AEFD5C
:40360000734B1B7813F0010F00F0C0806C4B1B78012B03D102226A4B1A70B7E0032B03D10022674B1A70B1E0022B40F0AF800022634B1A70674B1B685B68674A1178C1EBFD
:40364000C10203EB42039A79002A00F09F809B88002B00F09B80614B1B78002B40F096800120FFF7B1FB002840F090800122544B1A708BE0FFF772FD88E00B88ADF80030E8
:403680009DF801301BB902214A4AD15405E023B940F286314848FEF79DFF6A782988444B23F812106B7800214D4AD15429462046FFF754FD6AE00B88ADF804309DF805300E
:4036C0001BB900213B4AD15405E023B940F286313948FEF77FFF6B780021384AD15429462046FFF73BFD51E00B88ADF810301723ADF8123004A80AF0A1FB47E00846FFF768
:4037000049FC014620B929462046FFF727FD01462846FFF7D1FC2E4B1B7813F0110F04D0304B1B682946204698472A89284B1B7813F0010F11D0531E9BB2172B0DD9122340
:403740008DF81430ADF81220AB89ADF8103001238DF8153004A80AF065FB1D4A137803F0FE03137012E0FFF7F9FC0FE0FFF7F6FC0CE0FFF7F3FC09E0FFF7F0FC06E00846AF
:40378000FFF74AFC29462046FFF7E8FC104B1B7813F0110F09D00E4A137803F0FE031370104B1B682946204698470AB070BD00BFEC6F0208F06F0208EC5508103C680208CD
:4037C000F16F0208E855081040680208EF6F0208FC6F02080C680208EE6F020801700208007002081068020830B589B00023069307938389ADF81830274B1B68002B44D07E
:403800000189254B5B681A68D38899423FD1234B1B68196A528802EB82029300143B0B445B6813F4801F29D0044601AB07C883E807000022ADF81020A289ADF8122040221F
:403840008DF814201846FFF77DFB0546B8B900238DF81A308DF81B30079323681B7813F0010F05D00C4B1B6806A90D48984706E0094B1B6806A90B48984700E006250A4AEB
:40388000137803F0FE03137002E0002500E00025284609B030BD00BF506802080C6802083200010033000100FC6F0208B0F5803F09D208B583B245F20C02934205D108469C
:4038C000FFF792FF08BD00207047002008BD00BF50B110B5064C60600648FFF70FFC63685B681BB1236010BD0348704710BD00BF50680208AD3808100100160000207047F5
:4039000030B108B5034A10600348FFF7F7FB08BD0248704758680208FD380810010016001C4B1B68002B34D01A4B5B681B685A8803899A422DD18388012B2AD103681B78C9
:40394000022B26D810B588B0044603AB07C883E807000022ADF81820A289ADF81A2040228DF81C201846FFF7EDFA80B9A389ADF8043000238DF806300294064B1B6801A94F
:4039800005489847054A137803F0FE03137008B010BD70475C680208BF000100FC6F020800B587B000238DF81730009301930293039304930123ADF80430074B5B681B68F2
:4039C0005B88ADF808300DF1170300936846FFF7B9FA07B05DF804FB5C680208B0F5803F11D208B583B245F20202934207D045F20E02934205D10846FFF792FF01E0FFF76E
:403A0000CFFF002008BD0020704700BF50B110B5064C60600648FFF771FB63685B681BB1236010BD0348704710BD00BF5C680208DD39081001001600044B18605B6813B11C
:403A40005860002070470248704700BF5C680208020016000A22002100F00ABA024B0146186800F073B800BFE046020810B501390244904207D010F8013B11F8014FA34282
:403A8000F7D0181B10BD002010BD10B5431E0A44914204D011F8014B03F8014FF8E710BD02440346934202D003F8011BFAE7704738B50546002946D051F8043C0C1F002BB0
:403AC000B8BFE41800F0DEF91F4A1368114613B96360146032E0A3420ED92268A018834204BF18685B68636004BF121822600C6024E0A24203D813465A68002AF9D1186873
:403B00001918A1420BD12168014458188242196014D1106852685A60014419600EE002D90C232B600AE021686018824204BF10685268626004BF091821605C602846BDE86E
:403B4000384000F0A0B938BDC06F020870B5CD1C25F0030508350C2D38BF0C25002D064601DBA94202D90C23336046E000F08AF9234B1C681A462146A1B10B685B1B0ED441
:403B80000B2B03D90B60CC18CD501EE08C420DBF63684B686360136018BF0C4615E00C464968E9E7174C23681BB9304600F02CF820602946304600F027F8431C18D0C41C63
:403BC00024F00304A0420DD12560304600F05BF904F10B00231D20F00700C31A0ED05A42E25070BD211A304600F00EF80130EBD10C233360304600F046F9002070BD00BF97
:403C0000C06F0208BC6F020838B5064C002305460846236000F0C0FC431C02D1236803B12B6038BD187002080EB400B59CB04FF402711DABADF81410029006906FF0004197
:403C40000A48049107914FF6FF7153F8042BADF816100068019302A900F070F9029B00221A701CB05DF804EB03B07047E0460208034611F8012B03F8012B002AF9D1704788
:403C800010B5034642B111F8014B03F8014B013A002CF7D11A4400E010BD934202D003F8014BFAE710BD0000174B2DE9F0411D68AC6D06460F46FCB95020FFF7CFFEA865B4
:403CC0008460AB6D046044601C61DC60AB6D9C615C61AB6DDC629C62AB6D5C631C63AB6DDC639C63AB6D5C641C64AB6DDC649C64AB6D1C77AB6D5C62AA6D394630460123D4
:403D0000BDE8F04100F002B8E0460208F0B548B9106838B9F0BD17F8016B5EB1B542FAD12BB1204604460F4614F8015BF3E714600370F0BD4DB915602846F0BD17F8016B03
:403D4000B54207D0002EF9D11C4623460F4613F8015BF3E715B10021217000E02B461360F0BD00002DE9F04780464048D0F800900F463D4615F8014B09EB0400407800F06F
:403D8000080000F0FF0608B12F46F2E72D2C03D1BD1C7C78012603E02B2C04BF7C78BD1C13B1102B0AD15BE0302C57D1287800F0DF0058284DD16C7810230235002E14BF1F
:403DC0004FF0004C6FF0004C0027BCFBF3FA384603FB1ACC09EB040E9EF801E01EF0040F01D0303C0BE01EF0030E1BD0BEF1010F0CBF4FF0370E4FF0570ECEEB0404A34238
:403E000010DDB7F1FF3F0AD0504506D801D1644503DC03FB0040012701E04FF0FF3715F8014BD7E77B1C0CD1002E4FF0220314BF4FF000406FF00040C8F800302AB9BDE8C6
:403E4000F08706B1404272B107B1691E1160BDE8F0873024002BB1D10823AFE70A23ADE7302CA3D0AAE7BDE8F08700BFE446020813460A46014602480068FFF773BF00BF28
:403E8000E0460208704770472DE9F0478E689E4282460C46914698463ED88A8912F4906F3AD0256809696F1A6569022305EB450595FBF3F57B1C43449D4238BF1D4653055E
:403EC0000FD52946FFF742FE064698B13A462169FFF7DBFDA38923F4906343F08003A38113E02A4600F027FB064670B921695046FFF7DEFD0C23CAF80030A38943F040031E
:403F0000A3814FF0FF30BDE8F087266165613E44ED1B2660A5604646464528BF464632464946206800F0ECFAA3689B1BA36023681E4426600020BDE8F08700002DE9F04FBA
:403F40009DB0804603938B891C060D4616460DD50B695BB94021FFF7F9FD2860286118B90C23C8F80030CDE040236B610023099320238DF82930DFF89CB130238DF82A30E9
:403F800037463C4614F8013B1BB9B7EB060910D003E0252BF9D02746F3E74B46324629464046FFF771FF013000F0A780099B4B4409933B78002B00F0A08000234FF0FF3216
:403FC00004930793059206938DF853301A930126052221784E4800F043FA671C049B38B14B4A801A06FA00F0184304903C46EFE7D90644BF20228DF853201A0744BF2B2203
:404000008DF8532022782A2A03D0079A00210A200BE0039A111D12680391002A10DA524243F00200079204900BE0274601343B78303B092B03D800FB02320121F5E701B174
:4040400007923B782E2B1ED17B782A2B0AD1039B1A1D1B680392002BB8BF4FF0FF330237059310E000230593781C19460A24074601303A78303A092A03D804FB01210123FF
:40408000F5E703B1059103223978224800F0E8F940B14023CBEB000003FA00F0049B18430490013739781C488DF8281006227E1C00F0D6F988B1194B33B9039B073323F045
:4040C00007030833039314E003AB00932A46144B04A94046AFF3008007E003AB00932A460F4B04A9404600F093F8B0F1FF3F824603D0099B5344099342E7AB895B0601D408
:40410000099801E04FF0FF301DB0BDE8F08F00BF035C0810095C08100D5C081000000000893E08102DE9F04791461F460A698B68DDF820809342B8BF1346C9F8003091F808
:40414000432006460C4612B10133C9F800302368990642BFD9F800300233C9F80030256815F0060510D104F1190A07E00123524639463046C04701301AD00135E368D9F862
:4041800000209B1A9D42F1DB94F843302268003318BF012392060FD5E1185A1C302081F84300224494F8451082F84310023303E04FF0FF30BDE8F08704F1430239463046EC
:4041C000C0470130F4D02268D9F80050E36802F00602042A08BF5D1B2269A3680CBF25EAE57500259342C4BF9B1AED184FF000091A344D4509D00123224639463046C047DC
:404200000130D5D009F10109F3E70020BDE8F0872DE9F04317460A7E85B06E2A984606460C460C9B01F1430E00F0AE8011D8632A22D009D8002A00F0BB80582A40F0CA8075
:4042400081F84520834955E0642A1ED0692A1CD0C0E0732A00F0B08009D86F2A2ED0702A40F0B8800A6842F020020A603EE0752A24D0782A3AD0ADE01A6801F14205111D8A
:404280001960136884F84230A8E021681A6811F0800F02D0111D196008E011F0400F02F10401196002D0B2F9003000E01368002B3CDA2D225B4284F8432037E021681A68A1
:4042C00011F0800F02D0111D196007E011F0400F02F10401196001D0138800E01368227E5C496F2A14BF0A2208221BE078225A4984F845202268186812F0800F00F1040591
:404300001D6003D1550601D5038800E00368D00744BF42F0200222601BB9226822F0200222601022002084F8430001E049490A226568A560002D08DB206820F004002060B3
:404340002BB9002D7DD175460CE0002B79D07546B3FBF2F002FB1033CB5C05F8013D03460028F5D1082A0BD12368DA0708D5236962689A42DEBF302305F8013C05F1FF35C2
:40438000C5EB0E0323612EE008681A68496910F0800F03D0101D1860136808E010F0400F02F104001860136801D0198000E0196000232361754616E01A68111D19601568A2
:4043C00062680021284600F04BF808B1401B6060636804E004F1420584F8422001232361002384F84330CDF800803B4603AA21463046FFF797FE013002D14FF0FF3026E087
:4044000023692A4639463046C0470130F5D023689B0710D5002504F1190907E001234A4639463046C0470130E7D00135E368039A9B1A9D42F2DBE068039B9842B8BF1846AD
:4044400005E00B7884F8423004F142058AE705B0BDE8F083145C0810255C08100000000001F0FF01102A2BDB10F0070F08D010F8013B013A8B422DD010F0070F42B3F6D111
:40448000F0B441EA012141EA014122F007047FF000070023F0E80256083C85EA010586EA010685FA47F5A3FA87F586FA47F6A5FA87F68EB9EED1F0BC01F0FF0102F007023D
:4044C00032B110F8013B013A83EA010313B1F8D10020704701387047002D06BF35460338073815F0010F07D1013015F4807F02BF013015F4C03F0130F0BC0138704700BF02
:40450000884210B501EB020301D8421E0BE09842FBD28118D21AD34204D013F8014D01F8014DF8E710BD994204D011F8014B02F8014FF8E710BDF8B5074615460E4621B9F9
:404540001146BDE8F840FFF701BB1AB9FFF7B0FA2846F8BD00F015F885420ED929463846FFF7F4FA044650B131462A46FFF78DFA31463846FFF79CFA01E03046F8BD2046A1
:40458000F8BD51F8040C0028BEBF091851F8043CC018043870470000044A05491368002B08BF0B461844106018467047C46F020820700208F8B500BFF8BC08BC9E46704742
:4045C000F8B500BFF8BC08BC9E467047160000000700000003000000010000000100000000000000050360000400000001000000000000000100000006046000080000003A
:40460000EC66020831040810656E746572656420726561642063617365206261747465727920736572766963650D0A0052656164206572726F720D0A0000000072656164B6
:40464000696E6720726573706F6E73652025730D0A00000053656E64696E6720746F205065727068657269616C0D0A00636861726765207374617475733A2025640D0A0068
:40468000656E74657265642072656164206361736520637573746F6D20736572766963650D0A0000526563656976656420737472696E673A2025730D0A0000007420766166
:4046C0006C75653A2025640D0A000000542076616C75653A2025640D0A000000762076616C75653A2025640D0A0000004572726F720D0A0056616C7565206368616E67659E
:40470000643A2025640D0A00506978656C20647261776E0D0A00000044726177696E672072656374616E676C650D0A00706978656C20636F756E743A2025640D0A000000A9
:40474000456E746572696E670D0A00004C6F6F70732066726F6D206D61696E2025640D0A000000000100000001000000F9FFFFFF0000000001000000010000000000000086
:40478000010000000000000000000000090000000A000000070000000A0000000A0000000A0000000A0000000A0000000000000000000000DC4B0810E84B0810F84B0810C7
:4047C000044C0810104C08101C4C0810284C0810344C0810404C0810644B0810704B08107C4B0810884B0810944B0810A04B0810AC4B0810B84B0810C44B0810D04B0810B3
:40480000F44A0810FC4A0810044B08100C4B0810144B08101C4B0810244B0810004A08102C4B0810344B08103C4B0810444B08104C4B0810544B08105C4B0810004A08101C
:40484000044A08100C4A0810144A08101C4A0810244A08102C4A0810344A08103C4A0810444A08104C4A0810A44A0810AC4A0810B44A0810BC4A0810C44A0810CC4A081038
:40488000D44A0810DC4A0810E44A0810EC4A0810544A08105C4A0810644A08106C4A0810744A08107C4A0810844A08108C4A0810944A08109C4A0810004A0810044A0810A4
:4048C0000C4A0810144A08101C4A0810244A08102C4A0810344A08103C4A0810444A08104C4A0810CC490810D0490810D4490810D8490810DC490810E0490810E44908102B
:40490000E8490810F0490810F8490810010000000100000000000000000000000100000001000000000000000100000000000000000000006047081068490810504C081043
:404940005C4C08106C4C0810804C0810944C0810A84C0810B84C0810C84C0810D84C0810EC4C08102D0000005061697200000000564255533A256400434852473A25640048
:4049800044504D3A2564000050473A2564000000544845524D3A256400000000565359533A256400575444463A2564004F5447463A256400434847463A25640042415446BB
:4049C0003A2564004E5443463A25640033303000343030003530300036303000373030003830300039303000313030300000000031313030000000003132303000000000A6
:404A00004F666600416D702D31000000416D702D32000000416D702D33000000416D702D34000000416D702D35000000416D702D36000000416D702D37000000416D702D97
:404A400038000000416D702D39000000416D702D313000003120487A000000003220487A000000003320487A000000003420487A000000003520487A000000003620487A4D
:404A8000000000003720487A000000003820487A000000003920487A00000000313020487A000000467265712D310000467265712D320000467265712D3300004672657110
:404AC0002D340000467265712D350000467265712D360000467265712D370000467265712D380000467265712D390000467265712D313000436F6C642D370000436F6C6417
:404B00002D360000436F6C642D350000436F6C642D340000436F6C642D330000436F6C642D320000436F6C642D310000486F742D31000000486F742D32000000486F742D3D
:404B400033000000486F742D34000000486F742D35000000486F742D36000000486F742D370000005072657365742D31000000005072657365742D3200000000507265738F
:404B800065742D33000000005072657365742D34000000005072657365742D35000000005072657365742D36000000005072657365742D37000000005072657365742D388E
:404BC000000000005072657365742D39000000005072657365742D31300000005072652D736574730000000054656D7065722D617475726500000000566962652D616D701C
:404C000000000000566962652D6672657100000054454E532D6672657100000054454E532D416D700000000054454E532D44757200000000426C75652D746F6F7468000004
:404C4000446961676E6F2D7374696373000000004D61696E204D656E7500000050726573657473204D656E750000000054656D7065726174757265204D656E750000000077
:404C8000566962726174696F6E20416D706C697475646500566962726174696F6E204672657175656E63790054454E53204672657175656E6379000054454E5320416D707D
:404CC0006C6974756465000054454E53204475726174696F6E000000426C7565746F6F74682053657474696E67730000446961676E6F7374696373004261636B6C696768D9
:404D000074206F6E0D0A000047656E6572617465645F536F757263655C50536F43365C70646C5C647269766572732F7065726970686572616C2F6770696F2F63795F677034
:404D4000696F2E68000000003031323334353637383961626364656600000000000003000000180001000028010000000900000000180000000000000200032801000200CD
:404D800003000000002A0000000000000300002A0100020103000000090000005C430208040003280100020005000000012A0000000000000500012A010002010500000045
:404DC0000200000064430208060003280100020007000000042A0000000000000700042A0100020107000000080000006C430208080003280100020009000000A62A000087
:404E0000000000000900A62A010002010900000001000000744302080A000028010000000D00000001180000000000000B000328010020000D000000052A000000000000DE
:404E40000C00052A000020010D000000040000007C4302080D00022901010A030D00000002000000844302080E000028010000001000000002180000000000000F0003283A
:404E80000100040010000000062A0000000000001000062A0001040110000000010000008C4302081100002801000000150000000F180000000000001200032801000200C7
:404EC00015000000192A0000000000001300192A01000201150000000100000094430208140004290100020114000000070000009C4302081500022901010A03150000005C
:404F000002000000A443020816000028010000081800000010000000AC4302081700032801000E001800000010000000B44302081800A23601010E09180000001400000067
:404F4000BC43020874983D9E375AE9B8884691D2210CF03B0A6BEF0EFA1AAC95CC425A69A236C8930100030005000700090000000A000C000D0000000E0010001600180033
:404F8000000000001100130014001500040000000000000000000000000000000000000070020000008000000000000000000000004000000000000000000000000000006E
:404FC000000000000200000003000000FFFFFFFF03000000FFFFFFFF03000000FFFFFFFF03000000FFFFFFFF03000000FFFFFFFF04000000000000000000000000000000B0
:40500000000000007002000000800000000000000000000000400000000000000000000000000000000000000200000003000000FFFFFFFF03000000FFFFFFFF030000003B
:40504000FFFFFFFF03000000FFFFFFFF03000000FFFFFFFF040000000000000000000000000000000000000000010000008000000000000000000000004000000000000071
:405080000000000000000000000000000200000003000000FFFFFFFF03000000FFFFFFFF03000000FFFFFFFF03000000FFFFFFFF03000000FFFFFFFF0400000007000000E8
:4050C000000000000000000000000000FF00000000800000000000000000000000400000000000000000000000000000000000000200000003000000FFFFFFFF03000000ED
:40510000FFFFFFFF03000000FFFFFFFF03000000FFFFFFFF03000000FFFFFFFF040000000000000000000000000000000000000000010000008000000000000000000000F1
:4051400000400000000000000000000000000000000000000200000003000000FFFFFFFF03000000FFFFFFFF03000000FFFFFFFF03000000FFFFFFFF03000000FFFFFFFFF2
:405180000400000000000000000000000000000000000000000100000080000000000000000000000040000000000000000000000000000000000000020000000300000025
:4051C000FFFFFFFF03000000FFFFFFFF03000000FFFFFFFF03000000FFFFFFFF03000000FFFFFFFF47656E6572617465645F536F757263655C50536F43365C70646C5C6415
:405200007269766572732F7065726970686572616C2F6970632F63795F6970635F6472762E68000047656E6572617465645F536F757263655C50536F43365C70646C5C6484
:405240007269766572735C7065726970686572616C5C6970635C63795F6970635F6472762E68000047656E6572617465645F536F757263655C50536F43365C70646C5C64BD
:405280007269766572735C7065726970686572616C5C6970635C63795F6970635F6472762E63000047656E6572617465645F536F757263655C50536F43365C70646C5C6482
:4052C0007269766572735C7065726970686572616C5C6970635C63795F6970635F706970652E630047656E6572617465645F536F757263655C50536F43365C70646C5C64E0
:405300007269766572735C7065726970686572616C5C737973696E745C63795F737973696E742E630000000047656E6572617465645F536F757263655C50536F43365C7060
:40534000646C5C647269766572735C7065726970686572616C5C7764745C63795F7764742E6300000000204000002440000000400000000000002340000030400000314010
:4053800000009F40000022400000104002020202020202020210101D800017007500FF030602063604102000000000007FC0000000040000000000000019324B647D00804D
:4053C0004000080B100000000000FF012002001F00800004FF081018001000140018001C4044484C5000000008100000080000000400000004100000001200000421000027
:40540000002100000016000040114002C41300138013A013200000001C0000000000214000002540000001400000344000002440000031400000324000001F4100002340B1
:4054400000001140010101010101010101101010800019005500F0000501053B04101C01010000000FC000000004000001010101011D3A5778960008200010120800000066
:40548000001F00000010000F002000023F06080E00080009000A000B24282C3034000000100000009000000088000000080000008000000004F0000000F000004002000059
:4054C0002005A000D00100018001A0012000000010000000240003003000010028000200240002000C00010000316253C4F5A697B988DBEA7D4C1F2E4372211087B6E5D43A
:40550000FACB98A93E0F5C6D86B7E4D5427320113F0E5D6CFBCA99A8C5F4A796013063527C4D1E2FB889DAEB3D0C5F6EF9C89BAA84B5E6D7407122137E4F1C2DBA8BD8E94B
:40554000C7F6A59403326150BB8AD9E87F4E1D2C02336051C6F7A495F8C99AAB3C0D5E6F4170231285B4E7D67A4B1829BE8FDCEDC3F2A1900736655439085B6AFDCC9FAE4B
:4055800080B1E2D344752617FCCD9EAF38095A6B4574271681B0E3D2BF8EDDEC7B4A192806376455C2F3A0914776251483B2E1D0FECF9CAD3A0B586904356657C0F1A2934B
:4055C000BD8CDFEE79481B2AC1F0A3920534675678491A2BBC8DDEEF82B3E0D1467724153B0A5968FFCE9DACFFFF000047656E6572617465645F536F757263655C50536FD4
:4056000043365C70646C5C6D6964646C65776172655C626C655C63795F626C655F6761702E680000000404000104080002041400030C200004042C00050648006DA008104B
:4056400001A5081001A5081001A5081001A50810798A08104D8B081001A5081001A5081001A5081001A5081001A5081001A5081001A5081001A5081001A5081001A50810BB
:4056800095A20810E1A20810199908101D9B0810F99E08106D79081000000000A85A0810485A081008000000991509100000000018590810645808100F00000000000000AA
:4056C0000000000000000000000000000000000001200000BDB108100620000001B3081007200000D1B1081008200000C1B2081009200000C1B308100A200000BDB0081039
:405700000B20000085B308100C2000004DB308101020000019B108101120000099B00810122000009DB208101420000039B308101520000031B1081017200000EDB008101A
:405740000E2000001DB10810ACFD000093B50810ADFD000087B40810A0FD0000FDB50810A1FD0000E7B40810A2FD000023B50810A5FD0000F3B60810A6FD000057B608109D
:40578000A8FD000059B40810A9FD00002FB40810AAFD00004BB50810ABFD0000B9B60810AFFD000049B50810C3FD0000A5B60810B0FD00001DB60810B2FD00006BB608101B
:4057C0000514000077B108102D0C000051B208107B0C0000FFB108107C0C0000F5B3081027200F2028201020292010202B200A202C200B202D200D202E200C204E20172079
:4058000000000100010000010001020203000200000000000202010002000001000100050100050202030002000000000002050100050000A50D09100D0F0910150E0910F5
:4058400001010B0102028102820503040403840906090709080909090A09050A0C0B0D0D0E0E000001000000010000000000000002000000040000000200000003000000B3
:405880000700000005000000040000000A00000008000000050000000C0000000B000000060000000E0000000D00000007000000100000000F000000080000001300000048
:4058C000110000000900000016000000140000000A0000001700000017000000FF00000018000000180000000B0000001B000000190000000C0000001D0000001C00000079
:405900000D0000001F0000001E0000000E00000021000000200000000100000011330910FEFFFFFFDD310910010000001133091006000000D5340910F8FFFFFFDD310910AC
:4059400018001200F9310910A000000C512F091047FFEDFBDD310910E8000C004931091000012000593009101FFED3FFDD310910A000000C713909105FFFFFFBDD310910D2
:4059800000020000C9370910FFFDFFFFDD310910000C0000592E0910FFF3FFFFDD310910000A0000FD300910010000001D310910FEF7FFFFDD310910002000009D2F091011
:4059C0000040000079380910FF9FFFFFDD310910FFFFFFFFE3310910FFFFFFFF532E091000800000352E091000000100172E0910FF7FFEFFDD31091000800100DB2D09107C
:405A0000FF7FFEFFDD31091000008003BD2D0910FFFF7FFCDD31091000801F0AF92D0910FF7FE0F5DD310910000000000000000000000000000000008700000000000000B5
:405A4000000000000000000081000000000000000000000082000000010000000100000001000000020000000200000002000000040000000300000003000000060000000A
:405A800005000000F10000000700000007000000F20000000900000008000000FF0000000A0000000A00000002000000013E091001000000013E09100E000000F53C0910C1
:405AC00002000000393D09100C000000DD3C091002000000793D09100C000000DD3C09100E000000013E09100C0000003D3E091002000000DD3C09100E000000813E0910A8
:405B0000430000202020202020202020282828282820202020202020202020202020202020202088101010101010101010101010101010040404040404040404041010102A
:405B40001010101041414141414101010101010101010101010101010101010101011010101010104242424242420202020202020202020202020202020202020202101017
:405B800010102000000000000000000000000000000000000000000000000000000000000000000000000000000000000000000000000000000000000000000000000000A5
:405BC00000000000000000000000000000000000000000000000000000000000000000000000000000000000000000000000000000000000000000000000000000000000A5
:405C0000000000232D302B2000686C4C0065666745464700303132333435363738394142434445460030313233343536373839616263646566000000000000002DE9F05F0C
:405C400000250746041D00F1180840682E4E4FF6FF7A88B1616879B180070DD1207A80070AD198F8300038B12849084600F0A2FB10EA0A0002D044E0354642E02289A37ABD
:405C8000DFF88C90206858B1C9F800000025A9F80420A9F80650A9F808302946FDF700FFA07A801D00F0FF0B5946606800F072F8050021D1404601F087F905001CD1E068E9
:405CC00020B1384600F0CAFA050015D1B9F80400B9F80610884206D3401A80B2594600F0A9FE20B100E05046354628B109E0A07A801DC0B200F0C4F900F0D8F9054901204B
:405D000008702846BDE8F09F01001600A55F081064680208B844020803480078012801D100F018BD70470000B844020810B500F073FB0449002008608880C88008810249DE
:405D4000087010BD64680208B844020870B5044600208A0703D001F00302891A091D084B89B2DA889E885518B54206D81D682A442260DA881144D98070BD024870BD0000CF
:405D800064680208030016000148008970470000646802082DE9F84705460C460020890000908A466846FFF7D1FF07004BD12748009B0022036017E003F82220062A08D236
:405DC000234803EB820100EB820046784E70408807E005EB8200183803EB820186784E700088521C4880D2B2A242E5D300251EE005F1010909F0FF0015E003EB850203EBEF
:405E00008001B2F802C04E88B4450AD991F80180A1F802C092F801C081F801C0568082F80180401CC0B2A042E7D309F0FF05A542DED347B951466846FFF788FF070002D16D
:405E40000449009808603846BDE8F887BC44020824560810C0440208F0B5002319E05A1C00EB830612E030F8235030F82240A5420BD2778820F8234000EB8204B4F802C0AA
:405E8000A6F802C020F822506780521C8A42EAD35B1C8B42E3D3F0BD0048704770680208FFF73ABF10B5022401F032F810B100F03FFF00B90124204610BD052070470000C1
:405EC00010B5002428B132220349FDF7DEFD204610BD024810BD00007068020801001600F8B506004FF000008DF8000006F1040407D020892081304601F0E2F8050002D07F
:405F000012E01248F8BDA17A6A46606801F0B2F8050009D1E06838B1B6F84400000903D0304600F0FBF905462089208165B93046FFF784FE050007D1304600F0B5FF054617
:405F4000A17A6068FFF788FF2846F8BD0100160038B504004FF00000ADF8000008D0A18D090A05D1617A102902D8E179102901D90A4838BDE0856946204600F0D5FF0500DE
:405F8000E08DBDF800100844E08504D1322221460348FDF77AFD284638BD0000010016007068020870470000002809D005494A68002A05D0011F087852F8200000F0E4BC0B
:405FC00070470000BC44020810B50446FFF7DCFEC0B2801DA0420BD30648406840B150F8240000F03DFC002801D000F8044B10BD002010BDBC440208F8B516460D4604460C
:40600000FFF7C2FEC0B2801DA04203D24FF0FF300090F8BDB2B2E9B2684600F04BFC0099481C03D00248406840F824100098F8BDBC4402082DE9F0410746FFF7A5FE801DFE
:406040000B49C6B2002005460C680CE0617839B16188B94202D32078FFF7B6FF002804D1241D6D1CEDB2B542F0D3BDE8F0810000BC440208002801D0FFF796BF704700008F
:4060800070B506460848002504680AE0617829B162882078121D0023FFF7AEFF241D6D1CEDB2B542F2D370BDBC4402081CB50024142001908DF800402346064A69460648E9
:4060C0000BF0FCFF04480068401C01D14FF6FF7420461CBD15610810C44402080EB50C4A0146002312684FF6FF7004290DD009290AD109200093ADF80800ADF80A30694672
:4061000010460BF0D8FF80B20EBD04200093F2E7C444020870B5D0E90054468900890C282DD2DFE800F02C2C0606112C2C152C191C27E0B23246294609F0EAF8E0B232465C
:40614000294600F037FD1AE000200BF0BFFC16E02878FCF725FE12E000F00AFE0FE0E8B2022C02D008F010FE09E0FF2807D002F055FF04E02846022C03D008F0DDFE002024
:4061800070BD03F05DFAFAE70148006800F0CABAC44402082DE9F0411F4F0026386D60B1796D51B14218891E12F8024C0022FCF76DFD844201D0194E2BE0002505EB850359
:4061C00007EB8304606800B357F82310E9B16289D7F854C0624518D294F80CC01CF0090F02D0FDF752FC0AE009780170606831B1628957F82310083A08310830F1E7236996
:406200001BB10122207B114698476D1CADB2042DD4D33046BDE8F081A4680208FFFF1600F0B5C10701D040F008000B4CFF2184F85D10002101250E4601EB810204EB8202D5
:4062400005FA01F3177B03409F4200D11681491CC9B20429F0D3F0BDA468020870B5134908B3B0F84410124CC1F30711002584F85C10016921654069C4E91505FF2684F80A
:406280005D6028464FF6FF7300EB800204EB8201401C4B8144F822500D610E73C0B20D810428F1D30021084670BD000001001600A468020810B5174B48B3417839B30022B6
:4062C00002E04908521CD2B20029FAD102EB8201114A02EB810111F8084CFF2C17D103787BB1438821F80A3C946D136D234441F8143C4488936D2344936582680AB141F890
:40630000042C103942780A72406800230860184610BD000001001600A4680208F0B5B0F84420234C46690021C2F30712D2B3D3070BD090F8203003EBC30505EB431501EB69
:40634000850101EB031101F14001530715D5C37F2C2513FB05F55FEA857C4FF00C0723D003EB430505EBC30307EB830505F00305C5EB830505F11005294492070ED590F8DF
:4063800021004FF00803C20095070FD003EBC00202F00302C2EBC0020C321144891C8E4200D300242046F0BD0C35E5E70832F4E7010016000F4A10B5002313600E4A136055
:4063C0000E4B18600E4801600E49012008600E49086000020E4990600C4808600D4914300860A0F58A70506000F0D0F800F008FA002010BDE0440208C8440208F444020813
:40640000F8440208E4440208D4440208046A0208D8440208EC4402080020704710B501004FF0000010D0094B1A689C681144A14209D25868196010448A0704D001F0030259
:40644000891A091D196010BD002010BDC84402082DE9F04102461A4F002010253B1F4FF0FF38444639681B6807E000EB800605EB86068E59761C1ED0401C9842F5D3601C8A
:4064800016D004EB84060C2000EB86000A5002EB42008000FFF7C2FF396841F8260060B1396805EB8602002088507868401C78602046BDE8F0810446E1E74046F9E70000F6
:4064C000D84402082DE9F0410F464FF0FF36002821DB2249096888421DD8E7B1DFF87C8000EB800508F104081020D8F8001000EB85040859401C0ED0FCF7F0FBD8F80000FA
:406500000C2202EB8502015950F802C04346614504DBFCF7DDFB3046BDE8F081082101EB8506815950F8250001EB410500EB85003D6805607D684560BD6885601868491CE4
:4065400082588A4200D10021815118680159491C0151FCF7BDFB0020DEE70000D4440208002803DB08490968884202D94FF0FF307047054900EB8000091D1022096802EB6D
:406580008000085870470000D44402082DE9F0430020134A0427441E03464FF0080C1025A2F10409506014E000EB8001166807EB8108401C46F8083016680CEB810846F847
:4065C0000830166805EB810846F80840166846F82130D9F800108842E6D30020BDE8F083D84402082DE9F0410E464FF0FF3700284CDB29490968884248D8EEB3DFF898805B
:4066000000EB800408F104081020D8F8001000EB84054859401C39D0FCF760FBD8F800004346415949B3042101EB8407C25950F8240002EB420100EB8100521CD0F800C06A
:40664000C6F800C0D0F804C0C6F804C08068B060186850F8240000EB810000210160416081600C21186801EB84014158914200D10022C251186801E008E009E04159491E77
:406680004151FCF725FB0020BDE8F0813846FBE7FCF71EFBFAE70000D44402082DE9F0470D4601001E4C4FF00000089E80464FF0FF37206010D0606885420DD262B15EB175
:4066C000642E09D804F10C09C5EBC501D9F8000000EB8104207A10B13846BDE8F0870120226020721846FFF7B3FE6060401C13D06681A6812761676199F80410A94201D277
:4067000089F8045041460B4661F30F030A46284600F052F82846E0E784F80880DCE70000E044020810B5002810DB0949496888420CD80749C0EBC0000C31096801EB8000C6
:406740004068FFF70DFF08B1002010BD012010BDE0440208FEB5174E4FF0FF373D4600240DE03068C4EBC40100EB8100017A29B14068FFF7F5FE08B1254603E0641C3079FE
:40678000A042EEDA681C13D03068C5EBC50100EB8104FCF7A3FA69466068FFF723FF0546FCF796FA002DD9D1216868468847D5E7FEBD0000EC44020838B50024009400F03A
:4067C00001F838BD1FB500220C49541E00280A6012DB496888420FD80849C0EBC0000C31096801EB800001A94068FFF76BFE401C02D0002004B010BD2046FBE7E044020841
:40680000F0B50021154A4E1EA2F10C0711710B46BE601EE0C1EBC1000425146805EB800566511468082505EB800544F820301468635514680C2505EB8005635314680A2593
:4068400005EB800563531825146805EB8000491C265078688142DDD30020F0BDEC44020838B5041E4FF00000009012DB1048007884420EDA0E4D0C35286800EB04110968A9
:4068800039B1042101EB04110844694600F047F908B1002038BDFCF721FA0F21286801EB0411425C521E4254FCF712FA009838BDFC4402082DE9F74F8A46002500996C1E12
:4068C000D21C0C604FF6FC71DFF8B88002EA0107A8F10C0128460A78D8F8001005E001EB00131B687BB1401CC0B29042F7D3601C2CD0042000EB041B01EB0B00514600F0F2
:40690000FDF818BB01E00446F1E7D8F800000C2101EB041147520E22D8F8001002EB041207FB0AF001F802A00F22D8F8001002EB041201F802A000F0ABF8D8F8001001EB3D
:406940000411086010B1814600260EE0012516E0D8F8001001EB0B00494600F0FAF808B1012500E0B944761CF6B25645F0D335B90098046098F80410491C88F80410284651
:40698000BDE8FE8F08450208F8B54FF000070D46041EADF800703ADB25480078844236DADFF88CC00CF10C0CDCF8001001EB0410006860B30C2202EB04128E5A0E2202EB34
:4069C000041285428B5C06FB030220D395421ED2002205E002FB060EAE4504D0521CD2B29A42F7D39FB1042000EB0417C81966466A46294600F0C7F848B9BDF800000128E8
:406A000007D030682946384400F0A3F818B10120F8BD0020F8BDFCF761F90F21306801EB0411425C521C4254FCF752F9F1E70000FC4402082DE9F0410D46002400F03CF803
:406A4000002821D11149002201F10C034A600C210E264FF00F0E14E01F6801EB041C07EB04173A601F6827F80C201F6806EB041C07F80C200EEB041C1F68641CE4B207F8A0
:406A80000C20AC42E8D31A71BDE8F081FC44020800280BD0074AC01C20F00301506853880144994203D89368516018447047002070470000FC440208F8B5064600200E4DF0
:406AC00000900C01297021466846FFF73FF958B905F10C0100980860301B001F84B221466846FFF733F910B14FF6FF70F8BD6C800098A8600020F8BDFC44020830B50D4625
:406B000004000AD0A800FFF7C3FF606028B125704FF0FF306080002030BD012030BD70B50D46040004D01DB1B4F90200002801DA012070BDFCF7D2F8B4F90210606850F8D6
:406B4000210028606088401E6080FCF7C1F8002070BD70B50D46040006D02DB12078B4F90210401E814201DB012070BDFCF7B6F86088401C00B26080616841F82050FCF79F
:406B8000A7F8002070BD70B500231D4610B1B0F902400AE0012070BD466856F823608E4201D1012503E05B1CDBB29C42F4DA1570002070BD70B586B015460E460446182220
:406BC00000216846FCF76CFF00238DF800308DF80140ADF804506846029600F023F906B070BD00000EB501890091407801900A20ADF808000020ADF80A000348694600686D
:406C00000BF059FA0EBD0000C44402080EB541680091417801910221ADF808100089ADF80A000348694600680BF045FA0EBD0000C444020800F0DEB802490020488000F0A7
:406C400071B80000104502082DE9F041074621480125002405704FF6FF75012F02D0022F2FD10DE0477082801B4A128842F4807282818160174800F0D5F810BB2C4620E0DA
:406C8000164E012B20D0B6F800C0022B624492B2328010D081607188091D8A4211D1104947708280098841F400718181094800F0B9F818B103E009684161ECE72C4600202E
:406CC00030802046BDE8F0814A887280096801610420F5E7346A0208FC450208104502087845020870B504460D4600EB4400C20000212846FCF7D4FE074A0020074914716B
:406D00001560907150710648FBF7EEFF08B1002070BD012070BD000014450208E56B08100D6C081001491420FFF7DCBF4C6A020810B5FBF7C5FF06494A7989798A4201D143
:406D4000012400E00024FBF7BFFF204610BD00001445020805494879401CC0B248710A79904201D100204871704700001445020810B5FBF7B3FF0B4948798A7990420DD0C4
:406D8000096800EB400001EBC000AFF21B020649FBF7C4FF10B10920FFF7A0F9BDE81040FBF796BF14450208556D081070B5104C0146A2796379501CC0B2834216D02579F1
:406DC000854200D193B1206802EB420200EBC2001822FCF75AFEA079401CC0B2A0712179884201D10020A071012070BD002070BD1445020870B5FBF763FF094C05462179BC
:406E000001EB4100C20000212068FCF749FE0021A17161712846BDE87040FBF755BF00001445020810B5FFF7C1FF0446FFF7A0FF204610BD10B5124802F01CFC68B911481F
:406E400002F000F848B911490F480860084600F085FA10B90E4809F089F904000ED1FFF799F90404240C04D0002141F2050000F089F900214FF4805000F084F9204610BDA1
:406E8000FD850810AB89081089C008102445020859BB081010B504F053FC03F081FDBDE8104004F0DFBC000070B50546041D00F1180600F0ADF91448296801606168098811
:406EC0008180A17A03290FD361688979017261684989C1F34701417261688989C180B179817296F83010C1726168098A818100F091F8002806D100F0A5F8002802D1034AFB
:406F00000121117070BD00002C6C02081C45020810B502F079F9012803D1FFF735F9012800D0002010BD00002DE9F0411C4D0C46060005D0DFF86C8098F8000018B16D1CC2
:406F40002846BDE8F081B08D08F05CFB308808F05FFB0500F4D130460AF040F80746304603F0B8FB0744304601F00AF8384400F634102080304605F0DAFC2188084420803C
:406F800096F83010C1EBC10100EBC1002080304601F0EEFB218808442080A8F80400CFE7010016001C45020810B505F05BFC03F09FFB00F0B5FF0AF03EF801F095FBBDE8F0
:406FC000104008F0F1BA000010B5040010481DD0204608F0F1FA002818D1204601F092FB002813D120460AF031F800280ED1204600F09EFF002809D1204603F07FFB0028C6
:4070000004D12046BDE8104005F038BC10BD000001001600094810B50949C07A887000F063FF064801F0AEFB002806D103F078FBBDE81040014805F05BBC10BD2C6C020861
:407040001C45020810B500220849094800F014FF10F0FF0008D000220449054800F00CFFBDE8104004F072BF10BD0000356E08105DAE0810F0B5002635461670334616E08B
:4070800030F82340082C0AD900EB83077F8837B1083C20F823401478641C147005E053B100EB830420F8235065805B1CDBB28B42E6D33046F0BD014EFBE7000001001600BB
:4070C000F0B52E4C031D0020A188247802460CB12B48F0BD2A4D1C68083D4CB11F898F4206D3596821B100244FF0020C9E7A39E02846F0BD0CEB8203CB5A03B331F822E0E6
:40710000BEF1000F2AD00EFB03439CB2052A32D2DFE802F0030C11161E00B1F800E08B78BEF1230FE4D3032BE2D317E08B8833B1302BDDD312E00B890BB1282BD8D30DE08D
:407140008B895BB1233B4FF6BA7E7345D0D205E00B8A002BCCD04B8A012BC9D10028C8D1521CD2B29642C5D8C6EBC60104EB81018F42BDD3F0BD0020F2E700001C4502085B
:4071800009001600034A1268002A02D0002800D0104770472C6C020870B5044605F0C5FB01F0FCFB00F048FE174D012C16D0022C29D11648046800F02BF8FEF7B7FDFFF7E8
:4071C000F3FEFFF767FE00202870002C1BD0A446BDE87040002143F212006047FEF75CFE848DFFF717FF38B9FFF72CFF20B901202870204608F006FABDE87040002143F20D
:407200000100FFF7BFBF70BD1C4502082C6C020803480021016041608160C160704700002C6C020801464FF6C05007F025BD000008B504218DF8001010B100788DF8030029
