:020000041008E2
:4000000000780408EB0208100D00000051030810510308105103081051030810000000000000000000000000000000004D0308104D030810000000004D0308104D030810DA
:400040004D0308104D0308104D0308104D0308104D0308104D0308104D0308104D0308104D0308104D0308104D0308104D0308104D0308104D0308104D0308104D03081000
:400080004D0308104D0308104D0308104D0308104D0308104D0308104D0308104D0308104D0308104D0308104D0308104D0308104D0308104D0308104D0308104D030810C0
:4000C0004D0308104D0308104D0308104D0308104D0308104D0308104D0308104D0308104D0308104D0308104D0308104D0308104D0308104D0308104D0308104D03081080
:400100004D0308104D0308104D0308104D0308104D0308104D0308104D0308104D0308104D0308104D0308104D0308104D0308104D0308104D0308104D0308104D0308103F
:400140004D0308104D0308104D0308104D0308104D0308104D0308104D0308104D0308104D0308104D0308104D0308104D0308104D0308104D0308104D0308104D030810FF
:400180004D0308104D0308104D0308104D0308104D0308104D0308104D0308104D0308104D0308104D0308104D0308104D0308104D0308104D0308104D0308104D030810BF
:4001C0004D0308104D0308104D0308104D0308104D0308104D0308104D0308104D0308104D0308104D0308104D0308104D0308104D0308104D0308104D0308104D0308107F
:400200004D0308104D0308104D0308104D0308104D0308104D0308104D0308104D0308104D0308104D0308104D0308104D0308104D0308104D0308104D0308104D0308103E
:400240004D0308104D0308104D0308104D0308104D0308104D0308104D0308104D0308104D0308104D0308104D0308104D0308104D0308104D0308104D0308104D030810FE
:400280004D0308104D0308104D03081010B5054C237833B9044B13B10448AFF300800123237010BD6065020800000000C06A0810084B10B51BB108490848AFF3008008485C
:4002C000036803B910BD074B002BFBD0BDE81040184700BF0000000064650208C06A0810E0460208000000007047FFF7FDFF72B6104C114DAC4209DA21686268A368043B71
:40030000A2BFC858D050FAE70C34F3E70B490C4A00209142BCBF41F8040BFAE709480A490860BFF34F8F00F077F900F051F900F06DF8FEE7E44E0910FC4E091060650208F3
:40034000007002080040020808ED00E0FEE7FEE700B504207146084202D0EFF3098001E0EFF30880043002F0E5FEFEE708B50C4BD3F8003713F0010F11D003F0FBF803F0E7
:40038000B1F8074BD3F8880100F5A07080B203F0BBF803F09DF801F025FC00F0B1FA08BD0000264010B503F09DF8002003F0C6F84FF4A07003F0A8F803F0DCF80F4CD4F8BF
:4003C0000C3543F00043C4F80C350D490D4802F043FE4FF480020C4B1A60D4F8083743F00103C4F80837D4F8803143F00103C4F8803103F0BFF803F06BF810BD0000264044
:400400006D0308104051081000E100E008B5FFF7C9FF064B5B6813F4003F01D002F082FF62B600F00BFA002008BD00BF0000264008B5012002F00EFC08BD00BF704700BFC6
:400440005C4AD2F8803303F00F0303F1D00152F8212002F00702032A04D0042A05D092B9554914E0554A116811E003F1C002514951F8222002F01F02112A06D0132A04D00F
:400480004FF4FA4103E04E4901E04FF400418BBB484BD3F8902502F00100D3F88825C2F30172D3F8883513F0405F07D0414BD3F88835C3F30173012B02D102E0012300E0CF
:4004C000002303B108B9032A46D13A48D0F88025C2F31103D0F88425C2F30C02D0F88005C0F300600130B1FBF2F202FB03F2B2FBF0F131E0012B2FD12E4BD3F8402602F0BA
:400500000100D3F80026C2F30172D3F8003613F0405F07D0274BD3F80036C3F30173012B02D102E0012300E0002303B108B9032A12D12048D0F8002602F07F02D0F8003636
:40054000C3F30423D0F80006C0F3044002FB01F2B2FBF3F2B2FBF0F1164BD3F88033C3F3011321FA03F215494A601648D0F89030C3F3072301330069000E0130B2FBF0F0D9
:400580008860B2FBF3F3CB600B6103F5742202F23F220D48A0FB0202C2F387420A7503F2E7330A4AA2FB03239B098B61DB03CB61704700BF0000264000127A008C42020855
:4005C00000366E010000214083DE1B43D34D621008B50D4802F0D8FFFFF730FFFFF730FF00221146042002F0E7F8084802F07AF9074B1B6893F8513013B1064802F0E2F99C
:4006000002F024F808BD00BFA46208107C650208CC6F02084851081008B502F0E6FD074AD2F8883043F47003C2F88830BFF34F8FBFF36F8F02F0DDFD08BD00BF00ED00E04B
:40064000F8B500AF0C4644F2070398423DD015D843F2120398425DD007D8B0F5805F29D041F20103984243D0D1E044F20103984255D044F20603984230D0C8E045F2020300
:4006800098426ED008D844F20803984215D044F2140398425DD0BAE045F20E0398426DD045F21703984260D045F20C03984240F0AE8063E057480BF023F80021084603F0C2
:4006C00057F9002000F010F9A1E04B78514880F841300CF051FB00F011FF98E04E4B1B78002B40F0948000F009FF01F057FE8EE00B78042B40F08B80CA78464B93F8443005
:400700009A4240F0848000F0F9FE424A936C013393647CE000211F2001F06EFA77E03F4B1B685B6A1A78102A01D10522DA703B4B1B685A6A61795171586A0CF0A1FA0028D5
:4007400065D00CF0D5FA354B1B68586A0CF098FA5DE042222F4803F040FF31480CF0E2FA55E0002000F0C0F851E008460FF08AF900284CD120460FF0B7F948E06E46A1882E
:4007800001F1080323F00703ADEB030D6D462389182B3BD104E02268D25CEA54013300E000238B42F7DB00236B5429461D4801F02FFD2B78742B10D1681C03F0FBFE054668
:4007C0000146194801F024FD284601F027FC23685978164801F01CFD11E0542B0FD1681C03F0E8FE05460146114801F011FD284601F07AFC236859780E4801F009FD236859
:400800001A780D4B1A70E0680EF070FAB546BD46F8BD00BFAC420208D56F02080C6802083C4302087C51081094510810A4510810B4510810C4510810C86F020808B500F0AE
:4008400057FE194801F08EFD00F046F801F0DAFD01F0C0FD01F0A6FD01F004FE01F01AFE0422124B5A6001F0DBF9114B19684A1C1A60104801F0CCFC06F056FA01F0F8F91A
:4008800000F0B6FD00F036F8012801D10A4B9B6C094B9B6C002BE8D0074800238364443007F030FCE1E700BF4106081080033240FC660208D4510810AC420208044B98424D
:4008C00004D14B681B681A78024B1A70704700BFBF0001000467020808B5024803F05CFE08BD00BFBD080810014B1870704700BF04670208014B1878704700BF046702089E
:400900001C4B1B68002B07DD0A3B1A4A1360002B02DA0022174B1A60174B1B68002B07DD0A3B154A1360002B02DA0022124B1A60002310E0104A02EB83025268002A09DDE9
:400940000A3A0D4901EB83014A60002A02DA0A46002151600133022BECDD074B1B69002B07DD0A3B044A1361002B02DA0022024B1A617047F84202080867020808B517212B
:40098000352001F009F880221F21074801F032F829212F2001F000F880221F21034801F029F800F011FF08BDEC530810F853081010B582B004464FF6FF7300930F23012284
:4009C0007021104601F0A6F80121084600F0E4FF80221F21204601F00DF802B010BD00BFF0B583B007460E4614464FF4784500954F2341223321022001F08CF8384603F029
:400A00002BFE00EB40004300C3F13100400802304221C0B200F0C0FF80224FF6E071384600F0E8FF00954F2341226821372001F071F8304603F010FE00EB40004300C3F172
:400A40003100400837304221C0B200F0A5FF80224FF6E071304600F0CDFF00954F2341229D216C2001F056F8204603F0F5FD00EB40004300C3F1310040086C304221C0B279
:400A800000F08AFF80224FF6E071204600F0B2FF03B0F0BD10B582B04FF4F864009411231A4666213A2000F0CDFF009412231A4665213B2000F0C6FF00943D231A46662129
:400AC0003A2000F0BFFF00943C231A4665213B2000F0B8FF00943C2312223A21084600F0B1FF00943B2313221946184600F0AAFF00943C2312226621084600F0A3FF009404
:400B00003B2313226521084600F09CFF02B010BD00B583B0C0B200F1280102304FF6FF7300933A231322C9B2C0B200F0F3FF03B05DF804FB70B584B0044601A803F084FD2C
:400B40001A4D294601A803F0A3FD06462946002003F09EFD0546304603F07EFD00EB40004300C3F12C00E4B204EB50001721C0B200F012FF80224FF61F01304600F03AFF57
:400B8000284603F069FD00EB40004300C3F12C0004EB50002D21C0B200F0FEFE80224FF61F01284600F026FF04B070BD0854081070B506460D4614460846FFF7A9FF354BCC
:400BC00053F82620A24264DC03EB86039B6A9C425FDC092E5DD8DFE806F0050E17212B353F495358A41A2B4B03EB8404216D2846FFF7A0FF70BDA41A264B03EB8404616FC7
:400C00002846FFF797FF70BDA41A224B03EB8404D4F89C102846FFF78DFF70BDA41A1D4B03EB8404D4F8D8102846FFF783FF70BDA41A184B03EB8404D4F804112846FFF718
:400C400079FF70BDA41A134B03EB8404D4F82C112846FFF76FFF70BDA41A0E4B03EB8404D4F854112846FFF765FF70BDA41A094B03EB8404D4F880112846FFF75BFF70BDB2
:400C800005492846FFF756FF70BD04492846FFF751FF70BDEC5108100C540810C05A08102DE9F0438BB007A801F008F89DF82420C2F30119C2F3C008C2F38007C2F3400653
:400CC00002F001059209784903A803F099FC4FF6FF7400941E2310227021022000F01AFF1021022000F058FE80224FF61F0103A800F080FE4A466D4903A803F081FC009444
:400D00002D231F227021022000F004FF1F21022000F042FE80224FF61F0103A800F06AFE4246634903A803F06BFC00943C232E227021022000F0EEFE2E21022000F02CFE4A
:400D400080224FF61F0103A800F054FE3A46594903A803F055FC00944B233D227021022000F0D8FE3D21022000F016FE80224FF61F0103A800F03EFE32464F4903A803F084
:400D80003FFC00941E2310223821392000F0C2FE1021392000F000FE80224FF61F0103A800F028FE2A46454903A803F029FC00942D231F223821392000F0ACFE1F21392084
:400DC00000F0EAFD80224FF61F0103A800F012FE9DF82520C2F38017C2F3C00602F00305D209374903A803F00BFC00943C232E227021392000F08EFE2E21392000F0CCFDC5
:400E000080224FF61F0103A800F0F4FD3A462D4903A803F0F5FB00944B233D227021392000F078FE3D21392000F0B6FD80224FF61F0103A800F0DEFD0022234903A803F0E7
:400E4000DFFB1021702000F0A7FD80224FF61F0103A800F0CFFD32461C4903A803F0D0FB1F21702000F098FD80224FF61F0103A800F0C0FD2A46164903A803F0C1FB00941E
:400E80003C232E227021084600F044FE2E21702000F082FD80224FF61F0103A800F0AAFD0BB0BDE8F08300BF145408101C540810245408102C5408103454081040540810CD
:400EC00048540810505408105854081060540810685408102DE9F84F204B1B68002B3BD11F4F4FF00808C7F808801E4E8024B460DFF878A04FF0040BCAF808B0DFF87090E6
:400F0000C9F80840184DA88A02F0F8F8CAF804B0C9F80440C7F804807460A88A02F0EEF8C7F80880B4604FF0400BC9F808B0AAF5207A2023CAF80830A88A02F0DFF8C9F803
:400F400004B02023CAF80430C7F804807460AB69002B01DD014A1360BDE8F88FF842020800033240800332400867020800053240000632400138092806D8DFE800F00A0F38
:400F800014191D2125292D314FF0FF32194B9A6129E04FF47A72174B9A6124E04FF4FA72144B9A611FE040F24D12124B9A611AE0FA22104B9A6116E0C8220E4B9A6112E02F
:400FC000A7220C4B9A610EE08F220A4B9A610AE07D22084B9A6106E06F22064B9A6102E06422044B9A61034B9B69002B01DD024A1360704708670208F842020801380928A3
:4010000006D8DFE800F0090E13181D22272C313600221A4B5A6170474FF49672174B5A6170474FF4C872154B5A6170474FF4FA72124B5A6170474FF41672104B5A61704763
:401040004FF42F720D4B5A6170474FF448720B4B5A6170474FF46172084B5A6170474FF47A72064B5A61704740F24C42034B5A6170474FF49662014B5A617047086702083E
:4010800038B568B900F04CFE00212D4BC3F8CC12062000F0B1FD4FF0FF322A4B9A6138BD044600F029FE0121062000F0A5FD254DA86BFFF7A3FF286BFFF75CFF601E092832
:4010C00039D8DFE800F0050A0F14191E23282D3201221B4BC3F8CC2238BD0822184BC3F8CC2238BD1522164BC3F8CC2238BD2122134BC3F8CC2238BD2D22114BC3F8CC22FA
:4011000038BD3A220E4BC3F8CC2238BD47220C4BC3F8CC2238BD5322094BC3F8CC2238BD7C22074BC3F8CC2238BD40F22E22044BC3F8CC2238BD0022014BC3F8CC2238BD99
:401140000000394008670208164B5B6C012B0AD0022B17D0134B9B6C002B21DD114A01215164136170470F4B1B695BB90D4A02235364936CC3F164031361002B02DA002274
:40118000084B1A61074B9B6C1BB90022054B5A647047044A12691AB9024A012151641361704700BF0867020808B5002810DD322303FB00F00A4B83FB0023C017C0EBA300FB
:4011C0003230084B98640121032000F015FD08BD0021044B9964032000F00EFD08BD00BF676666660867020808B5034620B90021094AC2F80C1104E040F20111064AC2F8B5
:401200000C1123B90021022000F0F6FC08BD0121022000F0F1FC08BD0000384008B50238052817D8DFE800F00307160B0F130846FFF7DAFF08BD0846FFF7B6FF08BD084668
:40124000FFF798FE08BD0846FFF71AFF08BD0846FFF7D4FE08BD00BF10B50446FFF774FFFFF738FE594BDB6C012B31D0022B57D04FF6FF7000F0AEFA544C226D544B03EB49
:401280008203D3F8A801FFF793FB236D2BB9514A51495248FFF7A4FB14E0082B05D1504A50495148FFF79CFB0CE0092B05D14F4802460146FFF794FB04E0464A4A4947484C
:4012C000FFF78EFBFFF7E6FB0122404BDA6410BD3E4C206D04EB8003DA69013A0721FFF767FC206D04EB8003DA693A21FFF760FC206D04EB8003DA6901326D21FFF758FC1B
:40130000206D092802D1FFF7CBFC05E02F4B03EB8003D969FFF782FF02222C4BDA6410BD2368EBB100232360284B1B6DA3F10802012A04D8254B00221A65DA6410BD234A3A
:4013400002EB8302D269224951F823108A4207DD1E4901EB8303013ADA610123CB6410BD636893B100236360184B1B6D002B03DD0022164B1A6504E0144A02EB8303DB69D4
:4013800013650022114BDA6410BDA368E3B10023A3600E4B1B6DA3F10802012A04D80B4B00221A65DA6410BD9A0008491144C96907480244926A914206DA044A02EB830368
:4013C0000131D9610123D36410BD00BF08670208EC51081070540810745408107C5408108054081088540810905408109854081010B584B000243FE03A4B03EB84035B6D4A
:40140000022B1FD0032B2CD0012B10D004AB03EB840353F80C3C73BB324B03EB840301225A651A6632225A6000F014FC23E02D4B03EB84035B68F3B92A4B03EB84030222A6
:401440005A6518E004AB03EB840353F80C3C012B11D1244B03EB840303225A6532225A6009E0204B03EB84035B6823B91D4B03EB840300225A650134022CBDDD194BDB6E4A
:40148000012B1DD0022B24D01BB11748FFF7E4FE25E000F09BFB4FF6FF7000F09BF9002208E0930011491944D1F8D0110D480344D9610132092AF4DD01220A4BDA660EE07B
:4014C000FFF75CFA074B40F6B8321A600222DA6605E0044B1B6813B90A22024BDA6604B010BD00BF0867020868670208EC51081008B54FF0007001F07FFE08BD044B1B78AC
:40150000022B04D0002300E00133002BFCD07047D56F020808B501F0D9FD08BD0078704708B5C820FFF7F6FFC820FFF7F3FF08BD10B5064C00220649204601F035FC23683F
:4015400043F00043236062B610BD00BF000063401C5D081008B50146224B1B6A002B06DA204B0022C3F8002FD3F8003F05E01D4B0022C3F8402FD3F8403F1A487322C0F886
:40158000802FD0F8802FD0F8042242F48032C0F80422D0F8042222F48032C0F80422D0F804226D22C0F8C02FD0F8C02FD0F8042342F48032C0F80423D0F8042322F4803275
:4015C000C0F80423D0F8042301F0A8FB054BD3F80833C3F30803002BF8D0024BD3F84003C0B208BD0000634008B50146224B1B6A002B06DA204B0022C3F8002FD3F8003FC8
:4016000005E01D4B0022C3F8402FD3F8403F1A487322C0F8802FD0F8802FD0F8042242F48032C0F80422D0F8042222F48032C0F80422D0F804226D22C0F8C02FD0F8C02FCF
:40164000D0F8042342F48032C0F80423D0F8042322F48032C0F80423D0F8042301F05EFB054BD3F80833C3F30803002BF8D0024BD3F84003C0B208BD0000634000B583B0BE
:40168000294B1B6A002B06DA274B0022C3F8002FD3F8003F05E0244B0022C3F8402FD3F8403F214B7322C3F8802FD3F8802FD3F8042242F48032C3F80422D3F8042222F40E
:4016C0008032C3F80422D3F804226D22C3F8C02FD3F8C02FD3F8042342F48032C3F80423D3F8042322F48032C3F80423D3F80423020A8DF804208DF80500022201A91846BE
:4017000001F03CFB084BD3F80833C3F30803012BF8DD054BD3F840238DF80420D3F84033002003B05DF804FB00006340884226D89F2926D89A4226D8672B26D8F8B5C1F1E0
:40174000A004E4B2C0F1A005EDB2C3F16906F6B2C2F16907FFB22A20FFF7FCFE2046FFF78DFF2846FFF78AFF2B20FFF7F3FE3046FFF784FF3846FFF781FF0020F8BD012081
:40178000704701207047012070470120704700BF70B506460D462C20FFF7DCFE03E03046FFF76CFF25466B1E9CB2002DF7D170BD10B514460B460A460146FFF7B7FF012158
:4017C0002046FFF7E5FF10BD08B52920FFF7C2FE08BD00BF10B50446672300229F211046FFF7A4FF4FF482412046FFF7D1FF10BD2DE9F84F07460E4612B32DE0A7F12000AB
:4018000000EB80004044624B1844FFF787FE054608230FE045FA04F313F0010F09D05D4B19782144987840443246C9B2C0B2FFF7BFFF23465C1EE4B2002BEBD1434600E09A
:40184000052303F1FF385FFA88F8002BD6D1514A53880633538097E0802A3ED133E0A7F1200303EB83032B4449481844FFF756FE8046082321E048FA04F313F0010F1BD0A7
:4018800061005FFA81FADFF80C9199F80010514499F8020028443246C9B2C0B2FFF788FF99F800105144013199F8020028443246C9B2C0B2FFF77CFF23465C1EE4B2002B87
:4018C000D9D12B4600E005235D1EEDB2002BC6D1304A53880633538056E0812A54D148E0A7F1200303EB83034B4429481844FFF715FE8046082336E048FA05F313F0010F72
:4019000030D04FEA490A5FFA8AFA4FEA450B5FFA8BFB204C21785944A07850443246C9B2C0B2FFF745FF217859440131A07850443246C9B2C0B2FFF73BFF21785944A078F2
:40194000504401303246C9B2C0B2FFF731FF217859440131A078504401303246C9B2C0B2FFF726FF2B465D1EEDB2002BC4D14B4600E0052303F1FF395FFA89F9002BAFD1BC
:40198000044A53880B3353800020BDE8F88F00BFC857081078670208A02801D968290ED8A02807D9682905D8064B198002225A8000207047034B198058800020704701201D
:4019C000704700BF78670208A02801D9914209D8A02809D9914209D8054B198002225A8000207047012070470020704700207047786702082DE9F0410646884614460025C7
:401A000018E00F4904F00F008B78184405302209083209781144C2F168022346D2B2C9B2C0B2FFF7D1FF28B90135224641463878FFF7DEFE7719735D002BE2D1BDE8F081EB
:401A4000786702082DE9F04F83B005468B4614469A46BDF830300193091A89B20FB2C2EB0A0292B213B2002F04DA4F423FB24FF0FF3901E04FF00109002B04DA53421BB27A
:401A80004FF0FF3801E04FF001089F421FDD1FFA83FABFB2C7EB4A0636B2019A21462846FFF786FE10E04D44EDB2002E04DB4444E4B2A6EB470636B206EB4A0636B2019AFA
:401AC00021462846FFF774FE5D45ECD11EE01FFA83FBBFB2ABEB470636B2019A21462846FFF766FE10E04444E4B2002E04DC4D44EDB206EB4B0636B2A6EB470636B2019AD8
:401B000021462846FFF754FE5445ECD1012003B0BDE8F08FF8B507460D4616461C46884201D90F460546A64202D9334626461C462346324629463846FFF7F8FDE91B0131F2
:401B4000A41B013411FB04F189B2BDF81800FFF71FFEF8BD10B503E00120FFF7DBFC2046431EDCB20028F7D110BD00BF2DE9F843451CFFF7D3FC20E06F1C2846FFF7CEFC09
:401B80000646AC1C3846FFF7C9FC814620460335FFF7C4FCFFF7DEFC07E06F1C2846FFF7BDFCFFF721FD26463D46731EDCB2002EF3D14846FFF7CEFF404600F1FF385FFAF2
:401BC00088F80028D8D1BDE8F88300BF08B5FFF7AFFCFFF7A5FC0248FFF7C8FF08BD00BFA8590810034B1B6813B1013B014A1360704700BF7C67020841B9012303FA00F01F
:401C0000064A536823EA000353607047012303FA00F0024B5A681043586070477C67020808B54FF4FA62084B1A6000F003FCBF22064BC3F84C21064800F0EAFA01211F205B
:401C4000FFF7DAFF08BD00BF7C67020800003940C85908104FF4FA62034B1A60BF22034BC3F84C21704700BF7C67020800003940704700BF70B504460E46154600F0EEF86E
:401C800000216B2000F088F9204600F0F7F801216B2000F02BF9002404E0012000F088F9305501346B1E9C42F7DB1D46002000F07FF9705500F0A8F870BD00BF08B5014644
:401CC000002008604860C1F807000B22FFF7D2FF08BD00BF38B505460C4600F0BFF800216B2000F059F9284600F0C8F8204600F0C5F800F089F838BD00B583B001220DF1BD
:401D000007011046FFF7B6FF9DF8071041F020018DF807100120FFF7DDFF03B05DF804FB00B583B001220DF107011046FFF7A2FF9DF8071001F0DF018DF807100120FFF7D8
:401D4000C9FF03B05DF804FB024B1869C0F30010704700BF00033240024B1869C0F34010704700BF0003324010B50446012804D94FF44A71054801F0CDF91CB91022044BEF
:401D80005A6010BD1022024B9A6010BDD85908100003324010B50446012804D94FF44A71054801F0B7F91CB92022044B5A6010BD2022024B9A6010BDD85908100003324096
:401DC00010B5002407E0FFF7BFFF012807D0012001F094F90134312CF5DD012010BD002010BD00BF10B5002407E0FFF7B5FF012807D0012001F082F90134312CF5DD012036
:401E000010BD002010BD00BF08B5082001F076F90020FFF7A9FF082001F070F90020FFF7B9FF082001F06AF90120FFF79DFFFFF7C7FF01280FD0082001F060F90120FFF75A
:401E4000A9FFFFF7CFFF012805D0082001F056F90020014B186008BD8467020808B50120FFF798FF0120FFF77FFF042001F046F90020014B186008BD8467020838B50546C8
:401E8000002415E0C5F3C010FFF784FF042001F035F90120FFF768FFFFF792FF012823D0042001F02BF90020FFF75EFF6D000134072CE7DD0120FFF76DFF042001F01EF9B0
:401EC0000120FFF751FF042001F018F9FFF744FF04460020FFF748FF2CB1FFF795FFFFF7BDFF204638BD204638BD00BF38B50D4601F0010343EA4000C4B20120FFF74AFF6F
:401F0000FFF770FF012844D0082001F0F7F80120FFF72AFFFFF754FF01283AD0082001F0EDF80020FFF736FFFFF716FF38B10120FFF71AFF0120FFF72DFF012038BD08204D
:401F400001F0DCF80020FFF70FFFFFF7FDFE38B10120FFF709FF0120FFF71CFF012038BD082001F0CBF801220A4B1A602046FFF785FF044628B1FFF747FFFFF76FFF204660
:401F800038BD1DB90222034B1A6038BD0322014B1A6038BD8467020808B5044B1B6813B9FFF7A4FF08BD012008BD00BF8467020870B506460120FFF7EDFE0024254614E057
:401FC000042001F09BF80120FFF7CEFEFFF7F8FE012821D0042001F091F86400FFF7BCFE04430020FFF7C0FE0135072DE8DD1EB10020FFF7CFFE02E00120FFF7CBFE0420BC
:4020000001F07CF80120FFF7AFFE042001F076F80020FFF7A9FE204670BD00BF10B510F1640F03DB6428A8BF642001E06FF0630080EAE071A1EBE071CC2303FB01F32149D1
:4020400081FB0321DB17C3EB6111002811DD1E4C0023C4F88C3104221C4B9A60C4F84C111B4800F0D5F8D4F84C111A4800F0D0F810BD002811DA144C0023C4F84C310422CD
:40208000124B9A60C4F88C11134800F0C1F8D4F88C11124800F0BCF810BD0B4C0023C4F84C31C4F88C310422084B5A60D4F84C110B4800F0ADF8D4F88C110A4800F0A8F87D
:4020C00010BD00BF1F85EB510000384080033240185A08102C5A0810445A0810585A0810705A0810905A081060B90023224AC2F8CC32A2F58032C2F80C324FF0FF321F4B00
:402100005A60704710B503464FF4966202FB00F21B4981FB0201D217C2EB611217490A604FF47A7292FBF3F24A60002A01DD15490A604FF49C7202FB03F3114C84FB0324DE
:40214000DB17C3EB64140C4BC3F8CC42D3F8CC120D4800F05DF8094B58680C4B93FBF0F080B200F0CBFF0A4BC3F80C42D3F80C12084800F04DF810BD000039408867020814
:402180001F85EB51FC420208B05A081020A1070000003840C45A081010B50446012804D94FF44A71054800F0B5FF1CB94022044B5A6010BD4022024B9A6010BDD85908108F
:4021C0000003324038B505460020FFF7E5FF652000F094FF002408E005F00100FFF7DCFF6D10652000F08AFF0134072CF4DD0120FFF7D2FF652000F081FF38BD014B18442F
:40220000704700BFD85A081008B5FFF7DBFF08BD0FB470B598B0012498E0252805D0FFF7F3FF1C9B01331C9390E05A1C1C925B78732B0FD1651C1CAB53F8244002E0FFF767
:40224000E3FF013420780028F9D11C9B01331C932C467BE0642B32D1661C1CAB53F82450002D03DA2D20FFF7CFFF6D420022541C3B4B83FB0531EB17C3EBA103194603EB85
:40228000830358002B1A18A800EB820242F8603C0D4622460029EAD10AE0013C18AB03EB840353F8600CFFF7A9FF0078FFF7ACFF002CF2D11C9B01331C93344646E0632BD3
:4022C0000AD1651C1CAB13F82400FFF79DFF1C9B01331C932C4639E0782B36D1651C1CAB53F82430002200E02246541C03F00F0018A901EB820141F8600C1B09F4D114F0A6
:40230000010F06D018AB03EB8404002344F8603C941C012C12D818AB03EB8403002243F8602C01340AE0013C18AB03EB840353F8600CFFF763FF0078FFF766FF002CF2D136
:402340001C9B01331C932C4600E022B11C9B187800287FF462AF18B0BDE8704004B070476766666688B108B5094AD062094B1B7833B9104601F090F90122064B1A7000E08E
:40238000002020B901F0AAF908BD0348704708BD00430208906702080100160008B501F029FA08BD08B5084B1B783BB9074A0421074800F0CDFF0122034B1A70044B102275
:4023C0009A609A6108BD00BF98670208505D08100000384008B5084B1B783BB9074A0721074800F0B5FF0122034B1A70044B80229A609A6108BD00BF99670208B45D081083
:402400000000394008B5084B1B783BB9074A0021074800F09DFF0122034B1A70044B01229A609A6108BD00BF9A670208185E08100000384008B5084B1B783BB9074A01213E
:40244000074800F085FF0122034B1A70044B02229A609A6108BD00BF9B6702087C5E08100000394008B5084B1B783BB9074A0121074800F06DFF0122034B1A70044B022218
:402480009A609A6108BD00BF9C670208E05E08100000384008B5084B1B783BB9074A0221074800F055FF0122034B1A70044B04229A609A6108BD00BF9D670208445F081078
:4024C000000038401F4B98422DD00CD840282ED003D8E8B1102828D02FE0802829D0B0F5807F28D029E0184B984228D006D8B0F1204F0DD0154B984212D01EE0144B98428D
:402500000AD00133984209D0023B984215D101E0002070470F4870470F4870470F4870474FF4A0007047074870470D4870470D4870470D487047034870470C4870474FF4E7
:40254000A400704706005200010000F0090000A0040000F0010052000200520003005200010050000200500005005200FF00520038B5124B1B6893F83130012B04D840F2E0
:40258000C3110F4800F0C6FD0C4B1D682A6AB5F8B03013442C46D5F8B420D358002B0BDB084B1868FFF78EFF6B6801229A6063689B68002BFBD138BD034838BDCC6F020815
:4025C000A85F0810A0670208020050001A4B186128B102230370FF23437000234380174B1B6893F850202AB300B583B0B3F93830ADF80030002301931149684600F02CFDE9
:40260000BDF90030002B08DB590903F01F03012202FA03F30B4A42F82130084B1B6893F8513023B102220849012000F077FA03B05DF804FB704700BFA0670208CC6F0208BA
:402640005147020800E100E00948020808B50248FFF7BCFF08BD00BFB467020838B50B4B1B68D3F8B4301B58002B0DDA0D4604460B0C1B0423B140F2D521054800F04AFDEE
:40268000A9B26160002038BD024838BDCC6F0208E85F081001008A0038B50368002B01DA002300E0094B73B90D460446C2600B0C1B0423B140F2BB21054800F02BFDA9B203
:4026C000A160002038BD014838BD00BF01008A00E85F081038B504460D4619B99921084800F018FD074B1B68D3F8B4301B59002B03DAE3682B60002038BD034838BD00BF88
:4027000028600810CC6F020801008A00254B1B6893F8313083423AD900293AD00B6813F01F0F38D170B50D4604461E4B1B6893F83130984204D340F2C3111B4800F0EAFC08
:40274000184B1B68186AB3F8B03004FB0304174E34602A68D2080021686801F049FF00212046FFF77BFF346825B940F293310E4800F0D0FC2A4600212046FFF78DFF60B9C6
:4027800000210A4B1868FFF769FF40B970BD084870470748704706487047064870BD054870BD00BFCC6F0208E85F0810B867020803018A0001018A0010B504461346B2B91F
:4027C000A9B9124B1B6893F83130984204D340F2C3110F4800F09EFC0C4B1B681A6AB3F8B03004FB03240B4B1C60002010BD43B149B1084A51609360111D2046FFF786FF52
:4028000010BD054810BD044810BD00BFCC6F0208E85F0810B867020803018A002DE9F0411B4B1B68DC68236883422CD90D464609A0EB4610012303FA00F819B900F0D5FC86
:40284000074600E00027124B18680368002B01DA002300E00F4B83B9626852F8263018EA030F05D023EA080342F82630002400E0094C0021FFF7F2FE00E0084C25B9384632
:4028800000F0B7FC00E0064C2046BDE8F08100BFB867020801008A00020188000301880004018A000B4B1B68DB681A6882420CD94109A0EB4110012202FA00F05B6853F824
:4028C0002130184203D004487047044870470448704700BFB86702080101880004018A0000018800024B1B680BB9014B18607047C46702082DE9F8430446884691461D46E0
:40290000089F2C4B1B681BB9B5212B4800F002FC284B1B682C2000FB04F01C18EEB21E50C5F3072363602D0CA560244B1B6893F831309E4204D340F2C311214800F0EAFBBC
:402940001E4B1B68196AB3F8B02006FB02162661666893F832309E4204D340F2DF11184800F0D8FB154B1B681D6A803605EB46156561A668330C1B0423B14FF4FF7110489A
:4029800000F0C8FB330C1B0423B140F2FF110C4800F0C0FBB3B243EA0646AE60C4F81C90C4F820800023A36117B1B7F90030A381BDE8F883C467020868600810CC6F0208D4
:4029C000E85F0810F0B58FB0044618B95221274800F0A0FBA369072B03D95621234800F099FBE36A1BB95821204800F093FB236B1BB959211D4800F08DFB07AD04F1140690
:402A00000FCE0FC537682F6002AD26460FCE0FC533682B60164B1B68B3F93620079B1344ADF83030089B0D93A26AE16A0CAD00953B460A98FFF75EFF00210091069B0A46E0
:402A40000598FFF757FF216B284600F005FBBDF93030002B08DB590903F01F03012202FA03F3044A42F821300FB0F0BD68600810CC6F020800E100E0F8B506460F461D46F7
:402A800014461AB9FD211F4800F044FB1E4B1B681BB9FE211B4800F03DFB1B4B1B682C2101FB063001FB07314B68012202FA03F31B04466802FA06F60269EAB18F69EFB9FC
:402AC0001268002A01DA002200E0104AC2B92288134323600369DC6001238B614D620469330C1B0423B140F2BB21094800F012FBB2B2A2600020F8BD0648F8BD0648F8BD5A
:402B00000548F8BD68600810C467020801008A00E85F081004028A0007028A00F8B505460F4616460E4B1B6823B94FF4AF710D4800F0F0FA0A4B1B682C2404FB0534236A91
:402B400023B94FF4B171074800F0E4FAE369B34204D9236A43F826700020F8BD0248F8BDC4670208686008100A028A0038B504460D46074B1B6823B94FF4C871054800F008
:402B8000C9FA034B1B682C2202FB0434A56238BDC46702086860081070B582B000230193044620B940F2D111284800F0B3FA236923B94FF4E971254800F0ACFA636923B9EB
:402BC00040F2D311214800F0A5FA236A23B94FF4EA711E4800F09EFA6369DD682A0C20D012041A601B682069194B1B68D3F8B430C358002B15DA01A9FFF76CFD60B9019879
:402C000003681E0CDBB2E269934206D2226A52F8233013B1984700E0002631462069FFF71DFDADB275B16369ADB21D601B68636A1BB198470023636202E0A36A03B1984706
:402C40000023A36163691B6802B070BD68600810CC6F020810B50446074B1B6823B940F2B111064800F056FA034B1B682C2000FB0430FFF791FF10BDC467020868600810E4
:402C800010B50446104B1B6823B940F22B210F4800F040FA0C4B1B682C2202FB0434B4F90C30002B0DDB5A0903F01F03012101FA03F32032064941F82230BFF34F8FBFF3FA
:402CC0006F8F002010BD00BFC46702086860081000E100E010B504460D4B1B6823B940F24B210C4800F016FA094B1B682C2202FB0434B4F90C30002B08DB590903F01F03D4
:402D0000012202FA03F3044A42F82130002010BDC46702086860081000E100E0036813F4006F01D0802200E04022D0F80832C3F30803934203D0C0F84012012070470020DF
:402D4000704700BF10B4D0F8003203F00F03072B06D900230DE0CC5CC0F84042013300E000239342F7D306E031F81340C0F8404201339342F8D35DF8044B704710B51446D7
:402D8000036813F4006F01D0802200E04022D0F80832C3F30803D31AA34200D81C462246FFF7D0FF204610BD002800F02481F8B50546002900F0218117460C460B78012B80
:402DC00003D93F218F4800F0A5F96378012B07D9052B05D0022B03D040218A4800F09AF9A378032B03D94121864800F093F92378012B07D16368023B0E2B03D943218148D6
:402E000000F088F9A36933F00F0303D044217D4800F080F9A368043B0C2B03D94521794800F078F9E368043B0C2B03D94621754800F070F96378022B07D0A268E3689A426B
:402E400003D047216F4800F065F9636A33F06D0303D049216B4800F05DF9E36A33F0730303D04A21674800F055F9236B33F4206303D04B21634800F04DF96378A678052BEA
:402E800007D8DFE803F0060305060603022600E00026A368082B04D8E368082B03D9002302E0002300E0012313B14FF4006200E00022237F13B14FF4807300E000231A4327
:402EC0006368013B03F00F03134343F080732B60226A2B6813F4006F01D0802300E040239A4203D35821474800F014F9A26A2B6813F4006F01D0802300E040239A4203D33E
:402F00005921404800F006F9237D0BB9012100E000216278052A01D1022300E000230B43E17C09B1102100E000210B43617C09B1202100E000210B432178012902D14FF035
:402F4000004100E000210B43B60006F00C063343A169090201F470610B43120602F0407213432B62237C13B14FF4807200E00022A37C13B14FF4007300E000231A43A36827
:402F8000013B03F00F031343C5F8003394F82030C5F80433237C13B14FF4807200E00022E368013B03F00F031343C5F8003294F82830C5F80432636A03F06D03C5F8C83F84
:402FC000E36A03F07303C5F8883F236B03F40073C5F8003F236B03F40063C5F8403F0023C5F8C83E5FB118463B60BB61FB60FB61054B3B62F8BD054870470448F8BD0020F6
:40300000F8BD00BFEC600810EFCDAB000140AA0038B50D4B9A680D4B9A420FD10D46044621B940F237110A4800F074F804F11003064A52F8230042F8235038BD1030054B75
:4030400053F8200038BD00BF00ED00E0004002082C6108100000081048B338B504460D464368072B03D93221134800F053F8B4F900306268002B08DB5201D2B203F1604313
:4030800003F5614383F8002305E003F00F035201D2B20A49CA540A4B9A680A4B9A4208D12946B4F90000FFF7B3FF002038BD06487047002038BD00BF2C61081014ED00E00B
:4030C00000ED00E0004002080100560010B5044605E0084B186800F07FF8A4F50044B4F5004FF6D8044B186800FB04F000F074F810BD00BFA8420208A442020808B5034BFC
:403100001B7800FB03F000F067F808BDA042020801BEFEE738B50D46044C18220146204601F0A2FAA5610020FFF7F2FF804C0208FEE700BF08B50268254BDA6142681A62E7
:4031400082685A62C2689A620269DA6242691A6382695A63C2699A631E4A916AD963D16A1964516A5964516B9964926BDA64F1EE103A13F0900F27D0026A154B1A65426A68
:403180005A65826A9A65C26ADA65026B1A66426B5A66826B9A66C26BDA66026C1A67426C5A67826C9A67C26CDA67026DC3F88020426DC3F88420826DC3F88820C26DC3F876
:4031C0008C20026EC3F89020FFF7B2FF08BD00BF804C020800ED00E00230800803D001300238FCD100BF00BF7047EFF3108072B6704780F31088704710B5044620F07F636C
:4032000023F4402323B140F2B3511348FFF782FF14F4700F16D014F0806F01D1002101E04FF4800114F0006F01D041F4000114F0807F01D041F4801114F0007F03D041F4A1
:40324000001100E00021054A536823EA01031C435460536810BD00BF706108100000264010B30246C3680BB303680BB330B40579114B03EB85035C682346002103E0934221
:4032800005D019465B69002BF9D1012000E0002080B124B9084B03EB85056A6000E04A6111610023536105E000207047002070470020704730BC7047C867020850B310B47C
:4032C00002460479164B03EB840359680B4602E0934204D05B69002BFAD1002000E00120D0B18A420ED14B6933B10D4A02EB8404636000221A610FE0094B03EB84040023EF
:40330000636009E01A69596951615A6922B11B69136101E0002070475DF8044B704700BFC867020808B5FFF760FF074B5A6807490A4042F468525A605A68114059605B6858
:40334000FFF757FF08BD00BF00002640FF00FC0F002800F0AC8070B40446002A00F0A98092F828300BB1012500E00025137F0BB1022300E000231D431669B60406F48026A0
:4033800045EA060395682D0405F440351D431668300600F0E0602843136B556B43EA45031B0503F440130343906B43EA8000052E03D1D3681B029BB202E053681B029BB2CC
:4033C0000343081D800123501368062B08D104EB81130120C3F808013F20C3F828011DE0936843B904EB81130020C3F808013120C3F8280112E0012B08D1506904EB81137B
:40340000C3F808011C20C3F8280107E004EB81130120C3F808011220C3F82801106A04EB8113C3F80C01506AC3F810015069C3F814019069C3F81801136EB3F1FF3F17D058
:40344000106C00F00F00966C360206F470663043156D2D0405F470250543906D000380B228431B01DBB2034304EB8110C0F82031D36B03F00303566C360106F030063343E4
:40348000D56C2D0205F440752B43506D8001C0B21843D36D9B0003F00C03034304EB8114C4F82431D36AC4F83831002002E002487047014870BC70470100B600034BD3F85C
:4034C00080319B0F14BF01200020704700002640034AD2F8803143F04043C2F88031704700002640074AD2F8803123F0404343F08043C2F88031D2F8803143F00043C2F8CC
:40350000803170470000264010B50446B0F5803F03D377210748FFF7FDFDFFF7CFFF40B9054AD2F888311B0C1B04A4B21C43C2F8884110BDB06108100000264010B5044625
:403540000F2803D996210948FFF7E4FDFFF7B6FF50B9074AD2F8883123F47023240404F470241C43C2F8884110BD00BFB061081000002640034B0122C3F80027D3F8003721
:40358000704700BF00002640014B1860704700BFCC6F020810B5012902D0082929D02EE01A4B1B78012B2CD00320FFF77BF9184B984228D0FFF719FE164B1860022003F0DA
:4035C000B5FB044603F0BDFB022C05D1032805D0052805D1002404E00F4C02E0002400E00D4C0D4B9C420FD10A4B1868FFF701FE0AE0084B1868FFF7FCFD002404E0064C97
:4036000002E0054C00E0044C204610BDD36F02080101880004680208FF00420008B502291CD0082914D001291ED1124B1B78012B1CD0FFF7DAFD104B5860022003F076FBF7
:40364000022815D00C4B5868FFF7D3FD0B4808BD094B5868FFF7CDFD002008BD064B5868FFF7C7FD054808BD044808BD034808BD002008BDD36F020804680208FF004200A7
:4036800010B5044C2046FFF719FE04F11800FFF715FE10BD7444020890B110B5094A9060C36A03B1D3600024074B1C70074B1C70074B1C60074B1C7000F048F9204610BD90
:4036C0000548704704680208E06F0208E46F0208E86F0208E56F02080100160070B59AB03B4D15AC28686968AA68EB680FC4286920604C22002102A800F07AFF354B0293AB
:4037000015AB049341F64C03ADF8143005238DF816301B23ADF82030ADF8223003238DF8243004238DF8253006238DF8263008238DF829304023ADF84C3001238DF85030EC
:40374000254C2046FFF78CFD04F11800FFF788FD08A803F041FB0346002836D11F4B03931F4B9B68996B89B10B460DF12A0220311E685D689C68D868166055609460D060BF
:40378000103310328B42F3D11B88138002A803F0EBFA0346B0B90122124B1A700023124A1370124A13700E4B9B681A6A00929B6ADB88ADF804301423ADF8063068460CF02F
:4037C00047F9034600210A4A116018461AB070BD5C630810153D081074440208144D020804680208D36F0208D46F0208D56F0208E86F020808B504F075FC08BD08B5044BE6
:403800001B689847034B1B6803B1984708BD00BF286802081468020808B510B1034A52689047034B1B6803B1984708BD286802081468020870B5C0B006460C4615464FF4A8
:4038400080720849684600F0C8FE05E016F8012B6A401DF80250013C002CF7D1284640B070BD00BF7063081008B5FFF7BEFC08BD08B5FFF7BEFC08BD08B50120FFF72AFAAF
:4038800008BD00BF08B50120FFF7FAF908BD00BF08B5094B58601960012208491046FFF73DF9034628B9002205490120FFF736F90346184608BD00BF2868020819380810F3
:4038C000FD37081038B515460B46024601210020FFF7D2F8044618B129460120FFF746F9204638BD704700BF704700BF002070470048704711001600004870471100160057
:403900000048704711001600004870471100160000487047110016000048704711001600004870471100160000487047110016000048704711001600004870471100160057
:403940000048704711001600704700BF08B5054800F06EFD044800F083FD044800F006FE08BD00BF6C4402086844020860440208F8B5022872D8002972D10022134606E0BA
:403980003B4CE45C012C01D90132D2B20133002BF6D0012A0CD1374B1B681C6801EB8102930023445B681B79023BDBB2012B59D8314B1B78002B57D1304B1970E0B92D4F6A
:4039C0003C68236801EB8105AA009D186668C1EBC1014B001E44B18829822168114449686468E45A0C8039680C682244526849680B445B8853801EE001281CD11D4F3C68C6
:403A0000236801EB8105AA009D186668C1EBC1014B001E44B1892982216811444D68616819440989298039680C682244526849680B445B895380124B18700E4B1B6818683B
:403A40000E4B1B7803EB83039A00104407F0B6FD034650B90121084A117006E0094B04E0084B02E0084B00E0084B1846F8BD00BFD46F02080C680208D56F0208D26F0208F8
:403A8000E56F02080100160002001600FF00160070B439B9144B1B681B689968CE7F00231D460EE0104B1B681B68D968CE7FF6E7CA5C52B10133CC5C1B2C01D0134400E087
:403AC0000125B34201D2002DF2D05DB101338279CA54002204E0D4180134855C0D550132052AF8D970BC70470C68020870B504460BF0FAFF0546D0B90E4B1968086A228962
:403B000002EB82029300143B03445A6812F0007F0DD0E67B1B695A68CB69D21A06EB8606B318A28821680448184400F056FD284670BD00BF0C680208D86F020830B587B0D9
:403B400002891A4B1B685B699B889A4229D1044601AB07C883E807000022ADF81020A289ADF8122040228DF814201846FFF7BEFF054680B923681B7803F002039BB22BB1F6
:403B80000B4B1B6821460B48984704E0084B1B68214609489847094A137803F0FE03137000E00025284607B030BD00BF0C680208106802080500010006000100E06F0208B1
:403BC0004288531E9BB2172B1AD84178D1B910B40F4B1868046A02EB82029300143B23445A6812F0007F0FD01B695A68C369D31A01EB81011944074B5B5A1380002004E016
:403C0000012070470120704700205DF8044B70470C680208D86F020800B583B00023ADF804308389ADF800300389ADF8023012238DF80430084B1B7813F0010F09D129B1C7
:403C40008DF8051068460BF031F802E0C0680BF04DF803B05DF804FBE06F020810B4044688B10023194606E0114A52F82320944200D1012101330E4A127B934206D20029DF
:403C8000F2D0002003E000210A4800E0002058B951B9074B1B7B022B05D8054A42F823400133137300E004485DF8044B704700BFEC6F0208010016000300160070B50646CD
:403CC0000D460020044606E0084B53F824302946304698470134054B1B7B9C4204D2044B1B7813F0010FEFD170BD00BFEC6F0208E06F020883792BB100207047C25C32B985
:403D0000013300E00023052BF8D9002070470120704700BF70B58AB004460D46C14A137843F00103137044F20803984200F012823AD843F20103984200F0DD8019D841F25C
:403D40000203984200F0168108D8B0F5805F74D041F20103984200F00A81C7E241F20303984200F0408142F20403984200F0D580BCE244F20403984200F0488109D843F25E
:403D80001203984200F0B78043F2190398424ED0ACE244F20603984200F0E08144F20703984200F09081A1E245F20C03984200F055821BD845F20103984200F00E820AD8BD
:403DC00044F20A03984200F07B8144F21003984200F079818AE245F20203984200F01B8245F20303984200F02F827FE245F21003984200F06E820AD845F20E03984200F08D
:403E0000628245F20F03984200F060826EE245F21703984200F0638246F20103984200F0D98145F21403984240F0608254E27D4A137803F0FE03137058E27B4B1E683046C4
:403E4000FFF758FF60B1304608F0C6FB764E00213068FFF71DFE01213068FFF719FE37E0724B1A68936A1B791BB34FF0B05191F8043603F03F0391F8050600F03F0043EA83
:403E8000801391F8030600F01F0043EA003391F8001601F07F0143EA4143126B1370634A1168096BC3F3072048701268126B1B0C93705E4E3368186B08F08EFB3368002156
:403EC000186BFFF7E5FD33680121186BFFF7E0FD564B1B68986A023008F036FF0023049305933F238DF8103004A808F099FB02224F4B1A70FAE100234D4A13704D4A1370A4
:403F00004D4A13700A20FFF7E1F843F212039C4240F0EC81FFF7B4FBE8E1484B1B6813F0010F40F0E3810023ADF810308DF812303E4E33689B6A93F900308DF8103004A856
:403F400008F088FB33689B6A93F901308DF8103001238DF81130FF238DF8123004A808F079FB364A136843F001031360BEE1FFF7A5FEBBE14978324B1B88ADF81030002357
:403F800019E0304A32F81320ADF808209DF8092012B92D48825C00E00022012A0AD9294A12F81320914205D1264A32F81330ADF8103002E00133002BE3D09DF81130FF2B69
:403FC00005D104D140F2CA312048FFF7A3F8BDF81030ADF81C30ADF81830C3F3072329781B4AD15482E10B78002B40F07F810B7A33B9184B0022DA809A80174A1A604B60E1
:40400000084A137803F0FE0313706FE1CB78002B40F06C8149790A4B1B88ADF81030002336E000BFE06F0208A44402080C680208D36F0208D56F02083C680208E86F020848
:4040400070640810D06F0208D46F020874640810E46F02084468020860650208AC4A32F81320ADF80C209DF80D2012B9A948825C00E00022012A0AD9A54A12F8132091425D
:4040800005D1A34A32F81330ADF8103002E00133002BE3D09DF81130FF2B05D104D140F2CA319D48FFF736F8BDF81030ADF82030ADF81030C3F307230121984AD15415E148
:4040C000FFF7FCFD12E12B78002B3FD1AB78012B02D10022924B1A706978924B1B88ADF80C30002319E08A4A32F81320ADF810209DF8112012B98748825C00E00022012A86
:404100000AD9834A12F81320914205D1804A32F81330ADF80C3002E00133002BE3D09DF80D30FF2B05D104D140F2CA317A48FEF7F1FFBDF80C30ADF82430ADF80C30C3F3E1
:404140000723FF2B02D0A978774AD1540222774B1A70CBE00222754B1A70C7E0FFF7AEFD734B1B7813F0010F00F0C0806C4B1B78012B03D102226A4B1A70B7E0032B03D167
:404180000022674B1A70B1E0022B40F0AF800022634B1A70674B1B685B68674A1178C1EBC10203EB42039A79002A00F09F809B88002B00F09B80614B1B78002B40F0968001
:4041C0000120FFF7D5FB002840F090800122544B1A708BE0FFF772FD88E00B88ADF800309DF801301BB902214A4AD15405E023B940F286314848FEF78DFF6A782988444B31
:4042000023F812106B7800214D4AD15429462046FFF754FD6AE00B88ADF804309DF805301BB900213B4AD15405E023B940F286313948FEF76FFF6B780021384AD15429469E
:404240002046FFF73BFD51E00B88ADF810301723ADF8123004A80AF035FD47E00846FFF76DFC014620B929462046FFF727FD01462846FFF7D1FC2E4B1B7813F0110F04D0AA
:40428000304B1B682946204698472A89284B1B7813F0010F11D0531E9BB2172B0DD912238DF81430ADF81220AB89ADF8103001238DF8153004A80AF0F9FC1D4A137803F05D
:4042C000FE03137012E0FFF7F9FC0FE0FFF7F6FC0CE0FFF7F3FC09E0FFF7F0FC06E00846FFF76EFC29462046FFF7E8FC104B1B7813F0110F09D00E4A137803F0FE03137063
:40430000104B1B682946204698470AB070BD00BFD06F0208D46F0208746408103C680208D56F02087064081040680208D36F0208E06F02080C680208D26F0208E56F020859
:40434000E46F02081068020830B589B00023069307938389ADF81830274B1B68002B44D00189254B5B681A68D38899423FD1234B1B68196A528802EB82029300143B0B4448
:404380005B6813F4801F29D0044601AB07C883E807000022ADF81020A289ADF8122040228DF814201846FFF7A1FB0546B8B900238DF81A308DF81B30079323681B7813F027
:4043C000010F05D00C4B1B6806A90D48984706E0094B1B6806A90B48984700E006250A4A137803F0FE03137002E0002500E00025284609B030BD00BF506802080C680208FD
:404400003200010033000100E06F0208B0F5803F09D208B583B245F20C02934205D10846FFF792FF08BD00207047002008BD00BF50B110B5064C60600648FFF70FFC636894
:404440005B681BB1236010BD0348704710BD00BF506802080D440810010016000020704730B108B5034A10600348FFF7F7FB08BD02487047586802085D44081001001600C8
:404480001C4B1B68002B34D01A4B5B681B685A8803899A422DD18388012B2AD103681B78022B26D810B588B0044603AB07C883E807000022ADF81820A289ADF81A204022F4
:4044C0008DF81C201846FFF711FB80B9A389ADF8043000238DF806300294064B1B6801A905489847054A137803F0FE03137008B010BD70475C680208BF000100E06F0208CB
:4045000000B587B000238DF81730009301930293039304930123ADF80430074B5B681B685B88ADF808300DF1170300936846FFF7DDFA07B05DF804FB5C680208B0F5803FFF
:4045400011D208B583B245F20202934207D045F20E02934205D10846FFF792FF01E0FFF7CFFF002008BD0020704700BF50B110B5064C60600648FFF771FB63685B681BB1B6
:40458000236010BD0348704710BD00BF5C6802083D45081001001600044B18605B6813B15860002070470248704700BF5C680208020016000A22002100F04EB910B50139D8
:4045C0000244904207D010F8013B11F8014FA342F7D0181B10BD002010BD10B5431E0A44914204D011F8014B03F8014FF8E710BD02440346934202D003F8011BFAE770474A
:404600000EB400B59CB04FF402711DABADF81410029006906FF000410A48049107914FF6FF7153F8042BADF816100068019302A900F02AFA029B00221A701CB05DF804EB1B
:4046400003B07047D0460208034611F8012B03F8012B002AF9D17047034613F8012B002AFBD1181A0138704710B5034642B111F8014B03F8014B013A002CF7D11A4400E0BE
:4046800010BD934202D003F8014BFAE710BD0000174B2DE9F0411D68AC6D06460F46FCB9502000F0E3F8A8658460AB6D046044601C61DC60AB6D9C615C61AB6DDC629C62C9
:4046C000AB6D5C631C63AB6DDC639C63AB6D5C641C64AB6DDC649C64AB6D1C77AB6D5C62AA6D394630460123BDE8F04100F002B8D0460208F0B548B9106838B9F0BD17F842
:40470000016B5EB1B542FAD12BB1204604460F4614F8015BF3E714600370F0BD4DB915602846F0BD17F8016BB54207D0002EF9D11C4623460F4613F8015BF3E715B1002166
:40474000217000E02B461360F0BD00002DE9F04780464048D0F800900F463D4615F8014B09EB0400407800F0080000F0FF0608B12F46F2E72D2C03D1BD1C7C78012603E06B
:404780002B2C04BF7C78BD1C13B1102B0AD15BE0302C57D1287800F0DF0058284DD16C7810230235002E14BF4FF0004C6FF0004C0027BCFBF3FA384603FB1ACC09EB040EB4
:4047C0009EF801E01EF0040F01D0303C0BE01EF0030E1BD0BEF1010F0CBF4FF0370E4FF0570ECEEB0404A34210DDB7F1FF3F0AD0504506D801D1644503DC03FB00400127B7
:4048000001E04FF0FF3715F8014BD7E77B1C0CD1002E4FF0220314BF4FF000406FF00040C8F800302AB9BDE8F08706B1404272B107B1691E1160BDE8F0873024002BB1D1FC
:404840000823AFE70A23ADE7302CA3D0AAE7BDE8F08700BFD446020813460A46014602480068FFF773BF00BFD0460208024B0146186800F051B800BFD046020838B505468A
:40488000002946D051F8043C0C1F002BB8BFE41800F009FC1F4A1368114613B96360146032E0A3420ED92268A018834204BF18685B68636004BF121822600C6024E0A242C3
:4048C00003D813465A68002AF9D118681918A1420BD12168014458188242196014D1106852685A60014419600EE002D90C232B600AE021686018824204BF1068526862606B
:4049000004BF091821605C602846BDE8384000F0CBBB38BDC06F020870B5CD1C25F0030508350C2D38BF0C25002D064601DBA94202D90C23336046E000F0B5FB234B1C68C9
:404940001A462146A1B10B685B1B0ED40B2B03D90B60CC18CD501EE08C420DBF63684B686360136018BF0C4615E00C464968E9E7174C23681BB9304600F016FB2060294670
:40498000304600F011FB431C18D0C41C24F00304A0420DD12560304600F086FB04F10B00231D20F00700C31A0ED05A42E25070BD211A304600F0F8FA0130EBD10C233360C8
:4049C000304600F071FB002070BD00BFC06F0208BC6F02082DE9F0478E689E4282460C46914698463ED88A8912F4906F3AD0256809696F1A6569022305EB450595FBF3F514
:404A00007B1C43449D4238BF1D4653050FD52946FFF782FF064698B13A462169FFF7DDFDA38923F4906343F08003A38113E02A4600F03BFB064670B921695046FFF71EFF4D
:404A40000C23CAF80030A38943F04003A3814FF0FF30BDE8F087266165613E44ED1B2660A5604646464528BF464632464946206800F0FEFAA3689B1BA36023681E4426602B
:404A80000020BDE8F08700002DE9F04F9DB0804603938B891C060D4616460DD50B695BB94021FFF739FF2860286118B90C23C8F80030CDE040236B610023099320238DF87A
:404AC0002930DFF89CB130238DF82A3037463C4614F8013B1BB9B7EB060910D003E0252BF9D02746F3E74B46324629464046FFF771FF013000F0A780099B4B4409933B78EA
:404B0000002B00F0A08000234FF0FF3204930793059206938DF853301A930126052221784E4800F055FA671C049B38B14B4A801A06FA00F0184304903C46EFE7D90644BF82
:404B400020228DF853201A0744BF2B228DF8532022782A2A03D0079A00210A200BE0039A111D12680391002A10DA524243F00200079204900BE0274601343B78303B092B38
:404B800003D800FB02320121F5E701B107923B782E2B1ED17B782A2B0AD1039B1A1D1B680392002BB8BF4FF0FF330237059310E000230593781C19460A24074601303A78B7
:404BC000303A092A03D804FB01210123F5E703B1059103223978224800F0FAF940B14023CBEB000003FA00F0049B18430490013739781C488DF8281006227E1C00F0E8F98D
:404C000088B1194B33B9039B073323F007030833039314E003AB00932A46144B04A94046AFF3008007E003AB00932A460F4B04A9404600F093F8B0F1FF3F824603D0099B0E
:404C40005344099342E7AB895B0601D4099801E04FF0FF301DB0BDE8F08F00BF8B6A0810916A0810956A081000000000D54908102DE9F04791461F460A698B68DDF82080FD
:404C80009342B8BF1346C9F8003091F8432006460C4612B10133C9F800302368990642BFD9F800300233C9F80030256815F0060510D104F1190A07E001235246394630466C
:404CC000C04701301AD00135E368D9F800209B1A9D42F1DB94F843302268003318BF012392060FD5E1185A1C302081F84300224494F8451082F84310023303E04FF0FF3078
:404D0000BDE8F08704F1430239463046C0470130F4D02268D9F80050E36802F00602042A08BF5D1B2269A3680CBF25EAE57500259342C4BF9B1AED184FF000091A344D45A6
:404D400009D00123224639463046C0470130D5D009F10109F3E70020BDE8F0872DE9F04317460A7E85B06E2A984606460C460C9B01F1430E00F0AE8011D8632A22D009D81A
:404D8000002A00F0BB80582A40F0CA8081F84520834955E0642A1ED0692A1CD0C0E0732A00F0B08009D86F2A2ED0702A40F0B8800A6842F020020A603EE0752A24D0782A6E
:404DC0003AD0ADE01A6801F14205111D1960136884F84230A8E021681A6811F0800F02D0111D196008E011F0400F02F10401196002D0B2F9003000E01368002B3CDA2D2274
:404E00005B4284F8432037E021681A6811F0800F02D0111D196007E011F0400F02F10401196001D0138800E01368227E5C496F2A14BF0A2208221BE078225A4984F845203C
:404E40002268186812F0800F00F104051D6003D1550601D5038800E00368D00744BF42F0200222601BB9226822F0200222601022002084F8430001E049490A226568A560FF
:404E8000002D08DB206820F0040020602BB9002D7DD175460CE0002B79D07546B3FBF2F002FB1033CB5C05F8013D03460028F5D1082A0BD12368DA0708D5236962689A429F
:404EC000DEBF302305F8013C05F1FF35C5EB0E0323612EE008681A68496910F0800F03D0101D1860136808E010F0400F02F104001860136801D0198000E01960002323615A
:404F0000754616E01A68111D1960156862680021284600F05DF808B1401B6060636804E004F1420584F8422001232361002384F84330CDF800803B4603AA21463046FFF7DF
:404F400097FE013002D14FF0FF3026E023692A4639463046C0470130F5D023689B0710D5002504F1190907E001234A4639463046C0470130E7D00135E368039A9B1A9D42B7
:404F8000F2DBE068039B9842B8BF184605E00B7884F8423004F142058AE705B0BDE8F0839C6A0810AD6A081038B5064C002305460846236000F0AAF8431C02D1236803B1F1
:404FC0002B6038BDFC6F0208000000000000000001F0FF01102A2BDB10F0070F08D010F8013B013A8B422DD010F0070F42B3F6D1F0B441EA012141EA014122F007047FF098
:4050000000070023F0E80256083C85EA010586EA010685FA47F5A3FA87F586FA47F6A5FA87F68EB9EED1F0BC01F0FF0102F0070232B110F8013B013A83EA010313B1F8D13B
:405040000020704701387047002D06BF35460338073815F0010F07D1013015F4807F02BF013015F4C03F0130F0BC0138704700BF884210B501EB020301D8421E0BE0984258
:40508000FBD28118D21AD34204D013F8014D01F8014DF8E710BD994204D011F8014B02F8014FF8E710BD70477047F8B5074615460E4621B91146BDE8F840FFF72DBC1AB998
:4050C000FFF7DCFB2846F8BD00F015F885420ED929463846FFF720FC044650B131462A46FFF77BFA31463846FFF7C8FB01E03046F8BD2046F8BD51F8040C0028BEBF091885
:4051000051F8043CC018043870470000044A05491368002B08BF0B461844106018467047C46F020800700208F8B500BFF8BC08BC9E467047F8B500BFF8BC08BC9E4670472B
:4051400016000000070000000300000001000000010000000000000005036000040000000100000000000000010000000604600008000000DC660208310408105265636515
:405180006976656420737472696E673A2025730D0A000000742076616C75653A2025640D0A000000742076616C75653A202564200D0A0000542076616C75653A2025640D90
:4051C0000A000000542076616C75653A202564200D0A00004C6F6F70732066726F6D206D61696E2025640D0A000000000100000001000000F9FFFFFF00000000010000009B
:405200000100000000000000010000000000000000000000090000000A000000070000000A0000000A0000000A0000000A0000000A0000000000000000000000AC56081006
:40524000B8560810C8560810D4560810E0560810EC560810F8560810045708101057081034560810405608104C5608105856081064560810705608107C5608108856081030
:4052800094560810A0560810C4550810CC550810D4550810DC550810E4550810EC550810F4550810D0540810FC550810045608100C560810145608101C56081024560810B0
:4052C0002C560810D0540810D4540810DC540810E4540810EC540810F4540810FC540810045508100C550810145508101C550810745508107C550810845508108C55081038
:40530000945508109C550810A4550810AC550810B4550810BC550810245508102C550810345508103C550810445508104C550810545508105C550810645508106C550810DD
:40534000D0540810D4540810DC540810E4540810EC540810F4540810FC540810045508100C550810145508101C5508109C540810A0540810A4540810A8540810AC540810B5
:40538000B0540810B4540810B8540810C0540810C8540810205708102C5708103C5708105057081064570810785708108857081098570810A8570810BC570810010000009E
:4053C000010000000000000000000000010000000100000000000000010000000000000000000000C05A08100C5408105041494E20445241494E000053504C41534820530B
:40540000435245454E0000002D0000005061697200000000564255533A256400434852473A25640044504D3A2564000050473A2564000000544845524D3A2564000000001B
:40544000565359533A256400575444463A2564004F5447463A256400434847463A256400424154463A2564004E5443463A2564003E00000053454C45435400003C00000046
:40548000524553455400000050414952000000004241434B000000002000000033303000343030003530300036303000373030003830300039303000313030300000000031
:4054C000313130300000000031323030000000004F666600416D702D31000000416D702D32000000416D702D33000000416D702D34000000416D702D35000000416D702D4B
:4055000036000000416D702D37000000416D702D38000000416D702D39000000416D702D313000003120487A000000003220487A000000003320487A000000003420487AAE
:40554000000000003520487A000000003620487A000000003720487A000000003820487A000000003920487A00000000313020487A000000467265712D31000046726571F1
:405580002D320000467265712D330000467265712D340000467265712D350000467265712D360000467265712D370000467265712D380000467265712D3900004672657167
:4055C0002D313000436F6C642D370000436F6C642D360000436F6C642D350000436F6C642D340000436F6C642D330000436F6C642D320000436F6C642D310000486F742D90
:4056000031000000486F742D32000000486F742D33000000486F742D34000000486F742D35000000486F742D36000000486F742D370000005072657365742D31000000001D
:405640005072657365742D32000000005072657365742D33000000005072657365742D34000000005072657365742D35000000005072657365742D3600000000507265736C
:4056800065742D37000000005072657365742D38000000005072657365742D39000000005072657365742D31300000005072652D736574730000000054656D7065722D61ED
:4056C0007475726500000000566962652D616D7000000000566962652D6672657100000054454E532D6672657100000054454E532D416D700000000054454E532D4475726C
:4057000000000000426C75652D746F6F74680000446961676E6F2D7374696373000000004D61696E204D656E7500000050726573657473204D656E750000000054656D7076
:4057400065726174757265204D656E7500000000566962726174696F6E20416D706C697475646500566962726174696F6E204672657175656E63790054454E532046726512
:405780007175656E6379000054454E5320416D706C6974756465000054454E53204475726174696F6E000000426C7565746F6F74682053657474696E677300004469616719
:4057C0006E6F737469637300000000000081811881810007000700147F147F14242A7F2A12231308646236495522500005030000001C2241000041221C0014083E0814086B
:40580000083E080800503000000808080808006060000020100804023E5149453E00427F400042615149462141454B311814127F1027454545393C4A4949300171090503A3
:405840003649494936064949291E003636000000563600000814224100141414141400412214080201510906324979413E7E1111117E7F494949363E414141227F414122CD
:405880001C7F494949417F090909013E4149497A7F0808087F00417F41002040413F017F081422417F404040407F020C027F7F0408107F3E4141413E7F090909063E4151BF
:4058C000215E7F09192946464949493101017F01013F4040403F1F2040201F3F4038403F631408146307087008076151494543007F41410002040810200041417F000402C5
:405900000102044040404040000102040020545454787F484444383844444420384444487F3854545418087E0901020C5252523E7F0804047800447D40002040443D007FCD
:405940001028440000417F40007C041804787C0804047838444444387C14141408081414147C7C080404084854545420043F4440203C4040207C1C2040201C3C4030403CC0
:4059800044281028440C5050503C4464544C44000836410000007F00000041360800100808100800000000000700960100C811010A3A05010036A8000012040030000000A0
:4059C0009F020037000000004261636B6C69676874206F6E0D0A000047656E6572617465645F536F757263655C50536F43365C70646C5C647269766572732F7065726970A6
:405A0000686572616C2F6770696F2F63795F6770696F2E680000000050574D312056616C75653A2025640D0A0000000050574D3120476574436F6D706172653A2025640D75
:405A40000A00000050574D322056616C75653A2025640D0A0000000050574D3220476574436F6D706172653A2025640D0A00000044697361626C65642050574D312047658F
:405A800074436F6D706172653A2025640D0A000044697361626C65642050574D3220476574436F6D706172653A2025640D0A000054656E7320312050574D3A2025640D0A59
:405AC0000000000054656E7320322050574D3A2025640D0A0000000030313233343536373839616263646566000000000000030000001800010000280100000009000000FC
:405B00000018000000000000020003280100020003000000002A0000000000000300002A0100020103000000090000004C430208040003280100020005000000012A0000B8
:405B4000000000000500012A01000201050000000200000054430208060003280100020007000000042A0000000000000700042A0100020107000000080000005C430208EF
:405B8000080003280100020009000000A62A0000000000000900A62A010002010900000001000000644302080A000028010000000D00000001180000000000000B000328AF
:405BC000010020000D000000052A0000000000000C00052A000020010D000000040000006C4302080D00022901010A030D00000002000000744302080E00002801000000D4
:405C00001000000002180000000000000F0003280100040010000000062A0000000000001000062A0001040110000000010000007C4302081100002801000000150000004C
:405C40000F18000000000000120003280100020015000000192A0000000000001300192A0100020115000000010000008443020814000429010002011400000007000000C4
:405C80008C4302081500022901010A03150000000200000094430208160000280100000818000000100000009C4302081700032801000E001800000010000000A443020802
:405CC0001800A23601010E091800000014000000AC43020874983D9E375AE9B8884691D2210CF03B0A6BEF0EFA1AAC95CC425A69A236C893010003000500070009000000F0
:405D00000A000C000D0000000E0010001600180000000000110013001400150001000000040000000800000008000000010000000000000000000000000000000000000091
:405D400000000000000000000000000000000000040000000000000000000000000000000000000070020000008000000000000000000000004000000000000000000000ED
:405D800000000000000000000200000003000000FFFFFFFF03000000FFFFFFFF03000000FFFFFFFF03000000FFFFFFFF03000000FFFFFFFF040000000000000000000000E2
:405DC00000000000000000007002000000800000000000000000000000400000000000000000000000000000000000000200000003000000FFFFFFFF03000000FFFFFFFF71
:405E000003000000FFFFFFFF03000000FFFFFFFF03000000FFFFFFFF04000000000000000000000000000000000000000001000000800000000000000000000000400000A0
:405E4000000000000000000000000000000000000200000003000000FFFFFFFF03000000FFFFFFFF03000000FFFFFFFF03000000FFFFFFFF03000000FFFFFFFF0400000021
:405E800007000000000000000000000000000000FF00000000800000000000000000000000400000000000000000000000000000000000000200000003000000FFFFFFFF1B
:405EC00003000000FFFFFFFF03000000FFFFFFFF03000000FFFFFFFF03000000FFFFFFFF040000000000000000000000000000000000000000010000008000000000000021
:405F00000000000000400000000000000000000000000000000000000200000003000000FFFFFFFF03000000FFFFFFFF03000000FFFFFFFF03000000FFFFFFFF0300000020
:405F4000FFFFFFFF0400000000000000000000000000000000000000000100000080000000000000000000000040000000000000000000000000000000000000020000005E
:405F800003000000FFFFFFFF03000000FFFFFFFF03000000FFFFFFFF03000000FFFFFFFF03000000FFFFFFFF47656E6572617465645F536F757263655C50536F43365C70D4
:405FC000646C5C647269766572732F7065726970686572616C2F6970632F63795F6970635F6472762E68000047656E6572617465645F536F757263655C50536F43365C70B7
:40600000646C5C647269766572735C7065726970686572616C5C6970635C63795F6970635F6472762E68000047656E6572617465645F536F757263655C50536F43365C70EF
:40604000646C5C647269766572735C7065726970686572616C5C6970635C63795F6970635F6472762E63000047656E6572617465645F536F757263655C50536F43365C70B4
:40608000646C5C647269766572735C7065726970686572616C5C6970635C63795F6970635F706970652E630047656E6572617465645F536F757263655C50536F43365C7012
:4060C000646C5C647269766572735C7065726970686572616C5C7363625C63795F7363625F636F6D6D6F6E2E6800000047656E6572617465645F536F757263655C50536F3F
:4061000043365C70646C5C647269766572735C7065726970686572616C5C7363625C63795F7363625F7370692E63000047656E6572617465645F536F757263655C50536FFB
:4061400043365C70646C5C647269766572735C7065726970686572616C5C737973696E745C63795F737973696E742E630000000047656E6572617465645F536F75726365F0
:406180005C50536F43365C70646C5C647269766572735C7065726970686572616C5C737973706D5C63795F737973706D2E63000047656E6572617465645F536F757263651E
:4061C0005C50536F43365C70646C5C647269766572735C7065726970686572616C5C7764745C63795F7764742E6300000000204000002440000000400000000000002340B0
:40620000000030400000314000009F40000022400000104002020202020202020210101D800017007500FF030602063604102000000000007FC000000004000000000000D4
:406240000019324B647D00804000080B100000000000FF012002001F00800004FF081018001000140018001C4044484C5000000008100000080000000400000004100000D8
:406280000012000004210000002100000016000040114002C41300138013A013200000001C00000000002140000025400000014000003440000024400000314000003240AF
:4062C00000001F410000234000001140010101010101010101101010800019005500F0000501053B04101C01010000000FC000000004000001010101011D3A57789600085F
:406300002000101208000000001F00000010000F002000023F06080E00080009000A000B24282C3034000000100000009000000088000000080000008000000004F00000B2
:4063400000F00000400200002005A000D00100018001A0012000000010000000240003003000010028000200240002000C00010000316253C4F5A697B988DBEA7D4C1F2E55
:406380004372211087B6E5D4FACB98A93E0F5C6D86B7E4D5427320113F0E5D6CFBCA99A8C5F4A796013063527C4D1E2FB889DAEB3D0C5F6EF9C89BAA84B5E6D740712213FD
:4063C0007E4F1C2DBA8BD8E9C7F6A59403326150BB8AD9E87F4E1D2C02336051C6F7A495F8C99AAB3C0D5E6F4170231285B4E7D67A4B1829BE8FDCEDC3F2A19007366554BD
:4064000039085B6AFDCC9FAE80B1E2D344752617FCCD9EAF38095A6B4574271681B0E3D2BF8EDDEC7B4A192806376455C2F3A0914776251483B2E1D0FECF9CAD3A0B58697C
:4064400004356657C0F1A293BD8CDFEE79481B2AC1F0A3920534675678491A2BBC8DDEEF82B3E0D1467724153B0A5968FFCE9DACFFFF000047656E6572617465645F536F86
:40648000757263655C50536F43365C70646C5C6D6964646C65776172655C626C655C63795F626C655F6761702E680000000404000104080002041400030C200004042C0018
:4064C00005064800F5AE081089B3081089B3081089B3081089B3081001990810D599081089B3081089B3081089B3081089B3081089B3081089B3081089B3081089B3081066
:4065000089B3081089B308101DB1081069B10810A1A70810A5A9081081AD0810F58708100000000030690810D068081008000000B124091000000000A0670810EC6608107B
:406540000F00000000000000000000000000000000000000000000000120000045C008100620000089C108100720000059C008100820000049C108100920000049C2081058
:406580000A20000045BF08100B2000000DC208100C200000D5C1081010200000A1BF08101120000021BF08101220000025C1081014200000C1C1081015200000B9BF081015
:4065C0001720000075BF08100E200000A5BF0810ACFD00001BC40810ADFD00000FC30810A0FD000085C40810A1FD00006FC30810A2FD0000ABC30810A5FD00007BC5081035
:40660000A6FD0000DFC40810A8FD0000E1C20810A9FD0000B7C20810AAFD0000D3C30810ABFD000041C50810AFFD0000D1C30810C3FD00002DC50810B0FD0000A5C40810FA
:40664000B2FD0000F3C4081005140000FFBF08102D0C0000D9C008107B0C000087C008107C0C00007DC2081027200F2028201020292010202B200A202C200B202D200D2031
:406680002E200C204E20172000000100010000010001020203000200000000000202010002000001000100050100050202030002000000000002050100050000BD1C091092
:4066C000251E09102D1D091001010B0102028102820503040403840906090709080909090A09050A0C0B0D0D0E0E000001000000010000000000000002000000040000006B
:4067000002000000030000000700000005000000040000000A00000008000000050000000C0000000B000000060000000E0000000D00000007000000100000000F000000CF
:406740000800000013000000110000000900000016000000140000000A0000001700000017000000FF00000018000000180000000B0000001B000000190000000C00000008
:406780001D0000001C0000000D0000001F0000001E0000000E00000021000000200000000100000029420910FEFFFFFFF5400910010000002942091006000000ED43091065
:4067C000F8FFFFFFF54009101800120011410910A000000C693E091047FFEDFBF5400910E8000C006140091000012000713F09101FFED3FFF5400910A000000C894809106E
:406800005FFFFFFBF540091000020000E1460910FFFDFFFFF5400910000C0000713D0910FFF3FFFFF5400910000A0000154009100100000035400910FEF7FFFFF5400910CF
:4068400000200000B53E09100040000091470910FF9FFFFFF5400910FFFFFFFFFB400910FFFFFFFF6B3D0910008000004D3D0910000001002F3D0910FF7FFEFFF540091052
:4068800000800100F33C0910FF7FFEFFF540091000008003D53C0910FFFF7FFCF540091000801F0A113D0910FF7FE0F5F54009100000000000000000000000000000000021
:4068C00087000000000000000000000000000000810000000000000000000000820000000100000001000000010000000200000002000000020000000400000003000000FE
:40690000030000000600000005000000F10000000700000007000000F20000000900000008000000FF0000000A0000000A00000002000000194D091001000000194D091033
:406940000E0000000D4C091002000000514C09100C000000F54B091002000000914C09100C000000F54B09100E000000194D09100C000000554D091002000000F54B09106E
:406980000E000000994D09104300002020202020202020202828282828202020202020202020202020202020202020881010101010101010101010101010100404040404D3
:4069C0000404040404101010101010104141414141410101010101010101010101010101010101010101101010101010424242424242020202020202020202020202020271
:406A000002020202020210101010200000000000000000000000000000000000000000000000000000000000000000000000000000000000000000000000000000000000EA
:406A40000000000000000000000000000000000000000000000000000000000000000000000000000000000000000000000000000000000000000000000000000000000016
:406A80000000000000000000000000232D302B2000686C4C0065666745464700303132333435363738394142434445460030313233343536373839616263646566000000E3
:406AC000000000002DE9F05F00250746041D00F1180840682E4E4FF6FF7A88B1616879B180070DD1207A80070AD198F8300038B12849084600F0A2FB10EA0A0002D044E02F
:406B0000354642E02289A37ADFF88C90206858B1C9F800000025A9F80420A9F80650A9F808302946FDF764FDA07A801D00F0FF0B5946606800F072F8050021D1404601F04D
:406B400087F905001CD1E06820B1384600F0CAFA050015D1B9F80400B9F80610884206D3401A80B2594600F0A9FE20B100E05046354628B109E0A07A801DC0B200F0C4F932
:406B800000F0D8F90549012008702846BDE8F09F010016002D6E081064680208A844020803480078012801D100F018BD70470000A844020810B500F073FB044900200860CD
:406BC0008880C88008810249087010BD64680208A844020870B5044600208A0703D001F00302891A091D084B89B2DA889E885518B54206D81D682A442260DA881144D980D1
:406C000070BD024870BD000064680208030016000148008970470000646802082DE9F84705460C460020890000908A466846FFF7D1FF07004BD12748009B0022036017E04A
:406C400003F82220062A08D2234803EB820100EB820046784E70408807E005EB8200183803EB820186784E700088521C4880D2B2A242E5D300251EE005F1010909F0FF0071
:406C800015E003EB850203EB8001B2F802C04E88B4450AD991F80180A1F802C092F801C081F801C0568082F80180401CC0B2A042E7D309F0FF05A542DED347B951466846DE
:406CC000FFF788FF070002D10449009808603846BDE8F887AC440208AC640810B0440208F0B5002319E05A1C00EB830612E030F8235030F82240A5420BD2778820F823402E
:406D000000EB8204B4F802C0A6F802C020F822506780521C8A42EAD35B1C8B42E3D3F0BD0048704770680208FFF73ABF10B5022401F032F810B100F03FFF00B901242046FC
:406D400010BD05207047000010B5002428B132220349FDF742FC204610BD024810BD00007068020801001600F8B506004FF000008DF8000006F1040407D020892081304686
:406D800001F0E2F8050002D012E01248F8BDA17A6A46606801F0B2F8050009D1E06838B1B6F84400000903D0304600F0FBF905462089208165B93046FFF784FE050007D14C
:406DC000304600F0B5FF0546A17A6068FFF788FF2846F8BD0100160038B504004FF00000ADF8000008D0A18D090A05D1617A102902D8E179102901D90A4838BDE08569461A
:406E0000204600F0D5FF0500E08DBDF800100844E08504D1322221460348FDF7DEFB284638BD0000010016007068020870470000002809D005494A68002A05D0011F0878E5
:406E400052F8200000F0E4BC70470000AC44020810B50446FFF7DCFEC0B2801DA0420BD30648406840B150F8240000F03DFC002801D000F8044B10BD002010BDAC44020849
:406E8000F8B516460D460446FFF7C2FEC0B2801DA04203D24FF0FF300090F8BDB2B2E9B2684600F04BFC0099481C03D00248406840F824100098F8BDAC4402082DE9F0415D
:406EC0000746FFF7A5FE801D0B49C6B2002005460C680CE0617839B16188B94202D32078FFF7B6FF002804D1241D6D1CEDB2B542F0D3BDE8F0810000AC440208002801D090
:406F0000FFF796BF7047000070B506460848002504680AE0617829B162882078121D0023FFF7AEFF241D6D1CEDB2B542F2D370BDAC4402081CB50024142001908DF800401E
:406F40002346064A694606480CF044F804480068401C01D14FF6FF7420461CBD9D6F0810B44402080EB50C4A0146002312684FF6FF7004290DD009290AD109200093ADF8FB
:406F80000800ADF80A30694610460CF020F880B20EBD04200093F2E7B444020870B5D0E90054468900890C282DD2DFE800F02C2C0606112C2C152C191C27E0B232462946EB
:406FC00009F032F9E0B23246294600F037FD1AE000200BF007FD16E02878FCF7B5FC12E000F00AFE0FE0E8B2022C02D008F058FE09E0FF2807D002F055FF04E02846022C0F
:4070000003D008F025FF002070BD03F05DFAFAE70148006800F0CABAB44402082DE9F0411F4F0026386D60B1796D51B14218891E12F8024C0022FCF7FDFB844201D0194EE5
:407040002BE0002505EB850307EB8304606800B357F82310E9B16289D7F854C0624518D294F80CC01CF0090F02D0FDF7B6FA0AE009780170606831B1628957F82310083AD2
:4070800008310830F1E723691BB10122207B114698476D1CADB2042DD4D33046BDE8F081A4680208FFFF1600F0B5C10701D040F008000B4CFF2184F85D10002101250E4654
:4070C00001EB810204EB820205FA01F3177B03409F4200D11681491CC9B20429F0D3F0BDA468020870B5134908B3B0F84410124CC1F30711002584F85C1001692165406902
:40710000C4E91505FF2684F85D6028464FF6FF7300EB800204EB8201401C4B8144F822500D610E73C0B20D810428F1D30021084670BD000001001600A468020810B5174B81
:4071400048B3417839B3002202E04908521CD2B20029FAD102EB8201114A02EB810111F8084CFF2C17D103787BB1438821F80A3C946D136D234441F8143C4488936D234415
:40718000936582680AB141F8042C103942780A72406800230860184610BD000001001600A4680208F0B5B0F84420234C46690021C2F30712D2B3D3070BD090F8203003EB01
:4071C000C30505EB431501EB850101EB031101F14001530715D5C37F2C2513FB05F55FEA857C4FF00C0723D003EB430505EBC30307EB830505F00305C5EB830505F11005C6
:40720000294492070ED590F821004FF00803C20095070FD003EBC00202F00302C2EBC0020C321144891C8E4200D300242046F0BD0C35E5E70832F4E7010016000F4A10B5B6
