:020000041008E2
:4000000000780408EB0208100D00000051030810510308105103081051030810000000000000000000000000000000004D0308104D030810000000004D0308104D030810DA
:400040004D0308104D0308104D0308104D0308104D0308104D0308104D0308104D0308104D0308104D0308104D0308104D0308104D0308104D0308104D0308104D03081000
:400080004D0308104D0308104D0308104D0308104D0308104D0308104D0308104D0308104D0308104D0308104D0308104D0308104D0308104D0308104D0308104D030810C0
:4000C0004D0308104D0308104D0308104D0308104D0308104D0308104D0308104D0308104D0308104D0308104D0308104D0308104D0308104D0308104D0308104D03081080
:400100004D0308104D0308104D0308104D0308104D0308104D0308104D0308104D0308104D0308104D0308104D0308104D0308104D0308104D0308104D0308104D0308103F
:400140004D0308104D0308104D0308104D0308104D0308104D0308104D0308104D0308104D0308104D0308104D0308104D0308104D0308104D0308104D0308104D030810FF
:400180004D0308104D0308104D0308104D0308104D0308104D0308104D0308104D0308104D0308104D0308104D0308104D0308104D0308104D0308104D0308104D030810BF
:4001C0004D0308104D0308104D0308104D0308104D0308104D0308104D0308104D0308104D0308104D0308104D0308104D0308104D0308104D0308104D0308104D0308107F
:400200004D0308104D0308104D0308104D0308104D0308104D0308104D0308104D0308104D0308104D0308104D0308104D0308104D0308104D0308104D0308104D0308103E
:400240004D0308104D0308104D0308104D0308104D0308104D0308104D0308104D0308104D0308104D0308104D0308104D0308104D0308104D0308104D0308104D030810FE
:400280004D0308104D0308104D03081010B5054C237833B9044B13B10448AFF300800123237010BD7065020800000000E81F0B10084B10B51BB108490848AFF3008008486C
:4002C000036803B910BD074B002BFBD0BDE81040184700BF0000000074650208E81F0B10F0460208000000007047FFF7FDFF72B6104C114DAC4209DA21686268A368043B71
:40030000A2BFC858D050FAE70C34F3E70B490C4A00209142BCBF41F8040BFAE709480A490860BFF34F8F00F077F900F051F900F06DF8FEE77C030C1094030C107065020843
:400340007C8002080040020808ED00E0FEE7FEE700B504207146084202D0EFF3098001E0EFF30880043005F0DDFEFEE708B50C4BD3F8003713F0010F11D006F0BFF806F096
:4003800075F8074BD3F8880100F5A07080B206F07FF806F061F801F07BFC00F00DFB08BD0000264010B506F061F8002006F08AF84FF4A07006F06CF806F0A0F80F4CD4F89E
:4003C0000C3543F00043C4F80C350D490D4805F03BFE4FF480020C4B1A60D4F8083743F00103C4F80837D4F8803143F00103C4F8803106F083F806F02FF810BD00002640BB
:400400006D030810EC84081000E100E008B5FFF7C9FF064B5B6813F4003F01D005F046FF62B600F06DFA002008BD00BF0000264008B5012005F0B6FA08BD00BF704700BF15
:400440005C4AD2F8803303F00F0303F1D00152F8212002F00702032A04D0042A05D092B9554914E0554A116811E003F1C002514951F8222002F01F02112A06D0132A04D00F
:400480004FF4FA4103E04E4901E04FF400418BBB484BD3F8902502F00100D3F88825C2F30172D3F8883513F0405F07D0414BD3F88835C3F30173012B02D102E0012300E0CF
:4004C000002303B108B9032A46D13A48D0F88025C2F31103D0F88425C2F30C02D0F88005C0F300600130B1FBF2F202FB03F2B2FBF0F131E0012B2FD12E4BD3F8402602F0BA
:400500000100D3F80026C2F30172D3F8003613F0405F07D0274BD3F80036C3F30173012B02D102E0012300E0002303B108B9032A12D12048D0F8002602F07F02D0F8003636
:40054000C3F30423D0F80006C0F3044002FB01F2B2FBF3F2B2FBF0F1164BD3F88033C3F3011321FA03F215494A601648D0F89030C3F3072301330069000E0130B2FBF0F0D9
:400580008860B2FBF3F3CB600B6103F5742202F23F220D48A0FB0202C2F387420A7503F2E7330A4AA2FB03239B098B61DB03CB61704700BF0000264000127A008C42020855
:4005C00000366E010000214083DE1B43D34D621008B50D4805F09CFFFFF730FFFFF730FF00221146042004F08FFF084805F022F8074B1B6893F8513013B1064805F08AF8D0
:4006000004F0CCFE08BD00BFCC170B108C65020848800208F484081008B505F0DEFD074AD2F8883043F47003C2F88830BFF34F8FBFF36F8F05F0D5FD08BD00BF00ED00E049
:400640002DE9F04186B000AF0C4644F2070398423ED015D843F2120398425ED007D8B0F5805F2AD041F20103984244D01BE144F20103984256D044F20603984231D012E1D0
:4006800045F20203984270D008D844F20803984216D044F2140398425FD004E145F20E03984200F0B48045F21703984261D045F20C03984240F0F780A9E07D4836F0B4FA3D
:4006C0000021084606F018F9002000F069F9EAE04B78774880F8413037F0E2FD00F064FFE1E0744B1B78002B40F0DD8000F05CFF04F0D2FCD7E00B78042B40F0D480CA787D
:400700006B4B93F844309A4240F0CD8000F04CFF674A936C01339364C5E000211F2001F0C1FAC0E0644B1B685B6A1A78102A01D10522DA70604B1B685A6A61795171586AEE
:4007400037F032FD002800F0AE8037F065FD5A4B1B68586A37F028FDA5E04222544807F0E4F8564837F072FD9DE0002000F018F999E04A88524B1B681B685B889A421FD157
:400780004B4B93F84C3023B96422494B83F84C2003E0013B464A82F84C304A4801F0D0FC494B3B600123BB80454B1B681B685B883B81384606F0F4F910B1444801F0C0FCAD
:4007C0006388182B6FD1424C2168424801F0B8FC414801F0B5FC2368FB60354B1B6D3B821823BB8207F10C0006F0DAF910B1374801F0A6FC394B196901F00101384B196062
:40080000384801F09DFC384801F09AFC4BE0E846A688314606F1080323F00703ADEB030D6D462389182B3DD104E02268D25CEA54013300E000238B42F7DB0023AB552946F0
:400840002A4801F07DFC2B78742B04D0762B12D0542B18D107E0681C07F04CF80146244801F06EFC12E0681C07F044F80146214801F066FC0AE0681C07F03CF801461E48F5
:4008800001F05EFC02E01D4801F05AFC701C07F035F80F4A10602368136000229A55E06839F0B8FCC5461837BD46BDE8F08100BFAC42020851800208487802084C4302084A
:4008C0009078020828850810F84202084C850810188002085C85081074850810000532401C8002088C850810A0850810C4850810DC850810EC850810FC8508100C8608101F
:4009000008B501F0E3F9174801F01AFC04F0D2FB03F004FD144804F0A3FB00F039F804F019FC04F0FFFB04F045FC04F05BFC04220E4B5A6031F08CFC01F0F0F900F0B4FD2F
:4009400000F034F8012801D1094B9B6C084B9B6C002BEFD0064800238364443032F066FEE8E700BF288608104106081080033240AC420208044B984204D14B681B681A7809
:40098000024B1A70704700BFBF0001000C67020808B5024806F0E8FD08BD00BF75090810014B1870704700BF0C670208014B1878704700BF0C6702081C4B1B68002B07DD22
:4009C0000A3B1A4A1360002B02DA0022174B1A60174B1B68002B07DD0A3B154A1360002B02DA0022124B1A60002310E0104A02EB83025268002A09DD0A3A0D4901EB830118
:400A00004A60002A02DA0A46002151600133022BECDD074B1B69002B07DD0A3B044A1361002B02DA0022024B1A6170470C4302081067020808B51721352001F003F8802274
:400A40001F21074801F02CF829212F2000F0FAFF80221F21034801F023F800F00BFF08BD348808104088081010B582B004464FF6FF7300930F2301227021104601F0A0F854
:400A80000121084600F0DEFF80221F21204601F007F802B010BD00BFF0B583B007460E4614464FF4784500954F2341223321022001F086F8384607F06DF800EB4000430019
:400AC000C3F13100400802304221C0B200F0BAFF80224FF6E071384600F0E2FF00954F2341226821372001F06BF8304607F052F800EB40004300C3F13100400837304221D8
:400B0000C0B200F09FFF80224FF6E071304600F0C7FF00954F2341229D216C2001F050F8204607F037F800EB40004300C3F1310040086C304221C0B200F084FF80224FF672
:400B4000E071204600F0ACFF03B0F0BD10B582B04FF4F864009411231A4666213A2000F0C7FF009412231A4665213B2000F0C0FF00943D231A4666213A2000F0B9FF009444
:400B80003C231A4665213B2000F0B2FF00943C2312223A21084600F0ABFF00943B2313221946184600F0A4FF00943C2312226621084600F09DFF00943B2313226521084690
:400BC00000F096FF02B010BD00B583B0C0B200F1280102304FF6FF7300933A231322C9B2C0B200F0EDFF03B05DF804FB70B584B0044601A806F0C6FF1A4D294601A806F023
:400C0000E5FF06462946002006F0E0FF0546304606F0C0FF00EB40004300C3F12C00E4B204EB50001721C0B200F00CFF80224FF61F01304600F034FF284606F0ABFF00EB49
:400C400040004300C3F12C0004EB50002D21C0B200F0F8FE80224FF61F01284600F020FF04B070BD5088081070B506460D4614460846FFF7A9FF354B53F82620A24264DC98
:400C800003EB86039B6A9C425FDC092E5DD8DFE806F0050E17212B353F495358A41A2B4B03EB8404216D2846FFF7A0FF70BDA41A264B03EB8404616F2846FFF797FF70BD94
:400CC000A41A224B03EB8404D4F89C102846FFF78DFF70BDA41A1D4B03EB8404D4F8D8102846FFF783FF70BDA41A184B03EB8404D4F804112846FFF779FF70BDA41A134BBE
:400D000003EB8404D4F82C112846FFF76FFF70BDA41A0E4B03EB8404D4F854112846FFF765FF70BDA41A094B03EB8404D4F880112846FFF75BFF70BD05492846FFF756FFAB
:400D400070BD04492846FFF751FF70BD348608105488081064A608102DE9F0438BB007A801F002F89DF82420C2F30119C2F3C008C2F38007C2F3400602F001059209784962
:400D800003A806F0DBFE4FF6FF7400941E2310227021022000F014FF1021022000F052FE80224FF61F0103A800F07AFE4A466D4903A806F0C3FE00942D231F227021022017
:400DC00000F0FEFE1F21022000F03CFE80224FF61F0103A800F064FE4246634903A806F0ADFE00943C232E227021022000F0E8FE2E21022000F026FE80224FF61F0103A8F4
:400E000000F04EFE3A46594903A806F097FE00944B233D227021022000F0D2FE3D21022000F010FE80224FF61F0103A800F038FE32464F4903A806F081FE00941E231022BD
:400E40003821392000F0BCFE1021392000F0FAFD80224FF61F0103A800F022FE2A46454903A806F06BFE00942D231F223821392000F0A6FE1F21392000F0E4FD80224FF61F
:400E80001F0103A800F00CFE9DF82520C2F38017C2F3C00602F00305D209374903A806F04DFE00943C232E227021392000F088FE2E21392000F0C6FD80224FF61F0103A8DB
:400EC00000F0EEFD3A462D4903A806F037FE00944B233D227021392000F072FE3D21392000F0B0FD80224FF61F0103A800F0D8FD0022234903A806F021FE1021702000F0D6
:400F0000A1FD80224FF61F0103A800F0C9FD32461C4903A806F012FE1F21702000F092FD80224FF61F0103A800F0BAFD2A46164903A806F003FE00943C232E2270210846E2
:400F400000F03EFE2E21702000F07CFD80224FF61F0103A800F0A4FD0BB0BDE8F08300BF5C880810648808106C880810748808107C8808108888081090880810988808105C
:400F8000A0880810A8880810B08808102DE9F84F204B1B68002B3BD11F4F4FF00808C7F808801E4E8024B460DFF878A04FF0040BCAF808B0DFF87090C9F80840184DA88A81
:400FC00005F094F8CAF804B0C9F80440C7F804807460A88A05F08AF8C7F80880B4604FF0400BC9F808B0AAF5207A2023CAF80830A88A05F07BF8C9F804B02023CAF8043019
:40100000C7F804807460AB69002B01DD014A1360BDE8F88F0C43020800033240800332401067020800053240000632400138092806D8DFE800F00A0F14191D2125292D3130
:401040004FF0FF32194B9A6129E04FF47A72174B9A6124E04FF4FA72144B9A611FE040F24D12124B9A611AE0FA22104B9A6116E0C8220E4B9A6112E0A7220C4B9A610EE07C
:401080008F220A4B9A610AE07D22084B9A6106E06F22064B9A6102E06422044B9A61034B9B69002B01DD024A13607047106702080C4302080138092806D8DFE800F0090E22
:4010C00013181D22272C313600221A4B5A6170474FF49672174B5A6170474FF4C872154B5A6170474FF4FA72124B5A6170474FF41672104B5A6170474FF42F720D4B5A6158
:4011000070474FF448720B4B5A6170474FF46172084B5A6170474FF47A72064B5A61704740F24C42034B5A6170474FF49662014B5A6170471067020838B568B900F046FE2A
:4011400000212D4BC3F8CC12062000F0ABFD4FF0FF322A4B9A6138BD044600F023FE0121062000F09FFD254DA86BFFF7A3FF286BFFF75CFF601E092839D8DFE800F0050AF4
:401180000F14191E23282D3201221B4BC3F8CC2238BD0822184BC3F8CC2238BD1522164BC3F8CC2238BD2122134BC3F8CC2238BD2D22114BC3F8CC2238BD3A220E4BC3F8AB
:4011C000CC2238BD47220C4BC3F8CC2238BD5322094BC3F8CC2238BD7C22074BC3F8CC2238BD40F22E22044BC3F8CC2238BD0022014BC3F8CC2238BD000039401067020844
:40120000164B5B6C012B0AD0022B17D0134B9B6C002B21DD114A01215164136170470F4B1B695BB90D4A02235364936CC3F164031361002B02DA0022084B1A61074B9B6C7E
:401240001BB90022054B5A647047044A12691AB9024A012151641361704700BF1067020808B5002810DD322303FB00F00A4B83FB0023C017C0EBA3003230084B9864012186
:40128000032000F00FFD08BD0021044B9964032000F008FD08BD00BF676666661067020808B5034620B90021094AC2F80C1104E040F20111064AC2F80C1123B9002102208F
:4012C00000F0F0FC08BD0121022000F0EBFC08BD0000384008B50238052817D8DFE800F00307160B0F130846FFF7DAFF08BD0846FFF7B6FF08BD0846FFF798FE08BD084651
:40130000FFF71AFF08BD0846FFF7D4FE08BD00BF10B50446FFF774FFFFF738FE594BDB6C012B31D0022B57D04FF6FF7000F0A8FA544C226D544B03EB8203D3F8A801FFF73E
:4013400093FB236D2BB9514A51495248FFF7A4FB14E0082B05D1504A50495148FFF79CFB0CE0092B05D14F4802460146FFF794FB04E0464A4A494748FFF78EFBFFF7E6FB24
:401380000122404BDA6410BD3E4C206D04EB8003DA69013A0721FFF767FC206D04EB8003DA693A21FFF760FC206D04EB8003DA6901326D21FFF758FC206D092802D1FFF729
:4013C000CBFC05E02F4B03EB8003D969FFF782FF02222C4BDA6410BD2368EBB100232360284B1B6DA3F10802012A04D8254B00221A65DA6410BD234A02EB8302D2692249E9
:4014000051F823108A4207DD1E4901EB8303013ADA610123CB6410BD636893B100236360184B1B6D002B03DD0022164B1A6504E0144A02EB8303DB6913650022114BDA64F7
:4014400010BDA368E3B10023A3600E4B1B6DA3F10802012A04D80B4B00221A65DA6410BD9A0008491144C96907480244926A914206DA044A02EB83030131D9610123D36414
:4014800010BD00BF1067020834860810B8880810BC880810C4880810C8880810D0880810D8880810E088081010B584B000243FE03A4B03EB84035B6D022B1FD0032B2CD021
:4014C000012B10D004AB03EB840353F80C3C73BB324B03EB840301225A651A6632225A6000F00EFC23E02D4B03EB84035B68F3B92A4B03EB840302225A6518E004AB03EBDE
:40150000840353F80C3C012B11D1244B03EB840303225A6532225A6009E0204B03EB84035B6823B91D4B03EB840300225A650134022CBDDD194BDB6E012B1DD0022B24D0A3
:401540001BB11748FFF7E4FE25E000F095FB4FF6FF7000F095F9002208E0930011491944D1F8D0110D480344D9610132092AF4DD01220A4BDA660EE0FFF75CFA074B40F62C
:40158000B8321A600222DA6605E0044B1B6813B90A22024BDA6604B010BD00BF106702087067020834860810044B1B78022B04D0002300E00133002BFCD070475180020810
:4015C00008B504F07BFD08BD0078704708B5C820FFF7F6FFC820FFF7F3FF08BD10B5064C00220649204604F067FB236843F00043236062B610BD00BF00006340E8120B1085
:4016000008B50146224B1B6A002B06DA204B0022C3F8002FD3F8003F05E01D4B0022C3F8402FD3F8403F1A487322C0F8802FD0F8802FD0F8042242F48032C0F80422D0F8F4
:40164000042222F48032C0F80422D0F804226D22C0F8C02FD0F8C02FD0F8042342F48032C0F80423D0F8042322F48032C0F80423D0F8042304F016FA054BD3F80833C3F378
:401680000803002BF8D0024BD3F84003C0B208BD0000634008B50146224B1B6A002B06DA204B0022C3F8002FD3F8003F05E01D4B0022C3F8402FD3F8403F1A487322C0F8E3
:4016C000802FD0F8802FD0F8042242F48032C0F80422D0F8042222F48032C0F80422D0F804226D22C0F8C02FD0F8C02FD0F8042342F48032C0F80423D0F8042322F4803234
:40170000C0F80423D0F8042304F0CCF9054BD3F80833C3F30803002BF8D0024BD3F84003C0B208BD0000634000B583B0294B1B6A002B06DA274B0022C3F8002FD3F8003F6F
:4017400005E0244B0022C3F8402FD3F8403F214B7322C3F8802FD3F8802FD3F8042242F48032C3F80422D3F8042222F48032C3F80422D3F804226D22C3F8C02FD3F8C02F62
:40178000D3F8042342F48032C3F80423D3F8042322F48032C3F80423D3F80423020A8DF804208DF80500022201A9184604F0AAF9084BD3F80833C3F30803012BF8DD054B72
:4017C000D3F840238DF80420D3F84033002003B05DF804FB00006340884226D89F2926D89A4226D8672B26D8F8B5C1F1A004E4B2C0F1A005EDB2C3F16906F6B2C2F1690796
:40180000FFB22A20FFF7FCFE2046FFF78DFF2846FFF78AFF2B20FFF7F3FE3046FFF784FF3846FFF781FF0020F8BD0120704701207047012070470120704700BF70B506466E
:401840000D462C20FFF7DCFE03E03046FFF76CFF25466B1E9CB2002DF7D170BD10B514460B460A460146FFF7B7FF01212046FFF7E5FF10BD08B52920FFF7C2FE08BD00BFB9
:4018800010B50446672300229F211046FFF7A4FF4FF482412046FFF7D1FF10BD2DE9F84F07460E4612B32DE0A7F1200000EB80004044624B1844FFF787FE054608230FE05F
:4018C00045FA04F313F0010F09D05D4B19782144987840443246C9B2C0B2FFF7BFFF23465C1EE4B2002BEBD1434600E0052303F1FF385FFA88F8002BD6D1514A5388063305
:40190000538097E0802A3ED133E0A7F1200303EB83032B4449481844FFF756FE8046082321E048FA04F313F0010F1BD061005FFA81FADFF80C9199F80010514499F8020021
:4019400028443246C9B2C0B2FFF788FF99F800105144013199F8020028443246C9B2C0B2FFF77CFF23465C1EE4B2002BD9D12B4600E005235D1EEDB2002BC6D1304A5388E4
:401980000633538056E0812A54D148E0A7F1200303EB83034B4429481844FFF715FE8046082336E048FA05F313F0010F30D04FEA490A5FFA8AFA4FEA450B5FFA8BFB204CC8
:4019C00021785944A07850443246C9B2C0B2FFF745FF217859440131A07850443246C9B2C0B2FFF73BFF21785944A078504401303246C9B2C0B2FFF731FF217859440131B7
:401A0000A078504401303246C9B2C0B2FFF726FF2B465D1EEDB2002BC4D14B4600E0052303F1FF395FFA89F9002BAFD1044A53880B3353800020BDE8F88F00BF108C0810BA
:401A400080670208A02801D968290ED8A02807D9682905D8064B198002225A8000207047034B19805880002070470120704700BF80670208A02801D9914209D8A02809D969
:401A8000914209D8054B198002225A8000207047012070470020704700207047806702082DE9F041064688461446002518E00F4904F00F008B781844053022090832097890
:401AC0001144C2F168022346D2B2C9B2C0B2FFF7D1FF28B90135224641463878FFF7DEFE7719735D002BE2D1BDE8F081806702082DE9F04F83B005468B4614469A46BDF874
:401B000030300193091A89B20FB2C2EB0A0292B213B2002F04DA4F423FB24FF0FF3901E04FF00109002B04DA53421BB24FF0FF3801E04FF001089F421FDD1FFA83FABFB2B2
:401B4000C7EB4A0636B2019A21462846FFF786FE10E04D44EDB2002E04DB4444E4B2A6EB470636B206EB4A0636B2019A21462846FFF774FE5D45ECD11EE01FFA83FBBFB21A
:401B8000ABEB470636B2019A21462846FFF766FE10E04444E4B2002E04DC4D44EDB206EB4B0636B2A6EB470636B2019A21462846FFF754FE5445ECD1012003B0BDE8F08F4E
:401BC000F8B507460D4616461C46884201D90F460546A64202D9334626461C462346324629463846FFF7F8FDE91B0131A41B013411FB04F189B2BDF81800FFF71FFEF8BDD8
:401C000010B503E00120FFF7DBFC2046431EDCB20028F7D110BD00BF2DE9F843451CFFF7D3FC20E06F1C2846FFF7CEFC0646AC1C3846FFF7C9FC814620460335FFF7C4FCA5
:401C4000FFF7DEFC07E06F1C2846FFF7BDFCFFF721FD26463D46731EDCB2002EF3D14846FFF7CEFF404600F1FF385FFA88F80028D8D1BDE8F88300BF08B5FFF7AFFCFFF715
:401C8000A5FC0248FFF7C8FF08BD00BFF08D0810034B1B6813B1013B014A1360704700BF8467020841B9012303FA00F0064A536823EA000353607047012303FA00F0024B7B
:401CC0005A681043586070478467020808B54FF4FA62084B1A6003F055FABF22064BC3F84C21064800F02CFA01211F20FFF7DAFF08BD00BF8467020800003940108E08106A
:401D00004FF4FA62034B1A60BF22034BC3F84C21704700BF8467020800003940704700BF70B504460E46154600F0EEF800216B2000F088F9204600F0F7F801216B2000F098
:401D40002BF9002404E0012000F088F9305501346B1E9C42F7DB1D46002000F07FF9705500F0A8F870BD00BF08B50146002008604860C1F807000B22FFF7D2FF08BD00BF1A
:401D800038B505460C4600F0BFF800216B2000F059F9284600F0C8F8204600F0C5F800F089F838BD00B583B001220DF107011046FFF7B6FF9DF8071041F020018DF80710C1
:401DC0000120FFF7DDFF03B05DF804FB00B583B001220DF107011046FFF7A2FF9DF8071001F0DF018DF807100120FFF7C9FF03B05DF804FB024B1869C0F30010704700BFE5
:401E000000033240024B1869C0F34010704700BF0003324010B50446012804D94FF44A71054804F06FF91CB91022044B5A6010BD1022024B9A6010BD208E08100003324057
:401E400010B50446012804D94FF44A71054804F059F91CB92022044B5A6010BD2022024B9A6010BD208E08100003324010B5002407E0FFF7BFFF012807D0012004F036F976
:401E80000134312CF5DD012010BD002010BD00BF10B5002407E0FFF7B5FF012807D0012004F024F90134312CF5DD012010BD002010BD00BF08B5082004F018F90020FFF77A
:401EC000A9FF082004F012F90020FFF7B9FF082004F00CF90120FFF79DFFFFF7C7FF01280FD0082004F002F90120FFF7A9FFFFF7CFFF012805D0082004F0F8F80020014B9D
:401F0000186008BD8C67020808B50120FFF798FF0120FFF77FFF042004F0E8F80020014B186008BD8C67020838B50546002415E0C5F3C010FFF784FF042004F0D7F801206F
:401F4000FFF768FFFFF792FF012823D0042004F0CDF80020FFF75EFF6D000134072CE7DD0120FFF76DFF042004F0C0F80120FFF751FF042004F0BAF8FFF744FF0446002051
:401F8000FFF748FF2CB1FFF795FFFFF7BDFF204638BD204638BD00BF38B50D4601F0010343EA4000C4B20120FFF74AFFFFF770FF012844D0082004F099F80120FFF72AFF4F
:401FC000FFF754FF01283AD0082004F08FF80020FFF736FFFFF716FF38B10120FFF71AFF0120FFF72DFF012038BD082004F07EF80020FFF70FFFFFF7FDFE38B10120FFF753
:4020000009FF0120FFF71CFF012038BD082004F06DF801220A4B1A602046FFF785FF044628B1FFF747FFFFF76FFF204638BD1DB90222034B1A6038BD0322014B1A6038BD48
:402040008C67020808B5044B1B6813B9FFF7A4FF08BD012008BD00BF8C67020870B506460120FFF7EDFE0024254614E0042004F03DF80120FFF7CEFEFFF7F8FE012821D0DC
:40208000042004F033F86400FFF7BCFE04430020FFF7C0FE0135072DE8DD1EB10020FFF7CFFE02E00120FFF7CBFE042004F01EF80120FFF7AFFE042004F018F80020FFF7DB
:4020C000A9FE204670BD00BF10B50446012804D94FF44A71054804F015F81CB94022044B5A6010BD4022024B9A6010BD208E08100003324038B505460020FFF7E5FF652011
:4021000003F0F4FF002408E005F00100FFF7DCFF6D10652003F0EAFF0134072CF4DD0120FFF7D2FF652003F0E1FF38BD014B1844704700BF608E081008B5FFF7DBFF08BD24
:402140000FB470B598B0012498E0252805D0FFF7F3FF1C9B01331C9390E05A1C1C925B78732B0FD1651C1CAB53F8244002E0FFF7E3FF013420780028F9D11C9B01331C93FF
:402180002C467BE0642B32D1661C1CAB53F82450002D03DA2D20FFF7CFFF6D420022541C3B4B83FB0531EB17C3EBA103194603EB830358002B1A18A800EB820242F8603C59
:4021C0000D4622460029EAD10AE0013C18AB03EB840353F8600CFFF7A9FF0078FFF7ACFF002CF2D11C9B01331C93344646E0632B0AD1651C1CAB13F82400FFF79DFF1C9B21
:4022000001331C932C4639E0782B36D1651C1CAB53F82430002200E02246541C03F00F0018A901EB820141F8600C1B09F4D114F0010F06D018AB03EB8404002344F8603CE7
:40224000941C012C12D818AB03EB8403002243F8602C01340AE0013C18AB03EB840353F8600CFFF763FF0078FFF766FF002CF2D11C9B01331C932C4600E022B11C9B18780B
:4022800000287FF462AF18B0BDE8704004B070476766666610B582B004468DF8071043691046984720B10948FFF74AFF01200BE0A36801210DF10700984720B10448FFF702
:4022C0003FFF012000E0002002B010BD34A6081048A6081070B504460D46164642691846904720B10848FFF72BFF012070BDA36831462846984720B10448FFF721FF012058
:4023000070BD002070BD00BF5CA6081068A60810F0B583B005460C4616461F4600222A21FFF7B8FF20B16B6A5048984701239AE0230A8DF80430E4B28DF805408DF8063018
:402340008DF80740012304220DEB02012846FFF7C1FF20B16B6A46489847012383E000222B212846FFF796FF20B16B6A3F489847012378E0330A8DF80430F6B28DF8056017
:402380008DF806308DF80760012304220DEB02012846FFF79FFF20B16B6A35489847012361E000222C212846FFF774FF20B16B6A2E489847012356E095F8323003F0030246
:4023C000032A18D13A0AC7F3031343EA021385F833303F0185F834700123022205F133012846FFF777FF034600283CD06B6A20489847012337E003F00502052A12D13B0ABF
:4024000085F8333085F834700123022205F133012846FFF75FFF034628B36B6A14489847012320E003F00603062B18D13B0B9B0085F83330BB099B0085F83430BF0085F8BC
:4024400035700123032205F133012846FFF742FF034640B16B6A06489847012303E06B6A044898470423184603B0F0BD74A6081094A60810B0A608102DE9F04F83B001906C
:40248000009190469DF8307017F0070218BF012202EBD7024FEA570B1BFB02FB5FFA8BFB203B5FFA83FA44464FF000093EE00C2F07D10AEB4A029300214A134413F80960E5
:4024C00012E0102F06D11E4B03EB0A134B4493F8746409E0182F2DD10AEBCA029300184A13444B4493F8646A002519E016F0800F06D00D9B224600990198FFF709FFD8B9F1
:402500007600F6B20134A4B2C8EB0403BB4205D1009B01339BB20093444603E00135EDB2072DE3D909F101095FFA89F9D945BED3002002E0012000E0012003B0BDE8F08FFB
:40254000748E081070B50446436A1148984724B9636A10489847022517E094F82C60012E04D0636A0C48984703250EE0002211212046FFF78FFE054620B1636A0748984769
:40258000354602E0A36AC8209847284670BD00BFCCA60810D4A6081068A6081074A6081038B578B190F82C50012D0DD1044600221321FFF76FFE034638B1636A04489847C9
:4025C0002B4602E0022300E00323184638BD00BF74A6081038B578B190F82C50012D0DD1044600222121FFF755FE034638B1636A044898472B4602E0022300E003231846F6
:4026000038BD00BF74A60810E8B170B590F82C50012D1BD104460E4600222621FFF73AFE20B1636A0B4898472B4610E0012206F00F012046FFF72EFE034640B1636A06486C
:4026400098472B4603E00223184670470323184670BD00BF74A6081094A6081038B578B190F82C50012D0DD1044600222921FFF711FE034638B1636A044898472B4602E09B
:40268000022300E00323184638BD00BF74A60810E0B170B590F82C50012D1AD104460E4600223621FFF7F6FD20B1636A0A4898472B460FE0012231462046FFF7EBFD034682
:4026C00040B1636A054898472B4603E00223184670470323184670BD74A6081094A6081038B578B190F82C50012D0DD1044600223821FFF7CFFD034638B1636A0448984756
:402700002B4602E0022300E00323184638BD00BF74A60810F8B500B390F82C40012C1ED1054617460E4600223A21FFF7B3FD18B16B6A0C48984713E047EA0612D6B2012290
:4027400031462846FFF7A6FD18B16B6A0648984706E085F83260044602E0022400E003242046F8BD74A6081094A60810E0B170B590F82C50012D1AD104460E46002251211E
:40278000FFF788FD20B1636A0A4898472B460FE0012231462046FFF77DFD034640B1636A054898472B4603E00223184670470323184670BD74A6081094A6081028B32DE918
:4027C000F041044690F82C50012D21D11F461646884600225321FFF75DFD20B1636A0E4898472B4615E0F20042EA481141EA8701012201F0FC012046FFF74CFD034640B172
:40280000636A064898472B4603E002231846704703231846BDE8F08174A6081094A6081020B32DE9F041044690F82C50012D20D11E461746884600225521FFF72BFD20B155
:40284000636A0E4898472B4614E0330143EAC81343EA07010122C9B22046FFF71BFD034640B1636A064898472B4603E002231846704703231846BDE8F08100BF74A6081021
:4028800094A60810E0B170B590F82C50012D1AD104460E4600225E21FFF7FCFC20B1636A0A4898472B460FE0012231462046FFF7F1FC034640B1636A054898472B4603E02D
:4028C0000223184670470323184670BD74A6081094A6081098B32DE9F04182B0044690F82C50012D2ED1984616460F460022B021FFF7D0FC20B1636A154898472B4622E099
:4029000046EA07128DF804209DF82030DB0043EA08139DF8248043EA88039DF8282013438DF805300123022201A92046FFF7D2FC034640B1636A074898472B4603E00223F5
:40294000184670470323184602B0BDE8F08100BF74A6081094A608102DE9F04782B09DF834709DF83880002848D0044690F82C50012D45D1994616468A4617F0800F04D067
:40298000436A2248984704233BE0B8F11F0F04D9436A1F489847052333E00022B121FFF779FC20B1636A1B4898472B4629E0720142EACA1242EAC9039DF8282043EA820342
:4029C0009DF82C2043EA42039DF8302013438DF8043007F07F078DF8057008F01F088DF806800123032201A92046FFF773FC034638B1636A084898472B4602E0022300E0AB
:402A00000323184602B0BDE8F08700BF24A708103CA7081074A6081094A608102DE9F04F85B09DF838809DF83C909DF840A09DF844B0002862D0044690F82C50012D5FD1E7
:402A4000019317460E4611F0800F04D0436A2F489847042355E012F0800F04D0436A2C48984705234DE0B8F10F0F04D9436A29489847062345E0B9F10F0F04D9436A2648E5
:402A8000984707233DE0BAF10F0F04D9436A23489847082335E0BBF10F0F04D9436A2048984709232DE00022B221FFF7F3FB20B1636A1C4898472B4623E08DF808608DF89F
:402AC00009709DF804308DF80A3009F00F0949EA08188DF80B800BF00F0B4BEA0A1A8DF80CA00123052202A92046FFF7F3FB034638B1636A0C4898472B4602E0022300E0F8
:402B00000323184605B0BDE8F08F00BF54A7081078A708109CA70810BCA70810E0A7081004A8081074A6081094A608102DE9F04782B09DF828709DF8308000283FD0044600
:402B400090F82C50012D3CD1994616468A461F2F04D9436A1D489847042333E0B8F11F0F04D9436A1A48984705232BE00022B321FFF790FB20B1636A164898472B4621E01C
:402B800046EA0A128DF8042007F01F0747EA49198DF8059008F01F089DF82C3048EA43138DF806300123032201A92046FFF792FB034638B1636A084898472B4602E0022381
:402BC00000E00323184602B0BDE8F08728A808104CA8081074A6081094A6081020B32DE9F041044690F82C50012D20D11F46164688460022B521FFF74DFB20B1636A0E48EB
:402C000098472B4614E0320142EAC81242EA07010122C9B22046FFF73DFB034640B1636A064898472B4603E002231846704703231846BDE8F08100BF74A6081094A6081012
:402C4000F8B5F0B190F82C50012D1CD1044616460F460022B721FFF71DFB20B1636A0B4898472B4610E046EA07110122C9B22046FFF710FB034638B1636A054898472B46CA
:402C800002E0022300E003231846F8BD74A6081094A60810002847D02DE9F04182B0044690F82C50012D42D1984617460E463F2904D9436A20489847042339E00F2A04D90B
:402CC000436A1E489847052332E00F2B04D9436A1B48984706232BE00022B821FFF7DAFA20B1636A174898472B4621E02A238DF804302B238DF8053006F03F018DF806107C
:402D000008F00F0343EA07128DF80720012304220DEB02012046FFF7DDFA034640B1636A094898472B4603E00223184670470323184602B0BDE8F08170A808109CA8081082
:402D4000CCA8081074A6081094A60810F0B170B590F82C50012D1CD104460E460022BA21FFF798FA20B1636A0B4898472B4611E0B100012201F0FC012046FFF78BFA03461D
:402D800040B1636A054898472B4603E00223184670470323184670BD74A6081094A6081020B370B590F82C50012D22D104460E463F2904D9436A1048984704231AE000223F
:402DC000BB21FFF767FA20B1636A0C4898472B4610E0012206F03F012046FFF75BFA034640B1636A064898472B4603E00223184670470323184670BDF8A8081074A6081007
:402E000094A60810A0B190F82C30012B12D1DFED0A7A07EE101A77EE677ADFED086A87EEA67AFCEEC77A17EE903A1370002070470220704703207047CDCCCC3DCDCCCC3C2A
:402E400098B32DE9F041044690F82C60012E2FD11F46154688460022C021FFF71BFA20B1636A15489847334623E06A0142EA881242EA07139DF8182043EAC2039DF81C203A
:402E800043EA82039DF8201043EA41039DF8241019430122C9B22046FFF7FCF9034640B1636A06489847334603E002231846704703231846BDE8F08174A6081094A608102E
:402EC00018B370B582B090F82C50012D20D104460E460022C221FFF7DDF920B1636A0E4898472B4615E08DF80460FF238DF805300123022201A92046FFF7ECF9034640B1B3
:402F0000636A064898472B4603E00223184670470323184602B070BD74A6081094A6081020B370B590F82C50012D22D104460E46272904D9436A1048984704231AE0002213
:402F4000C321FFF7A7F920B1636A0C4898472B4610E0012206F03F012046FFF79BF9034640B1636A064898472B4603E00223184670470323184670BD10A9081074A60810E6
:402F800094A60810A0B190F82C30012B12D1DFED0A7A07EE101A77EE677ADFED086A87EEA67AFCEEC77A17EE903A137000207047022070470320704733336340CDCC4C3DC1
:402FC00020B370B590F82C50012D22D104460E463F2904D9436A1048984704231AE00022C421FFF757F920B1636A0C4898472B4610E0012206F03F012046FFF74BF903460B
:4030000040B1636A064898472B4603E00223184670470323184670BD28A9081074A6081094A60810A0B190F82C30012B12D1DFED0A7A07EE101A77EE277ADFED086A87EE8D
:40304000A67AFCEEC77A17EE903A1370002070470220704703207047CDCC4C3FCDCCCC3C20B370B590F82C50012D22D104460E463F2904D9436A1048984704231AE000223D
:40308000C521FFF707F920B1636A0C4898472B4610E0012206F03F012046FFF7FBF8034640B1636A064898472B4603E00223184670470323184670BD40A9081074A60810B4
:4030C00094A60810A0B190F82C30012B12D1DFED0A7A07EE101A77EE277ADFED086A87EEA67AFCEEC77A17EE903A1370002070470220704703207047CDCC4C3FCDCCCC3C26
:40310000F8B5F0B190F82C50012D1CD1044616460F460022C621FFF7BDF820B1636A0B4898472B4610E046EA47110122C9B22046FFF7B0F8034638B1636A054898472B467C
:4031400002E0022300E003231846F8BD74A6081094A6081038B32DE9F041044690F82C50012D23D11F46164688460022C721FFF791F820B1636A0F4898472B4617E0B20003
:4031800042EAC80242EA47039DF8181019430122C9B22046FFF77EF8034640B1636A064898472B4603E002231846704703231846BDE8F08174A6081094A60810E0B170B584
:4031C00090F82C50012D1AD104460E460022CC21FFF760F820B1636A0A4898472B460FE0012231462046FFF755F8034640B1636A054898472B4603E002231846704703235E
:40320000184670BD74A6081094A6081050B32DE9F04182B0044690F82C50012D25D11F46164688460022D021FFF734F820B1636A104898472B4619E0A4238DF804303201DB
:4032400042EA88123A438DF805200123022201A92046FFF73FF8034640B1636A064898472B4603E00223184670470323184602B0BDE8F08174A6081094A6081050B370B522
:4032800082B090F82C50012D27D104460E460022DF21FEF7FFFF20B1636A124898472B461CE05A238DF8043069238DF8053002238DF806308DF80760012304220DEB02012E
:4032C0002046FFF707F8034640B1636A064898472B4603E00223184670470323184602B070BD00BF74A6081094A60810E8B170B590F82C50012D1BD104460E460022E0216E
:40330000FEF7C8FF20B1636A0B4898472B4610E001230E2231462046FEF7DCFF034640B1636A064898472B4603E00223184670470323184670BD00BF74A6081094A60810E9
:40334000E8B170B590F82C50012D1BD104460E460022E121FEF79EFF20B1636A0B4898472B4610E001230E2231462046FEF7B2FF034640B1636A064898472B4603E0022368
:40338000184670470323184670BD00BF74A6081094A60810E8B170B590F82C50012D1BD104460E460022E221FEF774FF20B1636A0B4898472B4610E0012340223146204669
:4033C000FEF788FF034640B1636A064898472B4603E00223184670470323184670BD00BF74A6081094A60810E8B170B590F82C50012D1BD104460E460022E321FEF74AFFBD
:4034000020B1636A0B4898472B4610E00123402231462046FEF75EFF034640B1636A064898472B4603E00223184670470323184670BD00BF74A6081094A6081000283BD0BD
:403440002DE9F04182B0044690F82C50012D36D1984617460E463F2904D9436A1A48984704232DE03F2A04D9436A18489847052326E00022E421FEF70DFF20B1636A1448D8
:4034800098472B461CE08DF804608DF805709DF8203043EA880343F010038DF806300123032201A92046FEF715FF034640B1636A084898472B4603E00223184670470323F3
:4034C000184602B0BDE8F08158A908107CA9081074A6081094A6081040B190F82C30012B06D1C90801391170002070470220704703207047F8B5F0B190F82C50012D1CD171
:40350000044616460F460022E721FEF7C3FE20B1636A0B4898472B4610E046EA07110122C9B22046FEF7B6FE034638B1636A054898472B4602E0022300E003231846F8BDCE
:4035400074A6081094A60810F8B5F0B190F82C50012D1CD1044616460F460022E821FEF799FE20B1636A0B4898472B4610E046EA07110122C9B22046FEF78CFE034638B17A
:40358000636A054898472B4602E0022300E003231846F8BD74A6081094A6081000283CD02DE9F04182B0044690F82C50012D37D1984617460E461F2904D9436A1B48984729
:4035C00004232EE01F2A04D9436A19489847052327E00F2B04D9436A16489847062320E00022E921FEF756FE20B1636A124898472B4616E08DF804608DF805708DF8068089
:403600000123032201A92046FEF764FE034640B1636A0A4898472B4603E00223184670470323184602B0BDE8F08100BFA4A90810CCA90810F4A9081074A6081094A60810DE
:4036400058B370B582B090F82C50012D28D104460E460022FA21FEF71DFE20B1636A124898472B461DE05A238DF8043069238DF80530EE238DF80630B1008DF807100123D4
:4036800004220DEB02012046FEF724FE034640B1636A064898472B4603E00223184670470323184602B070BD74A6081094A6081000287FD010B50446436A002B7DD00268AE
:4036C0001AB93F489847032378E042681AB93D489847032372E082681AB93B48984703236CE0C2681AB939489847032366E0016919B937489847032360E0416919B9354867
:40370000984703235AE0816919B933489847032354E0C16919B93148984703234EE0016A19B92F489847032348E0816A19B92D489847032342E0904720B1636A2A48984732
:4037400005233BE0A369984730B1636A2748984723699847042331E0236A0020984740B1636A2348984723699847E3699847042324E0A36A64209847236A0120984740B139
:40378000636A1B48984723699847E3699847042314E023689847034640B1636A1548984723699847E3699847012307E0012284F82C2003E00223184670470323184610BDA2
:4037C00018AA081034AA081054AA081074AA08109CAA0810C4AA0810ECAA081010AB081034AB081058AB081074AB081098AB0810BCAB0810E0AB081038B548B390F82C40A6
:40380000012C27D1054600221021FEF743FD18B16B6A124898471EE0EB69984720B16B6A0F489847052416E02B69984720B16B6A0C48984706240EE06B68984718B16B6AD9
:403840000948984707E0002285F82C20044602E0022400E00324204638BD00BF74A60810FCAB081020AC081048AC081070B108B590F82C20012A0BD1F02904D9436A054849
:403880009847042008BDC185002008BD02207047032008BD64AC081078B108B590F82C20012A0CD1B1F5A07F04D9436A05489847042008BD0186002008BD0220704703209E
:4038C00008BD00BF7CAC08102DE9F04782B0002800F0068190F82C40012C40F00381054600222A21FEF7D6FC18B16B6A8648984705E100238DF804308DF80530EB8D5A1EDB
:4039000012128DF80620013B8DF80730012304220DEB02012846FEF7DDFC18B16B6A7B489847ECE000222B212846FEF7B3FC18B16B6A75489847E2E000238DF804308DF856
:4039400005302B8E5A1E12128DF80620013B8DF80730012304220DEB02012846FEF7BAFC18B16B6A69489847C9E000222C212846FEF790FC074618B16B6A63489847BEE074
:4039800095F8323003F00302032A33D105F133084FF480520021404603F0D2FF2B8EB5F82E9003FB09F909EB49094FEA593AC9F34B0900260CE001234FF4805241462846B8
:4039C000FEF788FC18B16B6A5048984797E001365645F0D3B9F1000F00F0868001234A4641462846FEF776FC00287FD06B6A4748984784E003F00502052A36D105F13308EF
:403A00004FF480520021404603F09AFF2B8EB5F82E9003FB09F94FEA49094FEA193A29F001094FEA09594FEA195900260CE001234FF4805241462846FEF74CFC18B16B6A7F
:403A4000324898475BE001365645F0D3B9F1000F4ED001234A4641462846FEF73BFC002848D06B6A2948984749E003F00603062B31D105F133094FF480520021484603F0CB
:403A80005FFF2B8EB5F82E8003FB08F808EB48084FEA183AC8F30B0800260CE001234FF4805249462846FEF715FC18B16B6A1748984724E001365645F0D3B8F1000F1BD094
:403AC0000123424649462846FEF704FCB0B16B6A0E48984713E06B6A0D48984704240EE002240CE003240AE03C4608E0044606E03C4604E0044602E03C4600E0044620464A
:403B000002B0BDE8F08700BF74A6081094A60810B0A608102DE9F04782B0BDF82880002800F06D81054690F82C40012C40F06981994617460E46C38D013B994204DD436A19
:403B4000B548984704247CE14B4504DA436AB3489847052475E1494504D3436AB048984706246EE1038E013B9A4204DD436AAD489847072465E1434504DA436AAA489847AE
:403B800008245EE1424504D3436AA8489847092457E100222A21FEF77DFB18B16B6AA44898474EE1330A8DF804308DF805604FEA19238DF806308DF80790012304220DEB7B
:403BC00002012846FEF786FB18B16B6A9948984737E100222B212846FEF75CFB18B16B6A934898472DE13B0A8DF804308DF805704FEA18238DF806308DF80780012304225D
:403C00000DEB02012846FEF765FB18B16B6A8948984716E100222C212846FEF73BFB824618B16B6A824898470BE195F8323003F00302032A4FD11AE00B9BC3F30723A8180A
:403C40000B99C1F3031141EA031180F83310501C9DF82C10284403F00F0343EA011380F83330931C2B4483F83310033200E00022B2F5805FE0D3C6EB0903C7EB0802561CDD
:403C800003FB066606EB46064FEA5638C6F34B0600270DE001234FF4805205F133012846FEF718FB18B16B6A62489847C9E001374745EFD3002E00F0A6800123324605F173
:403CC00033012846FEF706FB002800F09E806B6A58489847B5E003F00502052A40D10CE00B9A110AEA1882F833105A1C2A449DF82C1082F83310023300E00023B3F5805F37
:403D0000EED3C6EB0903C7EB0802561C03FB066676004FEA163826F001063605360D00270DE001234FF4805205F133012846FEF7D1FA18B16B6A3F48984782E00137474506
:403D4000EFD3002E63D00123324605F133012846FEF7C0FA00285CD06B6A3648984770E003F00603062B45D114E00B9A120BE918920081F833205A1C0B9989092A4489006C
:403D800082F833109A1C2A440B99890082F83310033300E00023B3F5805FE6D3C6EB0903C7EB0802561C03FB066606EB46064FEA1638C6F30B0600270DE001234FF480528F
:403DC00005F133012846FEF785FA18B16B6A1948984736E001374745EFD37EB30123324605F133012846FEF775FA48B36B6A1148984726E06B6A10489847042421E002240B
:403E00001FE003241DE054461BE0044619E0544617E0044615E000BF90AC0810B0AC0810D0AC0810E8AC081004AD081024AD081074A6081094A60810B0A60810544600E0D2
:403E40000446204602B0BDE8F08700BF2DE9F04F85B0BDF83890002800F0F880054690F82C40012C40F0F4801F4690460E46C38D013B994204DD436A794898470424EAE048
:403E8000BB4204DA436A774898470524E3E0B94204D3436A744898470624DCE0038E013B9A4204DD436A714898470724D3E04B4504DA436A6E4898470824CCE04A4504D355
:403EC000436A6C4898470924C5E000222A21FEF7E1F918B16B6A68489847BCE0330A8DF80C308DF80D603B0A8DF80E308DF80F700123042203A92846FEF7ECF918B16B6AD3
:403F00005E489847A7E000222B212846FEF7C2F918B16B6A584898479DE04FEA18238DF80C308DF80D804FEA19238DF80E308DF80F900123042203A92846FEF7CBF918B1C6
:403F40006B6A4E48984786E000222C212846FEF7A1F9019018B16B6A474898477BE095F8323003F00503052B6BD1C6EB070A0AF1010A1FFA8AFAC8EB090B0BF1010B1FFA8A
:403F80008BFBBF1BC8EB090808F1010607FB066676004FEA163926F001063605360D0027B84626E0B7FBFAF20AFB127303FB0B230F9A32F813206B18100A83F833004B1C9F
:403FC0002B4483F833200137023100E00021B1F5805FE7D301234FF4805205F133012846FEF778F918B16B6A2448984733E008F10108C845EAD3AEB9019C2CE0B7FBFAF22C
:404000000AFB127303FB0B230F9A32F813206B18100A83F833004B1C2B4483F833200137023100E00021B142E8D30123324605F133012846FEF74EF960B16B6A0F4898472F
:4040400009E06B6A0E489847042404E0022402E0032400E00446204605B0BDE8F08F00BF90AC0810B0AC0810D0AC0810E8AC081004AD081024AD081074A6081094A60810AC
:40408000B0A608102DE9F04F83B0BDF830809DF8389020B92B48FEF753F802274EE00D4616469B46044690F82C70012F04D02648FEF746F8032741E0C38D8B4202D9038EEE
:4040C00093422ED82148FEF73BF8636A20489847042733E0E28D4FEA590ACAEB0202954202DB4E44B6B20025228EC9EB0202964201DB002635460D9A0192CDF800903246A7
:4041000029462046FEF7B8F918B11248FEF718F814E05544ADB20BF1010B08F1FF381FFA88F8B8F1000F05D09BF800307E2B01D81F2BCFD80848FEF703F80027384603B0C4
:40414000BDE8F08F5CA6081068A608103CAD081048AD081068AD081074AD0810C8B110B5044690F82C00012815D1E08D884204D8636A0A489847042010BD208E904204D8BE
:40418000636A07489847052010BD2046FEF7C0F810BD02207047032010BD00BF80AD08109CAD081020B310B504466022002103F0C7FB20220F49204603F0F4FC20220E494E
:4041C000A01803F0EFFC08220C4904F1400003F0E9FC0B4BA3640B4BE3640B4B23650B4BA3650B4B63654FF47A73E365002010BD02207047B8AD0810C8AD0810D4AD081068
:404200009A991940333353400000F0400000AA420000F0C110B5064C00220649204601F04BFD236843F00043236062B6002010BD00006340E8120B100020704738B50446B6
:404240000D46294B1B6A002B06DA274B0022C3F8002FD3F8003F05E0234B0022C3F8402FD3F8403F204B7322C3F8802FD3F8802FD3F8042242F48032C3F80422D3F80422E7
:4042800022F48032C3F80422D3F804226D22C3F8C02FD3F8C02FD3F8042342F48032C3F80423D3F8042322F48032C3F80423D3F8043304B125B94FF4B8610C4801F022FFC2
:4042C0002A462146084801F01DFCC0B2B0FA80F04009054BD3F80833C3F30803002BF8D0014BD3F8403338BD00006340D8AD081000E01846431E0028FBD170470FB404B02E
:40430000704700BF00207047002070470020704700207047002070470020704730B5BDB0B04B93E803000E908DF83C10AE4B93E803000C90ADF83410090C8DF83610AB4BF1
:4043400093E803000A90ADF82C10090C8DF82E10A74A07AB07CA03C31A70A64C41F23C020021204603F0ECFAA34B2360A34B6360A34BA360A34BE360A34B2361A34B63617D
:40438000A34BA361A34BE361A34B2362A34BA362A34B636210A8FFF705FF28B1A148FFF7ADFF012000F04DBE10A99F48FFF7A6FF18A99E48FFF7A2FF20A99D48FFF79EFFD4
:4043C000279A9C49A1FB02318B094FF47A7000FB1323994AA2FB0332520989099748FFF78DFF229803F032FA02460B469448FFF785FF239803F02AFA02460B469148FFF751
:404400007DFF249803F022FA02460B468E48FFF775FF269803F01AFA02460B468B48FFF76DFF259803F012FA02460B468848FFF765FF8848FFF762FF6E48FFF739F928B16C
:404440008548FFF75BFF012000F0FBBDF0216948FFF70CFA40B18148FFF750FF6548FFF7CBF9012000F0EDBD4FF4A0716148FFF713FA40B17A48FFF741FF5E48FFF7BCF93D
:40448000012000F0DEBD5B48FEF75CF840B17548FFF734FF5748FFF7AFF9012000F0D1BD5448FEF71DF940B16F48FFF727FF5148FFF7A2F9012000F0C4BD4E48FEF770F897
:4044C00040B16A48FFF71AFF4A48FFF795F9012000F0B7BD4748FEF77DF840B16448FFF70DFF4448FFF788F9012000F0AABD01214048FEF789F840B15E48FFF7FFFE3D482D
:40450000FFF77AF9012000F09CBD00213948FEF7BFF840B15848FFF7F1FE3648FFF76CF9012000F08EBD052206213248FEF7F2F840B15248FFF7E2FE2E48FFF75DF90120C4
:4045400000F07FBDFF212B48FEF710F940B14C48FFF7D4FE2748FFF74FF9012000F071BD00231A4619462348FEF728F940B14548FFF7C4FE1F48FFF73FF9012000F061BDE8
:404580000323012211461B48FEF74AF940B13E48FFF7B4FE1748FFF72FF9012000F051BD00211448FEF76EF940B13848FFF7A6FE1048FFF721F9012000F043BD00210291F4
:4045C000019100910B460A460A48FEF783F9002860D02F48FFF792FE0648FFF70DF9012000F02FBD74100B107C100B1084100B108C100B10906702081542081039420810E9
:404600003D42081005430810094308100D430810114308101543081019430810F1420810FD4208105C060B1078060B1090060B10B0060B10D34D62101F85EB51CC060B10CE
:40464000F0060B1018070B1040070B1064070B1088070B10AC070B10CC070B10E4070B1000080B101C080B1038080B1058080B1080080B10A8080B10C4080B10F4080B10F7
:4046800020090B1048090B1070090B10B0090B10E0090B10142304930223039300210291019100910B460A46A948FEF755F940B1A848FFF723FEA648FFF79EF8012000F026
:4046C000C0BC0323039302930193009300230C2211469F48FEF7A2F940B19F48FFF70EFE9B48FFF789F8012000F0ABBC0F2302930021019100930B460A469548FEF716FA6B
:4047000040B19648FFF7FAFD9148FFF775F8012000F097BC00231A4619468D48FEF75EFA40B18F48FFF7EAFD8948FFF765F8012000F087BC022207218548FEF781FA40B182
:404740008848FFF7DBFD8248FFF756F8012000F078BC0523072222217D48FEF79BFA40B18148FFF7CBFD7A48FFF746F8012000F068BC01217648FEF7E9FA40B17B48FFF760
:40478000BDFD7348FFF738F8012000F05ABC0DF1EF0277496E48FEF735FB40B17548FFF7ADFD6B48FFF728F8012000F04ABC9DF8EF106748FEF7F4FA40B16F48FFF79EFD20
:4047C0006348FFF719F8012000F03BBC0021039102910122019200920B465D48FEF730FB40B16648FFF78AFD5948FFF705F8012000F027BC01215648FEF762FB40B160480A
:40480000FFF77CFD5248FEF7F7FF012000F019BC0DF1EF025B494E48FEF7B4FB40B15A48FFF76CFD4A48FEF7E7FF012000F009BC9DF8EF104648FEF773FB38B15348FFF79D
:404840005DFD4348FEF7D8FF0120FAE30DF1EF0200213F48FEF7E6FB38B14D48FFF74EFD3B48FEF7C9FF0120EBE39DF8EF103848FEF7A6FB38B14748FFF740FD3448FEF768
:40488000BBFF0120DDE30DF1EF0200213048FEF719FC38B14048FFF731FD2D48FEF7ACFF0120CEE39DF8EF102948FEF7D9FB38B13A48FFF723FD2648FEF79EFF0120C0E33C
:4048C0000F2200212248FEF71BFC38B13448FFF715FD1F48FEF790FF0120B2E3002100910B460A461A48FEF735FC38B12D48FFF705FD1748FEF780FF0120A2E302211448B9
:40490000FEF75CFC38B12848FFF7F8FC1048FEF773FF012095E30123022211460C48FEF775FC38B12148FFF7E9FC0948FEF764FF012086E300210648FEF7A0FC002839D0A5
:404940001B48FFF7DBFC0248FEF756FF012078E390670208040A0B10300A0B104C0A0B10740A0B10A00A0B10C40A0B10F40A0B100000D03F180B0B10440B0B10600B0B106A
:40498000840B0B109A999940A80B0B10D40B0B10F00B0B101C0C0B10380C0B106C0C0B10900C0B10B00C0B10D40C0B10F80C0B10200D0B10D0238DF8E03004238DF8E130F9
:4049C0000D238DF8E23011228DF8E32013228DF8E4202B228DF8E5203F228DF8E62054228DF8E7204C228DF8E82018228DF8E9208DF8EA300B238DF8EB301F238DF8EC309F
:404A000023238DF8ED3038A9A648FEF76FFC38B1A548FFF773FCA348FEF7EEFE012010E3D0238DF8E03004238DF8E1300C238DF8E23011238DF8E33013238DF8E4302C234F
:404A40008DF8E5303F238DF8E63044238DF8E73051238DF8E8302F238DF8E9301F238DF8EA308DF8EB3020238DF8EC3023238DF8ED3038A98B48FEF763FC78B18B48FFF754
:404A80003DFC8848FEF7B8FE0120DAE23CAA1A44990002F8501C01339BB200E000233F2BF4D928A97F48FEF775FC38B18048FFF725FC7C48FEF7A0FE0120C2E228A97948F3
:404AC000FEF792FC38B17B48FFF718FC7548FEF793FE0120B5E20DF1EF024FF4A0717148FEF7FAFC38B17448FFF708FC6D48FEF783FE0120A5E29DF8EF1000220092134688
:404B00006848FEF79BFC38B16C48FFF7F7FB6548FEF772FE012094E2002211466148FEF7E9FC38B16648FFF7E9FB5E48FEF764FE012086E2032201215A48FEF705FD38B14F
:404B40006048FFF7DBFB5748FEF756FE012078E20823112211465348FEF720FD38B15A48FFF7CCFB4F48FEF747FE012069E200214C48FEF765FD38B15448FFF7BFFB4948A5
:404B8000FEF73AFE01205CE24648FDF767FD38B14F48FFF7B3FB4348FEF72EFE012050E24048FEF791FE38B14A48FFF7A7FB3D48FEF722FE012044E24748FFF79FFB0EA88B
:404BC00002F0E8FF80B20C2302934FF47843019300900EAB002211463248FFF753FA38B13E48FFF78BFB2F48FEF706FE012028E20CA802F0CFFF80B20C2302934FF4FC6343
:404C0000019300900CAB322200212648FFF73AFA38B13248FFF772FB2248FEF7EDFD01200FE20AA802F0B6FF80B20C2302933F23019300900AAB642200211A48FFF722FAC6
:404C400038B12648FFF75AFB1648FEF7D5FD0120F7E107A802F09EFF80B20C2302934FF6FF730193009007AB962200210D48FFF709FA38B11948FFF741FB0A48FEF7BCFD10
:404C80000120DEE14FF47A70FFF732FB0548FEF71BFE28B30F48FFF731FB0248FEF7ACFD0120CEE190670208480D0B107C0D0B10B00D0B10E40D0B101C0E0B104C0E0B10AA
:404CC000680E0B108C0E0B10B40E0B10E00E0B10080F0B10240F0B103C0F0B10540F0B10AA48FFF70BFB0EA802F054FF80B2102302934FF47843019300900EAB00221146ED
:404D0000A348FFF7BFF938B1A248FFF7F7FAA048FEF772FD012094E10CA802F03BFF80B2102302934FF4FC63019300900CAB322200219748FFF7A6F938B19648FFF7DEFA69
:404D40009348FEF759FD01207BE10AA802F022FF80B2102302933F23019300900AAB642200218B48FFF78EF938B18A48FFF7C6FA8748FEF741FD012063E107A802F00AFF1D
:404D800080B2102302934FF6FF730193009007AB962200217E48FFF775F938B17D48FFF7ADFA7B48FEF728FD01204AE14FF47A70FFF79EFA7648FEF787FD38B17648FFF766
:404DC0009DFA7348FEF718FD01203AE17348FFF795FA0EA802F0DEFE80B2182302934FF47843019300900EAB002211466848FFF749F938B16748FFF781FA6548FEF7FCFC76
:404E000001201EE10CA802F0C5FE80B2182302934FF4FC63019300900CAB322200215C48FFF730F938B15B48FFF768FA5848FEF7E3FC012005E10AA802F0ACFE80B2182318
:404E400002933F23019300900AAB642200215048FFF718F938B14F48FFF750FA4C48FEF7CBFC0120EDE007A802F094FE80B2182302934FF6FF730193009007AB9622002183
:404E80004348FFF7FFF838B14248FFF737FA4048FEF7B2FC0120D4E04FF47A70FFF728FA3B48FEF711FD38B13B48FFF727FA3848FEF7A2FC0120C4E03948FFF71FFA4FF4E7
:404EC0007843019364230093002211463048FEF721FE38B13348FFF711FA2D48FEF78CFC0120AEE03F230193C82300936423962200212748FEF70EFE38B12A48FFF7FEF9B2
:404F00002348FEF779FC01209BE04FF40E6301934FF49B730093C8234FF48C7200211C48FEF7F8FD38B11F48FFF7E8F91848FEF763FC012085E04FF47A70FFF7D9F9144887
:404F4000FEF7C2FC38B11448FFF7D8F91048FEF753FC012075E01448FFF7D0F9002430E002F0A2FD10F0010F22D04FF6FF732A4621460748FFF7F2F8D0B10C48FFF7BEF93F
:404F80000348FEF739FC01205BE000BF740F0B1090670208540F0B10240F0B108C0F0B10A40F0B10C00F0B10DC0F0B10F80F0B100135ADB200E00025B5F5A07FD0D3013425
:404FC000A4B2EF2CF7D94FF47A70FFF791F91E48FEF77AFC38B11D48FFF790F91A48FEF70BFC01202DE01A48FFF788F9194B019340F23F130093EF23002211461248FEF7D7
:4050000025FF38B11448FFF779F90F48FEF7F4FB012016E04FF47A70FFF76AF90A48FEF753FC38B10948FFF769F90748FEF7E4FB012006E00948FFF761F90348FEF7DCFBBD
:4050400000203DB030BD00BF90670208240F0B1014100B105CAE08102C100B1054100B1088B108B5094AD062094B1B7833B9104601F0D6FA0122064B1A7000E0002020B9B5
:4050800001F0F0FA08BD0348704708BD10430208CC7702080100160008B501F06FFB08BD08B50249024800F03BFF08BD248002080000634010B5144B1B7883B9134C144AA9
:4050C0001449204600F0F8FD236A23F0406323621149124800F0B8FF01220B4B1A700F4BB3F90030002B08DB590903F01F03012202FA03F30A4A42F82130044A136843F037
:405100000043136010BD00BFD47702080000634024800208E8120B10A1500810A0100B1000E100E008B5084B1B783BB9074A0721074801F0D1F80122034B1A70044B8022D8
:405140009A609A6108BD00BFD57702081C130B100000394008B5084B1B783BB9074A0021074801F0B9F80122034B1A70044B01229A609A6108BD00BFD677020880130B10B8
:405180000000384008B5084B1B783BB9074A0121074801F0A1F80122034B1A70044B02229A609A6108BD00BFD7770208E4130B100000394008B5084B1B783BB9074A0121C0
:4051C000074801F089F80122034B1A70044B02229A609A6108BD00BFD877020848140B100000384008B5084B1B783BB9074A0221074801F071F80122034B1A70044B04229B
:405200009A609A6108BD00BFD9770208AC140B10000038401F4B98422DD00CD840282ED003D8E8B1102828D02FE0802829D0B0F5807F28D029E0184B984228D006D8B0F110
:40524000204F0DD0154B984212D01EE0144B98420AD00133984209D0023B984215D101E0002070470F4870470F4870470F4870474FF4A0007047074870470D4870470D48EE
:4052800070470D487047034870470C4870474FF4A400704706005200010000F0090000A0040000F0010052000200520003005200010050000200500005005200FF00520053
:4052C00038B5124B1B6893F83130012B04D840F2C3110F4800F016FF0C4B1D682A6AB5F8B03013442C46D5F8B420D358002B0BDB084B1868FFF78EFF6B6801229A606368D7
:405300009B68002BFBD138BD034838BD4880020810150B10DC770208020050001A4B186128B102230370FF23437000234380174B1B6893F850202AB300B583B0B3F93830BA
:40534000ADF80030002301931149684600F07CFEBDF90030002B08DB590903F01F03012202FA03F30B4A42F82130084B1B6893F8513023B102220849012000F077FA03B06F
:405380005DF804FB704700BFDC770208488002086147020800E100E01948020808B50248FFF7BCFF08BD00BFF077020838B50B4B1B68D3F8B4301B58002B0DDA0D460446D2
:4053C0000B0C1B0423B140F2D521054800F09AFEA9B26160002038BD024838BD4880020850150B1001008A0038B50368002B01DA002300E0094B73B90D460446C2600B0CA2
:405400001B0423B140F2BB21054800F07BFEA9B2A160002038BD014838BD00BF01008A0050150B1038B504460D4619B99921084800F068FE074B1B68D3F8B4301B59002B5D
:4054400003DAE3682B60002038BD034838BD00BF90150B104880020801008A00254B1B6893F8313083423AD900293AD00B6813F01F0F38D170B50D4604461E4B1B6893F878
:405480003130984204D340F2C3111B4800F03AFE184B1B68186AB3F8B03004FB0304174E34602A68D2080021686802F049FA00212046FFF77BFF346825B940F293310E4808
:4054C00000F020FE2A4600212046FFF78DFF60B900210A4B1868FFF769FF40B970BD084870470748704706487047064870BD054870BD00BF4880020850150B10F477020805
:4055000003018A0001018A0010B504461346B2B9A9B9124B1B6893F83130984204D340F2C3110F4800F0EEFD0C4B1B681A6AB3F8B03004FB03240B4B1C60002010BD43B1A5
:4055400049B1084A51609360111D2046FFF786FF10BD054810BD044810BD00BF4880020850150B10F477020803018A002DE9F0411B4B1B68DC68236883422CD90D464609AD
:40558000A0EB4610012303FA00F819B900F025FE074600E00027124B18680368002B01DA002300E00F4B83B9626852F8263018EA030F05D023EA080342F82630002400E0D2
:4055C000094C0021FFF7F2FE00E0084C25B9384600F007FE00E0064C2046BDE8F08100BFF477020801008A00020188000301880004018A000B4B1B68DB681A6882420CD970
:405600004109A0EB4110012202FA00F05B6853F82130184203D004487047044870470448704700BFF47702080101880004018A0000018800024B1B680BB9014B18607047BB
:40564000007802082DE9F8430446884691461D46089F2C4B1B681BB9B5212B4800F052FD284B1B682C2000FB04F01C18EEB21E50C5F3072363602D0CA560244B1B6893F835
:4056800031309E4204D340F2C311214800F03AFD1E4B1B68196AB3F8B02006FB02162661666893F832309E4204D340F2DF11184800F028FD154B1B681D6A803605EB46153E
:4056C0006561A668330C1B0423B14FF4FF71104800F018FD330C1B0423B140F2FF110C4800F010FDB3B243EA0646AE60C4F81C90C4F820800023A36117B1B7F90030A3812C
:40570000BDE8F88300780208D0150B104880020850150B10F0B58FB0044618B95221274800F0F0FCA369072B03D95621234800F0E9FCE36A1BB95821204800F0E3FC236B88
:405740001BB959211D4800F0DDFC07AD04F114060FCE0FC537682F6002AD26460FCE0FC533682B60164B1B68B3F93620079B1344ADF83030089B0D93A26AE16A0CAD00954D
:405780003B460A98FFF75EFF00210091069B0A460598FFF757FF216B284600F055FCBDF93030002B08DB590903F01F03012202FA03F3044A42F821300FB0F0BDD0150B10B7
:4057C0004880020800E100E0F8B506460F461D4614461AB9FD211F4800F094FC1E4B1B681BB9FE211B4800F08DFC1B4B1B682C2101FB063001FB07314B68012202FA03F314
:405800001B04466802FA06F60269EAB18F69EFB91268002A01DA002200E0104AC2B92288134323600369DC6001238B614D620469330C1B0423B140F2BB21094800F062FC71
:40584000B2B2A2600020F8BD0648F8BD0648F8BD0548F8BDD0150B100078020801008A0050150B1004028A0007028A00F8B505460F4616460E4B1B6823B94FF4AF710D481C
:4058800000F040FC0A4B1B682C2404FB0534236A23B94FF4B171074800F034FCE369B34204D9236A43F826700020F8BD0248F8BD00780208D0150B100A028A0038B5044680
:4058C0000D46074B1B6823B94FF4C871054800F019FC034B1B682C2202FB0434A56238BD00780208D0150B1070B582B000230193044620B940F2D111284800F003FC2369D4
:4059000023B94FF4E971254800F0FCFB636923B940F2D311214800F0F5FB236A23B94FF4EA711E4800F0EEFB6369DD682A0C20D012041A601B682069194B1B68D3F8B430E4
:40594000C358002B15DA01A9FFF76CFD60B9019803681E0CDBB2E269934206D2226A52F8233013B1984700E0002631462069FFF71DFDADB275B16369ADB21D601B68636ABE
:405980001BB198470023636202E0A36A03B198470023A36163691B6802B070BDD0150B104880020810B50446074B1B6823B940F2B111064800F0A6FB034B1B682C2000FB00
:4059C0000430FFF791FF10BD00780208D0150B1010B50446104B1B6823B940F22B210F4800F090FB0C4B1B682C2202FB0434B4F90C30002B0DDB5A0903F01F03012101FA97
:405A000003F32032064941F82230BFF34F8FBFF36F8F002010BD00BF00780208D0150B1000E100E010B504460D4B1B6823B940F24B210C4800F066FB094B1B682C2202FBEA
:405A40000434B4F90C30002B08DB590903F01F03012202FA03F3044A42F82130002010BD00780208D0150B1000E100E010B4D0F8003303F00F03072B06D900230DE0D0F8B5
:405A80004043CC54013300E000239342F7D306E0D0F8404321F8134001339342F8D35DF8044B7047036813F4006F01D0802200E04022D0F80832C3F30803934203D0C0F8E8
:405AC0004012012070470020704700BF10B4D0F8003203F00F03072B06D900230DE0CC5CC0F84042013300E000239342F7D306E031F81340C0F8404201339342F8D35DF805
:405B0000044B704710B51446036813F4006F01D0802200E04022D0F80832C3F30803D31AA34200D81C462246FFF7D0FF204610BD02E0C0F84012013A002AFAD1704700BFE9
:405B400002E0D0F8403301390029FAD1704700BFF8B506460D46036813F4006F01D0802400E04024D6F80832C3F30803E41A6B699C4200D91C46AA692244AA611B1B6B6144
:405B80002F6977B1224639463046FFF79FFFD6F8003203F00F03072B00D9640027442F6105E022464FF6FF713046FFF7C1FF6B69BBB92B6843F002032B60D6F8883F23F051
:405BC000010423F4EE6323F0030323B140F23641044800F097FAC6F8884FEB690BB101209847F8BD10160B10F8B506460D46D0F80843C4F308048B68A34200D21C46EA68BA
:405C00002244EA601B1BAB606F6877B1224639463046FFF72BFFD6F8003303F00F03072B00D9640027446F6003E021463046FFF787FFAB6883B9D6F8C83F23F0010423F4B9
:405C4000366323F00D0323B140F2A631194800F059FAC6F8C84FF8BD326A002A07DA326812F4006F01D0802209E0402207E0326812F4006F01D0802200E0402252089A4208
:405C800016D95C1E336813F4006F01D0802300E040239C4204D34FF42371064800F032FAD6F8043323F0FF02E3B21343C6F80433F8BD00BF10160B10002800F02481F8B5A5
:405CC0000546002900F0218117460C460B78012B03D93F218F4800F015FA6378012B07D9052B05D0022B03D040218A4800F00AFAA378032B03D94121864800F003FA23783E
:405D0000012B07D16368023B0E2B03D94321814800F0F8F9A36933F00F0303D044217D4800F0F0F9A368043B0C2B03D94521794800F0E8F9E368043B0C2B03D94621754807
:405D400000F0E0F96378022B07D0A268E3689A4203D047216F4800F0D5F9636A33F06D0303D049216B4800F0CDF9E36A33F0730303D04A21674800F0C5F9236B33F42063DB
:405D800003D04B21634800F0BDF96378A678052B07D8DFE803F0060305060603022600E00026A368082B04D8E368082B03D9002302E0002300E0012313B14FF4006200E05D
:405DC0000022237F13B14FF4807300E000231A436368013B03F00F03134343F080732B60226A2B6813F4006F01D0802300E040239A4203D35821474800F084F9A26A2B6860
:405E000013F4006F01D0802300E040239A4203D35921404800F076F9237D0BB9012100E000216278052A01D1022300E000230B43E17C09B1102100E000210B43617C09B11C
:405E4000202100E000210B432178012902D14FF0004100E000210B43B60006F00C063343A169090201F470610B43120602F0407213432B62237C13B14FF4807200E0002297
:405E8000A37C13B14FF4007300E000231A43A368013B03F00F031343C5F8003394F82030C5F80433237C13B14FF4807200E00022E368013B03F00F031343C5F8003294F890
:405EC0002830C5F80432636A03F06D03C5F8C83FE36A03F07303C5F8883F236B03F40073C5F8003F236B03F40063C5F8403F0023C5F8C83E5FB118463B60BB61FB60FB614F
:405F0000054B3B62F8BD054870470448F8BD0020F8BD00BF54160B10EFCDAB000140AA0038B504460D46D0F8CC3E13F0010F04D00123C0F8C03ED0F8C03ED4F84C3F13F40E
:405F4000006F0BD02B6843F400632B604FF40063C4F8403FD4F8403F012300E00023D4F8CC2F12F0200F09D02B6843F020032B602023C4F8C03FD4F8C03F0123D4F88C2F13
:405F800012F0400F09D02B6843F040032B604023C4F8803FD4F8803F01231BB1EB690BB104209847D4F8CC3F13F0010F08D029462046FFF719FE0123C4F8C03FD4F8C03F69
:405FC000D4F88C3F13F0010F08D029462046FFF7BFFD0123C4F8803FD4F8803F2B6813F0010F0BD0AB684BB96B693BB92B6823F001032B60EB690BB10220984738BD00BF14
:4060000038B50D4B9A680D4B9A420FD10D46044621B940F237110A4800F074F804F11003064A52F8230042F8235038BD1030054B53F8200038BD00BF00ED00E00040020839
:4060400094160B100000081048B338B504460D464368072B03D93221134800F053F8B4F900306268002B08DB5201D2B203F1604303F5614383F8002305E003F00F03520182
:40608000D2B20A49CA540A4B9A680A4B9A4208D12946B4F90000FFF7B3FF002038BD06487047002038BD00BF94160B1014ED00E000ED00E0004002080100560010B50446B5
:4060C00005E0084B186800F07FF8A4F50044B4F5004FF6D8044B186800FB04F000F074F810BD00BFA8420208A442020808B5034B1B7800FB03F000F067F808BDA0420208C8
:4061000001BEFEE738B50D46044C18220146204601F048FDA5610020FFF7F2FF904C0208FEE700BF08B50268254BDA6142681A6282685A62C2689A620269DA6242691A63E4
:4061400082695A63C2699A631E4A916AD963D16A1964516A5964516B9964926BDA64F1EE103A13F0900F27D0026A154B1A65426A5A65826A9A65C26ADA65026B1A66426B24
:406180005A66826B9A66C26BDA66026C1A67426C5A67826C9A67C26CDA67026DC3F88020426DC3F88420826DC3F88820C26DC3F88C20026EC3F89020FFF7B2FF08BD00BF43
:4061C000904C020800ED00E00230800803D001300238FCD100BF00BF7047EFF3108072B6704780F31088704710B30246C3680BB303680BB330B40579114B03EB85035C68CA
:406200002346002103E0934205D019465B69002BF9D1012000E0002080B124B9084B03EB85056A6000E04A6111610023536105E000207047002070470020704730BC70478A
:406240000478020850B310B402460479164B03EB840359680B4602E0934204D05B69002BFAD1002000E00120D0B18A420ED14B6933B10D4A02EB8404636000221A610FE0DF
:40628000094B03EB84040023636009E01A69596951615A6922B11B69136101E0002070475DF8044B704700BF0478020808B5FFF794FF074B5A6807490A4042F468525A60CA
:4062C0005A68114059605B68FFF78BFF08BD00BF00002640FF00FC0F002800F0AC8070B40446002A00F0A98092F828300BB1012500E00025137F0BB1022300E000231D4307
:406300001669B60406F4802645EA060395682D0405F440351D431668300600F0E0602843136B556B43EA45031B0503F440130343906B43EA8000052E03D1D3681B029BB24A
:4063400002E053681B029BB20343081D800123501368062B08D104EB81130120C3F808013F20C3F828011DE0936843B904EB81130020C3F808013120C3F8280112E0012BD9
:4063800008D1506904EB8113C3F808011C20C3F8280107E004EB81130120C3F808011220C3F82801106A04EB8113C3F80C01506AC3F810015069C3F814019069C3F81801DE
:4063C000136EB3F1FF3F17D0106C00F00F00966C360206F470663043156D2D0405F470250543906D000380B228431B01DBB2034304EB8110C0F82031D36B03F00303566CC4
:40640000360106F030063343D56C2D0205F440752B43506D8001C0B21843D36D9B0003F00C03034304EB8114C4F82431D36AC4F83831002002E002487047014870BC7047A3
:406440000100B600034BD3F880319B0F14BF01200020704700002640034AD2F8803143F04043C2F88031704700002640074AD2F8803123F0404343F08043C2F88031D2F82D
:40648000803143F00043C2F8803170470000264010B50446B0F5803F03D377210748FFF731FEFFF7CFFF40B9054AD2F888311B0C1B04A4B21C43C2F8884110BDD8160B10F5
:4064C0000000264010B504460F2803D996210948FFF718FEFFF7B6FF50B9074AD2F8883123F47023240404F470241C43C2F8884110BD00BFD8160B1000002640034B0122CC
:40650000C3F80027D3F80037704700BF00002640014B1860704700BF4880020810B5012902D0082929D02EE01A4B1B78012B2CD00320FFF75FF8184B984228D0FFF74DFE90
:40654000164B186002202BF085FE04462BF08DFE022C05D1032805D0052805D1002404E00F4C02E0002400E00D4C0D4B9C420FD10A4B1868FFF735FE0AE0084B1868FFF722
:4065800030FE002404E0064C02E0054C00E0044C204610BD4F8002080101880040780208FF00420008B502291CD0082914D001291ED1124B1B78012B1CD0FFF70EFE104BF0
:4065C000586002202BF046FE022815D00C4B5868FFF707FE0B4808BD094B5868FFF701FE002008BD064B5868FFF7FBFD054808BD044808BD034808BD002008BD4F8002084B
:4066000040780208FF00420010B5044C2046FFF719FE04F11800FFF715FE10BD8444020890B110B5094A9060C36A03B1D3600024074B1C70074B1C70074B1C60074B1C7031
:4066400000F048F9204610BD05487047407802085C8002086080020864800208618002080100160070B59AB03B4D15AC28686968AA68EB680FC4286920604C22002102A895
:4066800001F05EF9354B029315AB049341F64C03ADF8143005238DF816301B23ADF82030ADF8223003238DF8243004238DF8253006238DF8263008238DF829304023ADF885
:4066C0004C3001238DF85030254C2046FFF78CFD04F11800FFF788FD08A82BF011FE0346002836D11F4B03931F4B9B68996B89B10B460DF12A0220311E685D689C68D868BF
:40670000166055609460D060103310328B42F3D11B88138002A82BF0BBFD0346B0B90122124B1A700023124A1370124A13700E4B9B681A6A00929B6ADB88ADF804301423BA
:40674000ADF80630684634F001FC034600210A4A116018461AB070BD84180B10E56C081084440208244D0208407802084F80020850800208518002086480020808B52CF067
:4067800045FF08BD08B5044B1B689847034B1B6803B1984708BD00BF647802085078020808B510B1034A52689047034B1B6803B1984708BD647802085078020870B5C0B0F0
:4067C00006460C4615464FF480720849684601F0ACF805E016F8012B6A401DF80250013C002CF7D1284640B070BD00BF98180B1008B5FFF7F2FC08BD08B5FFF7F2FC08BD95
:4068000008B50120FFF70EF908BD00BF08B50120FFF7DEF808BD00BF08B5094B58601960012208491046FFF721F8034628B9002205490120FFF71AF80346184608BD00BFC2
:4068400064780208A16708108567081038B515460B46024601210020FEF7B6FF044618B129460120FFF72AF8204638BD704700BF704700BF00207047004870471100160042
:4068800000487047110016000048704711001600004870471100160000487047110016000048704711001600004870471100160000487047110016000048704711001600A8
:4068C00000487047110016000048704711001600704700BF08B5054800F092FD044800F0A7FD044800F02AFE08BD00BF7C4402087844020870440208F8B5022872D80029ED
:4069000072D10022134606E03B4CE45C012C01D90132D2B20133002BF6D0012A0CD1374B1B681C6801EB8102930023445B681B79023BDBB2012B59D8314B1B78002B57D12F
:40694000304B1970E0B92D4F3C68236801EB8105AA009D186668C1EBC1014B001E44B18829822168114449686468E45A0C8039680C682244526849680B445B8853801EE023
:4069800001281CD11D4F3C68236801EB8105AA009D186668C1EBC1014B001E44B1892982216811444D68616819440989298039680C682244526849680B445B895380124B4A
:4069C00018700E4B1B6818680E4B1B7803EB83039A00104430F086F8034650B90121084A117006E0094B04E0084B02E0084B00E0084B1846F8BD00BF508002084878020831
:406A0000518002084E800208618002080100160002001600FF00160070B439B9144B1B681B689968CE7F00231D460EE0104B1B681B68D968CE7FF6E7CA5C52B10133CC5CE6
:406A40001B2C01D0134400E00125B34201D2002DF2D05DB101338279CA54002204E0D4180134855C0D550132052AF8D970BC70474878020870B5044634F082FA0546D0B962
:406A80000E4B1968086A228902EB82029300143B03445A6812F0007F0DD0E67B1B695A68CB69D21A06EB8606B318A28821680448184400F03AFF284670BD00BF487802086E
:406AC0005480020830B587B002891A4B1B685B699B889A4229D1044601AB07C883E807000022ADF81020A289ADF8122040228DF814201846FFF7BEFF054680B923681B786E
:406B000003F002039BB22BB10B4B1B6821460B48984704E0084B1B68214609489847094A137803F0FE03137000E00025284607B030BD00BF487802084C78020805000100A8
:406B4000060001005C8002084288531E9BB2172B1AD84178D1B910B40F4B1868046A02EB82029300143B23445A6812F0007F0FD01B695A68C369D31A01EB81011944074BC5
:406B80005B5A1380002004E0012070470120704700205DF8044B70474878020854800208C8B1104B1B68196A038903EB83039B00143B0B445B6813F0007F0ED100B587B093
:406BC00001AB00210491059107C883E807001846FFF750FF03E00E2070470120704707B05DF804FB4878020800B583B00023ADF804308389ADF800300389ADF802301223E7
:406C00008DF80430084B1B7813F0010F09D129B18DF80510684633F0DDFA02E0C06833F0F9FA03B05DF804FB5C80020810B4044688B10023194606E0114A52F82320944232
:406C400000D1012101330E4A127B934206D20029F2D0002003E000210A4800E0002058B951B9074B1B7B022B05D8054A42F823400133137300E004485DF8044B704700BF01
:406C800068800208010016000300160070B506460D460020044606E0084B53F824302946304698470134054B1B7B9C4204D2044B1B7813F0010FEFD170BD00BF6880020886
:406CC0005C80020883792BB100207047C25C32B9013300E00023052BF8D9002070470120704700BF70B58AB004460D46C14A137843F00103137044F20803984200F0128265
:406D00003AD843F20103984200F0DD8019D841F20203984200F0168108D8B0F5805F74D041F20103984200F00A81C7E241F20303984200F0408142F20403984200F0D5805C
:406D4000BCE244F20403984200F0488109D843F21203984200F0B78043F2190398424ED0ACE244F20603984200F0E08144F20703984200F09081A1E245F20C03984200F08A
:406D800055821BD845F20103984200F00E820AD844F20A03984200F07B8144F21003984200F079818AE245F20203984200F01B8245F20303984200F02F827FE245F210030A
:406DC000984200F06E820AD845F20E03984200F0628245F20F03984200F060826EE245F21703984200F0638246F20103984200F0D98145F21403984240F0608254E27D4A25
:406E0000137803F0FE03137058E27B4B1E683046FFF758FF60B1304630F072FE764E00213068FFF7F9FD01213068FFF7F5FD37E0724B1A68936A1B791BB34FF0B05191F867
:406E4000043603F03F0391F8050600F03F0043EA801391F8030600F01F0043EA003391F8001601F07F0143EA4143126B1370634A1168096BC3F3072048701268126B1B0C11
:406E800093705E4E3368186B30F03AFE33680021186BFFF7C1FD33680121186BFFF7BCFD564B1B68986A023031F0E2F90023049305933F238DF8103004A830F045FE0222CB
:406EC0004F4B1A70FAE100234D4A13704D4A13704D4A13700A20FFF7F1F843F212039C4240F0EC81FFF790FBE8E1484B1B6813F0010F40F0E3810023ADF810308DF812307E
:406F00003E4E33689B6A93F900308DF8103004A830F034FE33689B6A93F901308DF8103001238DF81130FF238DF8123004A830F025FE364A136843F001031360BEE1FFF788
:406F4000A5FEBBE14978324B1B88ADF81030002319E0304A32F81320ADF808209DF8092012B92D48825C00E00022012A0AD9294A12F81320914205D1264A32F81330ADF885
:406F8000103002E00133002BE3D09DF81130FF2B05D104D140F2CA312048FFF7B3F8BDF81030ADF81C30ADF81830C3F3072329781B4AD15482E10B78002B40F07F810B7A18
:406FC00033B9184B0022DA809A80174A1A604B60084A137803F0FE0313706FE1CB78002B40F06C8149790A4B1B88ADF81030002336E000BF5C800208B444020848780208AE
:407000004F80020851800208787802086480020898190B104C800208508002089C190B10608002088078020870650208AC4A32F81320ADF80C209DF80D2012B9A948825C1D
:4070400000E00022012A0AD9A54A12F81320914205D1A34A32F81330ADF8103002E00133002BE3D09DF81130FF2B05D104D140F2CA319D48FFF746F8BDF81030ADF820301D
:40708000ADF81030C3F307230121984AD15415E1FFF7FCFD12E12B78002B3FD1AB78012B02D10022924B1A706978924B1B88ADF80C30002319E08A4A32F81320ADF810201D
:4070C0009DF8112012B98748825C00E00022012A0AD9834A12F81320914205D1804A32F81330ADF80C3002E00133002BE3D09DF80D30FF2B05D104D140F2CA317A48FFF7F7
:4071000001F8BDF80C30ADF82430ADF80C30C3F30723FF2B02D0A978774AD1540222774B1A70CBE00222754B1A70C7E0FFF7AEFD734B1B7813F0010F00F0C0806C4B1B78F9
:40714000012B03D102226A4B1A70B7E0032B03D10022674B1A70B1E0022B40F0AF800022634B1A70674B1B685B68674A1178C1EBC10203EB42039A79002A00F09F809B88FB
:40718000002B00F09B80614B1B78002B40F096800120FFF7B1FB002840F090800122544B1A708BE0FFF772FD88E00B88ADF800309DF801301BB902214A4AD15405E023B99B
:4071C00040F286314848FEF79DFF6A782988444B23F812106B7800214D4AD15429462046FFF754FD6AE00B88ADF804309DF805301BB900213B4AD15405E023B940F2863181
:407200003948FEF77FFF6B780021384AD15429462046FFF73BFD51E00B88ADF810301723ADF8123004A832F0E1FF47E00846FFF749FC014620B929462046FFF727FD01462E
