:020000041008E2
:4000000000780408EB0208100D00000051030810510308105103081051030810000000000000000000000000000000004D0308104D030810000000004D0308104D030810DA
:400040004D0308104D0308104D0308104D0308104D0308104D0308104D0308104D0308104D0308104D0308104D0308104D0308104D0308104D0308104D0308104D03081000
:400080004D0308104D0308104D0308104D0308104D0308104D0308104D0308104D0308104D0308104D0308104D0308104D0308104D0308104D0308104D0308104D030810C0
:4000C0004D0308104D0308104D0308104D0308104D0308104D0308104D0308104D0308104D0308104D0308104D0308104D0308104D0308104D0308104D0308104D03081080
:400100004D0308104D0308104D0308104D0308104D0308104D0308104D0308104D0308104D0308104D0308104D0308104D0308104D0308104D0308104D0308104D0308103F
:400140004D0308104D0308104D0308104D0308104D0308104D0308104D0308104D0308104D0308104D0308104D0308104D0308104D0308104D0308104D0308104D030810FF
:400180004D0308104D0308104D0308104D0308104D0308104D0308104D0308104D0308104D0308104D0308104D0308104D0308104D0308104D0308104D0308104D030810BF
:4001C0004D0308104D0308104D0308104D0308104D0308104D0308104D0308104D0308104D0308104D0308104D0308104D0308104D0308104D0308104D0308104D0308107F
:400200004D0308104D0308104D0308104D0308104D0308104D0308104D0308104D0308104D0308104D0308104D0308104D0308104D0308104D0308104D0308104D0308103E
:400240004D0308104D0308104D0308104D0308104D0308104D0308104D0308104D0308104D0308104D0308104D0308104D0308104D0308104D0308104D0308104D030810FE
:400280004D0308104D0308104D03081010B5054C237833B9044B13B10448AFF300800123237010BD2C66020800000000EC7E0810084B10B51BB108490848AFF3008008484F
:4002C000036803B910BD074B002BFBD0BDE81040184700BF0000000030660208EC7E081048470208000000007047FFF7FDFF72B6104C114DAC4209DA21686268A368043BFB
:40030000A2BFC858D050FAE70C34F3E70B490C4A00209142BCBF41F8040BFAE709480A490860BFF34F8F00F077F900F051F900F06DF8FEE780620910986209102C660208C6
:40034000EC7002080040020808ED00E0FEE7FEE700B504207146084202D0EFF3098001E0EFF30880043001F0C5FEFEE708B50C4BD3F8003713F0010F11D002F0BBFA02F05C
:4003800071FA074BD3F8880100F5A07080B202F07BFA02F05DFA00F009FC00F0B7FB08BD0000264010B502F05DFA002002F086FA4FF4A07002F068FA02F09CFA0F4CD4F88D
:4003C0000C3543F00043C4F80C350D490D4801F023FE4FF480020C4B1A60D4F8083743F00103C4F80837D4F8803143F00103C4F8803102F07FFA02F02BFA10BD00002640E3
:400400006D0308105069081000E100E008B5FFF7C9FF064B5B6813F4003F01D002F04AF862B600F01BFB002008BD00BF0000264008B5012001F068FD08BD00BF704700BF72
:400440005C4AD2F8803303F00F0303F1D00152F8212002F00702032A04D0042A05D092B9554914E0554A116811E003F1C002514951F8222002F01F02112A06D0132A04D00F
:400480004FF4FA4103E04E4901E04FF400418BBB484BD3F8902502F00100D3F88825C2F30172D3F8883513F0405F07D0414BD3F88835C3F30173012B02D102E0012300E0CF
:4004C000002303B108B9032A46D13A48D0F88025C2F31103D0F88425C2F30C02D0F88005C0F300600130B1FBF2F202FB03F2B2FBF0F131E0012B2FD12E4BD3F8402602F0BA
:400500000100D3F80026C2F30172D3F8003613F0405F07D0274BD3F80036C3F30173012B02D102E0012300E0002303B108B9032A12D12048D0F8002602F07F02D0F8003636
:40054000C3F30423D0F80006C0F3044002FB01F2B2FBF3F2B2FBF0F1164BD3F88033C3F3011321FA03F215494A601648D0F89030C3F3072301330069000E0130B2FBF0F0D9
:400580008860B2FBF3F3CB600B6103F5742202F23F220D48A0FB0202C2F387420A7503F2E7330A4AA2FB03239B098B61DB03CB61704700BF0000264000127A008C42020855
:4005C00000366E010000214083DE1B43D34D621008B50D4802F098F9FFF730FFFFF730FF00221146042001F041FA084801F0D4FA074B1B6893F8513013B1064801F03CFBD2
:4006000001F07EF908BD00BF0875081048660208B87002085869081008B501F0C6FD074AD2F8883043F47003C2F88830BFF34F8FBFF36F8F01F0BDFD08BD00BF00ED00E0DA
:400640002DE9F04F2DED028B95B004AF0C4644F2070398423ED015D843F2120398425ED007D8B0F5805F2AD041F20103984244D0D8E144F20103984258D044F2060398423D
:4006800031D0CFE145F20203984272D008D844F20803984216D044F21403984261D0C1E145F20E03984200F0B78045F21703984263D045F20C03984240F0B481ACE09848BE
:4006C0000CF034FA0021084602F012FB002000F011FAA7E14B78924880F841300DF062FD00F058FA9EE18F4B1B78002B40F09A8100F050FA00F094FF94E10B78042B40F025
:400700009181CA78864B93F844309A4240F08A8100F040FA824A936C0133936482E101F08FFE00211F2000F04BFA7BE17E4B1B685B6A1A78102A01D10522DA707A4B1B6824
:400740005A6A61795171586A0DF0B0FC002800F069810DF0E3FC744B1B68586A0DF0A6FC60E142226E4803F03AFD70480DF0F0FC58E1002000F0BEF954E14A886C4B1B68C6
:400780001B685B889A4220D1654B93F84C3023B96422634B83F84C2003E0013B604A82F84C30644800F076FE634BFB6001233B825F4B1B681B685B88BB8207F10C0002F0D9
:4007C000EBFB10B15D4800F065FE6388182B40F029815B4C21685B4800F05CFE5A4800F059FE2368BB614E4B1B6DBB8318233B84F81802F0D1FB10B1504800F04BFE534B4E
:40080000196901F00101524B1960524800F042FE514800F03FFE05E16E46A588294605F1010805F1080323F00703ADEB030D04A886462389182B40F0F48005E02268D25CFA
:400840000EF80320013300E000238B42F6DB4FF0000900F80590414904F026FC0BE007F1400303EB890343F8280C09F101093B49002004F019FC0028F1D1BB691B78543B15
:40088000222B00F2B680DFE803F01EB4B4B4B4B4B4B4B4B4B4B4B4B4B4B4B4B4B4B4B4B4B4B4B4B4B4B4B4B490B412B47100F86903F079FC81460146294800F0EBFD48465E
:4008C00000F0FCFB98E0F8690378702B07D1386A03F069FC0146234800F0DCFD8CE003F062FC8146386A03F05BFCC7E90001786A03F056FC41EC180BB86A03F054FC824610
:400900004946194800F0C6FD00230393CDF808A08DED008BD7E90023484600F055FD6BE0AC420208C1700208DC68020850430208246902088C690810F8420208B0690810B4
:40094000AC700208C0690810D869081000053240B0700208F0690810046A0810286A08102C6A08103C6A0810506A0810D7F81CB0386A03F018FC8246786A03F014FC81467F
:40098000B86A03F010FC38605946294800F082FD5146284800F07EFD4946274800F07AFD3968264800F076FD26E00023244A1946184603F0E3FC013003F0FAFB814698B167
:4009C00000221F4903F00CFD04221E4B5A60012207F10C01002000F003FB397B1A4800F059FDC4F8009007E0184800F053FDB54618E0174800F04EFD404603F0D9FB154B89
:400A0000186040B12A46216803F0E9FB114B1B6800225A5502E0104800F03CFDE0680FF07BFBB5464437BD46BDEC028BBDE8F08F646A0810786A0810846A0810946A0810DE
:400A4000A86A081080033240AC6A0810C06A0810DC6A0810AC700208E46A081008B500F0C3F800F091F8154800F0BEFD00F03AF800F022FE00F008FE00F0D6FD00F0E6FA59
:400A800000F0EAFD04220E4B9A6007F063FB00F0D3F800F0ABFB00F0BBFB00F031F8012801D1084B9B6C074B9B6C002BEDD0054800238364443008F03BFDE6E741060810C4
:400AC00080033240AC420208044B984204D14B681B681A78024B1A70704700BFBF000100C867020808B5024802F03AFF08BD00BFC90A0810014B1870704700BFC8670208D9
:400B0000014B1878704700BFC86702081C4B1B68002B07DD0A3B1A4A1360002B02DA0022174B1A60174B1B68002B07DD0A3B154A1360002B02DA0022124B1A60002310E0F2
:400B4000104A02EB83025268002A09DD0A3A0D4901EB83014A60002A02DA0A46002151600133022BECDD074B1B69002B07DD0A3B044A1361002B02DA0022024B1A61704745
:400B80000C430208CC67020808B54FF0007001F013FB08BD044B1B78022B04D0002300E00133002BFCD07047C1700208034B1B6813B1013B014A1360704700BF3C680208B9
:400BC00041B9012303FA00F0064A536823EA000353607047012303FA00F0024B5A681043586070473C68020808B54FF4FA62084B1A6000F079FDBF22064BC3F84C2106489E
:400C000000F048FC01211F20FFF7DAFF08BD00BF3C68020800003940246B08104FF4FA62034B1A60BF22034BC3F84C21704700BF3C6802080000394008B5204B1B6913F0F4
:400C4000020F0CBF012100211E20FFF7B9FF1C4B9B680A2B21D01B4AD2F8803143F00103C2F8803101F046FE154B1B688BB9134B1B6913F0020F0AD00022134BC3F84C2183
:400C80000F4B5B682BB90A220D4B9A6001E0FFF7C5FF002001F08AFB08BD00F0C1FC002001F08EFC01F0CCFBFFF7B8FF074800F0F1FB0022024B9A6008BD00BF0005324083
:400CC0003C6802080000264000003940346B0810024B1869C0F30010704700BF00033240024B1869C0F34010704700BF0003324010B50446012804D94FF44A71054801F027
:400D0000E9F91CB91022044B5A6010BD1022024B9A6010BD446B08100003324010B50446012804D94FF44A71054801F0D3F91CB92022044B5A6010BD2022024B9A6010BD12
:400D4000446B08100003324010B5002407E0FFF7BFFF012807D0012001F0B0F90134312CF5DD012010BD002010BD00BF10B5002407E0FFF7B5FF012807D0012001F09EF9D7
:400D80000134312CF5DD012010BD002010BD00BF08B5082001F092F90020FFF7A9FF082001F08CF90020FFF7B9FF082001F086F90120FFF79DFFFFF7C7FF01280FD0082073
:400DC00001F07CF90120FFF7A9FFFFF7CFFF012805D0082001F072F90020014B186008BD4868020808B50120FFF798FF0120FFF77FFF042001F062F90020014B186008BD0C
:400E00004868020838B50546002415E0C5F3C010FFF784FF042001F051F90120FFF768FFFFF792FF012825D0042001F047F90020FFF75EFF6D000134072CE7DD0120FFF7AC
:400E40006DFF042001F03AF90120FFF751FF042001F034F9FFF744FF04460020FFF748FF1CB1FFF795FFFFF7BDFF2146024800F011FB204638BD00BF846B081038B50D461E
:400E800001F0010343EA4000C4B20120FFF746FFFFF76CFF01284CD0082001F00FF90120FFF726FFFFF750FF012842D0082001F005F90020FFF732FFFFF712FF38B101200C
:400EC000FFF716FF0120FFF729FF012038BD082001F0F4F80020FFF70BFFFFF7F9FE58B10120FFF705FF0120FFF718FF0021114800F0D0FA012038BD082001F0DFF80122D1
:400F00000D4B1A602046FFF77DFF044620B1FFF73FFFFFF767FF07E01DB90222064B1A6002E00322044B1A602146044800F0B2FA204638BDB46B081048680208EC6B0810D6
:400F400008B5044B1B6813B9FFF798FF08BD012008BD00BF48680208F8B507460120FFF7DDFE002425461AE0042001F0A7F80120FFF7BEFEFFF7E8FE0646012804D12146DC
:400F8000154800F087FA25E0042001F097F86400FFF7A6FE04430020FFF7AAFE0135072DE2DD1FB10020FFF7B9FE02E00120FFF7B5FE042001F082F80120FFF799FE0420E4
:400FC00001F07CF80020FFF793FE3946034800F061FA26463046F8BD1C6C0810546C081070B504460E461546FFF7FCFE00212020FFF7A6FF0146124800F04CFA2046FFF784
:4010000001FF01460F4800F045FA01212020FFF735FF01460C4800F03DFA002404E00120FFF79AFF305501346B1E9C42F7DB1D460020FFF791FF7055FFF7AAFE70BD00BF92
:40104000846C08109C6C0810B46C081008B500F063FB00F079FB044B0022C3F84C21C3F88C21C3F80C2108BD0000384008B580EAE073A3EBE073642B00DD642080EAE07274
:40108000A2EBE07202EB82021301094981FB0321DB17C3EB611120B90022064BC3F80C2102E0044BC3F80C01034800F0F3F908BD1F85EB5100003840CC6C081038B510F119
:4010C000640F04DB6428A8BF6420044601E06FF0630484EAE471A1EBE471CC2303FB01F3244981FB0321DB17C3EB6111002C14DD214D0023C5F88C310422204B9A60C5F822
:401100004C111F4800F0C6F9D5F84C111D4800F0C1F92046FFF7AAFF38BD002C14DA164D0023C5F84C310422144B9A60C5F88C11154800F0AFF9D5F88C11144800F0AAF908
:401140002046FFF793FF38BD0B4C0020C4F84C01C4F88C01FFF78AFF0422084B5A60D4F84C110B4800F096F9D4F88C11094800F091F938BD1F85EB510000384080033240A0
:40118000DC6C0810F06C0810086D08101C6D0810346D0810546D08102DE9F041104C0825A560104F4FF00408C7F808800E4E306800F06CFFC7F804806560306800F066FF91
:4011C000A56007F580774FF04008C7F80880306800F05CFFC7F804806560BDE8F08100BF00033240000532404C680208064B1B68002B08DD0A3B044A1360002B03DA0023AA
:401200001360024A53607047104302084C6802082DE9F041294B9A68002A0EDD5B6803EBD37327490968B1EB630F06D1234B1B68002B02DDFFF7B0FF0AE0002A08DC204BD8
:401240001B682BB91D4B1B68002B01DDFFF7A4FF1B4B1B68EBB9194BD868002819DD194D8024AC60184EB46000F010FF74606C60DFF84880D8F80C0000F008FFAC60A6F5E3
:4012800060762027B760D8F80C0000F0FFFE77606C600B4B1B687BB9084B1B69002B0BDD064A1268002A03DC044AD268002A03DD034A1360014A5360BDE8F0814C680208A0
:4012C00010430208800332400006324008B50022064B02F00BFD02F01BFF054B1861002803DD044B1860024B586008BD000059404C680208104302080138092806D8DFE8C9
:4013000000F0080B0E12161A1E22262A00230B60704746230B607047AA230B6070474FF487730B6070474FF4B9730B6070474FF4EB730B60704740F23A230B60704740F275
:401340009E230B60704740F202330B60704740F266330B60704740F2CA330B60704700BF38B568B9134800F095F8134B0022C3F8CC22C3F80C224FF0FF32104B1A6138BDD1
:4013800004464FF49C7000FB04F00D4C84FB0034C017C0EB6414084DC5F8CC42074B1869084B93FBF0F080B200F088FEC5F80C4238BD00BF746D0810000038404C68020855
:4013C0001F85EB5120A1070038B5054610461946069C00220E4B02F089FC02F099FE0D4B079A9A603CB92846FFF7BAFFDDE90401FFF76CFF38BD012C03D10649FFF77CFF54
:4014000038BD022C02D10449FFF776FF38BD00BF000024404C6802085868020810B50446012804D94FF44A71054800F053FE1CB94022044B5A6010BD4022024B9A6010BD3A
:40144000446B08100003324038B505460020FFF7E5FF652000F032FE002408E005F00100FFF7DCFF6D10652000F028FE0134072CF4DD0120FFF7D2FF652000F01FFE38BDC6
:40148000014B1844704700BF906D081008B5FFF7DBFF08BD0FB470B598B0012498E0252805D0FFF7F3FF1C9B01331C9390E05A1C1C925B78732B0FD1651C1CAB53F824405A
:4014C00002E0FFF7E3FF013420780028F9D11C9B01331C932C467BE0642B32D1661C1CAB53F82450002D03DA2D20FFF7CFFF6D420022541C3B4B83FB0531EB17C3EBA10388
:40150000194603EB830358002B1A18A800EB820242F8603C0D4622460029EAD10AE0013C18AB03EB840353F8600CFFF7A9FF0078FFF7ACFF002CF2D11C9B01331C933446C7
:4015400046E0632B0AD1651C1CAB13F82400FFF79DFF1C9B01331C932C4639E0782B36D1651C1CAB53F82430002200E02246541C03F00F0018A901EB820141F8600C1B0948
:40158000F4D114F0010F06D018AB03EB8404002344F8603C941C012C12D818AB03EB8403002243F8602C01340AE0013C18AB03EB840353F8600CFFF763FF0078FFF766FFEA
:4015C000002CF2D11C9B01331C932C4600E022B11C9B187800287FF462AF18B0BDE8704004B070476766666688B108B5094AD062094B1B7833B9104601F00EFA0122064B18
:401600001A7000E0002020B901F028FA08BD0348704708BD14430208606802080100160008B501F0A7FA08BD08B5084B1B783BB9074A0421074801F04BF80122034B1A70BF
:40164000044B10229A609A6108BD00BF68680208D46F08100000384008B5084B1B783BB9074A0021074801F033F80122034B1A70044B01229A609A6108BD00BF696802088E
:40168000387008100000394008B5084B1B783BB9074A0721074801F01BF80122034B1A70044B80229A609A6108BD00BF6A6802089C7008100000384008B5084B1B783BB91A
:4016C000074A0021074801F003F80122034B1A70044B01229A609A6108BD00BF6B680208007108100000384008B5084B1B783BB9074A0121074800F0EBFF0122034B1A704B
:40170000044B02229A609A6108BD00BF6C680208647108100000394008B5084B1B783BB9074A0121074800F0D3FF0122034B1A70044B02229A609A6108BD00BF6D68020898
:40174000C87108100000384008B5084B1B783BB9074A0221074800F0BBFF0122034B1A70044B04229A609A6108BD00BF6E6802082C720810000038401F4B98422DD00CD880
:4017800040282ED003D8E8B1102828D02FE0802829D0B0F5807F28D029E0184B984228D006D8B0F1204F0DD0154B984212D01EE0144B98420AD00133984209D0023B98429F
:4017C00015D101E0002070470F4870470F4870470F4870474FF4A0007047074870470D4870470D4870470D487047034870470C4870474FF4A400704706005200010000F069
:40180000090000A0040000F0010052000200520003005200010050000200500005005200FF00520038B5124B1B6893F83130012B04D840F2C3110F4800F04CFC0C4B1D6892
:401840002A6AB5F8B03013442C46D5F8B420D358002B0BDB084B1868FFF78EFF6B6801229A6063689B68002BFBD138BD034838BDB8700208907208107068020802005000E1
:401880001A4B186128B102230370FF23437000234380174B1B6893F850202AB300B583B0B3F93830ADF80030002301931149684600F0B2FBBDF90030002B08DB590903F0EB
:4018C0001F03012202FA03F30B4A42F82130084B1B6893F8513023B102220849012000F077FA03B05DF804FB704700BF70680208B8700208B947020800E100E07148020805
:4019000008B50248FFF7BCFF08BD00BF8468020838B50B4B1B68D3F8B4301B58002B0DDA0D4604460B0C1B0423B140F2D521054800F0D0FBA9B26160002038BD024838BD34
:40194000B8700208D072081001008A0038B50368002B01DA002300E0094B73B90D460446C2600B0C1B0423B140F2BB21054800F0B1FBA9B2A160002038BD014838BD00BF41
:4019800001008A00D072081038B504460D4619B99921084800F09EFB074B1B68D3F8B4301B59002B03DAE3682B60002038BD034838BD00BF10730810B870020801008A0011
:4019C000254B1B6893F8313083423AD900293AD00B6813F01F0F38D170B50D4604461E4B1B6893F83130984204D340F2C3111B4800F070FB184B1B68186AB3F8B03004FB4F
:401A00000304174E34602A68D2080021686802F0F1FB00212046FFF77BFF346825B940F293310E4800F056FB2A4600212046FFF78DFF60B900210A4B1868FFF769FF40B98E
:401A400070BD084870470748704706487047064870BD054870BD00BFB8700208D07208108868020803018A0001018A0010B504461346B2B9A9B9124B1B6893F831309842F8
:401A800004D340F2C3110F4800F024FB0C4B1B681A6AB3F8B03004FB03240B4B1C60002010BD43B149B1084A51609360111D2046FFF786FF10BD054810BD044810BD00BF63
:401AC000B8700208D07208108868020803018A002DE9F0411B4B1B68DC68236883422CD90D464609A0EB4610012303FA00F819B900F05BFB074600E00027124B18680368B9
:401B0000002B01DA002300E00F4B83B9626852F8263018EA030F05D023EA080342F82630002400E0094C0021FFF7F2FE00E0084C25B9384600F03DFB00E0064C2046BDE8B6
:401B4000F08100BF8868020801008A00020188000301880004018A000B4B1B68DB681A6882420CD94109A0EB4110012202FA00F05B6853F82130184203D0044870470448B3
:401B800070470448704700BF886802080101880004018A0000018800024B1B680BB9014B18607047946802082DE9F8430446884691461D46089F2C4B1B681BB9B5212B489A
:401BC00000F088FA284B1B682C2000FB04F01C18EEB21E50C5F3072363602D0CA560244B1B6893F831309E4204D340F2C311214800F070FA1E4B1B68196AB3F8B02006FBD4
:401C000002162661666893F832309E4204D340F2DF11184800F05EFA154B1B681D6A803605EB46156561A668330C1B0423B14FF4FF71104800F04EFA330C1B0423B140F2B1
:401C4000FF110C4800F046FAB3B243EA0646AE60C4F81C90C4F820800023A36117B1B7F90030A381BDE8F8839468020850730810B8700208D0720810F0B58FB0044618B9A1
:401C80005221274800F026FAA369072B03D95621234800F01FFAE36A1BB95821204800F019FA236B1BB959211D4800F013FA07AD04F114060FCE0FC537682F6002AD26462D
:401CC0000FCE0FC533682B60164B1B68B3F93620079B1344ADF83030089B0D93A26AE16A0CAD00953B460A98FFF75EFF00210091069B0A460598FFF757FF216B284600F055
:401D00008BF9BDF93030002B08DB590903F01F03012202FA03F3044A42F821300FB0F0BD50730810B870020800E100E0F8B506460F461D4614461AB9FD211F4800F0CAF946
:401D40001E4B1B681BB9FE211B4800F0C3F91B4B1B682C2101FB063001FB07314B68012202FA03F31B04466802FA06F60269EAB18F69EFB91268002A01DA002200E0104ACB
:401D8000C2B92288134323600369DC6001238B614D620469330C1B0423B140F2BB21094800F098F9B2B2A2600020F8BD0648F8BD0648F8BD0548F8BD50730810946802081B
:401DC00001008A00D072081004028A0007028A00F8B505460F4616460E4B1B6823B94FF4AF710D4800F076F90A4B1B682C2404FB0534236A23B94FF4B171074800F06AF993
:401E0000E369B34204D9236A43F826700020F8BD0248F8BD94680208507308100A028A0038B504460D46074B1B6823B94FF4C871054800F04FF9034B1B682C2202FB04344B
:401E4000A56238BD946802085073081070B582B000230193044620B940F2D111284800F039F9236923B94FF4E971254800F032F9636923B940F2D311214800F02BF9236A59
:401E800023B94FF4EA711E4800F024F96369DD682A0C20D012041A601B682069194B1B68D3F8B430C358002B15DA01A9FFF76CFD60B9019803681E0CDBB2E269934206D2C2
:401EC000226A52F8233013B1984700E0002631462069FFF71DFDADB275B16369ADB21D601B68636A1BB198470023636202E0A36A03B198470023A36163691B6802B070BD19
:401F000050730810B870020810B50446074B1B6823B940F2B111064800F0DCF8034B1B682C2000FB0430FFF791FF10BD946802085073081010B50446104B1B6823B940F253
:401F40002B210F4800F0C6F80C4B1B682C2202FB0434B4F90C30002B0DDB5A0903F01F03012101FA03F32032064941F82230BFF34F8FBFF36F8F002010BD00BF946802080E
:401F80005073081000E100E010B504460D4B1B6823B940F24B210C4800F09CF8094B1B682C2202FB0434B4F90C30002B08DB590903F01F03012202FA03F3044A42F8213093
:401FC000002010BD946802085073081000E100E038B50D4B9A680D4B9A420FD10D46044621B940F237110A4800F074F804F11003064A52F8230042F8235038BD1030054B61
:4020000053F8200038BD00BF00ED00E000400208907308100000081048B338B504460D464368072B03D93221134800F053F8B4F900306268002B08DB5201D2B203F16043ED
:4020400003F5614383F8002305E003F00F035201D2B20A49CA540A4B9A680A4B9A4208D12946B4F90000FFF7B3FF002038BD06487047002038BD00BF9073081014ED00E0E5
:4020800000ED00E0004002080100560010B5044605E0084B186800F07FF8A4F50044B4F5004FF6D8044B186800FB04F000F074F810BD00BFA8420208A442020808B5034B4C
:4020C0001B7800FB03F000F067F808BDA042020801BEFEE738B50D46044C18220146204602F0AAF9A5610020FFF7F2FFE84C0208FEE700BF08B50268254BDA6142681A62C8
:4021000082685A62C2689A620269DA6242691A6382695A63C2699A631E4A916AD963D16A1964516A5964516B9964926BDA64F1EE103A13F0900F27D0026A154B1A65426AB8
:402140005A65826A9A65C26ADA65026B1A66426B5A66826B9A66C26BDA66026C1A67426C5A67826C9A67C26CDA67026DC3F88020426DC3F88420826DC3F88820C26DC3F8C6
:402180008C20026EC3F89020FFF7B2FF08BD00BFE84C020800ED00E00230800803D001300238FCD100BF00BF7047EFF3108072B6704780F31088704710B5044620F07F6354
:4021C00023F4402323B140F2B3511348FFF782FF14F4700F16D014F0806F01D1002101E04FF4800114F0006F01D041F4000114F0807F01D041F4801114F0007F03D041F4F2
:40220000001100E00021054A536823EA01031C435460536810BD00BFD47308100000264010B30246C3680BB303680BB330B40579114B03EB85035C682346002103E09342FB
:4022400005D019465B69002BF9D1012000E0002080B124B9084B03EB85056A6000E04A6111610023536105E000207047002070470020704730BC70479868020850B310B4FB
:4022800002460479164B03EB840359680B4602E0934204D05B69002BFAD1002000E00120D0B18A420ED14B6933B10D4A02EB8404636000221A610FE0094B03EB840400233F
:4022C000636009E01A69596951615A6922B11B69136101E0002070475DF8044B704700BF9868020830B583B004460D46022808D9042806D0032804D040F6B2112848FFF7B1
:40230000E9FE6B1EDBB2012B08D9042D06D0082D04D040F6B3112248FFF7DCFE214800EB84004468042D12D0012D1AD111E0A3681D420AD1E3681A6800925B680193236828
:40234000294668469847174B9C61646902E0002000E0002014B3144B9842E8D1012DE6D11CE0022D01D104E01C466369002BFBD103E00C4B9C6904B1246900200CE0A368F7
:402380001D4208D1E3681A6800925B68019323682946684698472469002CF0D103B030BDD473081098680208FF00420070B50546012804D94FF4E0711D48FFF78BFE1D4B8E
:4023C0005B682BB101210020FFF78CFF044600E000242CBBFFF7E9FE0646164B5B681BB104210020FFF77EFF134A136923F004031361012D01D030BF07E020BF0D4B1B786F
:4024000003B120BF01220B4B1A703046FFF7D1FE084B5B684BB108210020FFF763FF04E002210020FFF75EFF044C204670BD00BFD47308109868020800ED00E0FF00420085
:4024400010B5174BDB682BB101210220FFF74AFF044600E00024E4B9FFF7A7FE104BDB681BB104210220FFF73DFF0E4B59680E4A0A4042F01B025A6059680C4A1143596041
:4024800059681143596059680A435A605B6830BF04E002210846FFF725FF054C204610BD98680208000026400000FC0F003A0280FF00420008B5FFF778FE074B5A680749DC
:4024C0000A4042F468525A605A68114059605B68FFF76FFE08BD00BF00002640FF00FC0F10B5044620B940F6A1211748FFF7F2FD164A1368DB6803F5F2431B682360136812
:40250000DA6802F5F04212686260D96847F604028A58A260D96847F608028A58E260D96847F60C028A582261D96847F610028A586261D96847F614028A58A261DA6847F6C2
:402540001803D358E36110BDD4730810B870020810B5044620B940F6C9211748FFF7BAFD164B1B68DA68616802F5F0421160D968A06847F604028850D968E06847F60802A2
:402580008850D968206947F60C028850D968606947F610028850D968A06947F614028850D968E06947F618028850DB68226803F5F2431A6010BD00BFD4730810B870020866
:4025C00070B50446012804D94FF426713A48FFF781FD3A4B9B682BB101210846FFF782FE054600E00025002D5ED1FFF7DEFD0646324B9B681BB104210120FFF773FE304B0F
:402600001B6893F8432042B19B68D3F8E03013F0100F02D02B48FFF763FF4FF0B0539B899BB223B14FF0B0539B899BB201E04FF48073B3F5807F03D1204604F081F91AE0FF
:40264000214A136943F004031361012C01D030BF07E020BF194B1B7803B120BF0122174B1A70174B1B681A68D3F89430D35803F00303022BE4D0124B1B6893F8432042B1BD
:402680009B68D3F8E03013F0100F02D00D48FFF75FFF3046FFF78DFD084B9B684BB108210120FFF71FFE04E002210120FFF71AFE064D284670BD00BFD473081098680208AE
:4026C000B8700208B468020800ED00E0FF004200002800F0AC8070B40446002A00F0A98092F828300BB1012500E00025137F0BB1022300E000231D431669B60406F4802607
:4027000045EA060395682D0405F440351D431668300600F0E0602843136B556B43EA45031B0503F440130343906B43EA8000052E03D1D3681B029BB202E053681B029BB258
:402740000343081D800123501368062B08D104EB81130120C3F808013F20C3F828011DE0936843B904EB81130020C3F808013120C3F8280112E0012B08D1506904EB811307
:40278000C3F808011C20C3F8280107E004EB81130120C3F808011220C3F82801106A04EB8113C3F80C01506AC3F810015069C3F814019069C3F81801136EB3F1FF3F17D0E5
:4027C000106C00F00F00966C360206F470663043156D2D0405F470250543906D000380B228431B01DBB2034304EB8110C0F82031D36B03F00303566C360106F03006334371
:40280000D56C2D0205F440752B43506D8001C0B21843D36D9B0003F00C03034304EB8114C4F82431D36AC4F83831002002E002487047014870BC70470100B600034BD3F8E8
:4028400080319B0F14BF01200020704700002640034AD2F8803143F04043C2F88031704700002640074AD2F8803123F0404343F08043C2F88031D2F8803143F00043C2F858
:40288000803170470000264010B50446B0F5803F03D377210748FFF71DFCFFF7CFFF40B9054AD2F888311B0C1B04A4B21C43C2F8884110BD147408100000264010B504461C
:4028C0000F2803D996210948FFF704FCFFF7B6FF50B9074AD2F8883123F47023240404F470241C43C2F8884110BD00BF1474081000002640034B0122C3F80027D3F8003718
:40290000704700BF00002640014B1860704700BFB870020810B5012902D0082929D02EE01A4B1B78012B2CD00320FFF715F9184B984228D0FFF739FC164B1860022005F0BF
:402940000BFC044605F013FC022C05D1032805D0052805D1002404E00F4C02E0002400E00D4C0D4B9C420FD10A4B1868FFF721FC0AE0084B1868FFF71CFC002404E0064C36
:4029800002E0054C00E0044C204610BDBF70020801018800D4680208FF00420008B502291CD0082914D001291ED1124B1B78012B1CD0FFF7FAFB104B5860022005F0CCFB51
:4029C000022815D00C4B5868FFF7F3FB0B4808BD094B5868FFF7EDFB002008BD064B5868FFF7E7FB054808BD044808BD034808BD002008BDBF700208D4680208FF0042001D
:402A000010B5044C2046FFF739FC04F11800FFF735FC10BDA444020890B110B5094A9060C36A03B1D3600024074B1C70074B1C70074B1C60074B1C7000F048F9204610BDB0
:402A400005487047D4680208CC700208D0700208D4700208D17002080100160070B59AB03B4D15AC28686968AA68EB680FC4286920604C22002102A801F0BCFB354B029374
:402A800015AB049341F64C03ADF8143005238DF816301B23ADF82030ADF8223003238DF8243004238DF8253006238DF8263008238DF829304023ADF84C3001238DF8503079
:402AC000254C2046FFF7ACFB04F11800FFF7A8FB08A805F097FB0346002836D11F4B03931F4B9B68996B89B10B460DF12A0220311E685D689C68D868166055609460D060B8
:402B0000103310328B42F3D11B88138002A805F041FB0346B0B90122124B1A700023124A1370124A13700E4B9B681A6A00929B6ADB88ADF804303223ADF8063068460EF042
:402B400087F9034600210A4A116018461AB070BDC0750810DD300810A44402087C4D0208D4680208BF700208C0700208C1700208D470020808B506F0CBFC08BD08B5044B8D
:402B80001B689847034B1B6803B1984708BD00BFF8680208E468020808B510B1034A52689047034B1B6803B1984708BDF8680208E468020870B5C0B006460C4615464FF4F5
:402BC00080720849684601F00AFB05E016F8012B6A401DF80250013C002CF7D1284640B070BD00BFD475081008B5FFF7DEFA08BD08B5FFF7DEFA08BD08B50120FFF7C4F9B1
:402C000008BD00BF08B50120FFF794F908BD00BF08B5094B58601960012208491046FFF7D7F8034628B9002205490120FFF7D0F80346184608BD00BFF8680208992B081070
:402C40007D2B081038B515460B46024601210020FFF76CF8044618B129460120FFF7E0F8204638BD704700BF704700BF00207047004870471100160000487047110016003C
:402C800000487047110016000048704711001600004870471100160000487047110016000048704711001600004870471100160000487047110016000048704711001600E4
:402CC0000048704711001600704700BF08B5054800F092FD044800F0A7FD044800F02AFE08BD00BF9C4402089844020890440208F8B5022872D8002972D10022134606E04B
:402D00003B4CE45C012C01D90132D2B20133002BF6D0012A0CD1374B1B681C6801EB8102930023445B681B79023BDBB2012B59D8314B1B78002B57D1304B1970E0B92D4FF6
:402D40003C68236801EB8105AA009D186668C1EBC1014B001E44B18829822168114449686468E45A0C8039680C682244526849680B445B8853801EE001281CD11D4F3C6852
:402D8000236801EB8105AA009D186668C1EBC1014B001E44B1892982216811444D68616819440989298039680C682244526849680B445B895380124B18700E4B1B681868C8
:402DC0000E4B1B7803EB83039A00104409F00CFE034650B90121084A117006E0094B04E0084B02E0084B00E0084B1846F8BD00BFC0700208DC680208C1700208BE70020895
:402E0000D17002080100160002001600FF00160070B439B9144B1B681B689968CE7F00231D460EE0104B1B681B68D968CE7FF6E7CA5C52B10133CC5C1B2C01D0134400E026
:402E40000125B34201D2002DF2D05DB101338279CA54002204E0D4180134855C0D550132052AF8D970BC7047DC68020870B504460EF008F80546D0B90E4B1968086A228914
:402E800002EB82029300143B03445A6812F0007F0DD0E67B1B695A68CB69D21A06EB8606B318A28821680448184401F098F9284670BD00BFDC680208C470020830B587B06A
:402EC00002891A4B1B685B699B889A4229D1044601AB07C883E807000022ADF81020A289ADF8122040228DF814201846FFF7BEFF054680B923681B7803F002039BB22BB183
:402F00000B4B1B6821460B48984704E0084B1B68214609489847094A137803F0FE03137000E00025284607B030BD00BFDC680208E06802080500010006000100CC700208B0
:402F40004288531E9BB2172B1AD84178D1B910B40F4B1868046A02EB82029300143B23445A6812F0007F0FD01B695A68C369D31A01EB81011944074B5B5A1380002004E0A2
:402F8000012070470120704700205DF8044B7047DC680208C4700208C8B1104B1B68196A038903EB83039B00143B0B445B6813F0007F0ED100B587B001AB0021049105913F
:402FC00007C883E807001846FFF750FF03E00E2070470120704707B05DF804FBDC68020800B583B00023ADF804308389ADF800300389ADF8023012238DF80430084B1B78F8
:4030000013F0010F09D129B18DF8051068460DF063F802E0C0680DF07FF803B05DF804FBCC70020810B4044688B10023194606E0114A52F82320944200D1012101330E4A72
:40304000127B934206D20029F2D0002003E000210A4800E0002058B951B9074B1B7B022B05D8054A42F823400133137300E004485DF8044B704700BFD87002080100160053
:403080000300160070B506460D460020044606E0084B53F824302946304698470134054B1B7B9C4204D2044B1B7813F0010FEFD170BD00BFD8700208CC70020883792BB14D
:4030C00000207047C25C32B9013300E00023052BF8D9002070470120704700BF70B58AB004460D46C14A137843F00103137044F20803984200F012823AD843F2010398423A
:4031000000F0DD8019D841F20203984200F0168108D8B0F5805F74D041F20103984200F00A81C7E241F20303984200F0408142F20403984200F0D580BCE244F20403984208
:4031400000F0498109D843F21203984200F0B78043F2190398424ED0ACE244F20603984200F0E08144F20703984200F09081A1E245F20C03984200F055821BD845F2010375
:40318000984200F00E820AD844F20A03984200F07B8144F21003984200F079818AE245F20203984200F01B8245F20303984200F02F827FE245F21003984200F06E820AD8AF
:4031C00045F20E03984200F0628245F20F03984200F060826EE245F21703984200F0638246F20103984200F0D98145F21403984240F0608254E27D4A137803F0FE031370FB
:4032000058E27B4B1E683046FFF758FF60B130460AF0F8FB764E00213068FFF7F9FD01213068FFF7F5FD37E0724B1A68936A1B791BB34FF0B05191F8043603F03F0391F850
:40324000050600F03F0043EA801391F8030600F01F0043EA003391F8001601F07F0143EA4143126B1370634A1168096BC3F3072048701268126B1B0C93705E4E3368186B78
:403280000AF0C0FB33680021186BFFF7C1FD33680121186BFFF7BCFD564B1B68986A02300AF068FF0023049305933F238DF8103004A80AF0CBFB02224F4B1A70FAE1002393
:4032C0004D4A13704D4A13704D4A13700A20FEF7DDFE43F212039C4240F0EC81FFF790FBE8E1484B1B6813F0010F40F0E3810023ADF810308DF812303E4E33689B6A93F933
:4033000000308DF8103004A80AF0BAFB33689B6A93F901308DF8103001238DF81130FF238DF8123004A80AF0ABFB364A136843F001031360BEE1FFF7A5FEBBE14978324B45
:403340001B88ADF81030002319E0304A32F81320ADF808209DF8092012B92D48825C00E00022012A0AD9294A12F81320914205D1264A32F81330ADF8103002E00133002BBD
:40338000E3D09DF81130FF2B05D104D140F2CA312048FEF79FFEBDF81030ADF81C30ADF81830C3F3072329781B4AD15482E10B78002B40F07F810B7A3BB9184B0322DA800E
:4033C00034229A80164A1A604B60084A137803F0FE0313706EE1CB78002B40F06B814979094B1B88ADF81030002335E0CC700208D4440208DC680208BF700208C1700208AB
:403400000C690208D4700208D4760810BC700208C0700208D8760810D070020814690208C8650208AC4A32F81320ADF80C209DF80D2012B9A948825C00E00022012A0AD9EF
:40344000A54A12F81320914205D1A34A32F81330ADF8103002E00133002BE3D09DF81130FF2B05D104D140F2CA319D48FEF732FEBDF81030ADF82030ADF81030C3F30723B3
:403480000121984AD15415E1FFF7FCFD12E12B78002B3FD1AB78012B02D10022924B1A706978924B1B88ADF80C30002319E08A4A32F81320ADF810209DF8112012B98748BE
:4034C000825C00E00022012A0AD9834A12F81320914205D1804A32F81330ADF80C3002E00133002BE3D09DF80D30FF2B05D104D140F2CA317A48FEF7EDFDBDF80C30ADF814
:403500002430ADF80C30C3F30723FF2B02D0A978774AD1540222774B1A70CBE00222754B1A70C7E0FFF7AEFD734B1B7813F0010F00F0C0806C4B1B78012B03D102226A4BEB
:403540001A70B7E0032B03D10022674B1A70B1E0022B40F0AF800022634B1A70674B1B685B68674A1178C1EBC10203EB42039A79002A00F09F809B88002B00F09B80614B2E
:403580001B78002B40F096800120FFF7B1FB002840F090800122544B1A708BE0FFF772FD88E00B88ADF800309DF801301BB902214A4AD15405E023B940F286314848FEF74B
:4035C00089FD6A782988444B23F812106B7800214D4AD15429462046FFF754FD6AE00B88ADF804309DF805301BB900213B4AD15405E023B940F286313948FEF76BFD6B7880
:403600000021384AD15429462046FFF73BFD51E00B88ADF810301723ADF8123004A80CF067FD47E00846FFF749FC014620B929462046FFF727FD01462846FFF7D1FC2E4B39
:403640001B7813F0110F04D0304B1B682946204698472A89284B1B7813F0010F11D0531E9BB2172B0DD912238DF81430ADF81220AB89ADF8103001238DF8153004A80CF0F7
:403680002BFD1D4A137803F0FE03137012E0FFF7F9FC0FE0FFF7F6FC0CE0FFF7F3FC09E0FFF7F0FC06E00846FFF74AFC29462046FFF7E8FC104B1B7813F0110F09D00E4AC8
:4036C000137803F0FE031370104B1B682946204698470AB070BD00BFBC700208C0700208D87608100C690208C1700208D476081010690208BF700208CC700208DC6802084E
:40370000BE700208D1700208D0700208E068020830B589B00023069307938389ADF81830274B1B68002B44D00189254B5B681A68D38899423FD1234B1B68196A528802EB09
:4037400082029300143B0B445B6813F4801F29D0044601AB07C883E807000022ADF81020A289ADF8122040228DF814201846FFF77DFB0546B8B900238DF81A308DF81B309D
:40378000079323681B7813F0010F05D00C4B1B6806A90D48984706E0094B1B6806A90B48984700E006250A4A137803F0FE03137002E0002500E00025284609B030BD00BFCE
:4037C00020690208DC6802083200010033000100CC700208B0F5803F09D208B583B245F20C02934205D10846FFF792FF08BD00207047002008BD00BF50B110B5064C60602D
:403800000648FFF70FFC63685B681BB1236010BD0348704710BD00BF20690208D5370810010016000020704730B108B5034A10600348FFF7F7FB08BD02487047286902086D
:4038400025380810010016001C4B1B68002B34D01A4B5B681B685A8803899A422DD18388012B2AD103681B78022B26D810B588B0044603AB07C883E807000022ADF8182020
:40388000A289ADF81A2040228DF81C201846FFF7EDFA80B9A389ADF8043000238DF806300294064B1B6801A905489847054A137803F0FE03137008B010BD70472C69020818
:4038C000BF000100CC70020800B587B000238DF81730009301930293039304930123ADF80430074B5B681B685B88ADF808300DF1170300936846FFF7B9FA07B05DF804FB9C
:403900002C690208B0F5803F11D208B583B245F20202934207D045F20E02934205D10846FFF792FF01E0FFF7CFFF002008BD0020704700BF50B110B5064C60600648FFF7C5
:4039400071FB63685B681BB1236010BD0348704710BD00BF2C6902080539081001001600044B18605B6813B15860002070470248704700BF2C6902080200160081F0004191
:4039800002E000BF83F0004330B54FEA41044FEA430594EA050F08BF90EA020F1FBF54EA000C55EA020C7FEA645C7FEA655C00F0E2804FEA5454D4EB5555B8BF6D420CDD75
:4039C0002C4480EA020281EA030382EA000083EA010180EA020281EA0303362D88BF30BD11F0004F4FEA01314FF4801C4CEA113102D0404261EB410113F0004F4FEA033372
:403A00004CEA133302D0524263EB430394EA050F00F0A780A4F10104D5F1200E0DDB02FA0EFC22FA05F2801841F1000103FA0EF2801843FA05F359410EE0A5F120050EF101
:403A4000200E012A03FA0EFC28BF4CF0020C43FA05F3C01851EBE37101F0004507D54FF0000EDCF1000C7EEB00006EEB0101B1F5801F1BD3B1F5001F0CD349085FEA30007B
:403A80004FEA3C0C04F101044FEA445212F5800F80F09A80BCF1004F08BF5FEA500C50F1000041EB045141EA050130BD5FEA4C0C404141EB010111F4801FA4F10104E9D10C
:403AC00091F0000F04BF01460020B1FA81F308BF2033A3F10B03B3F120020CDA0C3208DD02F1140CC2F10C0201FA0CF021FA02F10CE002F11402D8BFC2F1200C01FA02F130
:403B000020FA0CFCDCBF41EA0C019040E41AA2BF01EB0451294330BD6FEA04041F3C1CDA0C340EDC04F11404C4F1200220FA04F001FA02F340EA030021FA04F345EA030197
:403B400030BDC4F10C04C4F1200220FA02F001FA04F340EA0300294630BD21FA04F0294630BD94F0000F83F4801306BF81F480110134013D4EE77FEA645C18BF7FEA655C90
:403B800029D094EA050F08BF90EA020F05D054EA000C04BF1946104630BD91EA030F1EBF0021002030BD5FEA545C05D14000494128BF41F0004130BD14F580043CBF01F5AF
:403BC000801130BD01F0004545F0FE4141F470014FF0000030BD7FEA645C1ABF194610467FEA655C1CBF0B46024650EA013406BF52EA033591EA030F41F4002130BD00BF3F
:403C000090F0000F04BF0021704730B54FF4806404F132044FF000054FF0000150E700BF90F0000F04BF0021704730B54FF4806404F1320410F0004548BF40424FF000013A
:403C40003EE700BF42004FEAE2014FEA31014FEA02701FBF12F07F4393F07F4F81F06051704792F0000F14BF93F07F4F704730B54FF4607401F0004521F0004120E700BF6A
:403C800050EA010208BF704730B54FF000050AE050EA010208BF704730B511F0004502D5404261EB41014FF4806404F132045FEA915C3FF4DCAE4FF003025FEADC0C18BFD8
:403CC00003325FEADC0C18BF033202EBDC02C2F1200300FA03FC20FA02F001FA03FE40EA0E0021FA02F11444C1E600BF70B54FF0FF0C4CF4E06C1CEA11541DBF1CEA1355FC
:403D000094EA0C0F95EA0C0F00F0DEF82C4481EA030621EA4C5123EA4C5350EA013518BF52EA033541F4801143F4801338D0A0FB02CE4FF00005E1FB02E506F00042E0FB7A
:403D400003E54FF00006E1FB03569CF0000F18BF4EF0010EA4F1FF04B6F5007F64F5407404D25FEA4E0E6D4146EB060642EAC62141EA55514FEAC52040EA5E504FEACE2EDE
:403D8000B4F1FD0C88BFBCF5E06F1ED8BEF1004F08BF5FEA500E50F1000041EB045170BD06F0004646EA010140EA020081EA0301B4EB5C04C2BFD4EB0C0541EA045170BDB7
:403DC00041F480114FF0000E013C00F3AB8014F1360FDEBF002001F0004170BDC4F10004203C35DA0C341BDC04F11404C4F1200500FA05F320FA04F001FA05F240EA02008F
:403E000001F0004221F0004110EBD37021FA04F642EB06015EEA430E08BF20EAD37070BDC4F10C04C4F1200500FA04F320FA05F001FA04F240EA020001F0004110EBD37070
:403E400041F100015EEA430E08BF20EAD37070BDC4F1200500FA05F24EEA020E20FA04F301FA05F243EA020321FA04F001F0004121FA04F220EA020000EBD3705EEA430EC8
:403E800008BF20EAD37070BD94F0000F0FD101F00046400041EB010111F4801F08BF013CF7D041EA060195F0000F18BF704703F00046520043EB030313F4801F08BF013D7C
:403EC000F7D043EA0603704794EA0C0F0CEA135518BF95EA0C0F0CD050EA410618BF52EA4306D1D181EA030101F000414FF0000070BD50EA410606BF1046194652EA4306BE
:403F000019D094EA0C0F02D150EA013613D195EA0C0F05D152EA03361CBF104619460AD181EA030101F0004141F0FE4141F470014FF0000070BD41F0FE4141F4780170BD19
:403F400070B54FF0FF0C4CF4E06C1CEA11541DBF1CEA135594EA0C0F95EA0C0F00F0A7F8A4EB050481EA030E52EA03354FEA013100F088804FEA03334FF0805545EA13130C
:403F800043EA12634FEA022245EA111545EA10654FEA00260EF000419D4208BF964244F1FD0404F5407402D25B084FEA3202B61A65EB03055B084FEA32024FF480104FF458
:403FC000002CB6EB020E75EB030E22BFB61A754640EA0C005B084FEA3202B6EB020E75EB030E22BFB61A754640EA5C005B084FEA3202B6EB020E75EB030E22BFB61A75468F
:4040000040EA9C005B084FEA3202B6EB020E75EB030E22BFB61A754640EADC0055EA060E18D04FEA051545EA16754FEA06164FEAC30343EA52734FEAC2025FEA1C1CC0D1B9
:4040400011F4801F0BD141EA00014FF000004FF0004CB6E711F4801F04BF01430020B4F1FD0C88BFBCF5E06F3FF6AFAEB5EB030C04BFB6EB020C5FEA500C50F1000041EBA8
:40408000045170BD0EF0004E4EEA113114EB5C04C2BFD4EB0C0541EA045170BD41F480114FF0000E013C90E645EA060E8DE60CEA135594EA0C0F08BF95EA0C0F3FF43BAF6A
:4040C00094EA0C0F0AD150EA01347FF434AF95EA0C0F7FF425AF104619462CE795EA0C0F06D152EA03353FF4FDAE1046194622E750EA410618BF52EA43067FF4C5AE50EA60
:4041000041047FF40DAF52EA43057FF4EBAE12E74FEA410212F5001215D211D56FF47873B3EB625212D94FEAC12343F0004343EA505311F0004F23FA02F018BF40427047C3
:404140004FF00000704750EA013005D111F0004008BF6FF0004070474FF00000704700BF4A0011D212F5001211D20DD56FF47873B3EB62520ED44FEAC12343F0004343EAA8
:40418000505323FA02F070474FF00000704750EA013002D14FF0FF3070474FF000007047002100F079BF0A22002101F061B80000024B0146186800F073B800BF0047020868
:4041C00010B501390244904207D010F8013B11F8014FA342F7D0181B10BD002010BD10B5431E0A44914204D011F8014B03F8014FF8E710BD02440346934202D003F8011BE7
:40420000FAE7704738B50546002946D051F8043C0C1F002BB8BFE41801F056FB1F4A1368114613B96360146032E0A3420ED92268A018834204BF18685B68636004BF121802
:4042400022600C6024E0A24203D813465A68002AF9D118681918A1420BD12168014458188242196014D1106852685A60014419600EE002D90C232B600AE0216860188242D2
:4042800004BF10685268626004BF091821605C602846BDE8384001F018BB38BD9070020870B5CD1C25F0030508350C2D38BF0C25002D064601DBA94202D90C23336046E00C
:4042C00001F002FB234B1C681A462146A1B10B685B1B0ED40B2B03D90B60CC18CD501EE08C420DBF63684B686360136018BF0C4615E00C464968E9E7174C23681BB9304607
:4043000000F02CF820602946304600F027F8431C18D0C41C24F00304A0420DD12560304601F0D3FA04F10B00231D20F00700C31A0ED05A42E25070BD211A304600F00EF886
:404340000130EBD10C233360304601F0BEFA002070BD00BF907002088C70020838B5064C002305460846236002F0CEFA431C02D1236803B12B6038BDE87002080CB430B523
:40438000164B0C1E9DB01D6804DA8B232B604FF0FF301EE04FF40273ADF8143014BF04F1FF332346049307934FF6FF7302900690ADF81630209A21AB02A92846019301F0FA
:4043C000D7FE431CBCBF8B232B6014B1029B00221A701DB0BDE8304002B07047004702080EB400B59CB04FF402711DABADF81410029006906FF000410A48049107914FF695
:40440000FF7153F8042BADF816100068019302A901F0AEFE029B00221A701CB05DF804EB03B0704700470208034613F8012B002AFBD1181A0138704710B5034642B111F8CD
:40444000014B03F8014B013A002CF7D11A4400E010BD934202D003F8014BFAE710BD2DE9F0410F46904601F0F7FC04460D46B8F1000F11D0C7F30A53C3F16B03002B0BDDFB
:404480001B0503F17F55002405F5401522462B46FFF72CFCBDE8F08120462946BDE8F0812DE9F04F9FB0002380460C4615921A934FF0000A4FF0000B1991199B1A780D2ABC
:4044C00005D8092A13D2002A00F0AF8112E02B2A04D02D2A04D0202A0CD108E0002200E0012209925A1C19925B782BB99DE101331993E2E700230993199D2B78302B5CD1C9
:404500006B78582B01D0782B4CD1099B01931AAB0093A84A1BAB19A9404600F0FEFE10F00706044600F08585062E05D1013500231995099300F07DBD1A9A3AB135211CA827
:4045400001F072FD1A99404601F0F5F9062E22D8DFE806F0040D08181D0D04004FF0000BDA4618E0DDF870A0DDF874B013E01D9B1B9ADDF870A023F4801302F2334243EAB4
:40458000025B08E0DFF830B24FF0000A03E06FF0004B4FF0FF3A210740F14B854BF0004B00F047BD199B5A1C19925B78302BF9D0002B00F03E85012300E000230893199BEC
:4045C0000A9300230393059304930A22199D2E78A6F13003D9B2092911D804990829D5BF0599039902FB013302FB0133D4BF05930393049B0135013304931995E6E74046DE
:4046000001F05EF90768404601F05AF90068FFF70BFF39460246284602F03AF8074628B100203346049D024601465AE0404601F047F90068FFF7F8FE199B1A181992049AD5
:404640001B5C002A45D11046302B05D1199B5A1C199201305B78F7E7A3F13102082A46D8199A0A92024600200546303B00F1010129D00A4405EB000C29460A2661450FD067
:40468000013101F1FF3EBEF1080F03DC059F77430597F3E71029DEBF039F77430397EDE72844082800F1010505DC05980A2101FB0033059306E0102DDFBF03980A2101FBFA
:4046C000003303930021199B581C19905B78084602E0049D38463A46A3F130010929C4D90121652B01D0452B51D16DB904E0652B40F0AD840022012128B9089B002B00F0D6
:404700009480054600E00025199C631C199363782B2B06D02D2B02D00026069606E0012300E000230693A31C1993A378A3F13006092E2BD8302B04D1199B5E1C19965B7832
:40474000F8E7A3F13106082E21D8A3F1300E199B4FF00A0C1F46199B5E1C19965B78A3F13009B9F1090F04D80CFB0E3EAEF1300EF1E7F61B082E44F61F6902DCF145A8BF79
:40478000F146069E2EB1C9F1000902E019944FF00009002D51D1002840F04B84089A002A40F04784002940D14E2B1FD006DC492B09D03AE0107C08100000F07F692B02D004
:4047C0006E2B13D031E0A74919A800F0D7FF60B3199BA549013B19A8199300F0CFFF10B9199B01331993DFF89CB21AE09F4919A800F0C4FFC8B1199B1B78282B0FD11CAA08
:404800009B4919A800F0CDFF052808D11D9BDDF870A043F0FF4B4BF4E00B00F00ABCDFF868B24FF0000A00F004BC159B1994002B00F00A8400230993FDE3049B0598002B21
:4048400008BF2B46102D2C46C2EB0909A8BF10240493FFF7D5F9092C82468B4613DD854B03EBC40353E91223FFF740FA064603980F46FFF7C5F902460B4630463946FFF744
:4048800083F882468B460F2D36DCB9F1000F00F0D08324DDB9F1160F07DC764D05EBC90952465B46D9E9000114E0C5F12503994522DC704CC5F10F0504EBC501C5EB0905BF
:4048C00052465B46D1E9000104EBC504FFF70EFAD4E90023FFF70AFA82468B46A9E319F1160F09DB634DA5EBC909D9E9002350465946FFF725FBEFE72C1B4C44002C56DDAE
:4049000014F00F010AD05B4B03EBC10152465B46D1E90001FFF7EAF982468B4634F00F0400F0B680B4F59A7F0BDD0024A146059404942223C8F80030DFF848B14FF0000A3C
:404940007AE100234C4E2411504659461F46012C0ADDE20704D5D6E90023FFF7C7F90123013764100836F2E70BB182468B46424BABF1547B03EBC70752465B46D7E90001F8
:40498000FFF7B4F921F000438B460A461B0D3B491B058B428246C8D8A1F580118B4286BFDFF8E8B04FF0FF3A02F1547B70E06FD0644214F00F020AD02E4B03EBC203504616
:4049C0005946D3E90023FFF7BBFA82468B4624115ED01F2C04DD0024A1460594049424E114F0100F0CBF00236A23254E0393504659460023002C09DDE20704D5D6E9002370
:404A0000FFF774F9012364100836F3E70BB182468B46039BEBB1CBF30A53C3F16B03002B594616DD1F2B0EDD342BDEBF203B4FF0FF3202FA03F34FF0000ACCBF4FF05C7B02
:404A400003EA010B05E04FF0FF3202FA03F303EA0A0A002200235046594601F023FF0028B9D117E0047C0810077C08100D7C0810F07B0810F07D0810C87D08100000A07C6A
:404A8000287C08100000F07F0000F8FFFFFFEF7F00230393059B0093049A0A992B46404600F09BFF059000283FF43FAFB9F1000FC9F10003A8BF00230E93002429EAE973A8
:404AC0000F93A146059B4046596800F0FFFE049000283FF42EAF059B1A69023203F10C0192000C30FFF77BFB1CAB01931BAB009352465B464046CDE90AAB01F01EFA1A906A
:404B000000283FF416AF0121404600F0F1FF814600283FF40EAF1B9B03991C9D002BADBF0E9A0F9A0E9FD718B8BFD21AA3EB01032B44B249A8BF0F9A013B8B42C5F13605F6
:404B400080F28680C91A1F29A5EB01054FF0010077DC00FA01F31493002306937E19039BB74215441D443B46A8BF3346AB42A8BF2B46002BC2BFF61AED1AFF1A0E9B002B5A
:404B80006BD1002E00F382800F9B002B40F08880002D00F38F80002F00F39680049A1A99404601F0FAF8044600283FF4C2AEC36808930023C360494601F0D3F8002880F262
:404BC0009180089B002B40F00D82BAF1000F40F00982CBF31303002B40F004822BF000431B0D1B05B3F1D66F40F2FC816369002B74D021460122404601F062F84946044640
:404C000001F0AFF8002840F3ED812BF00043039A1B0D1B05002A00F09480B3F1D66F00F39080B3F15C7F00F3DF8122234FF0000A4FF0000BC8F80030059B002B40F0E581BB
:404C4000F7E16F4E1490F61A00FA06F3069385E7002306930123149380E749461A46404600F0E0FF814600283FF463AE01461A9A404600F046FF089000283FF45AAE1A992A
:404C8000404600F058FE089B1A937AE732461A99404601F015F81A9000287FF475AF48E60F9A0499404600F0BDFF049000287FF46FAF3EE62A460499404601F001F8049037
:404CC00000287FF468AF34E649463A46404600F0F7FF814600287FF461AF2AE62369012B87DC7FE162D1089ACBF3130322B345498B425A462ED1039B514663B1424B1340CF
:404D0000B3F1D46F07D81B0DC3F16B034FF0FF3000FA03F301E04FF0FF338B421AD13B498A4202D101333FF404AE374B134003F5801B4FF0000A55E163B9BAF1000F09D128
:404D400063E7A3F580136FEA135B6FEA0B5B4FF0FF3A47E1069B13B113EA0B0F02E0149B13EA0A0F00F03E81089B039A5046594653B1FFF774FB02460B46DDE90A01FEF789
:404D800003FE82468B462DE1FFF769FB02460B46DDE90A01FEF7F6FD0022002382468B4601F080FD00287FF440AF1BE14946204601F011F900224FF0804306460F4601F027
:404DC00085FD002841D0089B13B10022104B0FE0BAF1000F03D1CBF313033BB91CE0BAF1010F03D1BBF1000F3FF41FAF094B0022CDE906230026064F3CE000BF02FCFFFFE1
:404E0000E2FBFFFFFFFF0F000000F07FFFFFEF7F0000F03F0000F0BF0022994B3046394601F04AFD40B9304639460022954BFEF75DFF06460F4601E0924F002607F1004399
:404E400016961793DDE9162312E08E4B304639460022FEF74BFF089B06460F4623B901F100431090119301E0CDE91067DDE91023CDE906232BF000452D0D834B2D059D42C4
:404E80002BD1DDE90A23ABF1547B50465946CDE90C2300F0E1FF02460B46DDE90601FEF725FF52465B46FEF76FFD21F000431B0D764A1B05934282460CD9754B0D9A9A4274
:404EC00003D10C9B01333FF434ADDFF8C4B14FF0FF3A76E001F1547B3BE0039B3BB3B5F1D46F24D85EA3D3E900233046394601F0EDFCB8B139463046FFF732F9002808BF6B
:404F00000120FEF77DFE089B06460F4623B901F100431290139301E0CDE91267DDE91223CDE90623079B03F1D6635B1B0793DDE90A01DDE906AB00F08FFF02460B46504685
:404F40005946FEF7D3FEDDE90A23FEF71DFD82468B46039B002B34D12BF000431B0D1B059D42CDF828B02CD139463046FFF7D0F8FEF756FE0B46024639463046FEF702FDC6
:404F8000089BCDE9060133B9BAF1000F03D10A9BC3F313067EB134A3D3E90023DDE9060101F08AFC88BB32A3D3E90023DDE9060101F0A0FC04E030A3D3E9002301F07CFC2A
:404FC00018BB1A99404600F0B6FC0499404600F0B2FC4946404600F0AEFC2146404600F0AAFC6FE5039B83B12A4B0D9300230C9350465946DDE90C23FEF778FE82468B46E5
:4050000019B910B92223C8F800301A99404600F092FC0499404600F08EFC4946404600F08AFC0599404600F086FC2146404600F082FC159B13B1159A199B1360099B1BB116
:4050400050460BF1004107E05046594604E000252A460121FFF747BB1FB0BDE8F08F00BF0000C0FFFFFFDF419535A094FFFFDF3F35E5AF350000E03F9535A094FFFFCF3FDE
:405080000000F03F0000E03F0000E07FFFFF9F7CFFFFEF7F00005039024B0A4601461868FFF7FEB900470208174B2DE9F0411D68AC6D06460F46FCB95020FFF779F8A86552
:4050C0008460AB6D046044601C61DC60AB6D9C615C61AB6DDC629C62AB6D5C631C63AB6DDC639C63AB6D5C641C64AB6DDC649C64AB6D1C77AB6D5C62AA6D394630460123C0
:40510000BDE8F04100F002B800470208F0B548B9106838B9F0BD17F8016B5EB1B542FAD12BB1204604460F4614F8015BF3E714600370F0BD4DB915602846F0BD17F8016BCE
:40514000B54207D0002EF9D11C4623460F4613F8015BF3E715B10021217000E02B461360F0BD00002DE9F04780464048D0F800900F463D4615F8014B09EB0400407800F05B
:40518000080000F0FF0608B12F46F2E72D2C03D1BD1C7C78012603E02B2C04BF7C78BD1C13B1102B0AD15BE0302C57D1287800F0DF0058284DD16C7810230235002E14BF0B
:4051C0004FF0004C6FF0004C0027BCFBF3FA384603FB1ACC09EB040E9EF801E01EF0040F01D0303C0BE01EF0030E1BD0BEF1010F0CBF4FF0370E4FF0570ECEEB0404A34224
:4052000010DDB7F1FF3F0AD0504506D801D1644503DC03FB0040012701E04FF0FF3715F8014BD7E77B1C0CD1002E4FF0220314BF4FF000406FF00040C8F800302AB9BDE8B2
:40524000F08706B1404272B107B1691E1160BDE8F0873024002BB1D10823AFE70A23ADE7302CA3D0AAE7BDE8F08700BF0447020813460A46014602480068FFF773BF00BFF3
:4052800000470208F0B506694B11B34200F1140527DA11F01F0105EB860605EB830201D1294616E0141D55F82320C1F1200ECA402B46B44209D2276807FA0EF73A4343F8AA
:4052C000042B54F8042BCA40F3E71A6052B1043308E0B2420B4605D252F8043B41F8043BF7E72B465B1B9B10036103B94361F0BDA0F13003092B01D820380AE0A0F161037E
:40530000052B01D8473804E0A0F14103052B02D82738C0B27047002070472DE9F04F8BB08A4690460693029000F0CAFA036803931846FFF779F8039B019003444FF0000B28
:4053400013F8013C0793DAF8003002331F4613F8010B302802D10BF1010BF7E7FFF7C8FF0446E0B9019A0399384601F091F9002834D1019BF85CFE18FFF7BAFF80B3334629
:40538000187830281F4603F10103F9D0FFF7B0FFB0FA80F56D0934464FF0010B01E000252C463A46164601323078FFF7A1FF0028F8D1019A0399304601F06AF950B954B913
:4053C000019BF4182246164601323078FFF790FF0028F8D134B1A41BA40003E03E4600E0044601253378502B01D0702B2AD173782B2B08D02D2B03D0711C4FF0000905E066
:405400004FF0010901E04FF00009B11C0878FFF76FFF431EDBB2182B14D8A0F1100211F8010FFFF765FF431EDBB2182B04D80A2303FB0202103AF2E7B9F1000F00D052429A
:40544000144400E03146CAF800102DB1BBF1000F14BF002006207CE1F31B013B2946072B02DD01315B10FAE7029800F02FFA019B00F1140A4FF00009C3F101030546CDF8E6
:4054800010A0CB460893B7422FD2731E0593079A16F8013C93420BD0BBF1200F16D1049BC3F8009004334FF000090493CB460DE0059B089A13449F42EED81846019A03993C
:4054C000099301F0E5F8099B68B1E5E716F8010CFFF70EFF00F00F0000FA0BF0059B49EA00090BF1040B1E46CDE7049840F8049BCAEB0000801028614701484600F0ABFAFC
:40550000D8F80060381AB04226DD871B3946284600F0A4FDC8B17B1E591103F01F024FF001095AF8211009FA02F20A420ED04B4502DC4FF0020909E0B91E284600F08EFDF6
:405540000028F6D04FF0030900E0814639462846FFF798FE3C440CE009DA371A29463A46029800F0ADFBE41B054600F1140A4FF00009D8F808309C4208DD0298294600F0AC
:40558000DAF9149A00231360A320E2E0D8F80400844253DA041BA6422EDCD8F80C30022B1AD0032B1CD0012B1DD1A6421BD1012E0BDC069AD8F80430136001232B61CAF8AD
:4055C0000030149B62201D60C3E0711E284600F045FD0028EDD106E0159B002BE9D002E0159B002BE5D10298294600F0A4F9149A002313605020ACE0671EB9F1000F06D13D
:405600003FB13946284600F029FD814601E04FF001097A11012307F01F0703FA07F75AF8223021461F42284618BF49F00209361BFFF728FE0227D8F8044000E00127B9F16E
:40564000000F00F08180D8F80C30022B0ED0032B10D0012B76D119F0020F73D0DAF8000049EA000919F0010F07D16BE0159BC3F101031593159B002B64D0D5F810A005F159
:4056800014034FEA8A0903EB090100201A68B2F1FF3F02D001321A6020E043F8040B9942F4D8AB689A4512DB69680298013100F00DF92A69023205F10C01834692000C3049
:4056C000FEF78DFD2946029800F035F95D462B695A1C05EB83032A6101225A61022F05F1140211D1D8F80030013B9E4227D17111012306F01F0603FA06F652F821301E4290
:405700000CBF022701271AE02B699A450ADA01212846FFF7B7FDD8F8083001349C423FF72CAF0BE016F01F0608D09144C6F1200659F8040C00F08FF9B042E8DB012747F009
:40574000200701E047F01007149B1D60069B38461C600BB0BDE8F08FC2F10802920070B5C2F120064368056803FA06F42C43D340046040F8043F8842F4D370BD30B5036862
:4057800011F8014B01334CB11A78A2F14105192D98BF2032A242F3D0002030BD0360012030BD2DE9F04F0B68D0F800B05E1102EB860613F01F0385B018BF0436351F1746A0
:4057C00000228246019346F8042CA8462C46009291461BF8011F00293CD0084603920291FFF786FD039A00BB0299202916D8009B9945EEDD444505D2072A03DC41462046D2
:40580000FFF7AAFFBC4223D90023A4F1040844F8043CCDF8009044461A46DAE7292948D10BF10103CAF8003014E00132082A09F1010906DDBC42CCD9002344F8043C01228D
:40584000043C216800F00F0040EA01102060C0E70822BEE7B9F1000F2BD0444505D2072A03DC41462046FFF777FFBC420CD93B4654F8042B43F8042BA542F9D2002243F85A
:40588000042B9D42FBD20BE0019B4BB1C3F120024FF0FF33D34056F8042C134046F8043C2B6843B9BD4202D101232B6003E0043DF6E7042000E0052005B0BDE8F08F0000CE
:4058C00000487047084702087047704770B5456A04460E463DB91020FEF76AFC6062456085600560C560656AEB6843B1636ADB6853F8260078B1026843F8262017E0212234
:405900000421204600F0CCFB636AE860DB68002BECD1002070BD012101FA06F56A1D9200204600F0BDFB0028F3D04660856000230361C36070BD70B5446A06460D463CB9A5
:405940001020FEF735FC7062446084600460C4603DB1736A6A68DB6853F82210296043F8225070BD2DE9F0410D691F4606460C4601F1140E0023DEF8000081B202FB0171C0
:405980000F0C000C02FB007089B2013301EB00419D424FEA10474EF8041BECDCD7B1A3689D4212DB616830460131FFF78FFF2269023204F10C01804692000C30FEF70FFC72
:4059C00021463046FFF7B7FF444604EB850301355F6125612046BDE8F0812DE9F8430C4615461F4609220833064693FBF2F3002101229A4202DA52000131FAE73046FFF7D0
:405A000065FF089B4361092D4FF00103036111DD04F10908C1462C4419F8013B0146303B0A223046FFF79EFFA145F5D108EB0504083C01E00A3409252D1B63199F4208DD7C
:405A400014F8013B0146303B0A223046FFF78AFFF3E7BDE8F883030C1B0413B90004102300E0002310F07F4F04BF0002083310F0704F04BF0001043310F0404F04BF800083
:405A80000233002803DB420003D5581C70471846704720207047036813F007020BD0D90722D49A074BBF5B089B08036003604CBF01200220704799B209B91B0C102213F04D
:405AC000FF0F04BF1B0A0832190704BF1B090432990704BF9B080232D90702D45B0805D00132036010467047002070472020704710B50C460121FFF7E9FE0122446102615F
:405B000010BD2DE9F74F14460A6923699A42B8BF0B468846BCBFA0461C46D8F81070D4F81090D8F80830D8F8041007EB09069E42C8BF0131FFF7CAFE00F1140505EB860C22
:405B40002B460022634502D243F8042BFAE704F1140208F1140102EB890301EB87070093009B0192934257D9B2F800B0BBF1000F23D08946AE464FF0000859F8044BBEF891
:405B800000A0A3B20BFB03A34FEA144ADEF8004043444FEA14480BFB0A8404EB1344F2469BB243EA04434F454FEA14484AF8043B01D9D646E1E7CEF80480019BB3F802A00D
:405BC0000432BAF1000F21D02B682C4689464FF00008B9F800E0B4F802B00AFB0EBEF044A3469BB243EA08434BF8043B59F8043BB4F804E01B0C0AFB03E303EB18434F4576
:405C00004FEA134801D95C46E3E763600435A7E75CF8043D13B9013E002EF9DC066103B0BDE8F08F2DE9F843154612F0030206460F4607D0013A214C002354F82220FFF7A5
:405C400091FE0746AD1036D0746A3CB91020FEF7AFFA7062446084600460C460D6F82480D8F808404CB940F271213046FFF740FF0023C8F80800044603604FF00008EB0733
:405C80000AD5394622463046FFF73BFF394681463046FFF750FE4F466D100CD0206808B10446ECE7224621463046FFF72AFF2060C0F80080F4E73846BDE8F883BC7D081046
:405CC0002DE9F0470C464FEA621A26694968A368564407469146751CAB4202DA01315B00FAE73846FFF7F2FD0023804600F114011A46534503DA41F823200133F9E72AEAB4
:405D0000EA73206901EB830319F01F0904F1140101EB800E14D0C9F1200C0022086800FA09F002439A4643F8042B51F8042B8E4522FA0CF2F2D8CAF8042042B1B51C06E0B9
:405D4000043B51F8042B43F8042F8E45F9D8013D3846C8F810502146FFF7EDFD4046BDE8F08703690A699B1A10B511D192001430143183180A4453F8044D52F8041D8C4281
:405D800002D007D3012010BD9842F4D3002010BD184610BD4FF0FF3010BD2DE9F8430C460746114620461546FFF7DBFF061E08D131463846FFF78AFD012303614661BDE83A
:405DC000F883BCBF23462C4638466168BABF1D4601260026FFF77AFD2B69C660266905F11409143404EB860709EB830800F114054FF0000C54F8043B59F8042B1CFA83F16C
:405E00001FFA82FE120CCEEB0101C2EB134303EB214389B24FEA234CC84541EA0343A64645F8043BE6D8BE450ED25EF8041B1CFA81F2131403EB114392B242EA03424FEADC
:405E4000234C45F8042BEEE755F8043D0BB9013EFAE70661BDE8F883104B0B40A3F15073002B02DD0020194670475B421B15132B4FF000004FF0000104DC4FF4002242FA31
:405E800003F17047143B1E2B4FF00102DABFC3F11F0302FA03F31346184670470000F07FF8B5056900F1140606EB85052F1F55F8044C2046FFF7CFFDC0F120030A280B60FA
:405EC00014DCC0F10B0E24FA0EF1BE4241F07F5334BF55F8081C0021153004FA00F021FA0EF143F4401340EA010223E0BE423ABFA5F1080755F8081C00210B3815D0844020
:405F0000C0F1200544F07F5444F44014B74221FA05FE44EA0E038CBF57F8044C002401FA00F0EC4040EA040204E044F07F5343F440130A4610461946F8BD2DE9F3410121B3
:405F40001C46089E099D9046FFF7C0FCC4F31303C4F30A5407460CB143F480130193B8F1000F19D002A840F8088DFFF794FD009B48B1019AC0F1200102FA01F10B43C240C3
:405F80007B61019200E07B61019BBB61002B14BF02210121396107E001A8FFF77CFD019B7B6101213961203034B1A4F2334404443460C0F1350009E007EB8103A0F2324087
:405FC00030601869FFF747FDC0EB41102860384602B0BDE8F0812DE9F743884669468146FFF75EFF0D46044601A94046FFF758FFD9F81030D8F810200F469A1A9DE80A00E2
:40600000C91A01EB4213002BC8BF05EB03550646D8BFA7EB035732463B4620462946FDF78FFF03B0BDE8F083013910B549111469013102F1140300EB810103EB8404A3427E
:40604000024604D253F8042B40F8042BF7E700238A4202D242F8043BFAE710BD00F1140200694B11984210B50CDB0CDD11F01F0109D052F8234024FA01F000FA01F18C42AE
:406080000CD100E0034602EB8303934204D953F8041D0029F9D001E0002010BD012010BD38B502FB01F42146FEF7FAF8054618B122460021FEF79EF8284638BD2DE9F04796
:4060C0008E689E4282460C46914698463ED88A8912F4906F3AD0256809696F1A6569022305EB450595FBF3F57B1C43449D4238BF1D4653050FD52946FEF7D2F8064698B140
:406100003A462169FEF76BF8A38923F4906343F08003A38113E02A4600F03DFB064670B921695046FEF76EF80C23CAF80030A38943F04003A3814FF0FF30BDE8F08726617A
:4061400065613E44ED1B2660A5604646464528BF464632464946206800F002FBA3689B1BA36023681E4426600020BDE8F08700002DE9F04F9DB0804603938B891C060D4644
:4061800016460DD50B695BB94021FEF789F82860286118B90C23C8F80030CDE040236B610023099320238DF82930DFF89CB130238DF82A3037463C4614F8013B1BB9B7EB72
:4061C000060910D003E0252BF9D02746F3E74B46324629464046FFF771FF013000F0A780099B4B4409933B78002B00F0A08000234FF0FF3204930793059206938DF8533008
:406200001A930126052221784E4800F059FA671C049B38B14B4A801A06FA00F0184304903C46EFE7D90644BF20228DF853201A0744BF2B228DF8532022782A2A03D0079A99
:4062400000210A200BE0039A111D12680391002A10DA524243F00200079204900BE0274601343B78303B092B03D800FB02320121F5E701B107923B782E2B1ED17B782A2B90
:406280000AD1039B1A1D1B680392002BB8BF4FF0FF330237059310E000230593781C19460A24074601303A78303A092A03D804FB01210123F5E703B1059103223978224813
:4062C00000F0FEF940B14023CBEB000003FA00F0049B18430490013739781C488DF8281006227E1C00F0ECF988B1194B33B9039B073323F007030833039314E003AB00930D
:406300002A46144B04A94046AFF3008007E003AB00932A460F4B04A9404600F093F8B0F1FF3F824603D0099B5344099342E7AB895B0601D4099801E04FF0FF301DB0BDE853
:40634000F08F00BFB87E0810BE7E0810C27E081000000000BD6008102DE9F04791461F460A698B68DDF820809342B8BF1346C9F8003091F8432006460C4612B10133C9F874
:4063800000302368990642BFD9F800300233C9F80030256815F0060510D104F1190A07E00123524639463046C04701301AD00135E368D9F800209B1A9D42F1DB94F843303A
:4063C0002268003318BF012392060FD5E1185A1C302081F84300224494F8451082F84310023303E04FF0FF30BDE8F08704F1430239463046C0470130F4D02268D9F8005062
:40640000E36802F00602042A08BF5D1B2269A3680CBF25EAE57500259342C4BF9B1AED184FF000091A344D4509D00123224639463046C0470130D5D009F10109F3E700204C
:40644000BDE8F0872DE9F04317460A7E85B06E2A984606460C460C9B01F1430E00F0AE8011D8632A22D009D8002A00F0BB80582A40F0CA8081F84520834955E0642A1ED08C
:40648000692A1CD0C0E0732A00F0B08009D86F2A2ED0702A40F0B8800A6842F020020A603EE0752A24D0782A3AD0ADE01A6801F14205111D1960136884F84230A8E0216890
:4064C0001A6811F0800F02D0111D196008E011F0400F02F10401196002D0B2F9003000E01368002B3CDA2D225B4284F8432037E021681A6811F0800F02D0111D196007E042
:4065000011F0400F02F10401196001D0138800E01368227E5C496F2A14BF0A2208221BE078225A4984F845202268186812F0800F00F104051D6003D1550601D5038800E031
:406540000368D00744BF42F0200222601BB9226822F0200222601022002084F8430001E049490A226568A560002D08DB206820F0040020602BB9002D7DD175460CE0002B0D
:4065800079D07546B3FBF2F002FB1033CB5C05F8013D03460028F5D1082A0BD12368DA0708D5236962689A42DEBF302305F8013C05F1FF35C5EB0E0323612EE008681A684C
:4065C000496910F0800F03D0101D1860136808E010F0400F02F104001860136801D0198000E0196000232361754616E01A68111D1960156862680021284600F061F808B12A
:40660000401B6060636804E004F1420584F8422001232361002384F84330CDF800803B4603AA21463046FFF797FE013002D14FF0FF3026E023692A4639463046C047013040
:40664000F5D023689B0710D5002504F1190907E001234A4639463046C0470130E7D00135E368039A9B1A9D42F2DBE068039B9842B8BF184605E00B7884F8423004F14205E2
:406680008AE705B0BDE8F083C97E0810DA7E081030B582B1451E013915F8013F11F8014FA34206D1EC431444E04201D0002BF3D11C46181B30BD104630BD00000000000088
:4066C00001F0FF01102A2BDB10F0070F08D010F8013B013A8B422DD010F0070F42B3F6D1F0B441EA012141EA014122F007047FF000070023F0E80256083C85EA010586EAF3
:40670000010685FA47F5A3FA87F586FA47F6A5FA87F68EB9EED1F0BC01F0FF0102F0070232B110F8013B013A83EA010313B1F8D10020704701387047002D06BF3546033838
:40674000073815F0010F07D1013015F4807F02BF013015F4C03F0130F0BC0138704700BF884210B501EB020301D8421E0BE09842FBD28118D21AD34204D013F8014D01F823
:40678000014DF8E710BD994204D011F8014B02F8014FF8E710BDF8B5074615460E4621B91146BDE8F840FDF77BBD1AB9FDF72AFD2846F8BD00F015F885420ED92946384659
:4067C000FDF76EFD044650B131462A46FDF707FD31463846FDF716FD01E03046F8BD2046F8BD51F8040C0028BEBF091851F8043CC0180438704700004FF0FF3C06E000BF5B
:406800004FF0010C02E000BF4FF0010C4DF804CD4FEA410C7FEA6C5C4FEA430C18BF7FEA6C5C1BD001B050EA410C0CBF52EA430C91EA030F02BF90EA020F0020704710F198
:40684000000F91EA030F58BF994208BF90422CBFD8176FEAE37040F0010070474FEA410C7FEA6C5C02D150EA013C07D14FEA430C7FEA6C5CD6D152EA033CD3D05DF8040BC8
:40688000704700BF8446104662468C461946634600E000BF01B5FFF7B7FF002848BF10F1000F01BD4DF808EDFFF7F4FF0CBF012000205DF808FB00BF4DF808EDFFF7EAFF63
:4068C00034BF012000205DF808FB00BF4DF808EDFFF7E0FF94BF012000205DF808FB00BF4DF808EDFFF7CEFF94BF012000205DF808FB00BF4DF808EDFFF7C4FF34BF0120E4
:4069000000205DF808FB00BF044A05491368002B08BF0B46184410601846704794700208F0700208F8B500BFF8BC08BC9E467047F8B500BFF8BC08BC9E467047000000006F
:4069400001B40248844601BC604700BF4D4A020816000000070000000300000001000000010000000000000005036000040000000100000000000000010000000604600090
:4069800008000000A867020831040810656E746572656420726561642063617365206261747465727920736572766963650D0A0052656164206572726F720D0A00000000EA
:4069C00072656164696E6720726573706F6E73652025730D0A00000053656E64696E6720746F205065727068657269616C0D0A00636861726765207374617475733A2025A4
:406A0000640D0A00656E74657265642072656164206361736520637573746F6D20736572766963650D0A000020000000742076616C75653A2025640D0A0000005420766183
:406A40006C75652070686173653A2025640D0A00542076616C756520616D703A2025640D0A000000762077617665547970653A2025730D0A000000007620616D703A202575
:406A8000640D0A007620667265713A2025640D0A00000000762077617665666F726D3A2025640D0A0000000025750000726561645F7265675F646174613A2025640D0A0060
:406AC0004D656D6F727920616C6C6F636174696F6E206661696C65640D0A00004572726F720D0A004D656D6F727920416C6C6F636174696F6E204661696C65640D0A0000FF
:406B000056616C7565206368616E6765643A2025640D0A00506978656C20647261776E0D0A0000004261636B6C69676874206F6E0D0A0000506F776572696E6720646F77CD
:406B40006E0D0A0047656E6572617465645F536F757263655C50536F43365C70646C5C647269766572732F7065726970686572616C2F6770696F2F63795F6770696F2E686B
:406B800000000000496E73696465206D794932435F4932434D61737465725772697465427974652C2061636B3A20202564200D0A00000000496E73696465206D79493243B8
:406BC0005F4932434D617374657253656E64526573746172742C206D794932435F4641494C45443A20202564200D0A00496E73696465206D794932435F4932434D6173749D
:406C0000657253656E64526573746172742C2061636B3A20202564200D0A0000496E73696465206D794932435F4932434D617374657252656164427974652C206D794932F3
:406C4000435F4641494C45443A20202564200D0A00000000496E73696465206D794932435F4932434D617374657252656164427974652C2061636B4E61636B3A20202564DF
:406C8000200D0A0053746174757320636865636B20313A202564200D0A00000053746174757320636865636B20323A202564200D0A00000053746174757320636865636BE0
:406CC00020333A202564200D0A00000046616E2076616C75653A2025640D0A0050574D312056616C75653A2025640D0A0000000050574D3120476574436F6D706172653A39
:406D00002025640D0A00000050574D322056616C75653A2025640D0A0000000050574D3220476574436F6D706172653A2025640D0A00000044697361626C65642050574D03
:406D40003120476574436F6D706172653A2025640D0A000044697361626C65642050574D3220476574436F6D706172653A2025640D0A0000416D706C6974756465206973E1
:406D8000206F66662061742030202564200D0A003031323334353637383961626364656600000000000003000000180001000028010000000900000000180000000000008B
:406DC000020003280100020003000000002A0000000000000300002A01000201030000000900000060430208040003280100020005000000012A0000000000000500012ABA
:406E000001000201050000000200000068430208060003280100020007000000042A0000000000000700042A010002010700000008000000704302080800032801000200EE
:406E400009000000A62A0000000000000900A62A010002010900000001000000784302080A000028010000000D00000001180000000000000B000328010020000D000000D0
:406E8000052A0000000000000C00052A000020010D00000004000000804302080D00022901010A030D00000002000000884302080E000028010000001000000002180000DD
:406EC000000000000F0003280100040010000000062A0000000000001000062A000104011000000001000000904302081100002801000000150000000F1800000000000069
:406F0000120003280100020015000000192A0000000000001300192A0100020115000000010000009843020814000429010002011400000007000000A043020815000229D7
:406F400001010A031500000002000000A843020816000028010000081800000010000000B04302081700032801000E001800000010000000B84302081800A23601010E0903
:406F80001800000032000000C043020874983D9E375AE9B8884691D2210CF03B0A6BEF0EFA1AAC95CC425A69A236C8930100030005000700090000000A000C000D000000D1
:406FC0000E001000160018000000000011001300140015000400000000000000000000000000000000000000700200000080000000000000000000000040000000000000C2
:407000000000000000000000000000000200000003000000FFFFFFFF03000000FFFFFFFF03000000FFFFFFFF03000000FFFFFFFF03000000FFFFFFFF04000000020000004D
:407040000000000000000000000000000080000000800000000000000040000000400000000000000000000000000000000000000200000003000000FFFFFFFF030000008C
:40708000FFFFFFFF03000000FFFFFFFF03000000FFFFFFFF03000000FFFFFFFF040000000000000000000000000000000000000070020000008000000000000000000000E1
:4070C00000400000000000000000000000000000000000000200000003000000FFFFFFFF03000000FFFFFFFF03000000FFFFFFFF03000000FFFFFFFF03000000FFFFFFFF53
:407100000400000000000000000000000000000000000000000100000080000000000000000000000040000000000000000000000000000000000000020000000300000085
:40714000FFFFFFFF03000000FFFFFFFF03000000FFFFFFFF03000000FFFFFFFF03000000FFFFFFFF0400000007000000000000000000000000000000FF000000008000008D
:40718000000000000000000000400000000000000000000000000000000000000200000003000000FFFFFFFF03000000FFFFFFFF03000000FFFFFFFF03000000FFFFFFFF91
:4071C00003000000FFFFFFFF0400000000000000000000000000000000000000FF0000000080000000000000000000000040000000000000000000000000000000000000CD
:407200000200000003000000FFFFFFFF03000000FFFFFFFF03000000FFFFFFFF03000000FFFFFFFF03000000FFFFFFFF04000000000000000000000000000000000000004D
