:020000041000EA
:4000000000400208230100100D00000085010010000000000000000000000000000000000000000000000000000000008101001000000000000000008101001081010010E9
:400040008101001081010010810100108101001081010010810100108101001081010010810100108101001081010010810100108101001081010010810100108101001060
:400080008101001081010010810100108101001081010010810100108101001081010010810100108101001081010010810100108101001081010010810100108101001020
:4000C00010B5064C2378002B07D1054B002B02D0044800E000BF0123237010BD881000080000000048610010084B10B5002B03D00749084800E000BF07480368002B00D12B
:4001000010BD064B002BFBD09847F9E7000000008C1000084861001050020008000000007047FFF7FDFF72B60F4C104DAC4209DA21686268A368043B02DBC858D050FAE740
:400140000C34F3E70A490B4A0020521A02DD043A8850FCDC084809490860BFF34F8F00F00DF900F01DF8FEE74CB0011064B0011088100008DC1D00080000000808ED00E03A
:40018000FEE7FEE700B504207146084202D0EFF3098001E0EFF30880043002F0FDFBFEE710B562B6002000F029FB044800F06CF906F0AAF8002002F031FBF9E70000081090
:4001C00010B5002000F054FF10BDC04670B56249E0239B00CB580F2213401A00D0329200525807210A40032A05D0042A06D0002A12D15A4814E05A4A106811E01A00C03263
:400200009200554952581F210A40112A06D0132A04D0FA20C00103E0524801E080200002002B36D14C4BB222D2009A5801211140B125ED005A59120F032422405B591B0F8B
:400240001C4207D0444C63591B0F03242340012B02D102E0012300E00023002B01D0002901D1032A4BD13C4BB022D2009D58AD03AD0B3D495958C904C90C9C58240E012356
:400280001C40013403F008FB6843210003F004FB35E0012B33D1304BC822D2009A5801251540C024E4001A59120F03210A401B591B0F194207D028490B591B0F03210B4008
:4002C000012B02D102E0012300E00023002B01D0002D01D1032A12D11F4DC022D200AB587F210B40A958090A1F263140AC58240C3440584303F0D0FA210003F0CDFAE02335
:400300009B00154AD3581B0903221340D840144C6060164B1D692D0AFC32154001351969090E013103F0B8FAA060290003F0B4FA0500E06020610E4BC0180E4903F0ACFACC
:4003400020750D4BE818FA21890003F0A5FAA061C003E06170BDC0460000264000127A00C000000800366E0184050000000021403F420F0040420F00E703000010B5284899
:4003800002F0DAFB274CB022D200A3585B005B08A350E0218900635830208343635080235B04A350204A214BE250A02292010433E250FF221E4BE25001F068F9C0225200A8
:4003C000A35801218B43A35000F086F9FFF7FEFEB0235B055B78002B04D0B0235B055B78DBB200E02123212B03D1124B0022DA605A60114C22008021042000F081FB20009F
:40040000103000F05BFC0D4B1A685123D35C002B02D00B4800F0C8FC01F0FEF910BDC046605800100000264001000200840500008C050000E0002340A4100008D81D0008B2
:40044000085400108023024AD3580320184070470000214010B502F030FB084980228C58074B2340074C23438B508823034AD358DB06FAD502F025FB10BDC0460000214048
:40048000FCFF00000100FA0570B50500830504D0E821FF310F4802F049FA02F00EFB0400FFF7D0FF032801D1FFF7D4FF0A4AB0239B00D55080215058084B03400848034310
:4004C00053508823044AD358DB06FAD5200002F0F8FA70BD3C54001000002140FCFF00000300FA05FEE7C046014A024B1A60704701001180000E1F4130B587B0664A11685D
:4005000008230B431360654C03E0012002F002FA013C614B1B695B0701D4002CF5D1002C01D15F4B00E00023002B02D00520FFF7D9FF5C48A021C900435803229343023AFB
:4005400013434350584A116808688823CB58C31818685649084018601368186884241B59C01803681B021B0A80256D042B430360106805680359EB18186801401960136803
:400580003E229A5C002A06D04648E02189004258753CA24342503E229A5C002A06D04148E021890042583024A24342503E229B5C002B07D03B49E02292008B588020000643
:4005C00003438B500021012000F0B6FD0021022000F0B2FD0021032000F0AEFD0021042000F0AAFD0021002000F0A6FD01A8304903000A0032CA32C312CA12C300F0F0FDD6
:40060000002802D00420FFF76DFF2649294A8B588020000603438B50274800F09DFE002802D00420FFF75EFF1E4C244BE158244A0A40E250E158234A0A40E250E258802546
:400640002D062A43E250043BE1581F4A0A40E250E1581E4A0A40802149010A43E250E258802109020A43E2500B4A1168184B0B401360002002F028FA164BE2582A43E25034
:40068000E158012291430A43E2503221012002F09BF907B030BDC0460000274020A1070002004A0000002640D81D0008FF00FFFF5C540010087F0000400D0300040500006C
:4006C000FEFCFFFFFFFF00FFFFF0FFFFFF8FFFFFFFFCFFFF0C050000F0B58FB03221012002F072F902F048F9002814D102F034F9C0235B00384AD358DB0705D41100374A36
:400700008B585B005B088B503349344A8B588020000603438B50002001F00CFF022001F071FF2F4A516C2F4B0B40E82189010B435364536C1B0AFF2213403A2B07D1284A60
:40074000516C294B0B40E82189010B43536401AC34220021200004F01FFE244E22000021300001F065F934220021200004F014FE22000121300001F05BF9FFF7BDFE1C4D6C
:4007800022002B00143383CB83C283CB83C283CB83C22100300001F0E5FA22002B00383343CB43C243CB43C243CB43C22100114801F0D8FA22002B005C3323CB23C223CB00
:4007C00023C223CB23C221000B4801F0CBFAFFF78BFE0FB0F0BDC046000026400C05000000002740FF00FFFFFFC5FFDF000032405C540010000332408003324010B50548FB
:4008000002F0FAF90122044B1A70002801D102F0FFF910BDE00000083412000870B505000C001A4B1B6828229A5C012A15D1820807211000884327D19200AD1AED00FF2097
:40084000A8401B6820339A181168AC4023004B40184004004C40146016E03A229B5EDBB2994203D176210A4802F060F8074B1B681B680722154080221206154380229201C2
:4008800094466444A400E55070BDC046D81D0008DC54001070B504000D000B4B9A680B4B9A420CD1002904D13821FF31084802F03DF81034054BA400E058E55003E0103406
:4008C000A400044BE05870BD00ED00E000000008DC54001000000010F0B5474680B482B0061E01914AD04368032B03D93221264802F01CF80023F05E002804DBB178FFF700
:400900008DFF002400E0214C0023F15E7368002912DB88081E4FC0308000C55903221140C900FC3290468A4095439A01434613408B402B43C35116E089B20F220A40083A35
:4009400092080632920013481018476803221140C900FF252A008A4097439A012B0013408B403B4343600B4B9A680B4B9A4206D10023F05E0199FFF78DFF00E0034C20006E
:4009800002B004BC9046F0BDDC5400100100560000E100E000ED00E00000000870B504000D000A4B1A68B423D3581B181B68002B0ADA0B0C03D00649064801F0B7FF2D04E2
:4009C0002D0C6560002000E0034870BDD81D0008D50200002055001001008A0070B505000C000368002B01DA002300E0084B002B0BD1EA60230C03D00649074801F096FF29
:400A00002404240CAC60002000E0014870BDC04601008A00BB0200002055001070B505000C1E03D19921084801F080FF074B1A68B423D3585B191B68002B03DAEB682360BC
:400A4000002000E0024870BD60550010D81D000801008A0070B504000D00234B1A683123D35C834236D9002936D00B68DB0635D13123D35C984204D3C421FF311B4801F00F
:400A800055FF194B1B681A6AB0215B5A5C431419174E34602B68DA080021686804F07CFC00212000FFF77AFF3468002D03D111490E4801F03BFF2A0000212000FFF78EFF44
:400AC00000280DD10A4B18680021FFF767FF002808D108E0084806E0074804E0064802E0064800E0054870BDD81D000820550010381200089303000003018A0001018A00F0
:400B000010B50400002A17D1002915D1124B1A683123D35C984204D3C421FF310F4801F005FF0D4B1B681A6AB0215B5A5C4314190B4B1C6000200EE0002A09D0002909D0C1
:400B4000074B59609A60191D2000FFF783FF02E0044800E0034810BDD81D0008205500103812000803018A00F0B583B00D001C4B1B68DC68236883422DD947097B01C01A0B
:400B8000012383401E00002903D101F096FF019001E000230193124B18680368002B01DA002300E00F4B002B0ED16368BF00DF193B68334203D133433B60002400E00A4CF6
:400BC0000021FFF7EBFE00E0084C002D04D1019801F077FF00E0064C200003B0F0BDC0463812000801008A00020188000301880004018A00F0B583B00D001C4B1B68DC6871
:400C0000236883422DD947097B01C01A012383401E00002903D101F050FF019001E000230193124B18680368002B01DA002300E00F4B002B0ED16368BF00DF193B683342FE
:400C400003D0B3433B60002400E00A4C0021FFF7A5FE00E0084C002D04D1019801F031FF00E0064C200003B0F0BDC0463812000801008A00020188000301880004018A00D1
:400C80000A4B1B68DA68136883420BD943095901401A0121814052689B009B580B4203D0034802E0034800E003487047381200080101880004018A0000018800034B1B688C
:400CC000002B01D1014B18607047C04644120008F0B5474680B404000F0090461E002D4B1B68002B03D1B5212B4801F01FFE294B1B682C2060431C18FF2215003540256010
:400D0000330A13406360360CA660244B1A683123D35C9D4204D3C421FF31214801F006FE1E4B1A68B023D35A6B43116A8C466344236166683223D35C9E4204D3E021FF3130
:400D4000174801F0F3FD154B1B681D6A80367601AD196561A668330C04D0FF214900104801F0E4FD330C03D00E490D4801F0DEFD3604330C1E43AE604346E3612762002371
:400D8000A361069B002B02D000229B5EA38104BC9046F0BD44120008A0550010D81D000820550010FF010000F0B58FB0041E03D15221294801F0BAFD6368032B03D954217A
:400DC000254801F0B3FDE36A002B03D15821224801F0ACFD236B002B03D159211E4801F0A5FD07AA1300210061C961C321C921C302AD290023001433C1CBC1C141CB41C1BD
:400E00000821535E0CAE3380144B1B6836215B5E07998C466344B370089B0D930B9B0A980096A26AE16AFFF753FF2B69E868002200920021FFF74CFF216B3000FFF74CFD88
:400E40000023F25E002A05DB1F231A401E3B9340034A13600FB0F0BDA0550010D81D000800E100E0F8B505000F0016001C00002A03D1FD21224801F059FD224B1B68002B63
:400E800003D1FE211E4801F051FD1E4B1B682C2128004843181879435918012213004D68AB401B044568AA4015000269002A20D08F69002F1FD11268002A01DA002200E093
:400EC000114A002A19D132681204120C134333600369DE6001238B614C6204692B0C03D00A490B4801F022FD2A04120CA260002004E0084802E0084800E00748F8BDC04679
:400F0000A05500104412000801008A00BB0200002055001004028A0007028A0070B504000D0016000F4B1B68002B04D1AF2149000D4801F0FBFC0B4B1B682C2060431C18E3
:400F4000236A002B04D1B1214900074801F0EEFCE369B34204D9236AB6009D51002000E0024870BD44120008A05500100A028A0070B505000C00084B1B68002B04D1C821EB
:400F80004900064801F0D2FC034B1B682C2068431818846270BDC04644120008A055001070B582B0040000230193002804D1D221FF312D4801F0BAFC2369002B04D1E92183
:400FC0004900294801F0B2FC6369002B04D1D421FF31254801F0AAFC236A002B04D1EA214900214801F0A2FC6269D5682B0C24D01B041360136820691C4B1A68B423D35816
:40100000C3181B68002B18DA01A9FFF707FD00280ED1019803681E0CFF221340E269934207D29B00226AD358002B02D0984700E0002631002069FFF7B1FC2D042D0C0FD015
:4010400063691D601B68636A002B03D098470023636203E0A36A002B00D098470023A36163691B6802B070BDA0550010D81D000810B50400084B1B68002B04D1B221FF314F
:40108000064801F053FC044B1B682C2060431818FFF786FF10BDC04644120008A055001010B504000E4B1B68002B03D10D490E4801F03CFC0A4B1B682C20604318180C2361
:4010C000C25E002A0ADB1F231A401E3B9340802206498B50BFF34F8FBFF36F8F002010BD441200082B020000A055001000E100E010B504000C4B1B68002B03D10B490C4865
:4011000001F014FC084B1B682C20604318180C23C25E002A05DB1F231A401E3B9340054A1360002010BDC046441200084B020000A055001000E100E0134B1A683C23D35C04
:4011400083421DD9042904D94B1EFF3B9BB2132B18D8FF290CD91F2319400C4A0300C0339B009950D03080000423835000200AE007231940D0308000044BC150002002E02B
:40118000034800E002487047D81D00080000264001004A0010B504000E4B1A683C23D35C834204D8A12149000B4801F0BFFB2300D0339B00094A985807231840042807D1EF
:4011C000C034A400A3581B30184080235B00184310BDC046D81D0008E05500100000264070B5041E03D14A494A4801F09FFBB023DB00494AD358002B00DA87E0474B226826
:401200009A4203D94649434801F090FB23689B039B0BE279002A02D08022520400E000221343B022D2003C498B50A2883D4B9A4204D98C218900374801F078FB22893A4B32
:401240009A4203D93949334801F070FBA388DB04D90C23891B04364A13400B43354A2E498B50A37A0F2B04D98E218900294801F05DFBE37A0F2B03D92F49264801F056FBF0
:40128000A289284B9A4203D92C49224801F04EFBA37A0F211940E27A1201FF2313400B43A289120226490A401343A27B1207C02189050A401343B122D20017498B50A37958
:4012C000042B03D91F49134801F030FB228A164B9A4204D9912189000E4801F027FB0E4819494558194B1D40A3791B02E022D20013402B4343504558154B1D40238A1B04FD
:401300000B4A13402B434350002000E0114870BD1F020000E055001000002640FFFF030029020000FF1F0000FF010000310200000000FF0184050000390200003A02000035
:4013400000FF1F00430200008C050000FFF8FFFFFFFF00FE03004A0070B505003149324A8B588020000603438B502C0003E0012001F0D0FA013CB223DB002A4AD3585B0798
:4013800001D4002CF3D12749B122D2008858274B03408020800503438B50002D01D0002C0CD02049B022D2008B588020000603438B5003E0012001F0ADFA013CB223DB0032
:4013C000184AD358DB0701D4002CF3D1002D01D0002C08D01349B122D2008B58C020800503438B5013E00F4BB121C90058580F4A02408020800502435A5008395A585200C1
:4014000052085A5008495A58520052085A50002D03D0002C03D0002002E0002000E0044870BDC046000026408C050000FFFFFFCF02004A00F0B5564CA04200D9A2E0A24258
:4014400000D9A1E0534B994200D99FE00124524B1C70FF2805D80F2505400E340F26072321E04E4B984205D80F2303400F240026002518E0040A0F2323401D00484B98426C
:4014800008D80001FF2318402B000343FF240026002508E00402F020000120402B000343404C00260025FF2A0DD81201FF2002401543E020C0021843F0231E43F0231B03AF
:4014C00023439C4625E03548824207D81004F022120310401843224394461AE0100A0004F0273F03384018432D4B9A4209D81205F0231B0413401843FF231B0423439C4661
:4015000007E01206F0231B051A401043264B23439C46264B1A68176AB023D45AE200131BFB181B68002BF4DA1B4B5B78002B04D01F4B204AD358002B18DA1F4A1F4B1A605E
:401540001F4A204B1A601B4AA324E4001359B3431D4315511C4C13596546AB43184310510D4B5960124BD150002000E017480F4B1A68146AB023D15ACA00531AE318002222
:401580005A6004E0114802E0104800E00F48F0BD0F060000FFFFFF0048120008FF040000FF0500000F0F000000000F0FD81D00081C050000000026401F1F0000080126402E
:4015C0003D3D0000040126401405000001004A0070B50022264B1A70264B1C68226AB023E55AEC00631BD3181C68002CF4DA224A1468224A944206D1214A1468214A9442D1
:4016000003D0002502E0002500E00125A422D2001D4CA4582402240A00225A60002D24D0002C23D000280FD1114B58680A000023002102F0C7FA6208002380185941220032
:4016400002F0A0FA040011E00A0000232000002102F0B8FA064B5A685408002500196941002302F08FFA040000E00024200070BD48120008D81D0008080126401F1F000081
:40168000040126403D3D0000000026400749C02252008B589B009B088020C00503438B508B588020000603438B50704700002640C00543425841C0B27047C046214B984295
:4016C00030D00ED8402831D004D800281FD010282AD031E080282BD080235B00984229D02AE0194B984229D007D8A0231B0698420DD0164B984212D01EE0154B98420AD007
:40170000144B984209D0144B984215D101E0002016E0124814E0124812E0124810E0A020C0030DE007480BE00F4809E00F4807E00F4805E0034803E00E4801E0A420C0034D
:401740007047C04606005200010000F0090000A0040000F0050000F0030000F0010052000200520003005200010050000200500005005200FF00520070B5124B1A6831233F
:40178000D35C002B04D1C421FF310F4801F0CEF80C4B1D682C00B423EB582A6A944663441B68002B0BDB094B1868FFF787FF6B6801229A6063689B68002BFBD100E00448DB
:4017C00070BDC046D81D000868560010541200080200500010B50D4B1861002805D002230370FD33437000234380094B1B6850229A5C002A08D051229B5C002B04D04F3A04
:4018000004490020FFF78AFB10BDC04654120008D81D0008C902000810B502481430FFF7D9FF10BD5412000870B504000D00FFF73FFF002836D0002D36D0FEF7C7FC1B4B6A
:401840001B4A1A6000225A609C60DD60194B1B6852329A5C002A1FD01A6884215B58D31819681A68120AFF2313405A1C0B0E01335343114C5C43114B1868FA21890002F0DA
:401880000BF80100200002F007F80D4BC1188020400003F0A9FD08E000218020400003F0A3FD02E0074800E0064870BD5412000800010005D81D0008C0EA2101C400000858
:4018C000482600000600520010B5FFF755FF10BD10B50400FFF7ECFE00283ED0FEF776FCE02252051E4B1A601E4B1B78002B05D01B4A1368802149000B431360184B5C601E
:4019000000229A60DA60184B1B6854329A5C002A1ED01A6884215B58D31819681A68120AFF2313405A1C0B0E013353430F4C5C430F4B1868FA21890001F0AEFF01002000EE
:4019400001F0AAFF0B4BC118002003F04DFD05E00021002003F048FD00E0074810BDC046541200080B000016D81D000860F59000C4000008980800000600520070B5040083
:401980000D00FFF795FE002842D0002D42D0FEF71DFCC022D204204B1A60204B1B78002B05D01D4A1368802149000B4313601A4B802252005A609C60DD60194B1B68AD3AC8
:4019C0009A5C002A1FD01A6884215B58D31819681A68120AFF2313405A1C0B0E01335343104C5C43104B1868FA21890001F054FF0100200001F050FFE1239B00C11800206F
:401A000003F0F2FC07E00021002003F0EDFC02E0064800E0054870BD541200080B000016D81D0008808D5B00C400000806005200F8B54F464646C0B406000D00140000288E
:401A400000D16FE1002A00D16EE1072903D94521B84800F06BFF2368012B03D94621B54800F064FF0F2362689A4303D04721B14800F05CFF237A1F22934303D04821AD48A8
:401A800000F054FFE368032B03D94921A94800F04DFF2369012B03D94A21A64800F046FF6369012B03D94B21A24800F03FFFA369012B03D94C219F4800F038FFE369032B74
:401AC00003D94D219B4800F031FF236A012B03D94E21984800F02AFF636A012B03D94F21944800F023FFA36A012B03D95021914800F01CFFE36A032B03D951218D4800F071
:401B000015FF236B072B03D952218A4800F00EFF2768072D03D98849884800F007FF012F04D9CA218900854800F000FF002F03D10123AB40736002E00123AB40B360676888
:401B4000072D04D9F12189007C4800F0EFFE0F233A009A4303D07A49784800F0E7FEA900784B1A687D23D35C9B191A6890460F2291468A40404690430200484607408F400A
:401B800017431F60277A072D04D9A22189006B4800F0CCFE1F233A009A4303D06A49674800F0C4FE674B1A689369F31ADB0952691B01D318032D0AD81968E8001F22824040
:401BC00091431F22174087400F431F600AE02A1F5968D2001F20904081431F20074097400F435F60E768082D04D9DD21C900534800F09CFE032F03D95449504800F096FEC6
:401C00006900504B1A687C23D35C9B191A689046032291468A40404690430200484607408F4017431F602769082D03D94849434800F07CFE012F03D94649404800F076FEF8
:401C4000B36901221100A9408B431740AF401F43B76163699846072D03D93F49374800F065FE4346012B03D93C49344800F05EFE34487E230268D35C9B191A68012739005E
:401C8000A9408C468A43110042463A40AA400A431A606B0010229046984403210B00424693406246134399467F2203689A5C9446B44463461A684B469A43A3693B40AB4043
:401CC0001A43E3691940434699400A4363461A6002688023D35CF6183368FF22944693431800236A1F40636A5A00022313403B43A26A9100042739400B431F00E36AD90065
:401D0000182319403B000B43226B520161460A401343AD00FE2292001540AB4003433360002002E00E4800E00D480CBC90469946F8BDC046A856001027030000E85600109C
:401D4000C5030000D81D000889020000E9060000690600006A060000030400000404000001005A0070B505000C0000285DD000295DD0FF230A689A4303D099212D4800F097
:401D8000D5FDFF2322699A4303D09A21294800F0CDFDA3685B0D03D09B21264800F0C6FD63685B0A03D09C21224800F0BFFDE3695B0F03D09D211F4800F0B8FD236A5B0FCB
:401DC00003D09E211B4800F0B1FD1B4A11688B69EB1ADB0949691B01CB18216829607D211068415C6918E06808607E211068415C6918206908607F211068415C69186069C9
:401E000008607C211068415C6918A06808606168A961116880228A5CAD18A2692A60E2691A60226A5A60002002E0044800E0034870BDC046A8560010D81D000801005A004C
:401E400010B5B0235B059B899BB2002B04D0B0235B059B899BB201E080235B0080225200934215D1184C23681968683A9B58C9180B680F208343963A13430B6021680C68EC
:401E80009C23CB58E318196881430A431A6019E00D4C2368196898229B58C918B02040050A4BC2580A4B13400A681343C022920013430B60226811689C23D358CB18054A05
:401EC00082581A6010BDC046D81D000848180000FFFCFFFF4418000030B5B0235B059B899BB2002B04D0B0235B059B899BB201E080235B0080225200934215D1184C236860
:401F00001968683A9B58C9180B680F208343953A13430B6021680C689C23CB58E318196881430A431A6019E00D4D2B68196898229B58C918B0246405C12040012258094BAA
:401F400013400A681343C022920013430B602A6811689C23D358CB1822581A6030BDC046D81D0008FFFCFFFFB0235B059B899BB2002B04D0B0235B059B899BB201E0802391
:401F80005B008022520093420DD1104B1B681A6898215B58D21811680D4B0B40C021C9010B43136011E0094B1B68196898229B58C918084BB0225205D258074B13400A684D
:401FC0001343C022920013430B607047D81D0008FF8FFFFF18180000FFFCFFFF30B5B0235B059B899BB2002B04D0B0235B059B899BB201E080235B008022520093420DD13B
:40200000134B1B681A6898215B58D2181168114B0B408021C9010B43136018E00C4D2B68196898229B58C918B02464050A4822580A4B13400A681343C022920013430B60FA
:402040002A6811689C23D358CB1822581A6030BDD81D0008FF8FFFFF4C180000FFFCFFFF10B5B0235B059B899BB2002B04D0B0235B059B899BB201E080235B0080225200E2
:40208000934217D1002000F03DFDB0235B055B78002B04D0B0235B055B78DBB200E02123222B03D8002803D1013004E0012002E0002000E0012010BD10B50400012803D965
:4020C0001049114800F032FC002C03D10F4B5869C00F00E000200E4B1A684423D35C002B0ED0012C0CD1094B9B695B0005D4074B9B69002B03DA012002E0012000E0002094
:4021000010BDC046620700002857001000002640D81D000870B504000D00154B1A684423D35C002B22D0072803D91249124800F0FDFB0F4B1A684423D35C002B04D00F4B33
:402140009B690722134000E0002321009C420DD00A4882690726B243344014438461002D04D0994202D9C82000F0D4FB70BDC046D81D0008CC07000028570010000026409B
:4021800030B5021E22D0C368002B21D00368002B20D00579A900104BCC582300002103E0934205D019005B69002BF9D1012000E0002000280FD0002C03D1AD00064BEA50B2
:4021C00000E04A6111610023536104E0002002E0002000E0002030BD6C12000830B585B004000D00022807D9042805D0032803D02A492B4800F09AFB6B1EDBB2012B07D9D1
:40220000042D05D0082D03D02649254800F08EFBA400254BE458042D13D0012D1CD112E0A3682B420BD1E3681A6802925B6801930393290002A8236898471B4B5C616469FB
:4022400002E0002000E00020002C24D0174B9842E6D1012DE4D11EE0022D01D104E01C006369002BFBD104E00F4B5C69002C00D0246900200DE0A3682B4209D1E3681A68EC
:4022800002925B6801930393290002A8236898472469002CEFD105B030BDC046B209000028570010B30900006C120008FF00420070B50500012804D9E02149001B4800F0A5
:4022C00035FB1B4B1B68002B05D001210020FFF785FF040000E00024002C20D100F0EDFB0600134B1B68002B03D004210020FFF775FF104A136904218B431361012D01D03C
:4023000030BF00E020BF300000F0DBFB084B1B68002B09D008210020FFF760FF04E002210020FFF75BFF044C200070BD285700106C12000800ED00E0FF00420010B500F095
:40234000BCFB074B5A6807490A40E824A40122435A605A68114059605B6800F0B2FB10BD00002640FF00FC0FF8B50700012803D93D493E4800F0DAFAB0235B055B78002B05
:4023800004D0B0235B055B78DBB200E021239DB2B0235B059B899BB2002B04D0B0235B059E89B6B201E080267600002000F0AAFB002814D180235B009E4212D1222D12D825
:4023C0002B4B1B685C682B4821582B4B19403B068022520413400B432350002404E0274C02E0264C00E0254C80235B009E4201D1222D03D880235B009E4232D01C4B1A6855
:402400003123D35C002B04D1C421FF311C4800F08DFA174B1B681D6A80235B009E4203D1002F05D0174A06E0002F03D0164A02E0164A00E0164A01212800FEF7CFFA0028AC
:402440000FD10B4B1A68B423D3585B191B68002BF7DBEB681B0E1B06A0221206934200D100242000F8BDC0464C0A000028570010D81D000818F00000FFFFFFFE0400420067
:4024800068560010010100300300000C010000300100000C70B50400022805D0052803D02049214800F042FAFFF7DAFD002836D000F003FB0600022C07D10120FFF754FF4A
:4024C000051E0FD1FFF7BCFC0CE018494B6907229343043A13434B61342000F01BFAFFF77DFD0025002D16D110494B69072293431A000723234013434B61022C02D1FFF73D
:4025000033FD08E0912000F005FAFFF7E5FC0020FFF72AFF0500300000F0D3FA00E0044D280070BD02070000285700100000264003004200F8B50500012804D982210901AD
:40254000294800F0F3F9FFF78BFD002849D000F0B4FA0700002D11D10021244B244AD150E823DB00B0225205D65CF6B20120FFF7FBFE041E19D1FFF763FC16E0B022520503
:402580001C4BD0581A4B194958501B49565CF6B21A481A581F218A4314390A431A50032000F0B8F9FFF71AFD0024002C15D11049124A8B581F20834306401E438E50002D24
:4025C00002D1FFF7D1FC08E0072000F0A3F9FFF783FC0020FFF7C8FE0400380000F071FA00E0074C2000F8BD28570010307F00000000264010180000410700001CFF00008B
:4026000003004200F8B50400022806D0052804D0CC21C9003E4800F089F93E4B1B681B0268D400F04AFA0700022C1CD13A4B394AD3581F221340E822D200B02149058A5C92
:402640009A4204D00020FFF775FF050000E00025002D09D12F48304943581F229343143A1343435000E02D4D052C1BD12A4B294AD3581F221340E822D200B02149058A5C37
:402680009A4204D10120FFF755FF050000E00025002D07D11F48204943581F229343043A13434350002D21D1092000F033F9194E3368E022D20313433360726907239A433E
:4026C0001C401443746173698022D2051343736173698022120613437361E120800000F019F933688022120413433360380000F0E8F90BE0074B5B69072213409C4204D01C
:402700002000FFF7C7FE050000E000252800F8BD28570010000026401CFF00000300420010B5041E03D11549154800F0FFF8154B1A68D168F222D2018A5822601B68F0222A
:40274000D201D9688A5862600F4AD9688A58A2600E4AD9688A58E2600D4AD9688A5822610C4AD9688A5862610B4AD9688A58A261DA680A4BD358E36110BDC046A10A00002E
:4027800028570010D81D000804780000087800000C78000010780000147800001878000010B5041E03D11449144800F0BFF8144B1B68F022D201D96860688850114AD9680A
:4027C000A0688850104AD968E06888500F4AD968206988500E4AD968606988500D4AD968A06988500C4AD968E0698850DA682168F223DB01D15010BDC90A000028570010CC
:40280000D81D000804780000087800000C78000010780000147800001878000070B50500012804D9A6218900354800F07FF8354B5B68002B05D001210120FFF7CFFC0400C8
:4028400000E00024002C53D100F037F906002D4B5B68002B03D004210120FFF7BFFC2A4B1B6843229A5C002A08D09A68E023D358DB0603D523481830FFF752FFB0235B0543
:402880009B899BB2002B04D0B0235B059B899BB201E080235B0080225200934203D1280002F0AAFD09E0194A116904230B431361012D01D030BF00E020BF134B1B68432225
:4028C0009A5C002A08D09A68E023D358DB0603D50C481830FFF764FF300000F0F2F8094B5B68002B09D008210120FFF777FC04E002210120FFF772FC054C200070BDC046FA
:40290000285700106C120008D81D000800ED00E0FF00420010B5034B1B78584300F0C4F810BDC046D400000801BEFEE770B50D00044C18220100200002F036FDA56100200F
:40294000FFF7F2FF68070008024B1B685B6801229A607047D81D0008054B802212069A649B6C002B01DB002000E002487047C0460000274003004600054B802212019858D3
:402980005B68FF221A4202D08023DB021843704700002640FEE7C04610B50A4B0268DA6142681A6282685A62C2689A620269DA6242691A6382695A63C2699A63FFF7EAFFF3
:4029C00010BDC04668070008F0B5474680B4002801D0192300E064238B429B415B42304D2C682268A826A45BA41822680327BA433B401A4322602C682268A45BA2181668C1
:402A0000284CA046264016602C682668AA229446A25A96193268BA43134333602A6813686546525BD3181A68444614401C60002805D010291BD921291BD8012024E0184B52
:402A40001B6855229A5C914215D956229A5C914213D957229A5C914211D958229A5C91420FD959229B5C99420DD804200CE000200AE0022008E0002006E0012004E002209E
:402A800002E0032000E00520054A1268526813680F218B430343136004BC9046F0BDC046D81D0008FFFCFFFF0230800803D001300238FCD1C046C0467047EFF3108072B6F6
:402AC000704780F310887047042805D10B4A116804230B4313600FE0094B1A681168A023D358CB180006C022920410401860034A136804218B4313607047C04610E000E095
:402B0000D81D000810B50400094B1B689B6CC340DB0703D4BE210748FFF708FF044B1B681B691034A402E3580F20184010BDC046D81D000868570010014B18607047C046E8
:402B4000D81D000870B5012902D0082940D045E00320FEF795F8254B984241D000F07AFE01283FD0022003F0D3FB0500FFF7A5FF1F4B186003F0D0FB0400062817D0022DC7
:402B80000AD1022005F004FA032C01D0052C10D1002810D0174C13E0012005F0F9F9022C0BD000280BD1FFF783FB124C08E0002406E0104C04E0002402E00E4C00E00D4C03
:402BC0000C4B9C420FD10A4B1868FFF77AFF0AE0074B1868FFF775FF002404E0054C02E0044C00E0034C200070BDC04601018800A4120008FF004200002803D0024B5860C0
:402C0000002000E001487047A41200080100160010B594B001AC4C220021200002F0BCFB154BA3811B2323836383183B23770133637708221D33E25438322333E2523F3A4B
:402C40000433E2540D48FFF79BFA07A803F094FB00280ED10A4B02930A4B5B685968002904D022222630684402F08DFB01A803F057FB14B010BDC046E4080000E8000008EE
:402C8000A4070008A4120008014B024AD050704778F0010000003C4010B50CF0D7F810BD10B5024B1B68984710BDC046B412000810B5002809D0FA23FF33994207D80A0004
:402CC000044902F060FB002002E0034800E0024810BDC0460708001601001600F0B55F4656464D464446F0B4B14CA54481460E00904605930B00AF4A914204D942468A1806
:402D0000AD498A4211D9AD4A934204D94246B218AB498A4209D9AB4A934200D823E14346F318A94A934200D922E1A84B5B695B0010D5A64B5B6907241C40022C25D10520F0
:402D4000FFF7A8FB0190A24B9842F8D003940123049324E09F4B9D4AD3581F221A40E823DB00B0214905CB5C9B1A5A1E9341DBB20493002B0FD10120FFF7DCFB944B9842AA
:402D8000F9D001900523039309E00394012304930023019303E005230393002301938E4B019A9A4204D1D621FF318C48FFF7BEFDF0231B069C466644730A9A465C02002144
:402DC0000320FDF7D1FE0028F9D100250023029399E0B4421BD3BD4219D24A4652191078804606A84146C154594600290DD1802149058846A044414609786846017001785D
:402E00001278914201D001229346013505E080225205A218127806A8C2540134013304E0002100238B46844647466D4A9342D0D959466046B846002962D0019B002B5FD1C9
:402E4000059B002B51D1C83300951D00B3465646A24680231B03F7187F023800FEF738FD0400013D0120FFF755FDA423DB0322001A409A4201D1002DEBD122000294009DD0
:402E80005446B2465E46574B9A4205D1FEF71CFD554B9842FAD00290029B002B19D1C83300971F00A34606A90098FEF767FD0400013F0120FFF72EFDA423DB0322001A4011
:402EC0009A4204D1002FEED102945C4601E002945C46444B029A9A4211D1FEF7F5FC424B9842FAD0029001200AE0802000035044400206A9FEF798FC0290012000E00120E0
:402F000001239C46E244029B019A134301D1454586D3002801D0FFF717FD00210320FDF769FE0028F9D1019B002B25D1274B5B695B0009D5039B022B06D10220FFF7AAFA04
:402F40000190234B9842F8D0204B1B681B0213D4049B002B10D10020FFF7ECFA01901C4B9842F8D008E000230193204B029303E0002301931D4B0293019B002B0CD11C4B3C
:402F8000029999420AD0194B994207D0002901D1002004E0174802E0174800E0174887239B009D443CBC90469946A246AB46F0BDE4FDFFFFFFFFFF0F00001010FFFFFF1359
:402FC00000800014FF070016000A001600002640040042001CFF00000300420018590010FF01000001005000020050000600520002005200130016001200160001001600BD
:4030000010B500280AD0FA23FF33994208D8F93BFF3B0A000349FFF761FE02E0024800E0014810BD07080016010016000020704710B50C000088AE235843044B9C466044D7
:403040000A2100F029FC208010BDC04691FCFFFF10B50C000023C05E044B5843044900F0A5FCBD23181A208010BDC0464B280000102700000020704710B5FFF74BFC10BD63
:40308000064B1B681B6800229A5E002A05DB1F231A401E3B9340024A13607047A812000800E100E0094B1B681B6800229A5E002A0ADB1F231A401E3B9340802204498B50BF
:4030C000BFF34F8FBFF36F8F7047C046A812000800E100E0A023DB00024AD358032018407047C04600002640024B034AD058C00F7047C0461C0500000000264010B5FEF70E
:4031000067FA10BD70B504000D0016000320FDF7B7FD054B984205D0320029002000FEF789F900E0014870BD0101880003004A0070B5431ADC171B196340934227D3164BB0
:40314000164CE458A405A40D884208D9401A51084018110000F0A0FB201A0ED50AE0081A51084018110000F097FB00190C4B984202D802E0002000E00A48084D06496B58D9
:403180009B0A9B028205920D13436B5001E000240020201A70BDC0463C05000000002640FE030000FF03000010B5034B1A6880210902FFF7BDFF10BD0001000810B500F0DC
:4031C000E5F90220FFF760FD094C236818680949FDF782FB23681B6800229A5E002A05DB1F231A401E3B9340034A136010BDC046A8120008992C001000E100E00420704799
:4032000010B5FFF75AFC10BD10B5FFF75AFC10BD10B5FFF74DF810BD10B50021FEF77AFF10BDC04610B50020FDF762FF10BDC04610B50020FDF734FF10BDC04610B5074BDB
:403240001960012201000020FDF768FE002803D100220349FDF762FE10BDC046B4120008A12C001070B50B001500020000210120FDF7F8FD041E03D029000020FDF778FEE1
:40328000200070BD70B50D000F4B184300040F4BD861FA24A40003E0013C0120FFF73AFB0A4B1B6CDB0701D4002CF5D1002C08D0064B196C01220A431A64DB6A2B800020B8
:4032C00000E0034870BDC0460080FFFF00003C400400160010B500040E4B184001430E4BD961FA24A40003E0013C0120FFF712FB094B1B6CDB0701D4002CF5D1002C06D07F
:40330000054A116C01230B431364002000E0034810BDC0460000FF7F00003C4004001600F0B583B006000A24C02149017548FFF7D1FF002804D16B46991D7248FFF7A2FF37
:40334000002C01D0013C00E06F48002805D16B46DA88C0235B019A42E6D1002825D16B46991D6A48FFF78EFF00281ED16B4606331B885B0519D40A248021C9006348FFF7B5
:40338000A9FF002804D16B46991D6048FFF77AFF002C01D0013C00E05B48002805D16B46DA888023DB009A42E6D1002804D16B46991D5748FFF766FF002844D16B46063386
:4033C0001B883F229343B278012A15D1F178012904D88FB20222D21B95B201E000250227402213439BB2302213436A46D380494BCB40494A136013E0F178002904D18FB291
:403400000122D21B95B201E00025012740229343102213436A46D380404BCB403E4A13606B469C1DD9883943D9803948FFF752FFF378DB1B03221340AA0092B2134323808B
:40344000374A38498B50B0235B055B78002B04D0B0235B055B78DBB200E02123212B4FD0314BB0225205D35A9BB2002B48D0002804D16B46991D2D48FFF704FF002824D1F7
:403480006B469A1DDB8860218B4318001380B0256D05254C2B5B60310B405B08034324490B401380295BC901F020C00001400B43204919401180285BC0239B000340DB001A
:4034C000194311801948FFF705FF002804D16B46991D1948FFF7D6FE002811D16B469A1DD988C023994311800F4BB0204005C05A302303409B00194311800F48FFF7EAFEF6
:4035000003B0F0BD021E000004001600031E0000091E00000048E801C00000080024F40064F0010000003C4016180000071E00007FF5FFFFFFE7FFFF061E000070B50C00C9
:403540004000084901430848FFF7C4FE051E04D106490748FFF7BEFE05006001FFF7DAF9280070BD01100000081E0000376800000F1E00000349044A8858102303438B50D1
:403580007047C04600003C4070F00100F0B59DB013A9144B0A00180070C870C270C870C270C870C20AAD28001A002432D0CAD0C0D0CAD0C0D0CAD0C001AC22004833C1CB61
:4035C000C1C2C1CBC1C2C1CBC1C20748FEF7CAFB29000648FEF7C6FB21000548FEF7C2FB1DB0F0BD54590010000132408001324000023240F8B5051E00D1DDE0734B5B68E4
:403600009B0301D5FEF79AFE714C03E0013C0120FFF780F96F4B704AD358002B01D0002CF4D16E4B6C4AD358DB0704D56C4BD358DB0700D5C2E0674B674AD358002B00D077
:40364000BEE0FFF7A3FF644B6649674A99502A78A02109030A4365495A506549654A9950802252009B58DB0700D5ABE0624B1B6F1B0709D4614B1868614B984206D91900B9
:4036800000F00AF9013802E0012000E00020524B1B68002803D040035A4A104300E05A4818434D4B1860494B5B695B0017D501210320FEF72FFD454B5B699B0F0122134020
:4036C000524A116844228A5C002A0ED0002B0CD03E4A93698021C9050B43936105E03E494B4A8858032303438B503B4C3B4AA658484B3343A3504020FFF70CF9464BE358D0
:40370000DB070BD42700444C01233B514020FFF701F903233B514020FFF7FCF83F4F37403F4E3E432D4B2C4AD650FA24E40003E0013C0120FFF7EEF83A4B3B4AD358DB06B9
:4037400001D4002CF4D1002C01D0002400E0374C002C23D12049364A8858082303438B500120FEF7A9FC002801D1324E3E43324B1E4001231E43194B174AD650144E03E084
:40378000013E0120FFF7C6F8154B134AD358DB0701D4002EF4D1002E00D1244C002C03D12800FFF7BDFD0400002C0CD168782978FFF7C4FE040006E0204C04E0204C02E04E
:4037C0001F4C00E01F4C2000F8BDC04600002640F07E0E006CF0010000003C40A0F00100B4F0010006000001A4F00100A8F0010001000100ACF0010000F03D40C800000836
:4038000000093D00041A0080040A0080D81D0008C4F0010030000300B0F00100EFFFFEFF2000020010400000000032400400160068F0010028000200FFFFFBFF0100160015
:403840000300160002001600014B18687047C046C000000810B5002405E02000FDF79AFC032804D00134042CF7D9002000E0012010BDC046A023DB00064AD3580322134095
:40388000012B03D0032B03D1012002E0012000E00020704700002640002243088B4274D303098B425FD3030A8B4244D3030B8B4228D3030C8B420DD3FF22090212BA030CB0
:4038C0008B4202D31212090265D0030B8B4219D300E0090AC30B8B4201D3CB03C01A5241830B8B4201D38B03C01A5241430B8B4201D34B03C01A5241030B8B4201D30B03CD
:40390000C01A5241C30A8B4201D3CB02C01A5241830A8B4201D38B02C01A5241430A8B4201D34B02C01A5241030A8B4201D30B02C01A5241CDD2C3098B4201D3CB01C01AC8
:40394000524183098B4201D38B01C01A524143098B4201D34B01C01A524103098B4201D30B01C01A5241C3088B4201D3CB00C01A524183088B4201D38B00C01A52414308AF
:403980008B4201D34B00C01A5241411A00D20146524110467047FFE701B5002000F0F0F802BDC0460029F7D076E7704703460B437FD4002243088B4274D303098B425FD3C7
:4039C000030A8B4244D3030B8B4228D3030C8B420DD3FF22090212BA030C8B4202D31212090265D0030B8B4219D300E0090AC30B8B4201D3CB03C01A5241830B8B4201D3A4
:403A00008B03C01A5241430B8B4201D34B03C01A5241030B8B4201D30B03C01A5241C30A8B4201D3CB02C01A5241830A8B4201D38B02C01A5241430A8B4201D34B02C01AD2
:403A40005241030A8B4201D30B02C01A5241CDD2C3098B4201D3CB01C01A524183098B4201D38B01C01A524143098B4201D34B01C01A524103098B4201D30B01C01A524154
:403A8000C3088B4201D3CB00C01A524183088B4201D38B00C01A524143088B4201D34B00C01A5241411A00D201465241104670475DE0CA0F00D04942031000D3404253401A
:403AC00000229C4603098B422DD3030A8B4212D3FC22890112BA030A8B420CD3890192118B4208D3890192118B4204D389013AD0921100E08909C3098B4201D3CB01C01A9B
:403B0000524183098B4201D38B01C01A524143098B4201D34B01C01A524103098B4201D30B01C01A5241C3088B4201D3CB00C01A524183088B4201D38B00C01A5241D9D28D
:403B400043088B4201D34B00C01A5241411A00D20146634652415B10104601D34042002B00D54942704763465B1000D3404201B5002000F005F802BD0029F8D016E7704708
:403B80007047C046002B11D1002A0FD1002900D1002802D00021C943081C07B4024802A14018029003BDC046D9FFFFFF03B4684601B5029800F050F8019B9E4602B00CBCD7
:403BC0007047C046F0B54F464646C0B41604360C9946330005042C0C070C150C63437E436F4365431C0CAD1964199C46A64203D980235B02984647446346250CEF191D04AD
:403C00004B464A4343432D0C240464199918C91920000CBC90469946F0BDC04670B500220C4B04000D0001F05DFA002804D12000290001F0B5F970BD064B0022200029005A
:403C400000F05AFE01F0ACF980231B069C466044F1E7C0460000E041F0B54D46564644465F46F0B4924683B004000D0099468B422FD82CD04946504601F05CFA2900060010
:403C8000200001F057FA331A9846203B9B4600D574E053465A4693401F005346424693401E00AF4229D826D05B46A41BBD41002B00DA79E0002200230092019301235A4602
:403CC00093400193012342469340009319E08242D0D900220023009201930C9B002B01D01C605D600098019903B03CBC90469946A246AB46F0BDA342D6D90022002300921B
:403D000001934346002BE8D0FB0772081A4346467B080EE0AB4201D1A2420CD8A41A9D41012024196D410021013E24184D41002E06D0AB42EED9013E24196D41002EF8D17B
:403D40005B460098019900196941002B22DB2B005A46D3402A004446E2401C005B461500002B2CDB26009E40330026004746BE403200801A994100900191AEE742462023BD
:403D80009B1A5246DA40414613004A468A4017001F4382E7424620239B1A2A0046469A402300F3401343D5E74246202300219B1A0022009101920122DA40019282E74246A6
:403DC000202326009B1ADE402F00B446974066463B003343C9E7C046F0B556464D4644465F46F0B41D000E034C00CB0F87B0070092468146360B640D98466AD06D4B9C423C
:403E000035D08022430F12041343F6001E43C3009946694B00279C460023644402932B0368001B0BED0F51469B46400D009500D178E0604B98426CD05B46DA004B0F802195
:403E400009040B4313439B465346D9005A4B9C46002360444246201A6A40924601901F430F2F00D9B0E05548BF00C0598746374300D088E0002399460233082700260293FD
:403E8000CDE74346B34649460093029B009A9246022B00D0BFE1002153460122002689461A40444B002136030C0D2405360B2643434C1B0526401E437600D2077608164361
:403EC0004846310007B03CBC90469946A246AB46F0BD330003434FD0002E00D1BCE1300001F00AF903000B3B1C2B00DDADE11D220100D31A08393A008F408E40DA40B94668
:403F00001643304B00279C46002360444442029385E753465A4613432CD1002300219B46023397E70B4320D05B46002B00D19EE1584601F0E1F803000B3B1C2B00DD8FE153
:403F400002005946083A91408B461D21CB1A5146D9400B0059460B4351469B469140194B9C4660444042002374E7002300219B4601336FE703236DE7002399460133042734
:403F8000002602934BE703230C27029347E70122D51A382D00DCB0E153461A4000210023002689467EE700238026994600223603004B77E7FF07000001FCFFFFC86000109E
:403FC000FFFF0F80F30300005E4500D972E100D16DE1019B4D46013B01930023340002935B461E020B0E1E430B020393330C994633041B0C494620000093FFF74DFC009BEF
:40400000370043430600494620009846FFF7CAFC2C0C09040C43A04509D9E419731EA74200D95CE1A04500D859E1023EE4194346E41A49462000FFF72FFC0300009A80469E
:404040005343494620009B46FFF7ACFC2A040904120C0A4393450DD94346D219013B974200D93AE1934500D837E102235B429C46D219E0445B46D21A4346360433439B4679
:404080000399180C0B0C1D00059309045B46090C0C001B041B0C4443049159436B4368431B190D0CEB189C4203D980246402A44660441C0C09041B04090C20185D188242D2
:4040C00000D2DEE000D1D7E0161A029B9C465D1BAC459B415B42F61AB74200D106E149463000FFF7D9FB009B04004343494630009846FFF757FC2E0C09040E43B04509D953
:40410000F619631EB74200D9F3E0B04500D8F0E0023CF6194346F31A494618000293FFF7BBFB009B06004343494602989846FFF739FC2D0409042D0C0D43A84509D9ED19ED
:40414000731EAF4200D9D6E0A84500D8D3E0023EED192404210043463143049E059A3000ED1A0B040C0C1B0C58436643534354439A19030C9B189E4203D9802252029446F2
:4041800064441A0C00041B04000C14191B18A54250D34DD001231943964A019B94466344002B00DCF3E64A0709D00F220A40042A05D00A1D8A42894149428B4411005A46AE
:4041C000D20108D55A468C4B1A4093468022D2009446019B6344894A934200DD5BE65A46C908500708435602514601225B058146360B5B0D0A4055E680231B031E4211D092
:404200005A461A420ED15E461E433603360B2A0089467B4B46E6032B00D1E1E0012BBBD11A40BBE61E433603360B4246744B39E6002BB1D07D194A1EAF4252D91100A542C7
:40424000A8D1039A9A42A5D1A6E703003E00283B9E400023994654E600F04EFF203041E603005246283B9A400021934677E6504600F042FF20305EE6029B0026AB4200D3CA
:4042800023E7039E0299B44661448846B045B6415B467642F619B218013B0291974213D290424FD800D18EE0161A9B460DE7894500D28EE674084B46F60735005B081D434D
:4042C0004B46DB0702938BE69742EDD10399029CA142E5D93E1A9B46F7E69846CAE61E00A5E6AC423ED874D0110053E70121494252E71C000EE71E002BE71F2D3CDC202325
:404300000A0058465B1B9840EA4099400243481E81415E461143EE404B0709D00F230B40042B05D00B00191D99429B415B42F61833023CD55346012200211A4000260123DB
:404340008946AFE502235B429C46039CE344A446029B63449846A045B6417642F6190293B218B1E603988A1E41008142B6417642F619AD19039161E71F225242D31A5A46C2
:40438000DA401300202D29D040225846551BA8400143481E814107200B4318400026002809D00F2200261A401900042ABBD10B0070077602360BDB0803439946012253464F
:4043C0001A4000236EE502998D42BBD89B4600267BE603989842C5D3110032E70020D7E780265B4636031E433603360B009A8946034B57E5FF030000FFFFFFFEFE07000023
:40440000FF070000F0B55F4656464D464446F0B40D0399464E002B0B87B00700924680469B46760DCC0F002E69D06D4B9E4235D05B468022DD001204430F13432B439B4610
:40444000C3009846674B00279C460023664401934A4615035000D20F53462D0B400D914600D176E05E4A90426CD080225B0F120413435C4AED0094461D4353460022DB00F9
:40448000604449463618701C6140029017430F2F00D9AFE05448BF00C759BF465B461F4300D088E000239B469846023308270193CEE74946022A6AD0032A00D109E2012A69
:4044C00000D0BBE111400022002300259046CCB200212D030A0D12052D0B1543434A1B0515401D436D00E4076D0825434046290007B03CBC90469946A246AB46F0BD0343BC
:4045000052D05B46002B00D18AE1584600F0F4FD03000B3B1C2B00DD7BE11D22D31A3A0001005D46DA4008398D4013008F402B439B46B8462E4B00279C46002360444642D7
:40454000019385E752462A432CD100250023022297E752462A4321D0002D00D154E1280000F0CAFD03000B3B1C2B00DD46E11D21CB1A51460200D9405346083A954093405B
:404580000D431B4A944660444042002279E7012400220C40124B0025904699E70025002301226EE703226CE700239B4698460133042701934CE703230C27019348E70023DA
:4045C0008025984600242D03054B81E75D464346019A6FE75D4643462100019A6AE7C046FF07000001FCFFFF08610010FFFF0F80F30300004246120C91461A0C94464246CE
:4046000017044A461B041B0C5A43604690464A4642431000039262461C003F0C7A437C4342440192220C9246019A5244904506D98246802040028046C24450460390100C6C
:40464000049048462404240C1204121905922A0C2D042D0C68432C00824648467C4350438146200C8046574357444744BA4503D9802040028046C144380C3F04B8464844B7
:404680002404240C01900498A044404404905846000C814658460404200C8246070048465F434C464343604660436446834650464443380C8446E4186444A34203D9802330
:4046C0005B029C46E34448463F04230C3F0C2404E419574668436F4384464D46504655434243380C814662444A445B44944503D9802040028446654403983F0483460498AF
:404700003F0C8446E344C345804140428246100484460198674484466744A344BC46A345A4419946D44464428742BF41D4458041E144A04699459B417F424042C84407433F
:40474000120CBA18A045A4415F423B0064422343D71843467D19DB0D6D021D435B465A02059B1A43531E9A415B46DB0D1A4343465B021343EA0107D501225C081340234363
:40478000EA07029E13436D08574AB218002A4BDD580709D00F201840042805D0181D98429B415B42ED180300E80104D54F4A15408022D200B2184E48824200DDE7E6012479
:4047C000DB08680718436D02530580462D0B5B0D0C407DE6802259461203114208D0154206D115432D0398462D0B4C46414B6FE65D4615432D032D0B3E4B69E60300554697
:40480000283B9D400023BCE6504600F075FC2030A8E60300283B9F400023BB46984689E600F06AFC203073E60124A61A382E07DD00220C4000230025904649E6029EA3E7D5
:404840001F2E20DC20222C001800921BF040944093400443581E83411C43F540630709D00F232340042B05D023001C1D9C4292415242AD182B021FD5012400220C400123B6
:404880000025904624E61F202C004042821AD440202E1CD04022961BB5402B43581E83410720234318400025002809D00F2200251A401C00042AD8D1230068076D022D0B85
:4048C0000124DB08034398460C40002300E60025E3E780220124120315432D0398462D0B0C40044BF4E5C046FF030000FFFFFFFEFE070000FF070000F0B557464E464546EB
:40490000E0B40E001100F20F9246C500420F180337037400400A4E0F7F0A3043CF4E17435A00640D520DDB0FC900B24200D1E5E001267340A61AB446534500D1AFE0002ED1
:4049400000DC0DE1002A3AD103000B4300D0E4E06B0709D00F232B40042B05D02B1DAB42AD416D427F191D003B0200D488E0BB4B01349C4200D110E13A00B94B51461A405D
:4049800001235007ED08520264050543120B640D0B400021280012030D0D120B64052D0515436208AF4CDB072C401443640064081C4321001CBC90469946A246F0BDA74BB3
:4049C0009C42C5D080231B0418436346382B00DDFDE01F2B00DD30E1624620239B1A02009A40664690460A009940F24046464B1E99413243114363460200DA40691A8D4267
:404A00009B410D00BA1A5B42D71A3B0235D57A02530A98464346002B00D1C4E0404600F06BFB0300083B1F2B00DDC5E020222900D21A4746D1409F400A009D403A439C4200
:404A400000DDC0E01C1B631C1F2B00DDE4E0202114002800C91AD8408C408D400443DA40681E854117002543002471E7424663461A4300D14CE2674645466B0700D069E708
:404A8000012351467807ED08FA080B40054373498C4238D012036405120B640D79E7002E00DC9AE0002A47D06C4A944200D14FE78022120410436246382A00DC08E10143BE
:404AC000481E81410022C9B24919D219A942BF410D007F42BF183A0200D442E15F4A0134944200D14EE101205D4A69083A4028400843D507054357089A4629E706000E43FD
:404B000000D017E714E72900114300D1F9E1802109030A431203120B3BE701235B429846C4446346002B72D1691A8D429B413F1A5B42FF1A0D0068E702000A4300D107E7D1
:404B4000012252429046C4446246002A00D0E6E06918A942B6413F187642F7190D00BAE7002E00D080E0621C5205520D012A00DCF9E06A1A91464D45B6413A1A7642921BF9
:404B80009046120200D499E04D1BA9428941C71B49427A1A90469A463CE752460123002513400022F5E6280000F0A6FA20300300083B1F2B00DC39E72A0028388240002591
:404BC0009C4200DC3EE7264FE41A1740C0E60143481E81410022C9B210E7002E00D0F1E0621C94465205520D012A00DCA0E01B4A944500D1C5E06918A94292413F18524224
:404C0000D2194908D5070D4357086446A0E6134B9C4200D0D9E69BE611001F3CE1400C00202B00D180E04021CB1A9A4015436A1E95410027254300241FE763460200203B87
:404C4000DA406346202B71D0402366469B1B98400143481E814111430022CFE6FF070000FFFF7FFFFFFF0F80002C48D0CA4CA24200D1A2E07442A1468024240427434C46AC
:404C8000382C00DDDBE01F2C00DD44E14E462024A41B3E00A640A246B0464C462E00E640B4464646644626435446A5406C1EA54134002C434D46EF400D1B28E04A464346F6
:404CC0004D461A4300D0A5E6002300240025DEE61F2A5ADC66462022921B060096409146B04662460E00D640424616434A4691404A1E9141020060463143C240E4E63C000A
:404D00002C435AD0F443A146002C52D14D1BA9428941C71B49427F1A14009A4675E69E4A944200D0C7E613E600227FE700208FE7002C00D0C8E03B002B4300D10FE1030098
:404D40000B4300D104E66918A9429B413F185B42DF193B0200D41AE1904B0D001F406446F6E59A4689E63A002A43002C5CD1002A75D102000A4300D1CAE007000D009A46A1
:404D8000E6E564460022002581E662460600203AD6406246B046202A00D1B7E040226646921B904001434246481E8141114300228AE6794CA24200D061E707000D00140014
:404DC0009A46C5E5002C41D13C002C4378D0F443A146002C20D0704CA24271D04C46382C00DDB2E01F2C00DDBCE02026341BA2463C005646B4404E46A0462C00F440A446A7
:404E0000444666463443A4465446A54064466E1EB54125434C46E7406D188D4289413F184942CF19140056E6002A2FD102000A4300D184E007000D009A46574C88E53D43A5
:404E40006F1EBD41ECB200270D1B60E7524CA24236D0744280263604A1463743BEE702000A4300D174E56A1A90464545B6413A1A7642921B9446120200D4F7E54D1BA94251
:404E80008941C71B49427F1A9A4661E502000A433AD0ED087C072C438025FA082D032A4208D0C7082F4205D145072C003A009A46C9080C43670FD200E5001743364C47E5A4
:404EC00007000D00140043E53A002A4343D002000A4319D0ED087C072C438025FA082D032A4207D0C6082E4204D147073C003200C9080C43D700620FE50017439A46264CA7
:404F000026E50022002544E5234C21E5002049E700230025BBE54C463E00203CE6404C46B446202C31D040244E46A61BB7403D436C1EA54164462C4300270D1BE7E68022A7
:404F400000231203144C0025A1E53D436F1EBD410027EDB260E707000D000F4CF8E407000D00F5E44E463C00203EF440A0464C46202C0ED040244E46A41BA7403D436F1EEF
:404F8000BD4144460027254346E70027CFE70D0073E50027F2E7C046FF070000FFFF7FFF0B0330B5134D1A0B4B005B0DC90F0024AB4211DD104CA34210DC80246403224344
:404FC0000E4CE41A1F2C0CDD0D48C31ADA4013005C42002900D11C00200030BD094BCC18FAE7E040084CA44663449A4013000343EEE7C046FE0300001D0400003304000080
:4050000013040000FFFFFF7FEDFBFFFF70B5051E28D000F071F8154B154A1B1AD21A1F2A16DD2C00134A0025D21A94405A052403240B520D002124030B0D240B1B052343AB
:405040000D4C1205234013435B002800590870BD0B212C00081AC440954024035A05240B520DE7E700220024E4E7C0461E0400003304000013040000FFFF0F808446101CB7
:4050800062468C46191C634600E0C0461FB500F001F9002801D40021C8421FBD10B500F055F84042013010BD10B500F0F3F8002801DB002010BD012010BDC04610B500F034
:4050C000E9F8002801DD002010BD012010BDC04610B500F07BF8002801DC002010BD012010BDC04610B500F071F8002801DA002010BD012010BDC0461C2101231B0498427E
:4051000001D3000C10391B0A984201D3000A08391B09984201D30009043902A2105C40187047C0460403020201010101000000000000000010B5002903D1FFF7DDFF2030F8
:4051400002E0081CFFF7D8FF10BDC046F0B55F4656464D464446F0B41F035C00DB0F9A46194B0E034D00C90F8046360B6D0D8B4691463F0B640D9D4219D0134B9C421BD02D
:405180000123A54206D018003CBC90469946A246AB46F0BDBE42F6D1C845F4D1D34510D0002DF0D1304303005A1E9341EBE7310001230143E7D1E0E73A430123002AE2D11A
:4051C000DEE70023DFE7C046FF070000F0B55F46444656464D46F0B41F033C0B2C4F0E034D00A3465C008446360B6D0DC90F9046640DDB0FBD422BD0254FBC422ED0002DA2
:405200000ED130430700814678427841002C17D15F463A4314D14B460020002B0AD006E0002C02D15846024301D099421AD00123484218433CBC90469946A246AB46F0BD70
:405240000028F2D058425841012240421043F1E737000743D0D002204042EBE75F461743CDD0F8E7A542E2DC05DB5E45DFD808D000205E45DED248424841012340421843F1
:40528000D8E7C445D3D80020C445F4D3D2E7C046FF070000F0B55F464D4644465646F0B41C03240BA4462F4C0F034D005E00C90F80463F0B6D0D8B469146760DDB0FA54251
:4052C00020D0284CA64222D0002D12D1384344424441002E20D0002C0DD05C42634101245B421C4320003CBC90469946A246AB46F0BD002E17D05B4519D05B465C420123FC
:405300001C43EFE7390002240143EBD1D9E7614602241143E6D1D7E761460A43DBD100240028DFD0E9E761460A43E4D1E5E7B54203DD01225C421443D4E7B542CDDB6745AE
:40534000DBD809D000246745CCD259464C426141012449420C43C5E7C845CED80024C845F3D3BFE7FF07000030B50024A24208D0035D651C0C5DA34201D0181B02E02C005D
:40538000F4E7002030BD002310B59A4203D0CC5CC4540133F9E710BD03008218934202D019700133FAE77047030030B5002A0DD00C7801335D1E013A2C700131002CF5D197
:4053C0009A189A4202D01C700133FAE730BD0000F8B5C046F8BC08BC9E467047F8B5C046F8BC08BC9E46704701B40248844601BC604700BF1D03000801B40248844601BC99
:40540000604700BF9D040008030000000100000001000000000000000503600004000000010000000000000001000000060460000800000014120008C101001073797374A5
:40544000656D5F70736F63365F636D30706C75732E6300000300180001000000F4010000280002010A00090008000000EB00000030000000000000000000000000006A0080
:405480000000000000000000000000000000000000000000080000000000000000000000006000BA0000000000000000000000000000000000001D1D02000000000000008E
:4054C0000000000060000000000000000000000000000000000000000000000047656E6572617465645F536F757263655C50536F43365C70646C5C647269766572735C7043
:4055000065726970686572616C5C737973696E745C63795F737973696E742E630000000047656E6572617465645F536F757263655C50536F43365C70646C5C64726976657F
:4055400072735C7065726970686572616C5C6970635C63795F6970635F6472762E68000047656E6572617465645F536F757263655C50536F43365C70646C5C6472697665BA
:4055800072735C7065726970686572616C5C6970635C63795F6970635F6472762E63000047656E6572617465645F536F757263655C50536F43365C70646C5C64726976657F
:4055C00072735C7065726970686572616C5C6970635C63795F6970635F706970652E630047656E6572617465645F536F757263655C50536F43365C70646C5C6472697665DD
:4056000072735C7065726970686572616C5C737973636C6B5C63795F737973636C6B2E630000000047656E6572617465645F536F757263655C50536F43365C70646C5C64A5
:405640007269766572735C7065726970686572616C5C737973636C6B5C63795F737973636C6B2E680000000047656E6572617465645F536F757263655C50536F43365C703A
:40568000646C5C647269766572732F7065726970686572616C2F6970632F63795F6970635F6472762E68000047656E6572617465645F536F757263655C50536F43365C7000
:4056C000646C5C647269766572735C7065726970686572616C5C6770696F5C63795F6770696F2E630000000047656E6572617465645F536F757263655C50536F43365C7003
:40570000646C5C647269766572735C7065726970686572616C5C6770696F5C63795F6770696F2E680000000047656E6572617465645F536F757263655C50536F43365C70BD
:40574000646C5C647269766572735C7065726970686572616C5C737973706D5C63795F737973706D2E63000047656E6572617465645F536F757263655C50536F43365C7068
:40578000646C5C647269766572735C7065726970686572616C5C70726F745C63795F70726F742E630000000000002040000024400000004000000000000023400000304051
:4057C0000000314000009F40000022400000104002020202020202020210101D800017007500FF030602063604102000000000007FC0000000040000000000000019324BF9
:40580000647D00804000080B100000000000FF012002001F00800004FF081018001000140018001C4044484C500000000810000008000000040000000410000000120000A6
:4058400004210000002100000016000040114002C41300138013A013200000001C0000000000214000002540000001400000344000002440000031400000324000001F41AB
:405880000000234000001140010101010101010101101010800019005500F0000501053B04101C01010000000FC000000004000001010101011D3A577896000820001012C7
:4058C00008000000001F00000010000F002000023F06080E00080009000A000B24282C3034000000100000009000000088000000080000008000000004F0000000F000004F
:40590000400200002005A000D00100018001A001200000001000000047656E6572617465645F536F757263655C50536F43365C70646C5C6D6964646C65776172655C626CB6
:40594000655C63795F626C655F68616C5F7076742E63000000000000000000000000000066666666000000000000FFFF000000001C1C1C1C1C1C1C1C0000000000000000A4
:405980000000000066E6EE66000000000000FFFF000000001C1A1A1A1A1A000000000000000000000000000066E66666000000000000FFFF000000001A1A001C0000000045
:4059C0007C010000310100000B0B01120C000000FF03000080ABCDABCD80409C1B04041BFFFFFFFF000000000410080007070400F216FBE0FBE01F60427EF56D720196BE67
:405A00002090000010502604060037D7F401FA00960064004B0032001E00140003040506020D1100B5F1001019F100101FF800107DF200102FF30010CBF70010E3F70010EA
:405A4000B5F80010A9F3001059F400108DF60010BBF6001003F90010B9F7001097F8001097F8001097F8001061F7001009F700104DF7001025300110313001101D40011051
:405A8000054101101141011079F20010B3F1001073F800102DF3001067F30010DBF70010FDF7001001F9001055F40010F5F40010A7F60010E1F600106FF90010C3F70010D0
:405AC00001F9001001F9001001F90010B1F7001001F9001001F9001001F9001001F9001001F9001001F9001001F900100C000800020017000D00010001000200090009003A
:405B00000100010006000200090018001800030001000100090009000300030005000000CB100110D3100110CF100110C9100110A7100110A3100110C1100110BF100110F8
:405B40009B1001109F100110D7100110C3100110BD100110DB100110DB10011099100110C710011091270110452B011009290110B5260110F11901109D160110312101109A
:405B8000CD1C0110FD11011061120110752C0110D5240110651C01101D160110BD200110A16C001085250110212D0110B53001102132011011330110ED2E01106D2D01100B
:405BC0003D3001104D2E01108F2E01109F2E0110A12E0110A52E011097F80010912E01109B2E0110992E011049440110113E01109143011041430110014401101D410110CD
:405C000029400110C140011075410110E1D50010DD430110353E0110293E01102F3E01102D3E0110333E01102B3E011097F8001097F8001097F8001019C40010313E0110DE
:405C4000BD5701109F5701109F5701109F570110D9570110659201109F570110559201106D9201105D9201105F5C0110575C0110C15B0110B95B0110AF570110975701109A
:405C80008D570110B3570110B15B0110E15B0110A7570110D95B0110395C01109F570110E95B0110D15B0110C95B01109F570110E1570110E9570110F1570110A35701109D
:405CC000A357011089720110497101104971011049710110BB7201104B720110497101102F720110FB72011045720110D5720110CB720110CB7001104971011049710110D5
:405D0000497101104F70011019720110757001109B720110C3710110D17101105D7101104971011011730110897101107B710110497101100572011049730110497101104E
:405D40004971011049710110B7750110E5740110E5740110E5740110DB75011061750110E5740110A9750110A975011053750110F1750110DF750110617401105D74011085
:405D800041750110F3730110E5730110E5730110F9730110BB7501101575011029750110E9740110E57401102576011001750110ED740110E5740110457501104176011051
:405DC0003D760110E5740110E574011008000000060F0020200107021900000007070E05020220001C1202000103000E032000800000C00000000004000000282200000053
:405E0000000000040000F7FFFF7F0000003000000000008000000000000000000000000000000000000000000000000000000000F1780110117A01109B7901105179011024
:405E40001F7A0110C3790110217901102D7A0110A77901104F790110317A0110BF790110397901101F7A0110B7790110237901101F7A0110AF790110677901103D7A0110C2
:405E8000CB7901106D7901104D7A0110D379011049710110E5740110A357011049710110E5740110A357011049710110E5740110A357011049710110E5740110A357011061
:405EC00049710110E5740110A357011049710110E5740110A357011049710110E5740110A357011049710110E5740110A35701107B790110657A0110DB790110497101107D
:405F0000E5740110A357011049710110E5740110A357011049710110E5740110A357011049710110E5740110A357011049710110E5740110A35701109D7A0110AD7B01108B
:405F4000537B01109B7A0110A17B01104B7B0110C37A0110E57B01105B7B0110997A0110957B0110437B011049710110E5740110A357011049710110E5740110A3570110DE
:405F800049710110E5740110A357011049710110E5740110A357011049710110E5740110A35701104D7C0110CB7C0110000000005B7C0110DF7C01104D420110697C011005
:405FC000097D01107D4201102D7C01108F7C0110113F01103B7C0110AD7C01102D3F0110303030314238303030313032303330343035303630373038303930413042304306
:4060000030443045304631303131313231333134313531363137313831393141314231433144314531463230323132323233323432353236323732383239324132423243F2
:406040003244324532463330333133323333333433353336333733383339334133423343334433454142000026002B00300036003C0043004B0055005F006A007700860043
:406080009600A800BD00D400EE000B012B014F017801A601DA01130254029D02EE024A03B1032404A5043605D9058F065C0742084409650AAA0B160DAF0E79107C12BD1440
:4060C00045171C1A4B1DDE20C83F0010963E00109C3F00108C3E00109C3F0010A63F00109C3F00108C3E0010963E0010963E0010A63F00108C3E0010823E0010823E00100C
:40610000823E0010F8410010F4450010B4440010B4440010B2440010CC450010CC450010BE450010B2440010CC450010BE450010CC450010B2440010D4450010D4450010DF
:40614000D4450010D447001000000000FEB5074600256846058078683C1D34492E46002807D06268002A06D0800702D1207A800701D00D4658E0FDF721F8FDF741F80190DE
:40618000FDF756F8FCF78EFF0198FDF73DF8FDF735F800F031F900283ED1403738790006C00F00F0A9F905460004000C34D12049084600F057FF0004000C2DD12289A17A29
:4061C00020681C4C002806D02060A280E68021810021FFF7E1F8684601F0DCFD054616486B460079E2888000001DC1B21B88A088D418A04206D3C01A801A80B201F074FADB
:40620000044600E00D4C00F0E1FD002C04D100F0B5FB0B480121817000F0FCF8002D03D001F050FC064806702846FEBD01001600CD630010B812000816130008FFFF0000A0
:406240000401000810B5094CA07801280AD06078012806D12078002803D101F00EFC0020607010BD01F0C2F810BD00000401000810B5FCF72FFF032801D100F099FE00F0D9
:4062800015FA01F00BFE00F01FFF02490020887010BD00000401000800487047B812000870B5044600208A0703D08A07920F891A091D084B89B2DA889E885518B54206D873
:4062C0001D68AA182260DA885118D98070BD024870BD0000B81200080300160000487047C41200080749002809D0FF216E31818005210170002141700A2181700021084640
:40630000704700000100160010B5FFF79BFF10BD10B501F027FE10BD10B501F0F5FC10BD38B50546002069460880002D09D0284601F006FE0446684601F020FD002C02D055
:4063400015E00C4838BD01F0D7FC2846FFF7FEFE04000CD1284601F06DFD040007D1FCF7B9FE032803D100F0E9FD00F037FE204638BD00000100160038B504460020694619
:406380000880002C08D0A18D090A05D1617A102902D8E179102901D90A4838BDE0856946204601F093FD05466946E08D09884018E085002D04D1322221460348FEF7E3FF09
:4063C000284638BD01001600C41200087047000010B5084900200978002909D006F018FA044606F0DBF8201A80B281004018C00810BD00000C01000810B5FDF7C7F84822E9
:4064000002490348FEF7BFFF002010BDC4590010F612000810B5FCF705FFFCF731FE10BD10B51A46034C01F0EBFA002800D00024204610BDFFFF000010B501F0B1FB10BD78
:4064400010B501F00FFB10BD010010B5044806D0044A01201070002008F06CF9002010BDFFFF00000C01000870B50024034D20462C7008F08DF92C70204670BD0C010008DE
:4064800001480078704700000C01000870B5591C89B24C080B4D64000021451906E028685054000A5618891C707089B2A142F6D3D80705D0D0182038D15CC47FD454C17729
:4064C00070BD000000103C4030B50A4C002100195B1E07E054186478555C240225430560891C89B29942F5DB994201D1515C016030BD000000103C40F1B590B0FF2000F06E
:406500001BFA254FFF2078702448254900684018406B3C1D400F01260025022801D0667000E06570FCF7D6FD032819D026701A48801C4570FFF7D2FE0446162281180A34CA
:406540006846FEF720FF2222214607A8FEF71BFF07A90EC9109812F0CBFE040002D017E02570E4E712F01AFF3870012000F0E4F912F01EFF68460576457606A813F0BCFAAE
:406580006846467606A813F0B7FA06A801F096FC204611B0F0BD00000D0100080801000840F03D40F0B50021094D5B1E08E0441924685718260A7E705454001D891C89B29E
:4065C0009942F4DB994202D1401900685054F0BD00103C4070B500210A4E5B1E09E0541864782502545C2C4385192C60001D891C89B29942F3DB994202D1515C80190160F2
:4066000070BD000000103C40F0B50599091FCFB200217E1E0AE054186478555C24022543144C04192560001D891C89B2B142F2DBFC0710D01C78515C24020E4A0C4381183E
:406640000C609C785D782102001D294384182160001DD9780BE059781A7809021143054A84182160D978001D9B780902194380180160F0BD00103C4038B50B480024447043
:4066800012F096FE69460C704C70684613F034FA012069464870684613F02EFA684601F00DFC002038BD00000F01000810B501F023FB0A480078012805D1FDF7CBF80128CB
:4066C00009D013F007FB05490020891E0870062000F032F910BD13F0E7FAF4E70F01000810B50B460B281BD00ADC012811D0032813D0062803D11146184613F069F910BD2F
:40670000112811D01228FAD111461846FCF7A0FC10BD0020FFF7F0FE10BDFFF7ADFF10BD04480078107010BD11461846FCF780FC10BD000011010008F8B5184D184E2868C5
:406740008019846AE00719D001F012FB0127012811D1002001F0EEFB052000F0EDF81149FF204870881C4078002804D128688019416B39434163286880198762E0050CD546
:406780000848801C0078052802D1042000F0D4F8FF202968013089198862F8BD0801000840F03D400D0100080549002805D005494A7842700978017000210846704700007A
:4067C000010016001101000838B504000C4816D06178012913D801F08FFA607813F040F9207000280AD169460870684600F096F869460878012801D104202070002038BDE8
:406800000100160010B5094900280CD00278082A09D24278042A06D205494A700078087012F0C6FD0021084610BD0000010016001101000810B504460448032C05D801F05D
:406840005BFA204613F018F9002010BDFFFF160010B5040008480ED0617801290BD801F04BFA204613F048F96078012802D1204601F024FB002010BD0100160010B5FCF785
:40688000E9FF0122084992040028084B086804D0C018016A1143016210BDC018016A9143016212F0E7FC10BD0801000880F03D400949087805280ED14A780848084900688D
:4068C0004018002A03D1416B490849004163C16A01221143C16270470F0100080801000840F03D4001480078704700000F01000802484078022800D0012070470D0100088C
:40690000012807D0032807D0042803D0052803D0FF207047012070470220704710B5040002D012F0DFFC207010BD000001494870704700000F01000870B50446FCF760FC6B
:406940000546FCF775FCFCF7ADFB2846FCF75CFC062C01D9FF2C01D103480470FCF762FCFCF78EFB70BD00000F01000801494870704700000D010008002070471CB500249F
:4069800069460C700A2001902346054A054800F059FA04480068401C00D1034C20461CBDF169001014010008FFFF00003EB50F4A01460D4800230124126800290BD00129DD
:4069C00008D168460093048143816946104600F034FA80B23EBD68460093048143816946104600F025FAF4E7FFFF00001401000810B50089002100280BD0012802D00528B6
:406A000007D103E000200EF0F1FA02E0084600F047F9002010BD000010B50248006800F0C7FC10BD14010008FFB581B01F001546064644D001F060F9FCF7E2FB0446FCF71B
:406A4000F7FBFCF72FFB2046FCF7DEFB3649374B4878401CC0B2044606E02201D218127A202A2AD0641CE4B2202CF6D3002406E02201D218127A202A1FD0641CE4B2844256
:406A8000F6D32024202C1AD03470029828490202120A200602432001C61872601F50224869180078009120280CD0FFF791FC0746BD4225D3281AF0601BE04C70E2E71D48C3
:406AC00005B0F0BD1A484042854207D9FFF7BCFC014618488142F3D0009807E0A8B2FFF7B3FC014613488142EAD01BE0F0600E4804703472FCF796FBFCF7C2FA0020DFE75D
:406B0000FFF7B2FC781B012100F078F9084840428542DBD8A8B2FFF797FC0649884201D10846CDE70020E1E71801000840130008C063FFFFFFFF000070B5074CA5780D2D2D
:406B400007D2FFF771FF002802D1A178491CA17070BD024870BD000018010008FFFF000070B5074CE578002D01D0064870BDFFF75BFF0028FAD1E178491CE17070BD0000BC
:406B800018010008FFFF0000F8B520280BD22D4D07017C19207A202805D001F0ADF8E068002802D045E00120F8BDFCF729FB0546FCF73EFBFCF776FA2846FCF725FBFFF7DB
:406BC00007FC012100F01AF900201E4EE060FFF74BFCFCF727FBFCF753FA00F0DDF80546202823D0FCF70CFB0090FCF721FBFCF759FA0098FCF708FB280186191248F168DC
:406C0000814205D90646FFF71FFC0021304604E088B2FFF719FC0021F06800F0EFF8FCF701FBFCF72DFA0948057002E00749202008702020034920720020C8516060E06036
:406C4000F8BD000040130008409C00001801000810B5074CA178002908D0FFF795FF002802D1A078401EA070002010BD014810BD18010008FFFF000010B5074CE17800290E
:406C800008D0FFF781FF002802D1E078401EE070002010BD014810BD18010008FFFF0000F0B500258BB02E46089501F025F800236A4618463549040161180C7A202C02D06E
:406CC000C96800291DD000211154401CC0B22028F0D300240993099800280FD06846005D00284DD029482101081806684168089100210160202241600272C160002D04D0D8
:406D00003AE0012111540B46DFE700F045F8054620282BD01D4829010818C7681C4887420FD90021074600F069F8FCF769FA0A90FCF77EFAFCF7B6F90A98FCF765FA3846BF
:406D40000EE00021384600F059F8FCF759FA0A90FCF76EFAFCF7A6F90A98FCF755FAB8B2FFF772FBFCF75EFAFCF78AF9094805700998002808D00125002E01D00898B047E3
:406D8000641CE4B2202CA6D30BB0F0BD40130008409C00001801000830B50023DB432020094C00210A011219157A202D06D0D268002A03D09A4201D808461346491CC9B201
:406DC0002029EFD330BD00004013000830B50020084C05462023020111190B72A550401C4D60C0B2CD602028F5D303480370457030BD0000401300081801000830B50B4DE9
:406E000000231A015219147A202C0AD0D468002901D0241804E0844201D9241A00E00024D4605B1CDBB2202BEBD330BD4013000810B50EC900F0D4FA10BD10B50EC900F081
:406E400011FB10BD38B50024E443054600290AD0052000904B68097804A000F065FA2860401C00D00024204638BD00007461736B000000000EB5002005216A460090118116
:406E80005081034869460068FFF7D7FF0EBD00001401000810B51C481C4C0178491E0170FF206070FCF720F9002823D0FCF7CCFC01460020FCF722F9FCF776F9401C0228DB
:406EC00011D86288124882420AD0124B0021601CFFF746FE002803D00D2011F08AF910BD0220207010BDFF20F530FCF7C5F800F075F810BD0548084B02220021401CFFF746
:406F00002FFE0028E8D110BD1B0100081C010008FFFF0000556F0010956E001010B503480078042801D100F059F810BD1C01000801480078704700001C0100080448002185
:406F40000170FF214170FF21F5314180704700001C01000806490878401E087005480178012901D003210170FF214170704700001B0100081C01000810B505490878401E2F
:406F800008700449FF20487000F028F810BD00001B0100081C01000801494880704700001C01000801490870704700001C01000810B5054C6078FF2803D000F007F8FF208D
:406FC00060700020207010BD1C01000810B502484078FFF751FE10BD1C01000810B5114C6078FF2801D0FFF7F1FFFF22043280210820FCF787F8002809D00B4B022208E054
:407000000120207010BD0D2011F0F3F810BD074B052204480021401CFFF7A2FD0028F2D1EEE700001C010008796F0010956E0010C0080A21484380B20849C82801D2084811
:4070400009E002461923C83A5B019A4201D2400801E0FF20F5304880704700001C010008FFFF000010B50F4A002313600E4A13600E4B18600E4801600E49012008600E4949
:407080000860882090600E490C4808600D49143008609C38506000F0CBF800F007FA002010BD000038010008200100084C010008500100083C0100082C010008C81500082F
:4070C000300100084401000800207047014610B50020002910D0094B1A689C685118A14209D25868196080188A0704D08A07920F891A091D196010BD002010BD2001000870
:40710000F8B50024164E671E321F3D463168136806E01422624310328A58521C1BD0641C9C42F6D36A1C14D02C461422544322460C3288500C214843FFF7C8FF31680028EB
:4071400008510AD031680020103408517068401C70602846F8BD2546E4E73846F8BD000030010008F3B50026F64381B0002825DB24490968884221D8029900291ED0214F9A
:40718000142204463F1D54432546396810354859401C13D0FCF734F80090FCF749F8FBF781FF0098FCF730F838682F1F4159C359994205DBFCF736F8FBF762FF3046FEBD1F
:4071C000214608310091465801590C20704308180C220299FEF7D7F80A48761C001D0068C159B14200D100260649009A091D865008684159491C4151FCF714F8FBF740FF57
:407200000020FEBD2C010008002803DB07490968884202D90020C043704704491422091D0968504310300858704700002C010008F0B500200D4A451E0346171F50600FE022
